:1000000066C1000085C1000083C1000081C10000FD
:100010007FC100007DC100007BC1000079C10000EC
:1000200077C1000075C1000073C1000071C10000FC
:100030000C94BA086DC100006BC1000069C10000DA
:1000400067C1000065C1000063C1000061C100001C
:100050005FC100005DC100005BC1000059C100002C
:1000600057C100000C945B290C94AD2951C10000CC
:100070004FC100004DC100004BC1000049C100004C
:1000800047C1000045C1000043C1000041C100005C
:100090000C94F1290C94432A3BC100000C948E2E41
:1000A00037C1000035C1000033C1000031C100007C
:1000B0002FC100002DC100002BC1000029C100008C
:1000C00027C1000025C1000023C100000C94872A2D
:1000D0000C94D92A1DC100000C941D2B0C946F2B7D
:1000E00017C10000941E941E941ECB1ED31EE81E42
:1000F000941E941ECB1ED31EB02E202F202F202FF7
:10010000202F202F202F202FB02E202F202F202FE8
:10011000202F202F202F202FB22E202F202F202FD6
:10012000202F202F202F202F202F202F202F202F57
:10013000202F202F202F202FB22E202F202F202FB6
:10014000202F202F202F202F202F202F202F202F37
:10015000202F202F202F202F1C2F202F202F202F2B
:10016000202F202F202F202FE72E202F202F202F51
:10017000202F202F202F202F202F202F202F202F07
:10018000202F202F202F202FDB2E202F202F202F3D
:10019000202F202F202F202FFF2E6E616E00696EE2
:1001A000660000407A10F35A00A0724E1809001041
:1001B000A5D4E80000E87648170000E40B540200DC
:1001C00000CA9A3B000000E1F50500008096980007
:1001D000000040420F000000A08601000000102730
:1001E00000000000E80300000000640000000000C0
:1001F0000A00000000000100000000002C76D888F2
:10020000DC674F0823DFC1DFAE59E1B1B796E5E304
:10021000E453C63AE651997696E8E6C28426EB891D
:100220008C9B62ED407C6FFCEFBC9C9F40F2BAA5BA
:100230006FA5F490055A2AF75C936B6CF9676DC152
:100240001BFCE0E40D47FEF520E6B500D0ED902E56
:100250000300943577050080841E080000204E0AB4
:10026000000000C80C333333330F986E12831141F2
:10027000EF8D2114893BE65516CFFEE6DB18D184BD
:100280004B381BF77C1D901DA4BBE42420328472E4
:100290005E228100C9F124ECA1E53D270E94D51022
:1002A00080915E17823008F09FD60E94111FF6CF12
:1002B000CF93DF931F92CDB7DEB7CE0101960E9498
:1002C000111C49810E94061E0E945D1EF6CF11245A
:1002D0001FBECFEFD1E2DEBFCDBF00E00CBF19E003
:1002E000A0E0B2E0E2E8F1E700E00BBF02C0079057
:1002F0000D92A433B107D9F729E1A4E3B9E001C015
:100300001D92A735B207E1F70E94F8210C94BF387F
:1003100077CECF93DF93CDB7DEB76A970FB6F89459
:10032000DEBF0FBECDBF0E94261269837A838B8306
:100330009C8348EA58E460E070E0CE0101960E9498
:100340003C1445E050E060E070E0809147199091E6
:10035000481995D3CC24CA94DC2C760101E021E025
:100360004AE050E060E070E08091451990914619B4
:10037000E6D2DC01CB018A709927AA27BB27892BFB
:100380008A2B8B2BB1F20E9434200E94351F0E94D1
:1003900039200E943A1F0E94AB1F0E943F1F4AE073
:1003A00050E060E070E080914319909144190E9400
:1003B000860B813079F44BD00E94441F00E020E08E
:1003C00030E0A90160E070E08091431990914419F8
:1003D0000E940C0A62E0CE0105960E94471F0FEFB3
:1003E0001FEF980146E150E0BE016B5F7F4F8091A7
:1003F000491990914A190E94F80D863109F499CF54
:100400008FE692E00E94023894CFEF92FF920F9312
:10041000E12CF12C082F20E030E040EC50E06AE7BE
:1004200072E089E891E00E949C110F91FF90EF909B
:100430000895873F30F090913409892380933409DF
:10044000089590913409892B8093340908958091FF
:10045000340908958091390990913A09089590934B
:100460003A098093390908958091370990913809A4
:10047000089590933809809337090895809135093C
:10048000909136090895909336098093350908951F
:100490004F925F926F927F928F929F92AF92BF9294
:1004A000CF92DF92EF92FF920F931F93CF93DF9340
:1004B000CDB7DEB78E8990E0982F88272F89822BC1
:1004C000A88CB12CBA2CAA24298DA22A6A8C712C52
:1004D000762C66242B8D622ACC8CD12CDC2CCC245F
:1004E0002D8DC22A0E8D10E0102F00272F8D022B8C
:1004F000E8A0F12CFE2CEE2429A1E22A0F2EFAE02E
:100500008F2E912CF02DB4010E94E034562E472EF0
:10051000862F972FA4DFC501B4010E94E034962EE8
:10052000872E9301ADECBCEC0E941D355C01B694A6
:10053000A794B694A794B694A794C5019ADF9601A0
:10054000ADECBCEC0E941D356C01D694C794D694DA
:10055000C794D694C794802F912F95DFFF92EF9286
:100560001F930F93DF92CF92BF92AF928F929F9281
:100570004F925F928AE892E09F938F930E94EE37AA
:100580000FB6F894DEBF0FBECDBFDF91CF911F91A4
:100590000F91FF90EF90DF90CF90BF90AF909F9022
:1005A0008F907F906F905F904F9008950FEF1FEFA7
:1005B000980146E150E06BE379E080914B1990910E
:1005C0004C190E94010F882389F3EBE3F9E0918134
:1005D00080811F929F931F928F938CEB92E09F9349
:1005E0008F930E94EE3780914319909144190F9098
:1005F0000F900F900F900F900F900097B9F24AE074
:1006000050E060E070E00E94860B813039F58DB7D4
:100610009EB746970FB6F8949EBF0FBE8DBFADB77D
:10062000BEB7119686E1EBE3F9E001900D928A9551
:10063000E1F72EDF00E020E030E0A90160E070E0AB
:100640008091431990914419E7D68DB79EB746968D
:100650000FB6F8949EBF0FBE8DBFA8CF8EEE92E06E
:100660000E940238A3CFEF92FF920F93E12CF12C5E
:10067000082F20E030E048E851E069E073E086EDC3
:1006800092E00E949C110F91FF90EF900895EF92DD
:10069000FF920F939FEF91B992B9E12CF12C082FA3
:1006A00020E030E040EC50E068E173E084EA93E061
:1006B0000E949C110F91FF90EF9008959B016AE0BA
:1006C00070E00E94E0342617370754F464E680E0B7
:1006D0000E948D2082B18E7F82B981E0AACE0895DA
:1006E0006CE980E00E948D2082B1816082B98EEF3A
:1006F000A0CE0895AB019C01ADECBCEC0E941D3571
:100700009695879596958795969587954817590755
:1007100030F482B18D7F82B982E08BCE089582B1B0
:10072000826082B98DEF85CE08956817790730F41D
:1007300082B18B7F82B984E07CCE089582B18460DF
:1007400082B98BEF76CE0895CF93DF9300D01F92BE
:10075000CDB7DEB70E94261269837A838B839C8390
:10076000612C712C812C912CA12CB12C46E351E0F1
:1007700060E070E0CE0101960E943C144AE050E037
:1007800060E070E08091431990914419BFD78130A7
:1007900089F460DE5C0168DE4C0170DE3C0100E043
:1007A00020E030E0A90160E070E080914319909171
:1007B000441932D645E050E060E070E0809147197E
:1007C000909148195CD1CC24CA94DC2C760101E0CC
:1007D00021E04AE050E060E070E08091451990919E
:1007E0004619ADD0DC01CB018A709927AA27BB2717
:1007F000892B8A2B8B2B09F4B9CF0E9434207C01E2
:100800000E9439208C010E94AB1FC82ED92E7F92E6
:100810006F929F938F939F928F929801ADECBCEC57
:100820000E941D35969587959695879596958795FF
:100830009F938F93BF92AF92C7016AE070E00E94CE
:10084000E0347F936F9386E293E09F938F930E94AF
:10085000EE370FB6F894DEBF0FBECDBFA114B104C2
:1008600031F48114910419F46114710479F14AE0AE
:1008700050E060E070E0809143199091441946D7B0
:10088000813009F073CFB501C70118DFB401C80189
:1008900031DFB3018C2D9D2D48DFD9DD1F928F9361
:1008A00085E593E09F938F930E94EE3700E020E070
:1008B00030E0A90160E070E0809143199091441903
:1008C000ABD50F900F900F900F9050CF81E693E033
:1008D0000E9402384BCF0F9301110CC0DC01CB01F9
:1008E00082239323A423B523892B8A2B8B2B79F482
:1008F00080E010C0DC01CB0182239323A423B52325
:10090000281739074A075B0721F080E003C081E020
:1009100001C081E00F910895CF93DF938FE090E0C5
:10092000AFD1EC01009739F0FC01119211921192B4
:100930001192CF018BD2CE01DF91CF9108952F92EA
:100940003F924F925F926F927F928F929F92AF925F
:10095000BF92CF92DF92EF92FF920F931F93CF93AC
:10096000DF93EC014A015B01622E702E0E9420127F
:10097000288039804A805B80A5019401C201B101C1
:10098000AADF8823A1F0662089F1D501C4018095F2
:100990009095A095B09582219321A421B5218883BB
:1009A0009983AA83BB83C12CD12C760122C0C114A8
:1009B000D104E104F104E9F0611004C040E050E02A
:1009C000BA0104C040E050E060E071E07110746072
:1009D000482959296A297B2997018601CE01049665
:1009E0000E943815212C312C210103C0C12CD12C9F
:1009F00076010E946013CD28CE28CF2859F18111AD
:100A000001C0F2D20E94FA186B017C0191FD1FC057
:100A10000FB6F8940F92C880D980EA80FB80072D2A
:100A2000A5019401C701B60156DF882371F0662045
:100A300061F080949094A094B0948C209D20AE207E
:100A4000BF2088829982AA82BB820F900FBE1601B6
:100A500027015524C201B101DF91CF911F910F9160
:100A6000FF90EF90DF90CF90BF90AF909F908F90CE
:100A70007F906F905F904F903F902F9008954F928E
:100A80005F926F927F92AF92BF92CF92DF92EF927E
:100A9000FF920F931F93CF93DF93EC016A017B01C9
:100AA0008C01095F1F4F0E942012EB85FC85888115
:100AB0009981AA81BB81C82AD92AEA2AFB2AC8823D
:100AC000D982EA82FB82C12CD12C76013DC0A48060
:100AD000B58080819181A281B381AC01BD0177276E
:100AE000B2FD0EC0488059806A807B804422552226
:100AF0006622772245284628472889F420E012C03C
:100B0000488059806A807B80442255226622772261
:100B1000441555056605770521F020E003C021E066
:100B200001C021E0222371F0B0FF04C0C42AD52AFD
:100B3000E62AF72A488159816A817B817260CF0158
:100B40000E947316EA2DFB2DE017F10709F0BFCFC5
:100B5000C094D094E094F09488819981AA81BB815B
:100B6000C822D922EA22FB22C882D982EA82FB82E9
:100B70000E946013688179818A819B81DF91CF9186
:100B80001F910F91FF90EF90DF90CF90BF90AF90AB
:100B90007F906F905F904F900895EDE5F9E0A1E6AA
:100BA000B9E0B183A08313821282E9E0F7E1F09308
:100BB0005C09E0935B09138212821182108288EA39
:100BC0009DE013969C938E931297ED93FC939093D4
:100BD00058098093570990935A098093590980E0E6
:100BE00090E890935209809351090895CF93DF9331
:100BF000EC01ADE5B9E001C0DF01ED91FC91119789
:100C0000EC17FD07C8F312968D919C9113979D01E7
:100C1000280F391FC217D30749F42A813B81820F5D
:100C2000931F13969C938E931297ED018A819B815B
:100C30009E01280F391FE217F307C1F420915B09C9
:100C400030915C09E217F30771F022813381820F42
:100C5000931F9B838A83ED91FC91119780819181F1
:100C60009983888305C03983288302C0F983E88388
:100C7000CA17DB0711F0CD93DC93DF91CF91089574
:100C8000EF92FF920F931F93CF93DF938C010E94FB
:100C9000201280915B0990915C09892B09F47DDF1A
:100CA000809151099091520980239123892B09F059
:100CB00076C00115110549F0C801049608171907F7
:100CC00018F000E010E001C08C010115110509F4D5
:100CD00069C08091590990915A098017910708F4C9
:100CE00064C0C0915D09D0915E09EDE5F9E002C0F4
:100CF000FE01EC018A819B818017910720F4888195
:100D000099810097A9F780915B0990915C09C817B8
:100D1000D90709F44DC0E080F18084E0E80EF11CB1
:100D200088819981918380832A813B81201B310BAB
:100D30002930310548F0CE01800F911FFC0133832B
:100D400022831B830A8352DF2A813B8180915909C8
:100D500090915A09821B930B90935A0980935909D9
:100D600040915709509158098417950720F49093A2
:100D70005809809357098091510990915209282B65
:100D8000392B3B832A8319821882809155099091CF
:100D90005609019690935609809355090BC0E12C92
:100DA000F12C08C0E12CF12C05C0E12CF12C02C083
:100DB000E12CF12C0E946013E114F10411F40E9463
:100DC0001D1FC701DF91CF911F910F91FF90EF90F1
:100DD00008950F931F93CF93DF93009791F1EC0148
:100DE00024974A815B812091510930915209BA01BF
:100DF00062237323672B29F168817981672B09F5B9
:100E000020953095242335233B832A830E9420128A
:100E10008A819B812091590930915A09820F931F31
:100E200090935A0980935909CE01E0DE80915309CD
:100E300090915409019690935409809353090E940C
:100E40006013DF91CF911F910F910895FC010396DC
:100E5000928381834FEF5FEFBA01438354836583AD
:100E60007683908787839287818710820895FC011B
:100E70001386128608950F931F93CF93DF93EB0190
:100E8000088119812A813B810F3F4FEF1407240706
:100E9000340721F4FC01A185B28511C0DC01139651
:100EA00001C0DF011496ED91FC91159740815181AD
:100EB00062817381041715072607370790F7149688
:100EC000ED91FC911597FD83EC83D783C683BF8397
:100ED000AE831596DC93CE9314979B878A87FC018B
:100EE00020812F5F2083DF91CF911F910F91089573
:100EF000CF93DF93FC01A285B385C481D581868120
:100F000097819F838E83C681D781848195819D83BC
:100F10008C8311968D919C911297E817F90731F403
:100F20008681978112969C938E93119713861286D1
:100F30008C9181508C938C91DF91CF910895A895DD
:100F400090EC88E10FB6F894A895809360000FBEEE
:100F5000909360000895FC0160833197708331970E
:100F6000108231971082319720E8208331971082C8
:100F70003197108231971082779740833197508351
:100F800086970895DCDFA091CC17B091CD17CD9155
:100F9000CDBFDD91DEBFFF91EF91DF91CF91BF918A
:100FA000AF919F918F917F916F915F914F913F9101
:100FB0002F911F910F91FF90EF90DF90CF90BF90F6
:100FC000AF909F908F907F906F905F904F903F90E9
:100FD0002F901F900F900CBE0F900BBE0F900FBE66
:100FE0000F90089581E008950F920FB6F8940F9234
:100FF0000BB60F920CB60F921F9211242F923F92B4
:101000004F925F926F927F928F929F92AF92BF9218
:10101000CF92DF92EF92FF920F931F932F933F9304
:101020004F935F936F937F938F939F93AF93BF93F0
:10103000CF93DF93EF93FF93A091CC17B091CD178F
:101040000DB60D920EB60D920E94BC14A091CC1755
:10105000B091CD17CD91CDBFDD91DEBFFF91EF9166
:10106000DF91CF91BF91AF919F918F917F916F91C0
:101070005F914F913F912F911F910F91FF90EF90B2
:10108000DF90CF90BF90AF909F908F907F906F90A8
:101090005F904F903F902F901F900F900CBE0F903D
:1010A0000BBE0F900FBE0F9008950F920FB6F894DD
:1010B0000F920BB60F920CB60F921F9211242F9223
:1010C0003F924F925F926F927F928F929F92AF92D8
:1010D000BF92CF92DF92EF92FF920F931F932F93C5
:1010E0003F934F935F936F937F938F939F93AF93B0
:1010F000BF93CF93DF93EF93FF93A091CC17B09161
:10110000CD170DB60D920EB60D9213BE0E9434127D
:1011100081110E94BC14A091CC17B091CD17CD9134
:10112000CDBFDD91DEBFFF91EF91DF91CF91BF91F8
:10113000AF919F918F917F916F915F914F913F916F
:101140002F911F910F91FF90EF90DF90CF90BF9064
:10115000AF909F908F907F906F905F904F903F9057
:101160002F901F900F900CBE0F900BBE0F900FBED4
:101170000F9008959ADF1895DC0153962C915397A0
:10118000222341F05A96ED91FC915B9790818AE081
:10119000891B089580E008950FB6F8940F92FC0122
:1011A000868D811102C081E001C080E00F900FBEEA
:1011B00008950FB6F8940F92FC01268D878D2813A1
:1011C00002C081E001C080E00F900FBE08950F9330
:1011D0001F93CF93DF93EC01042F1E8D48A1411183
:1011E0000CC088819981892B09F042C08C819D8136
:1011F0000E9438181D821C8242C0011117C050E0A5
:101200008A819B810E94483728A18A819B81820F15
:10121000911D9B838A832C813D818217930750F116
:10122000888199819B838A8380E029C050E08E81E8
:101230009F810E94483788A190E0919581959109FE
:101240002E813F81280F391F3F832E83488159818A
:101250002417350730F42C813D81820F931F9F8323
:101260008E83023049F4112349F0115080E007C009
:1012700080E005C080E003C080E001C080E01F5F27
:101280001E8FDF91CF911F910F910895FC0140A116
:101290004423A9F050E026813781240F351F37837E
:1012A0002683848195812817390720F080819181D8
:1012B00097838683CB01668177810C9448370895A4
:1012C0001F93CF93DF93EC010FB6F8940F921AA1FE
:1012D0000BC08B89882351F0CE0143960E94C41520
:1012E00081110E949A17115011169CF38FEF8AA357
:1012F0000F900FBE0FB6F8940F9219A10BC08885FE
:10130000882351F0CE0108960E94C41581110E94D5
:101310009A17115011169CF38FEF89A30F900FBEEF
:10132000DF91CF911F910895CF93DF93EC010FB61A
:10133000F8940F92E881F9818F8D28A190E030E038
:10134000829FA001839F500D929F500D11244E0F3C
:101350005F1F5D834C831E8EFB83EA830197289F6A
:10136000A001299F500D389F500D1124CF01840FEB
:10137000951F9F838E838FEF89A38AA361110BC072
:101380008885882371F0CE0108960E94C4158823B1
:1013900041F02ADE06C0CE01089658DDCE01439604
:1013A00055DD0F900FBE81E0DF91CF9108950F932F
:1013B0001F93F801611103C01183008302C05183A0
:1013C0004083878F60A361E0CF01AEDF1F910F9153
:1013D0000895DF92EF92FF920F931F93CF93DF93C5
:1013E000F82EE62ED42E869FC0011124839648DC69
:1013F000EC01009741F08C012D2DAC014D5D5F4F4C
:101400006E2D8F2DD4DFCE01DF91CF911F910F91E3
:10141000FF90EF90DF900895CF92DF92EF92FF92CE
:101420000F931F93CF93DF93CDB7DEB729970FB6F6
:10143000F894DEBF0FBECDBF7C016B012E833F83CE
:101440004887598710E00FB6F8940F92F701968DF0
:10145000878D981710F00230B1F4402FB601C70104
:10146000B6DEF7019389992341F0C70143960E94A4
:10147000C415882321F0B8DD02C08111B5DD0F90BD
:101480000FBE81E04CC08E819F81A885B985892BD4
:101490008A2B8B2B21F40F900FBE80E040C01111DE
:1014A00005C0CE0101960E94231711E00F900FBED8
:1014B000C7D70FB6F8940F92F70181A18F3F09F4B7
:1014C00011A2F70182A18F3F09F412A20F900FBE63
:1014D000BE016A5F7F4FCE0101960E9434178111D1
:1014E00019C0C70166DE882381F04E815F8168855F
:1014F0007985C70108960E942115C701E1DE0E9487
:1015000060138111A0CF70DD9ECFC701D9DE0E948C
:10151000601399CFC701D4DE0E94601380E0299642
:101520000FB6F894DEBF0FBECDBFDF91CF911F91F4
:101530000F91FF90EF90DF90CF9008950F93009759
:1015400069F0FC011582148211821082168200E07B
:1015500020E030E0A90160E070E05EDF0F910895C7
:10156000CF93DF93482F60E081E033DFEC01E6DFCB
:10157000CE01DF91CF910895EF92FF920F931F93C9
:10158000CF93DF938A01FC01568D378D531710F0EE
:101590002230F9F4422F7801EC011AA18E8DCE0190
:1015A00016DE1F3F81F48B898823A9F0CE01439674
:1015B0000E94C415882389F0E114F10481F081E0D0
:1015C000F70180830DC0FF24F394F10EFAA281E0AD
:1015D00007C080E005C081E003C081E001C081E078
:1015E000DF91CF911F910F91FF90EF900895CF92CF
:1015F000DF92EF92FF920F931F93CF93DF93CDB7BC
:10160000DEB729970FB6F894DEBF0FBECDBF8C01B1
:101610006B012E833F8348875987E12C0FB6F894DE
:101620000F92F801F68CFF2099F0B601C8012EDE6A
:10163000FA94F801F68E8085882331F0C801089667
:101640000E94C4158111D0DC0F900FBE81E04FC005
:101650008E819F81A885B985892B8A2B8B2B21F4BC
:101660000F900FBE80E043C0E11006C0CE0101968E
:101670000E942317EE24E3940F900FBEE1D60FB61D
:10168000F8940F92F80181A18F3F09F411A2F8019B
:1016900082A18F3F09F412A20F900FBEBE016A5FB4
:1016A0007F4FCE0101960E943417811117C0C801E7
:1016B00073DD882379F04E815F8168857985C80163
:1016C00043960E942115C801FBDDFAD78111A6CFF0
:1016D0008BDCA4CFC801F4DDF3D7A0CFC801F0DDC7
:1016E000EFD7C80159DD882309F498CF80E0299607
:1016F0000FB6F894DEBF0FBECDBFDF91CF911F9123
:101700000F91FF90EF90DF90CF900895EF92FF92AE
:101710000F931F93CF93DF93CDB7DEB729970FB603
:10172000F894DEBF0FBECDBF8C014E835F83688708
:101730007987E12CF12C0FB6F8940F92F801868D81
:101740008823C9F08150868F80819181892B29F46B
:101750000E942419F80195838483F80180858823E9
:1017600031F0C80108960E94C41581113DDC0F902C
:101770000FBE81E06FC08E819F81A885B985892BBE
:101780008A2B8B2B21F40F900FBE80E063C0F110E9
:1017900006C0CE0101960E942317FF24F3940F90F8
:1017A0000FBE4ED60FB6F8940F92F80181A18F3F6D
:1017B00009F411A2F80182A18F3F09F412A20F903F
:1017C0000FBEBE016A5F7F4FCE0101960E943417A3
:1017D000811126C0C801E0DC8823F1F0F801808186
:1017E0009181892B51F40FB6F8940F9284819581E1
:1017F0000E94B117E82E0F900FBE4E815F81688561
:101800007985C80143960E942115C80159DD58D732
:10181000811191CFE9DB8FCFC80152DD51D78BCF3A
:10182000C8014EDD4DD7C801B7DC882309F483CF4A
:10183000EE2079F00FB6F8940F92C8019DDC682F66
:10184000F801848195810E9493180F900FBE80E06B
:1018500001C080E029960FB6F894DEBF0FBECDBF61
:10186000DF91CF911F910F91FF90EF900895CF934B
:10187000DF93EC010FB6F8940F9289A18F3F09F422
:1018800019A28AA18F3F09F41AA20F900FBE8E8D64
:10189000811104C0CE0143960E948215CE0110DD55
:1018A000DF91CF910895FC014481558122813381DC
:1018B000240F351F80819181B901681B790BCB0101
:1018C0006417750710F0841B950B08950F93FC01A6
:1018D0008FE0DF011D928A95E9F77587648755834C
:1018E00044833783268306870F910895AF92BF9272
:1018F000CF92DF92EF92FF920F931F93CF93DF93DC
:101900006C015B017A01FC01C281D38104811581E4
:101910000C1B1D0B4017510708F48A01F601848542
:101920009585A801B5018C0F9D1F0E9448370E15A3
:101930001F0558F4A701401B510BB501600F711F23
:10194000F601848595850E944837CE018E0D9F1D36
:10195000F601248135818217930710F0821B930BC7
:10196000F60193838283C701DF91CF911F910F917D
:10197000FF90EF90DF90CF90BF90AF900895CF92FF
:10198000DF92EF92FF920F931F93CF93DF931F92FB
:101990001F92CDB7DEB77C016B015A8349832115B5
:1019A0003105C1F0FC01868580FD08C04217530750
:1019B00008F49A013A83298381E00FC02017310788
:1019C00058F042E050E0BE016F5F7F4FC7018EDFED
:1019D00081E003C080E001C080E0882331F04981CC
:1019E0005A81B601C70182DF02C080E090E00F900B
:1019F0000F90DF91CF911F910F91FF90EF90DF90AB
:101A0000CF900895AF92BF92CF92DF92EF92FF9264
:101A10000F931F93CF93DF937C015B01E901421782
:101A2000530708F4EA01209781F1F7010081118141
:101A300084819581801B910B6E018C179D0708F4A2
:101A40006C01F70164857585600F711FA601C501E2
:101A50000E944837CC16DD0658F4AE014C195D09DA
:101A6000F70164857585C5018C0D9D1D0E94483761
:101A70000C0F1D1FF701848195810817190710F0BD
:101A8000081B190BF70111830083CE01DF91CF9161
:101A90001F910F91FF90EF90DF90CF90BF90AF908C
:101AA00008956F927F928F929F92AF92BF92CF9242
:101AB000DF92EF92FF920F931F93CF93DF931F92CA
:101AC0001F92CDB7DEB76C014B015A0179010115A8
:101AD0001105B1F0FC0160807180A801BE016F5F4B
:101AE0007F4F90DF89819A81E01AF10AA816B90622
:101AF00030F4F60171826082A12CB12C01C05C012E
:101B00009701A501B401C6017DDF0F900F90DF9111
:101B1000CF911F910F91FF90EF90DF90CF90BF90EA
:101B2000AF909F908F907F906F900895CF92DF92AB
:101B3000EF92FF920F93CF93DF93EC016B01413053
:101B400011F401E001C000E0C114D10419F4CC2467
:101B5000C394D12CCE014096C817D90720F4219602
:101B60008FD87C0102C0E12CF12CE114F10439F092
:101B70009601AE01B701615F7F4FC701A7DEC701C4
:101B8000DF91CF910F91FF90EF90DF90CF9008956C
:101B90000F930FB6F8940F92FC0120853185232B0B
:101BA00071F422853385232B61F4268137814481AA
:101BB000558164857585068589DE81E003C080E0F6
:101BC00001C080E00F900FBE0F910895FC012481A9
:101BD000358180819181820F931F42815381841BC3
:101BE000950B01978217930710F0821B930B0895B2
:101BF0002F923F924F925F926F927F928F929F921D
:101C0000AF92BF92CF92DF92EF92FF920F931F930A
:101C1000CF93DF93CDB7DEB72B970FB6F894DEBF27
:101C20000FBECDBF4C017B876A871A010E831F83CD
:101C300028873987FC01848195810197268520FFBB
:101C40000CC02A01F2E04F0E511C8415950558F482
:101C50001E821F821886198606C08417950710F009
:101C60002A0101C02C018E819F81A885B985892B0D
:101C70008A2B8B2B09F438C0CE0101960E940D17D8
:101C80000FB6F8940F92C401A1DF3C0184159505AD
:101C900040F560E080E090E00E94F71B0E949E17F4
:101CA000F401938782870F900FBEAE80BF80C884F7
:101CB000D984E12CF12C00E010E0980140E050E0E4
:101CC000BA0180E00E943619F40113861286BE0123
:101CD0006A5F7F4FCE0101960E943417882381F2FC
:101CE00005C00F900FBE02C0612C712C61147104ED
:101CF00019F4C4016BDF3C0182019301A1016A85E3
:101D00007B85C4013CDE6C01892BE9F0C401CBDD8D
:101D1000F4012681378182179307A8F091D3F4014B
:101D200080859185892B71F080859185E12CF12C3E
:101D300000E020E030E0A90160E00E94DE19F4013B
:101D400011861086BDD4C6012B960FB6F894DEBF5F
:101D50000FBECDBFDF91CF911F910F91FF90EF90FC
:101D6000DF90CF90BF90AF909F908F907F906F90BB
:101D70005F904F903F902F900895AF92BF92CF9277
:101D8000DF92EF92FF920F931F93CF93DF93EC01BB
:101D90007B015A0169018E8580FF04C08A010E5FB4
:101DA0001F4F01C08A01CE0111DF9C01A501B701BF
:101DB000CE01E5DD5C01892BC1F0CE0174DD2E8101
:101DC0003F818217930788F088859985892B69F070
:101DD00088859985E12CF12C00E020E030E0A90114
:101DE00060E00E94D51A19861886C501DF91CF914F
:101DF0001F910F91FF90EF90DF90CF90BF90AF9029
:101E000008954F925F926F927F928F929F92AF92BE
:101E1000BF92CF92DF92EF92FF920F931F93CF93D7
:101E2000DF93EC012B013A01580169018E8580FF97
:101E300005C06894882481F8912C02C0812C912CD3
:101E4000A114B104C104D10441F10FB6F8940F926A
:101E5000CE0129DD7C018816990648F060E080E01B
:101E600090E00E94F71B0E949E17998788870F9029
:101E70000FBE8E149F04A0F0E12CF12C00E010E0C6
:101E8000980140E050E0BA0180E00E9436191986BE
:101E90001886CE0108DD7C0103C0CE0104DD7C0183
:101EA0008E149F04E8F484019701A301B201CE01CE
:101EB000F8DD6C01892BB1F0C3D28A859B85892B13
:101EC00069F08A859B85E12CF12C00E020E030E070
:101ED000A90160E00E94DE191B861A86F1D302C0B8
:101EE000C12CD12CC601DF91CF911F910F91FF9092
:101EF000EF90DF90CF90BF90AF909F908F907F90AA
:101F00006F905F904F900895E0914617F0914717BA
:101F1000808181110CC08FEF9FEFDC01809310173F
:101F200090931117A0931217B09313170895E0918F
:101F30004617F09147170780F085E02D8081918149
:101F4000A281B3818093101790931117A093121759
:101F5000B09313170895CF93DF93EC018B8D9C8D75
:101F60000E94E906CE010E94E906DF91CF91089513
:101F70004F925F926F927F928F929F92AF92BF9299
:101F8000CF92DF92EF92FF920F93CF93DF932C01CA
:101F90005B014A013901E60165EA70E08B8D9C8D99
:101FA0000E9451378B8D9C8D21E0821A9108880EFA
:101FB000991EA114B10489F415C0822F90E0F50197
:101FC000E80FF91F3081DE01A80FB91F5D963C9321
:101FD0008081882329F02F5F01C020E0203168F341
:101FE0001CA601C01D8E0A3008F009E00A8F0DA75B
:101FF0001EA6CE0102960E943707CE010E960E94C1
:102000003707DB87CA878AE090E0A0E0B0E0801B5A
:102010009109A109B1098E879F87A88BB98BDF8BA6
:10202000CE8B84E0FE01BF96DF011D928A95E9F711
:102030001BAAA301B201C4010E94AB079983888344
:10204000E114F10419F0F701D183C083DF91CF913E
:102050000F91FF90EF90DF90CF90BF90AF909F9047
:102060008F907F906F905F904F900895CF93C0E0D6
:1020700009C02BE0C29FC0011124825A984E0E94D1
:102080002607CF5FCA30A8F383E597E10E942607B1
:1020900088E497E10E94260789E397E10E942607DA
:1020A0008EE297E10E94260782E297E10E942607CE
:1020B00083E597E1909347178093461788E497E16B
:1020C0009093451780934417CF910895CF93DF9352
:1020D000EC010FB6F8940F92809121178F5F8093D7
:1020E00021178091CC179091CD17892B51F4D09363
:1020F000CD17C093CC1780912117813091F4B6DFB2
:1021000010C080911B1781110CC0E091CC17F09189
:10211000CD17928D8A8D891720F0D093CD17C0935B
:10212000CC17809114178F5F80931417EA8D8091DC
:102130001C178E1710F4E0931C178BE08E9FF00194
:102140001124E25AF84E0180F281E02DFF83EE83E4
:102150002681378139872887A681B7819E012E5F26
:102160003F4F15963C932E93149737832683EA8D21
:102170008E9FF0011124E25AF84EFD87EC87808192
:102180008F5F80830F900FBE80911B17882351F0C3
:10219000E091CC17F091CD17928D8A8D981710F49D
:1021A0000E94F407DF91CF910895CF93DF931BC076
:1021B0000FB6F8940F92E0913517F0913617C0855D
:1021C000D185CE0102960E94780780912117815017
:1021D0008093211780912D17815080932D170F9098
:1021E0000FBECE01B8DE80912D178111E1CFDF91B6
:1021F000CF9108958F929F92AF92BF92CF92DF922C
:10220000EF92FF92CF93DF936B017C01C42F8090FC
:102210001D1790901E17A0901F17B0902017809147
:10222000CC179091CD1702960E9478078FEFC816B1
:10223000D806E806F806B1F5CC23A1F1E2E2F7E111
:10224000A181B281C091CC17D091CD17BF83AE834D
:10225000C091CC17D091CD1716968D919C91179760
:10226000998788871696CD91DC9117978091CC1726
:102270009091CD1702969D838C838091CC1790917D
:10228000CD17029617969C938E931697A091CC1714
:10229000B091CD171D96FC93EE931C9780818F5FB4
:1022A00080833FC0C80CD91CEA1CFB1CE091CC17F2
:1022B000F091CD17C282D382E482F582C814D9048A
:1022C000EA04FB0468F46091CC177091CD178091FB
:1022D0004417909145176E5F7F4F0E943B0721C0C6
:1022E0006091CC177091CD17809146179091471748
:1022F0006E5F7F4F0E943B078091101790911117DE
:10230000A0911217B0911317C816D906EA06FB065A
:1023100040F4C0921017D0921117E0921217F09269
:102320001317DF91CF91FF90EF90DF90CF90BF9088
:10233000AF909F908F9008952F923F924F925F920F
:102340006F927F928F929F92AF92BF92CF92DF92C5
:10235000EF92FF920F93CF93DF933C011B014A0151
:102360002901CA010E9440066C01892B71F084E3A7
:1023700090E00E944006EC01892B19F0DC8ECB8E98
:1023800006C0C6010E94E90602C0C0E0D0E0209766
:1023900061F0A12CB12C6E019201A401B101C30125
:1023A000E7DDCE0193DE81E001C08FEFDF91CF91B9
:1023B0000F91FF90EF90DF90CF90BF90AF909F90E4
:1023C0008F907F906F905F904F903F902F900895E7
:1023D000EF92FF920F930F2EFEE0EF2EF7E1FF2E0C
:1023E000F02D00E020E030E040EC50E060E773E0EA
:1023F0008EE491E0A1DF813011F40E949B1C8130BA
:10240000C9F4F8948FEF9FEFDC018093101790933D
:102410001117A0931217B093131781E080931B1725
:1024200010921D1710921E1710921F17109220174E
:102430000E94C207809106020F91FF90EF900895CD
:1024400080910D178F5F80930D1708950FB6F89444
:102450000F9260911D1770911E1780911F17909118
:1024600020170F900FBE0895CF92DF92EF92FF9248
:10247000CF93DF9380910D17811105C1C0901D1777
:10248000D0901E17E0901F17F09020178FEFC81AFA
:10249000D80AE80AF80AC0921D17D0921E17E092D7
:1024A0001F17F0922017C114D104E104F104B1F414
:1024B0008091461790914717209144173091451706
:1024C00030934717209346179093451780934417EE
:1024D000809115178F5F8093151716DD8091101767
:1024E00090911117A0911217B0911317C816D90621
:1024F000EA06FB0620F480E0B2C081E001C080E083
:10250000E0914617F0914717908191110CC04FEF61
:102510005FEFBA0140931017509311176093121791
:10252000709313179CC0E0914617F09147170780EE
:10253000F085E02D0084F185E02D42815381648196
:102540007581C416D506E606F70648F440931017C1
:1025500050931117609312177093131780C0A485BE
:10256000B585C681D781208531853F832E83C0857F
:10257000D185268137813D832C8311964D915C91C5
:1025800012979F012E5F3F4F4217530731F440854A
:10259000518512965C934E931197158614869C91E3
:1025A00091509C93A08DB18D109709F1C289D38968
:1025B000448955895F834E83C489D589428953896B
:1025C0005D834C8311966D917C911297AF01425FB0
:1025D0005F4F6417750731F44489558912965C93EF
:1025E0004E931197118E108E9C9191509C93A28DB9
:1025F00090911C179A1710F4A0931C179BE09A9FB8
:10260000D0011124A25AB84E11960D90BC91A02D64
:10261000B783A68316964D915C9117975187408793
:102620001696CD91DC9117973D832C8317963C939A
:102630002E931697A28D9A9FD0011124A25AB84EBC
:10264000B587A4879C919F5F9C93228DE091CC17C6
:10265000F091CD17928D291708F04FCF51CFE0910F
:10266000CC17F091CD17E28D9BE0E99FF00111248A
:10267000E25AF84E9081923008F081E0909116175E
:10268000911116C016C08091171790911817A0913C
:102690001917B0911A170196A11DB11D8093171734
:1026A00090931817A0931917B0931A1780E001C0E0
:1026B00081E0DF91CF91FF90EF90DF90CF90089570
:1026C000CF92DF92EF92FF92CF93DF930FB6F89401
:1026D0000F9280910D17815080930D1780910D17E7
:1026E0008111BEC080912117811188C0BCC0E091CA
:1026F0004017F09141170084F185E02DA08DB18D38
:10270000C289D389848995899F838E83C489D58919
:10271000828993899D838C8311962D913C91129788
:10272000CF010E962817390731F4848995891296BE
:102730009C938E931197118E108E8C9181508C9357
:10274000A485B585C681D781808591859F838E8339
:10275000C085D185868197819D838C8311968D91CB
:102760009C9112979F012E5F3F4F8217930731F480
:102770008085918512969C938E9311971586148669
:102780008C9181508C93A28D80911C178A1710F424
:10279000A0931C178BE08A9FD0011124A25AB84E37
:1027A00011960D90BC91A02DB783A68316964D91DE
:1027B0005C911797518740871696CD91DC911797BA
:1027C0003D832C8317963C932E931697A28D8A9F58
:1027D000D0011124A25AB84EB587A4878C918F5F7F
:1027E0008C93928DA091CC17B091CD175A968C9165
:1027F000981730F081E08093161702C0E0E0F0E017
:1028000080913917811173CFEF2B09F07DDBC090D8
:102810001717D0901817E0901917F0901A17C114D5
:10282000D104E104F104A1F01FDE882319F081E056
:102830008093161781E0C81AD108E108F108A1F7C2
:1028400010921717109218171092191710921A1742
:1028500080911617882331F00E94F40781E003C0AD
:1028600080E001C080E00F900FBEDF91CF91FF901C
:10287000EF90DF90CF9008958F929F92AF92BF928A
:10288000CF92DF92EF92FF921F93CF93DF93EC01F1
:102890006A017B01D5DD80901D1790901E17A090D6
:1028A0001F17B090201788819981AA81BB81AC0144
:1028B000BD014C0D5D1D6E1D7F1D88169906AA0673
:1028C000BB0660F4481759076A077B0798F484161B
:1028D0009506A606B70680F010E013C04817590702
:1028E0006A077B0758F084169506A606B70640F0DF
:1028F00010E007C010E005C011E003C011E001C006
:1029000011E0488359836A837B83112341F0CB0113
:10291000BA01681979098A099B0940E06BDCD0DEAD
:10292000811102C00E94F407812FDF91CF911F9186
:10293000FF90EF90DF90CF90BF90AF909F908F90DF
:102940000895CF92DF92EF92FF926B017C01672B8B
:10295000682B692B39F074DD40E0C701B6014ADC11
:10296000AFDE01C080E0811102C00E94F407FF9039
:10297000EF90DF90CF90089580910D17882321F07C
:1029800081E080931617089510921617E091CC17E6
:10299000F091CD1720813181E091CC17F091CD17C6
:1029A000838D948D8217930760F06091CC1770919E
:1029B000CD17635E7F4F8091CC179091CD170E9409
:1029C000291F80911C1701C08150282F30E09BE007
:1029D000929FF001939FF00D1124E25AF84E9081DE
:1029E000992391F39BE0929FA001939F500D112496
:1029F000DF010180F281E02D0480F581E02D129647
:102A0000FC93EE9311974F59584EE417F50729F4AC
:102A100044815581FD01528341839BE0929FF001E7
:102A2000939FF00D1124E25AF84E0180F281E02DBF
:102A3000208531853093CD172093CC1780931C17B8
:102A40000895CF92DF92EF92FF926A017B0160912D
:102A5000CC177091CD17625F7F4F0E943B0741E01A
:102A6000C701B601C7DBFF90EF90DF90CF900895CC
:102A70000F931F93CF93DF93FC01A091CC17B091DC
:102A8000CD1770681E964D935D936D937C9351970F
:102A9000A181B281C091CC17D091CD17BB8BAA8BED
:102AA000C091CC17D091CD1716968D919C91179708
:102AB0009D8B8C8B1696CD91DC9117978091CC17BE
:102AC0009091CD170E969D838C838091CC17909119
:102AD000CD170E9617969C938E931697A091CC17B0
:102AE000B091CD175996FC93EE93589780818F5FE4
:102AF000808341E0C901B8017DDBDF91CF911F9157
:102B00000F910895CF93DF93FC01CB01BA01A1810E
:102B1000B281C091CC17D091CD17BB8BAA8BC0913D
:102B2000CC17D091CD1716964D915C9117975D8B70
:102B30004C8B1696CD91DC9117974091CC17509104
:102B4000CD17425F5F4F5D834C834091CC1750910E
:102B5000CD17425F5F4F17965C934E931697A091E7
:102B6000CC17B091CD175996FC93EE9358973081BE
:102B70003F5F3083222319F06FEF7FEFCB01422FAD
:102B800039DBDF91CF910895CF93DF93DC01179666
:102B9000ED91FC9118970084F185E02DA08DB18D09
:102BA000C289D389848995899F838E83C489D58975
:102BB000828993899D838C8311968D919C91129724
:102BC0009F01225F3F4F8217930731F484899589D3
:102BD00012969C938E931197118E108E8C9181502A
:102BE0008C9380910D17811152C0A485B585C68143
:102BF000D781808591859F838E83C085D18586818D
:102C000097819D838C8311968D919C9112979F0142
:102C10002E5F3F4F8217930731F48085918512967E
:102C20009C938E931197158614868C9181508C936A
:102C3000A28D80911C178A1710F4A0931C178BE0AB
:102C40008A9FD0011124A25AB84E11960D90BC91C2
:102C5000A02DB783A68316964D915C911797518747
:102C600040871696CD91DC9117973D832C8317965C
:102C70003C932E931697A28D8A9FD0011124A25ABD
:102C8000B84EB587A4878C918F5F8C931CC049E3A5
:102C900057E1DA011196CD91DC911297D38BC28B5B
:102CA0008E819F81958B848B8E819F81DC0115960F
:102CB0003C932E9314973F832E83518F408FDA01DC
:102CC0008C918F5F8C93928DE091CC17F091CD1702
:102CD000828D891720F481E08093161701C080E06F
:102CE000DF91CF910895CF93DF93DC0170684D930E
:102CF0005D936D937C9313971896ED91FC911997C2
:102D00001A964D915C911B9714968D919C911597F5
:102D100016962D913C911797EC013F832E831696C2
:102D20008D919C91179714962D913C911597EC01DC
:102D30003D832C83EA0189819A81A817B90731F470
:102D400016968D919C9117979A8389831B961C9256
:102D50001E921A97DA018C9181508C93A485B585C7
:102D6000C681D781808591859F838E83C085D185DB
:102D7000868197819D838C8311968D919C9112976A
:102D80009F012E5F3F4F8217930731F48085918515
:102D900012969C938E931197158614868C91815070
:102DA0008C93A28D80911C178A1710F4A0931C1786
:102DB0008BE08A9FD0011124A25AB84E11960D9033
:102DC000BC91A02DB783A68316964D915C91179761
:102DD000518740871696CD91DC9117973D832C83C0
:102DE00017963C932E931697A28D8A9FD00111249B
:102DF000A25AB84EB587A4878C918F5F8C93928D21
:102E0000E091CC17F091CD17828D891718F481E0ED
:102E100080931617DF91CF9108950FB6F8940F9213
:102E200020911517FC01208340911D1750911E170A
:102E300060911F17709120174183528363837483BD
:102E40000F900FBE089520911517FC01208340912B
:102E50001D1750911E1760911F1770912017418305
:102E600052836383748308958F929F92AF92BF922F
:102E7000CF92DF92EF92FF920F931F93CF93DF9346
:102E8000FB010FB6F8940F92C0901D17D0901E173B
:102E9000E0901F17F0902017DC0111960D911D9105
:102EA0002D913C91149746015701801A910AA20A6C
:102EB000B30A40815181628173814F3FBFEF5B074D
:102EC0006B077B0739F1EC01B881A0911517BA1790
:102ED00059F0C016D106E206F30630F010821182D6
:102EE0001282138281E017C084169506A606B706E3
:102EF00058F4481959096A097B0940835183628350
:102F00007383A1DF80E007C01082118212821382D6
:102F100081E001C080E00F900FBEDF91CF911F9143
:102F20000F91FF90EF90DF90CF90BF90AF909F9068
:102F30008F90089581E08093161708958091CC17A3
:102F40009091CD17089580911B17882331F08091BF
:102F50000D17811104C082E0089581E0089580E09A
:102F600008950F931F93CF93DF93FC01892B09F4EE
:102F700077C0828DA091CC17B091CD175A969C91B5
:102F8000891708F063C04685578560897189772362
:102F900094F0A091CC17B091CD175A969C914AE02D
:102FA00050E060E070E0491B5109610971094687F2
:102FB0005787608B718B248535854BE0849FC001DA
:102FC0001124825A984E28173907B9F5EF018F015D
:102FD0000E5F1F4FC8010E947807E091CC17F09157
:102FE000CD17E28DEA8F80911C178E1710F4E093B5
:102FF0001C178BE08E9FF0011124E25AF84E0180DD
:10300000F281E02DFF83EE8326813781398728877F
:10301000A681B78115961C930E9314971783068388
:10302000EA8D8E9FF0011124E25AF84EFD87EC875D
:1030300080818F5F808381E016C0A091CC17B09112
:10304000CD175A968C91828F81E00DC095A5E091A5
:10305000CC17F091CD17828D981720F080E003C037
:1030600080E001C081E0DF91CF911F910F91089521
:103070000F931F93CF93DF93FC01892B09F449C071
:1030800086A5815086A7228D95A5291709F443C0EE
:10309000811143C0EF018F010E5F1F4FC8010E94D5
:1030A0007807EDA5EA8F8AE090E0A0E0B0E08E1B03
:1030B0009109A109B1098E879F87A88BB98B80914F
:1030C0001C178E1710F4E0931C178BE08E9FF001F5
:1030D0001124E25AF84E0180F281E02DFF83EE8345
:1030E0002681378139872887A681B78115961C9359
:1030F0000E93149717830683EA8D8E9FF001112497
:10310000E25AF84EFD87EC8780818F5F808381E0F3
:1031100005C080E003C080E001C080E0DF91CF9176
:103120001F910F9108950F931F93CF93DF93FC018D
:10313000892B09F45AC085A5861708F4862F928D2D
:10314000891709F452C026A5213009F04EC0828F9C
:103150004685578560897189772364F04AE050E09D
:1031600060E070E0481B5109610971094687578783
:10317000608B718B248535854BE0949FC0011124B1
:10318000825A984E2817390781F5EF018F010E5F9B
:103190001F4FC8010E947807EA8D80911C178E1777
:1031A00010F4E0931C178BE08E9FF0011124E25A7B
:1031B000F84E0180F281E02DFF83EE832681378176
:1031C00039872887A681B78115961C930E9314978B
:1031D00017830683EA8D8E9FF0011124E25AF84E80
:1031E000FD87EC8780818F5F8083DF91CF911F9176
:1031F0000F910895CF92DF92EF92FF92E091CC175A
:10320000F091CD176685778580899189E091CC17FB
:10321000F091CD17A091CC17B091CD175A962C9163
:103220000F2EFAE0CF2ED12CE12CF12CF02DC21A6A
:10323000D108E108F108C686D786E08AF18AFF90B6
:10324000EF90DF90CF9008958091CC179091CD179B
:10325000892B39F0E091CC17F091CD1786A58F5FBF
:1032600086A78091CC179091CD1708954F925F92C9
:103270006F927F92AF92BF92CF92DF92EF92FF92C6
:103280000F931F93CF93DF93280139010FB6F89462
:103290000F92E091CC17F091CD17C82FD0E0EC0F32
:1032A000FD1F83A9823079F1E091CC17F091CD1701
:1032B000CE01880F991F880F991FE80FF91F87A566
:1032C00090A9A1A9B2A94095509560957095482301
:1032D00059236A237B2347A750AB61AB72ABE091C4
:1032E000CC17F091CD17EC0FFD1F81E083ABA1143B
:1032F000B104C104D10439F041E0C601B5010E9416
:10330000FA100E94F4070F900FBE0FB6F8940F92B8
:10331000E114F104A1F0E091CC17F091CD17CE01AA
:10332000880F991F880F991FE80FF91F87A590A98B
:10333000A1A9B2A9F70180839183A283B383E0910D
:10334000CC17F091CD17EC0FFD1F83A98230E9F463
:10335000E091CC17F091CD17CE01880F991F880FFF
:10336000991FE80FF91F87A590A9A1A9B2A94094B8
:10337000509460947094482259226A227B2247A676
:1033800050AA61AA72AA81E001C080E02091CC1706
:103390003091CD17C20FD31F1BAA0F900FBEDF9124
:1033A000CF911F910F91FF90EF90DF90CF90BF9042
:1033B000AF907F906F905F904F9008958F929F9203
:1033C000AF92BF92EF92FF920F93CF93DF93DC0106
:1033D0000FB6F8940F92E114F10489F0E62FF0E0B3
:1033E000EE0FFF1FEE0FFF1FE80FF91F87A490A835
:1033F000A1A8B2A8F70180829182A282B38270E074
:10340000FD01E60FF71F83A992E093AB023001F1B3
:1034100018F4013031F04DC0033079F10430D1F1AE
:1034200048C0660F771F660F771FFD01E60FF71F75
:1034300087A490A8A1A8B2A8BA01A901482959292E
:103440006A297B2947A750AB61AB72AB01E034C05E
:10345000660F771F660F771FFD01E60FF71F47A561
:1034600050A961A972A94F5F5F4F6F4F7F4F47A768
:1034700050AB61AB72AB01E01FC0660F771F660FE8
:10348000771FFD01E60FF71F27A730AB41AB52AB0B
:1034900001E012C0823079F0660F771F660F771F48
:1034A000FD01E60FF71F27A730AB41AB52AB01E0A0
:1034B00003C001E001C000E0813009F069C01C9642
:1034C000ED91FC911D971696CD91DC91179718966A
:1034D0008D919C9119979F838E831896CD91DC9145
:1034E000199716968D919C9117979D838C83818156
:1034F00092819D012E5F3F4F8217930731F41896FA
:103500008D919C911997928381831D961C921E9296
:103510001C978081815080835A96EC915A978091B4
:103520001C178E1710F4E0931C178BE08E9FF00190
:103530001124E25AF84E0180F281E02D1796FC9397
:10354000EE9316974681578119965C934E93189780
:10355000C681D7813D832C83378326835A96EC918D
:103560005A978E9FF0011124E25AF84E1D96FC9353
:10357000EE931C9780818F5F80835A969C91E09197
:10358000CC17F091CD17828D891710F40E94F407A3
:103590000F900FBE802FDF91CF910F91FF90EF9092
:1035A000BF90AF909F908F9008958F929F92AF920F
:1035B000BF92CF92DF92EF92FF920F93CF93DF9360
:1035C000DC01E114F10489F0E62FF0E0EE0FFF1FBB
:1035D000EE0FFF1FE80FF91F87A490A8A1A8B2A8BB
:1035E000F70180829182A282B38270E0FD01E60F32
:1035F000F71F93A982E083AB023001F118F4013088
:1036000031F04DC0033079F10430D1F148C0660F7C
:10361000771F660F771FFD01E60FF71F87A490A89D
:10362000A1A8B2A8BA01A901482959296A297B2968
:1036300047A750AB61AB72AB81E034C0660F771F18
:10364000660F771FFD01E60FF71F47A550A961A977
:1036500072A94F5F5F4F6F4F7F4F47A750AB61AB72
:1036600072AB81E01FC0660F771F660F771FFD01E9
:10367000E60FF71F27A730AB41AB52AB81E012C07A
:10368000923079F0660F771F660F771FFD01E60F06
:10369000F71F27A730AB41AB52AB81E003C081E0FD
:1036A00001C080E0913009F096C090910D17911102
:1036B0005FC01C96ED91FC911D971696CD91DC9103
:1036C000179718962D913C9119973F832E83189642
:1036D000CD91DC91199716962D913C9117973D83CA
:1036E0002C83418152819D012E5F3F4F421753072A
:1036F00031F418964D915C911997528341831D9630
:103700001C921E921C979081915090835A96EC9136
:103710005A9790911C179E1710F4E0931C179BE08A
:103720009E9FF0011124E25AF84E0180F281E02DB3
:103730001796FC93EE9316974681578119965C93E2
:103740004E931897C681D7813D832C833783268378
:103750005A96EC915A979E9FF0011124E25AF84E26
:103760001D96FC93EE931C9790819F5F908321C0E0
:1037700069E377E1FB01C181D2815396DC93CE935B
:1037800052972E813F8155963C932E9354974E81AC
:103790005F819D01225F3F4FFA01358324833F8380
:1037A0002E8359967C936E935897FB0190819F5F6F
:1037B00090835A962C91E091CC17F091CD17928D71
:1037C000921748F4C114D10419F091E0F6019083E6
:1037D00091E090931617DF91CF910F91FF90EF90AA
:1037E000DF90CF90BF90AF909F908F9008950097FB
:1037F00021F48091CC179091CD170FB6F8940F92C9
:1038000070E0FC01E60FF71F23A9223031F4FC0120
:10381000E60FF71F13AA81E001C080E00F900FBEF2
:103820000895DC01E091D817F091D917808191E0DB
:10383000811190E09C93911108C00780F085E02DE4
:103840006081718182819381089560E070E0CB0195
:103850000895CF92DF92EF92FF920F931F93FC0196
:103860004283538364837583938782870417150784
:1038700026073707C0F00C191D092E093F09868558
:103880009785A089B189081719072A073B0700F512
:10389000BF016E5F7F4F8091D6179091D7170E941E
:1038A0003B0780E018C00C151D052E053F0528F4C8
:1038B0004C155D056E057F0568F4BF016E5F7F4F97
:1038C0008091D8179091D9170E943B0780E003C0E0
:1038D00081E001C081E01F910F91FF90EF90DF9098
:1038E000CF9008950FB6F8940F928091D4179091CD
:1038F000D517892BE9F485EE97E10E9426078AED1A
:1039000097E10E94260785EE97E19093D91780935F
:10391000D8178AED97E19093D7178093D61740E098
:1039200067E08AE00E94E9099093D5178093D41745
:103930000F900FBE0895EF92FF920F93D3DF809107
:10394000D4179091D517892B91F00F2EF2EDEF2E11
:10395000F7E1FF2EF02D03E020E030E040EC50E0F6
:1039600065E773E088E591E00E949C1101C080E06A
:103970000F91FF90EF9008958F929F92AF92BF9218
:10398000CF92DF92EF92FF920F931F93CF93DF932B
:10399000CDB7DEB727970FB6F894DEBF0FBECDBF09
:1039A000E091D417F091D517309781F169832A837C
:1039B0003B834C835D839F838E836630F4F4C3DA4C
:1039C000823069F400E0A7019601BE016F5F7F4F6E
:1039D0008091D4179091D5170E940C0A18C000E06E
:1039E00020E030E0A901BE016F5F7F4F8091D417C6
:1039F0009091D5170E940C0A0AC020E0A801BE01D0
:103A00006F5F7F4FCF010E94BC0A01C080E0279604
:103A10000FB6F894DEBF0FBECDBFDF91CF911F91DF
:103A20000F91FF90EF90DF90CF90BF90AF909F905D
:103A30008F9008958F929F92AF92BF92CF92DF9214
:103A4000EF92FF920F931F93CF93DF933BC00780BA
:103A5000F085E02D80809180A280B380C085D185E3
:103A60008E010E5F1F4FC8010E947807EC89FD8907
:103A7000CE0119958E8982FF25C08E859F85A889E4
:103A8000B989880D991DAA1DBB1D88169906AA061D
:103A9000BB0670F48A839B83AC83BD83DB87CA87B4
:103AA000B8018091D8179091D9170E943B070AC09E
:103AB000C12CD12C760100E010E0A501940160E05A
:103AC000CE015ADFE091D817F091D917808181118A
:103AD000BECF8091D6179091D7179093D917809326
:103AE000D817F093D717E093D617DF91CF911F9196
:103AF0000F91FF90EF90DF90CF90BF90AF909F908D
:103B00008F900895CF92DF92EF92FF92CF93DF9341
:103B1000EC010E9426126B017C018091CE179091DE
:103B2000CF17A091D017B091D117C816D906EA06C1
:103B3000FB0620F47FDF81E0888301C01882C092F9
:103B4000CE17D092CF17E092D017F092D117C701BD
:103B5000B601DF91CF91FF90EF90DF90CF90089565
:103B60004F925F926F927F928F929F92AF92BF928D
:103B7000CF92DF92EF92FF920F931F93CF93DF9339
:103B80004B015C0129013A01E091D817F091D91756
:103B90000780F085E02DC085D185CE0102960E9478
:103BA00078078E8982FF1BC04E855F856889798979
:103BB000480D591D6A1D7B1D750164019301820129
:103BC000CE0147DE882369F0C12CD12C760100E0BC
:103BD00010E0A501940160E0CE01CEDE02C08E7F30
:103BE0008E8BEC89FD89CE011995DF91CF911F91C4
:103BF0000F91FF90EF90DF90CF90BF90AF909F908C
:103C00008F907F906F905F904F9008958F929F92CA
:103C1000AF92BF92CF92DF92EF92FF921F93CF931A
:103C2000DF931F92CDB7DEB76B017C01142F0E948A
:103C30002012CE01019666DF4B015C018981811162
:103C40002DC011110DC08C149D04AE04BF0440F0B2
:103C50000E946013A5019401C701B60181DF20C055
:103C6000112341F0E091D617F091D717808111E030
:103C7000811110E0B701A601481959096A097B09A9
:103C8000212F8091D4179091D5170E94370C0E9454
:103C90006013811105C00E94F40702C00E946013E6
:103CA0000F90DF91CF911F91FF90EF90DF90CF9019
:103CB000BF90AF909F908F900895AF92BF92CF9298
:103CC000DF92EF92FF920F931F93CF93DF93CDB7C5
:103CD000DEB728970FB6F894DEBF0FBECDBF82C007
:103CE000898188230CF47EC0AE80BF80D5011C96EC
:103CF0008D919C911D97892B21F0C50102960E9400
:103D00007807CE010896FEDE8B019C01E9810E2E1C
:103D1000000CFF0BEA30F10508F064C08827EE586C
:103D2000FF4F8F4F0C941535F50186898160868B86
:103D3000CA80DB80EC80FD8046855785608971896B
:103D40004C0D5D1D6E1D7F1DC50183DD882309F4AB
:103D500049C0D5015496ED91FC915597C50119952F
:103D6000F501868982FF3EC04A815B816C817D813D
:103D700086859785A089B1899A01AB01280F391FE3
:103D80004A1F5B1FC12CD12C760100E010E060E0DF
:103D9000C501F2DD27C0D50156968C9156978E7FCE
:103DA00056968C931FC0F50186898160868B4A8167
:103DB0005B816C817D8146875787608B718B400F5B
:103DC000511F621F731F68017901C50142DD0AC0DE
:103DD000F501868981FD04C0C5010E94E90602C083
:103DE0008E7F868B20E030E0A901BE016F5F7F4FA0
:103DF0008091D4179091D5170E94F70A811170CF46
:103E000028960FB6F894DEBF0FBECDBFDF91CF91DD
:103E10001F910F91FF90EF90DF90CF90BF90AF90E8
:103E20000895089584B1806884B985B1806885B9A2
:103E3000089583B1806883B90895F4DF2FEF80E798
:103E400092E0215080409040E1F700C00000F1DF97
:103E5000F5CFE8DF2FEF87EA91E6215080409040D0
:103E6000E1F700C00000E5DFF5CF9093F6178093EF
:103E7000F51708959093F4178093F317089590938E
:103E8000F2178093F11708958093F0170895FC01BD
:103E9000608387E081838091F5179091F617928374
:103EA00083838091F3179091F41794838583809195
:103EB000F1179091F217968387838091F01780878E
:103EC000CF0108959093F8178093F717089583E032
:103ED0000E94772782E69FE10C949C2708950E9418
:103EE000A12780934219882341F08DE793E09F93A7
:103EF0008F930E94EE370F900F9087EF97E10E940B
:103F0000D02790E09093F8178093F7170895CC246A
:103F1000CA94DC2C760101E021E041E050E060E051
:103F200070E080914719909148190E949F0460FFAA
:103F3000EECFD5DF66E070E080E090E00E94A11453
:103F400042E050E060E070E08091451990914619A0
:103F50000E943F05DCCF8091F7179091F8170895E4
:103F6000EF92FF920F93082FB2DFE12CF12C20E0AB
:103F700030E040EC50E06DEA73E087E89FE10E949A
:103F80009C110F91FF90EF90089567D2882341F024
:103F90008FEB93E09F938F930E94EE370F900F90DB
:103FA0000895EF92FF920F93082FEFDFE12CF12C91
:103FB00020E030E040EC50E066EF73E086E190E214
:103FC0000E949C110F91FF90EF90089582E094E081
:103FD0009F938F9383E194E09F938F930E94EE379A
:103FE0000F900F900F900F9008954FD2882321F0DB
:103FF00084E294E00E94023863E070E080E090E0A8
:104000000E94A11457D28111E1DF63E070E080E0EB
:1040100090E00E94A11474D29093FC178093FB1738
:1040200095D29093FA178093F9170895CC24CA94E7
:10403000DC2C760101E021E044E050E060E070E03B
:1040400080914719909148190E949F0462FFEECF1A
:10405000CCDF48E050E060E070E08091451990913D
:1040600046190E943F05E2CF8091F9179091FA1707
:1040700008958091FB179091FC1708950E948C047D
:1040800090934619809345190E948C049093481987
:1040900080934719089541E060E070E08CE290E081
:1040A0000E94960D90934A1980934919892B21F407
:1040B00087E494E00E94023841E060E070E08CE226
:1040C00090E00E94960D90934C1980934B19892B88
:1040D00021F48FE694E00C94023808950F9381E068
:1040E0000E94B00A9093441980934319009749F0B5
:1040F00000E020E030E0A90160E070E00E940C0ADE
:1041000008C089E994E09F938F930E94EE370F9047
:104110000F900F9108956DC7089553C708950F9399
:104120001F93CF93DF93CDB7DEB764970FB6F894A4
:10413000DEBF0FBECDBF81E00E94262D7FD3FBD511
:104140009F938F938BEB94E09F938F930E94EE3716
:10415000F3D4F1D59F938F938EEC94E09F938F933C
:104160000E94EE378E010F5F1F4FC80179D3E3D550
:104170001F930F939F938F9387EE94E09F938F935A
:104180000E94EE37C80188D3D6D59F938F931F9393
:104190000F938BEF94E09F938F930E94EE37A801CB
:1041A00060E175E081E395E0A5D5C5D59F938F9338
:1041B0001F930F9380E195E09F938F9381E395E0A8
:1041C0009F938F9382E495E09F938F930E94EE37A5
:1041D00096D3B1D59F938F9388E795E09F938F9364
:1041E0000E94EE370FB6F894DEBF0FBECDBF81E060
:1041F00080D4A1D59F938F9387E895E09F938F9369
:104200000E94EE3784EF91E07FD495D59F938F93F2
:1042100081E08F9384EF8F9388EA95E09F938F934B
:104220000E94EE370FB6F894DEBF0FBECDBF1AE086
:1042300080E06BD3082F7FD59F938F931F921F939E
:1042400088EC95E09F938F930E94EE370F900F902C
:104250000F900F900F900F90083059F080E00E945F
:104260008A2D66E371E080E090E00E94A114115075
:10427000F9F6083021F481E00E946C2D09C081E03C
:104280000E947B2D80E00E94492D0E94F407FDCF03
:1042900064960FB6F894DEBF0FBECDBFDF91CF910D
:1042A0001F910F91089581E0BBD262E070E080E041
:1042B00090E00E94A11480E0B3D266E970E080E053
:1042C00090E00E94A11465D22ADF0FEF1FEF980142
:1042D00046E150E06DEF77E18091491990914A19DC
:1042E0000E94010F882389F3EDEFF7E1828190E0CE
:1042F000982F88272381822B048110E0102F00271C
:104300002581022BC681D0E0DC2FCC272781C22B50
:10431000F0849F938F9388EE95E09F938F930E94F4
:10432000EE371F930F938EEF95E09F938F930E942C
:10433000EE37DF93CF9381E196E09F938F930E94B6
:10434000EE371F92FF928FE196E09F938F930E942A
:10435000EE3783E00E949C2D6DEF77E180E0FED286
:10436000EAD49F938F9380E396E09F938F930E946C
:10437000EE378DB79EB744960FB6F8949EBF0FBE2A
:104380008DBFA3CFEF92FF920F93E12CF12C082F5A
:1043900020E030E048E851E065E476E083E591E232
:1043A0000E949C110F91FF90EF90089584E0EADF46
:1043B00084E00E94330383E00E94050281E0D0DDA7
:1043C00081E0EFDD82E00C944703089580E00E94D5
:1043D000D12B85E00E94D82C51DE5DDE7FDE9BDE96
:1043E00060914B1970914C1981E0DAD1DFCF0895BB
:1043F000EDDF82E596E00E9402380E94E811FFCFCF
:104400006530F1F4FA0180818F7390E0982F88274E
:104410002181822B90930A02809309028281F0E429
:104420008F9FC0011124FA01238126952695822BA6
:10443000909308028093070281E0809313180895F7
:10444000643051F080E090E490930802809307027A
:1044500090930A028093090208950F931F9300E03E
:1044600012E220E034E244EF50E060E087E20E9494
:10447000BE2D909315188093141821E0892B09F014
:1044800020E0822F1F910F91089580911418909130
:104490001518009759F040E060E070E00E940F2E80
:1044A000843031F41092131880E0089582E008956A
:1044B00083E008958091141890911518009739F0B1
:1044C00064E00E945B2E853021F083E0089582E055
:1044D000089580E008956091090270910A0280E0D9
:1044E00090E00E94EF3320E030E048EC52E40E947C
:1044F0007D3420E038EF4FE756E40C9456330895AE
:10450000EADF20E030E040E251E40E947D340E9486
:10451000C333CB010895609107027091080280E0D7
:1045200090E00E94EF3320E030E045E253E40E9447
:104530007D3420E038EF4FE756E40E94563320E008
:1045400030E040E252E40C94F1320895E4DF20E0E0
:1045500030E040E251E40E947D340E94BE33CB0142
:1045600008950F931F93CF93DF931F921F92CDB7A0
:10457000DEB78C0119822DC0E0914D18EC3250F459
:1045800081E08E0F80934D18F0E0E158F74E8A815C
:10459000808302C010924D188A818A30D1F44091F4
:1045A0004D1850E0FA01E358F74E1082415051097E
:1045B0009E012F5F3F4F6FE778E1809150189091F7
:1045C00051180E94BD0E898181110E94F40710923A
:1045D0004D18BE016E5F7F4FC8014DD6882361F232
:1045E0000F900F90DF91CF911F910F9108950F932E
:1045F0001F93CF93DF938C01EB0180915018909122
:1046000051180E94C80DB80186E198E10E948837D0
:10461000209779F0E6E1F8E101900020E9F7319781
:1046200080E290E091838083BE0186E198E10E9460
:104630007D37E6E1F8E1DF010D900020E9F7119701
:104640008DE09AE011969C938E9312961C920190A5
:104650000020E9F73197E651F841AE2F86E198E165
:10466000AC016A2F8091521890915318AFD58111E7
:1046700011C008E215E020E030E04DE250E069EDC5
:1046800078E180915018909151180E94010F89EDA6
:1046900098E102C080E090E0DF91CF911F910F91EF
:1046A00008952F923F924F925F926F927F928F92D6
:1046B0009F92AF92BF92CF92DF92EF92FF920F93B1
:1046C0001F93CF93DF935C01FC0101900020E9F779
:1046D00031976F01C81AD90A5C2C0F2EF8EF8F2E74
:1046E000F8E09F2EF02DE12CF12C4C2C3701F40139
:1046F00001811281E80109900020E9F72197C01B90
:10470000D10B3C2EF9E0CF16D10458F0F4012080F3
:10471000FEE02F1206C0B801C5010E945837892B50
:1047200009F5442D351408F44C2F50E0B801C501AB
:104730000E948F37892B49F4F301EE0FFF1FE60D1E
:10474000F71DE850F74F20800DC08FEFE81AF80AE8
:10475000E3E08E0E911CF1E1EF16F10439F6689456
:10476000222424F8822DDF91CF911F910F91FF9089
:10477000EF90DF90CF90BF90AF909F908F907F9001
:104780006F905F904F903F902F90089530DF89CFCA
:10479000089580915018909151180C94C80D089567
:1047A0008F929F92AF92CF92EF920F931F93CF93DE
:1047B000C82F8B0141E060E070E088EC90E00E943F
:1047C000960D909351188093501810934F180093A2
:1047D0004E180F2EF1EB8F2EF2E29F2EF02D6894E3
:1047E000AA24A6F86894CC24C6F8E12C00E023E0C3
:1047F00040E051EE60E070E08C2F17D49093531896
:1048000080935218E7E0F1E0808180618083CF914E
:104810001F910F91EF90CF90AF909F908F90089540
:10482000882331F0E8E0F1E080818F7E8083089575
:10483000E8E0F1E0808180618083089560E070E0CD
:1048400083E896E0D4DEE9EDF8E101900020E9F795
:104850003197E95DF84181E0759708F080E00895AF
:10486000CF93DF93EC0160E070E084E996E0BFDE77
:10487000E9EDF8E101900020E9F7EA5EF84139F44A
:1048800069ED78E1CE010E94883780E002C018828D
:1048900081E0DF91CF910895FC0101900020E9F7BC
:1048A0009F01215131092817390729F4BC0182ECF5
:1048B00096E06CCF089589E00895FC0101900020F6
:1048C000E9F79F01215131092817390729F4BC0163
:1048D00081ED96E05BCF089589E00895FC01019099
:1048E0000020E9F79F01215231092817390729F4DF
:1048F000BC0180EE96E04ACF089589E0089560E01B
:1049000070E08FE197E042CF08950F931F93E82F57
:10491000F0E0EE0FFF1FEC50F74F6081718188E2ED
:1049200097E034DF811114C008E215E020E030E0A8
:104930004DE250E069ED78E1809150189091511866
:104940000E94010F882321F089ED98E1AADE03C0BF
:1049500089ED98E1A6DE1F910F9108950F931F93A3
:10496000CF93DF931F92CDB7DEB7DB0111969C91F9
:104970001197953108F0B4C0992381F160E070E09F
:10498000272F30E0462F50E0FD01E40FF51F928104
:1049900092959F709A3010F0995C01C0905DF9017A
:1049A000E659F74E90832F5F3F4FFD01E40FF51F4F
:1049B00092819F70492F50E04A30510514F0995C64
:1049C00001C0905DF901E659F74E90837E5F6F5FFD
:1049D00011969C911197691798F201C070E0E72F2A
:1049E000F0E0E659F74E10824C91811103C081E34B
:1049F00097E002C083E397E02AE638E13F932F93E4
:104A00001F924F939F938F9387E397E09F938F938A
:104A10008CEA98E19F938F930E94323860E070E0B7
:104A20008CEA98E1B3DE0FB6F894DEBF0FBECDBFBF
:104A3000811159C008E215E020E030E04DE250E07D
:104A400069ED78E180915018909151180E94010F02
:104A5000882309F447C089ED98E123DE8E3009F000
:104A600042C087E0898380914E1890914F18892B1E
:104A7000A9F1BE016F5F7F4F89ED98E168D1809306
:104A80005418E981F0E0E752F74EDF010D90002065
:104A9000E9F71197AE1BBF0BAA2391F0BB27CD01FD
:104AA00001979C0112F42F5F3F4F35952795209376
:104AB0005518AF014F5F5F4F64E186E598E173D110
:104AC00001E010E020E030E046E150E064E578E10C
:104AD00080914E1890914F180E94F80D8EE003C0FF
:104AE00084E101C080E00F90DF91CF911F910F9181
:104AF0000895813019F067E477E002C060E278E061
:104B00008BE497E043CE08959F938F938CE797E0D3
:104B10009F938F938CEA98E19F938F930E943238F2
:104B200060E070E08CEA98E131DE0F900F900F901A
:104B30000F900F900F9008952F923F924F925F9297
:104B40006F927F928F929F92AF92BF92CF92DF929D
:104B5000EF92FF920F931F93CF93DF93CDB7DEB702
:104B6000A0970FB6F894DEBF0FBECDBF69EA77E01D
:104B700085EB97E03CDD95DD8111A3C080E2E2E2A8
:104B8000F2E0DE01119601900D928A95E1F79E0107
:104B90002F5F3F4F6901E12CF12C0F2EF1ECAF2E6E
:104BA000F7E0BF2EF02D0CEA18E10F2EFAED4F2E94
:104BB000F7E05F2EF02D0F2EF1EF8F2EF7E09F2EF6
:104BC000F02D0F2EFBE06F2EF8E07F2EF02D3E2C07
:104BD0002F2CFF92EF92BF92AF921F930F930E94E0
:104BE000323860E070E0C80102DD5BDD0F900F90AD
:104BF0000F900F900F900F90811163C032E03E151F
:104C0000E8F4F60183818F9382818F9381818F9362
:104C100080818F93FF92EF925F924F921F930F9339
:104C20000E94323860E070E0C801E1DC3ADD0FB686
:104C3000F894DEBF0FBECDBF811143C02F923F92CB
:104C40009F928F921F930F930E94323860E070E022
:104C5000C801CDDC26DD0F900F900F900F900F90C4
:104C60000F9081112EC02F923F927F926F921F93CF
:104C70000F930E94323860E070E0C801B8DC11DDAB
:104C80000F900F900F900F900F900F90811119C0FF
:104C90003FEFE31AF30A84E0C80ED11C98E0E9164E
:104CA000F10409F094CF60E070E083E298E09FDCCB
:104CB000F8DC811106C060E070E084E398E097DCE6
:104CC000F0DCA0960FB6F894DEBF0FBECDBFDF912B
:104CD000CF911F910F91FF90EF90DF90CF90BF90F9
:104CE000AF909F908F907F906F905F904F903F908C
:104CF0002F900895EF92FF920F931F93CF93DF931E
:104D0000EC018B017A0181E0F4DE81110DC0CE014E
:104D1000D4DD811109C0C801E1DD811105C0C701E1
:104D2000BBDD811101C0EBDDDF91CF911F910F91B0
:104D3000FF90EF90089590E0FC01EE0FFF1F8E0FA3
:104D40009F1FFC01E850F74F818192810895DC019B
:104D5000009729F1FB012081FC0101900020E9F777
:104D60003197E81BF90B822F90E0E817F907C8F09C
:104D700080E008C0880F382F330F330F830F805324
:104D8000890F2F5FFD01E20FF11D908130ED390F8A
:104D90003A3010F49111EECFFB012083089580E0AA
:104DA000089580E008950F931F93CF93DF93DC0164
:104DB000EA012097E1F1FA0101900020E9F731972B
:104DC000E41BF50B329710F532C08D01040F151F4F
:104DD00030E0AE01420F531FFA019081913428F068
:104DE0009753592F5295507F03C0592F5295507F9A
:104DF0002C0F3D1FF9019181913410F0975301C0A0
:104E00009053950FF80190838F5F01C080E0282FA9
:104E1000220F482F50E0FE0101900020E9F7319762
:104E2000EC1BFD0B4E175F0710F48613CECFDF91FE
:104E3000CF911F910F91089580910919860F80934A
:104E4000091990910C19913079F028F09230A9F05D
:104E5000933019F108956F3F09F048C01092091975
:104E600081E080930C190895663809F03FC01092D4
:104E7000081982E080930C190895E091081981E0E7
:104E80008E0F80930819F0E0EA5FF64E608382305F
:104E900069F583E080930C1908959091081921E039
:104EA000290F20930819963009F581110EC0E6E00C
:104EB000F9E1808190E0982F88272181820F911D50
:104EC00090930E1980930D1904C010920E19109230
:104ED0000D1910920C19E0910A19F0910B193097E5
:104EE00029F080910D1990910E19199508958F92BE
:104EF0009F92AF92CF92EF920F930F2EFCE18F2EE5
:104F0000F7E29F2EF02D6894AA24A4F86894CC248C
:104F1000C4F8E12C00E023E040E855E260E070E0F6
:104F200084D09093101980930F190F91EF90CF9028
:104F3000AF909F908F90089590930B1980930A19CA
:104F40000895CF93DF93CDB7DEB729970FB6F894C6
:104F5000DEBF0FBECDBF89E0E2E4F2E09E012F5F2D
:104F60003F4FD90101900D928A95E1F710920E19E9
:104F700010920D1980910F1990911019009731F02E
:104F8000422F532F69E022D180E001C082E02996B0
:104F90000FB6F894DEBF0FBECDBFDF91CF9108955D
:104FA00020910D1930910E192115310529F4FC01BC
:104FB0001182108281E00895FC013183208380E01A
:104FC000089565360CF064E66C390CF46CE996EFE4
:104FD0006902B00111246854744F811105C07093A7
:104FE000290160932801089570932B0160932A0191
:104FF0000895EAE0F1E08081886180838FE39CE995
:10500000909327018093260160E080E0DADF60E082
:1050100081E0D7DFE0E2F1E08081826A8083E1E233
:10502000F1E080818A61808308952F923F924F92B0
:105030005F926F927F928F929F92AF92CF92EF92F8
:10504000FF920F931F93CF93DF93CDB7DEB7F82E68
:105050002A013B0188E090E00E9440358C018F2DB1
:1050600090E0FC01EE0FFF1FEF5EF64E1183008310
:105070000115110509F46DC0880F991FFC01E55F4A
:10508000FD4F80819181D8018D939C938C2D90E070
:10509000880F991F880F991F0E9440351C0186E0D8
:1050A00090E00E9440357C014C2DB101F4D6F8010E
:1050B000F582E4828A2D90E0880F991F880F991F4E
:1050C0000E9440351C0186E090E00E9440357C0142
:1050D0004A2DB101E0D6D8011396FC92EE921297B8
:1050E00017969C928E921697FFB6F894ED91FC91CC
:1050F000119736978081826080838D909C90C30148
:10510000B2010E94EF3320E030E040E051E40E9421
:105110007D349B01AC0160E074E284E79BE40E9473
:10512000563320E030E040E85FE30E94F1320E9415
:10513000C333F40132976083D801ED91FC9111974C
:10514000359788E98083ED91FC91349786E08083E0
:10515000FFBEC801DF91CF911F910F91FF90EF909B
:10516000CF90AF909F908F907F906F905F904F9077
:105170003F902F900895CF93DF93DC01892B01F1AD
:105180001296ED91FC911397938182812581981B52
:10519000922384819817B1F0838126952823C081BA
:1051A000D181C20FD11D68838F5F9581892383834D
:1051B000ED91FC91359780818062808380E003C00F
:1051C00081E001C082E0DF91CF910895EF92FF92DC
:1051D0000F931F93CF93DF937C01009709F441C095
:1051E000DC011296ED91FC91139793818281981BBB
:1051F000858198238481891B8617A8F1662341F154
:10520000842F952FDC016150462F50E04F5F5F4F98
:10521000480F591FE701EA81FB8193818281258133
:10522000981B92238481981779F08C91938126950D
:105230002923608171818B01020F111DE801888390
:105240009F5F8581982393831196A417B50711F763
:10525000D701ED91FC91359780818062808380E059
:1052600003C081E001C082E0DF91CF911F910F91D7
:10527000FF90EF9008950097D1F0DC011496ED9126
:10528000FC91159793818281981799F0928185817D
:1052900086958923A081B181A80FB11D8C91DB0176
:1052A0008C939F5F85819823928380E0089581E0AD
:1052B000089583E008951F920F920FB60F92112464
:1052C0000BB60F922F933F934F935F936F937F9300
:1052D0008F939F93AF93BF93CF93DF93EF93FF93FE
:1052E000A0911119B0911219109711F16091C60097
:1052F0001496ED91FC911597938182812581981BDD
:1053000092238481981761F0838126952823C08198
:10531000D181C20FD11D68838F5F958189238383DB
:105320001696ED91FC911797309711F0CD011995D4
:10533000FF91EF91DF91CF91BF91AF919F918F91AD
:105340007F916F915F914F913F912F910F900BBE85
:105350000F900FBE0F901F9018951F920F920FB6CF
:105360000F9211240BB60F922F938F939F93AF93AD
:10537000BF93EF93FF93E0911119F09112193097B9
:10538000B9F00280F381E02D938182819817B1F00A
:1053900092818581282F26952923A081B181A20F92
:1053A000B11D2C919F5F892382832093C6000BC07F
:1053B000E1ECF0E080818F7D808305C0E1ECF0E0DE
:1053C00080818F7D8083FF91EF91BF91AF919F91FD
:1053D0008F912F910F900BBE0F900FBE0F901F90CB
:1053E00018951F920F920FB60F9211240BB60F92C1
:1053F0002F933F934F935F936F937F938F939F93DD
:10540000AF93BF93CF93DF93EF93FF93A0911319C3
:10541000B0911419109711F16091CE001496ED918E
:10542000FC911597938182812581981B9223848119
:10543000981761F0838126952823C081D181C20FFE
:10544000D11D68838F5F9581892383831696ED91A3
:10545000FC911797309711F0CD011995FF91EF91BD
:10546000DF91CF91BF91AF919F918F917F916F917C
:105470005F914F913F912F910F900BBE0F900FBEF8
:105480000F901F9018951F920F920FB60F92112434
:105490000BB60F922F938F939F93AF93BF93EF937E
:1054A000FF93E0911319F09114193097B9F002802D
:1054B000F381E02D938182819817B1F092818581EB
:1054C000282F26952923A081B181A20FB11D2C91EF
:1054D0009F5F892382832093CE000BC0E9ECF0E02C
:1054E00080818F7D808305C0E9ECF0E080818F7D35
:1054F0008083FF91EF91BF91AF919F918F912F91F9
:105500000F900BBE0F900FBE0F901F9018951F921B
:105510000F920FB60F9211240BB60F922F933F9359
:105520004F935F936F937F938F939F93AF93BF93AB
:10553000CF93DF93EF93FF93A0911519B0911619B4
:10554000109711F16091D6001496ED91FC9115978A
:10555000938182812581981B92238481981761F021
:10556000838126952823C081D181C20FD11D6883F4
:105570008F5F9581892383831696ED91FC91179710
:10558000309711F0CD011995FF91EF91DF91CF91F7
:10559000BF91AF919F918F917F916F915F914F914B
:1055A0003F912F910F900BBE0F900FBE0F901F9049
:1055B00018951F920F920FB60F9211240BB60F92EF
:1055C0002F938F939F93AF93BF93EF93FF93E091AC
:1055D0001519F09116193097B9F00280F381E02D7A
:1055E000938182819817B1F092818581282F269529
:1055F0002923A081B181A20FB11D2C919F5F892326
:1056000082832093D6000BC0E1EDF0E080818F7D96
:10561000808305C0E1EDF0E080818F7D8083FF9184
:10562000EF91BF91AF919F918F912F910F900BBEF2
:105630000F900FBE0F901F9018951F920F920FB6EC
:105640000F9211240BB60F922F933F934F935F93BA
:105650006F937F938F939F93AF93BF93CF93DF937A
:10566000EF93FF93A0911719B0911819109711F1AA
:10567000609136011496ED91FC911597938182818A
:105680002581981B92238481981761F08381269548
:105690002823C081D181C20FD11D68838F5F95817E
:1056A000892383831696ED91FC911797309711F01B
:1056B000CD011995FF91EF91DF91CF91BF91AF91FE
:1056C0009F918F917F916F915F914F913F912F911A
:1056D0000F900BBE0F900FBE0F901F9018951F924A
:1056E0000F920FB60F9211240BB60F922F938F9338
:1056F0009F93AF93BF93EF93FF93E0911719F091AE
:1057000018193097B9F00280F381E02D93818281DE
:105710009817B1F092818581282F26952923A081A1
:10572000B181A20FB11D2C919F5F892382832093A9
:1057300036010BC0E1E3F1E080818F7D808305C0FD
:10574000E1E3F1E080818F7D8083FF91EF91BF9154
:10575000AF919F918F912F910F900BBE0F900FBE25
:105760000F901F901895CF93DF931F92CDB7DEB7A0
:10577000BE016F5F7F4F8091191990911A197BDDDF
:105780008111F6CF898190E00F90DF91CF9108953C
:10579000682F8091191990911A19EDDC80E090E042
:1057A00008958F929F92AF92CF92EF920F93812C98
:1057B000912C6894AA24A7F86894CC24C7F8E12C0B
:1057C00000E023E040E051EE60E070E02EDC9093DA
:1057D0001A1980931919E1E5F9E183E192E09183C7
:1057E0008083938382830F91EF90CF90AF909F90AF
:1057F0008F90089590E0FC01EE0FFF1FE80FF91F56
:10580000EE0FFF1FE55EF64E238121111FC09C01A4
:10581000220F331FF901E80FF91FEE0FFF1FE55E9E
:10582000F64EA081B1814C91F901E80FF91FEE0FFE
:10583000FF1FE55EF64E81E090E0028002C0880F17
:10584000991F0A94E2F7842B8C930895FC01EE0FC4
:10585000FF1FDF01A80FB91FAA0FBB1FA55EB64E21
:105860000D90BC91A02D2C91E80FF91FEE0FFF1F9A
:10587000E55EF64E81E090E0028002C0880F991F3D
:105880000A94E2F7809582238C93089590E0FC01BE
:10589000EE0FFF1FE80FF91FEE0FFF1FE55EF64E3C
:1058A0002381211120C09C01220F331FF901E80F31
:1058B000F91FEE0FFF1FE55EF64EA081B1814C91FE
:1058C000F901E80FF91FEE0FFF1FE55EF64E81E0CC
:1058D00090E0028002C0880F991F0A94E2F7809539
:1058E00084238C930895FC01EE0FFF1FDF01A80FA6
:1058F000B91FAA0FBB1FA55EB64E0D90BC91A02D7F
:105900002C91E80FF91FEE0FFF1FE55EF64E81E0C8
:1059100090E0028002C0880F991F0A94E2F7822B60
:105920008C930895CC24C394D12C6894BB24B2F8F2
:10593000CBE1D9E110E08C81813081F018F1823027
:1059400061F5E881F9812081C6010A8002C0880FD3
:10595000991F0A94E2F7822780831FC08D818F5F91
:10596000863010F48D8319C01D82E881F981208171
:10597000C6010A8002C0880F991F0A94E2F78227A5
:1059800080830BC00D81002329F0812F7FDF015020
:105990000D8303C0BC82812F2DDF1F5F269614303C
:1059A00051F66CE070E080E090E00E94A114C0CF5E
:1059B000EF92FF920F931F93CF93DF93082F80E412
:1059C00087B9CBE1D9E10F2EF8E2EF2EF12CF02DC3
:1059D000F982E88286E08A831B8214E01C8380E0DF
:1059E00009DF80E887B9FF82EE8287E08887198621
:1059F0001A8781E0FFDE80E283BB84E390E09D872D
:105A00008C8785E08E871F86188B82E0F3DE80E12D
:105A10008093010182E091E09B8B8A8B1C8B1D8A15
:105A20001E8B83E0E7DEE12CF12C20E030E040EC3F
:105A300050E06BE279E082E99CE20E949C11DF91E8
:105A4000CF911F910F91FF90EF900895CF93DF9327
:105A500090E0FC01EE0FFF1FDF01A80FB91FAA0F96
:105A6000BB1FA55EB64ECD91DC911197488121E018
:105A700030E012960C90129702C0220F331F0A9446
:105A8000E2F724272883FD0181E08483DF91CF9111
:105A90000895CF93DF9390E0FC01EE0FFF1FDF012D
:105AA000A80FB91FAA0FBB1FA55EB64ECD91DC9102
:105AB0001197488121E030E012960C90129702C0B5
:105AC000220F331F0A94E2F724272883FD0182E086
:105AD0008483DF91CF910895282F30E0F901EE0FF4
