S0170000534550345F477265656E686F7573652E737265637D
S113000066C1000085C1000083C1000081C10000F9
S11300107FC100007DC100007BC1000079C10000E8
S113002077C1000075C1000073C1000071C10000F8
S11300305DC400006DC100006BC1000069C1000017
S113004067C1000065C1000063C1000061C1000018
S11300505FC100005DC100005BC1000059C1000028
S113006057C100000C94D5200C94272151C10000E5
S11300704FC100004DC100004BC1000049C1000048
S113008047C1000045C1000043C1000041C1000058
S11300900C946B210C94BD213BC100000C940826E8
S11300A037C1000035C1000033C1000031C1000078
S11300B02FC100002DC100002BC1000029C1000088
S11300C027C1000025C1000023C100000C940122B7
S11300D00C9453221DC100000C9497220C94E92225
S11300E017C100007A177A177A17B117B917CE1704
S11300F07A177A17B117B9172A269A269A269A26B2
S11301009A269A269A269A262A269A269A269A265B
S11301109A269A269A269A262C269A269A269A2649
S11301209A269A269A269A269A269A269A269A26CB
S11301309A269A269A269A262C269A269A269A2629
S11301409A269A269A269A269A269A269A269A26AB
S11301509A269A269A269A2696269A269A269A269F
S11301609A269A269A269A2661269A269A269A26C4
S11301709A269A269A269A269A269A269A269A267B
S11301809A269A269A269A2655269A269A269A26B0
S11301909A269A269A269A2679266E616E00696EA8
S11301A0660000407A10F35A00A0724E180900103D
S11301B0A5D4E80000E87648170000E40B540200D8
S11301C000CA9A3B000000E1F50500008096980003
S11301D0000040420F000000A0860100000010272C
S11301E000000000E80300000000640000000000BC
S11301F00A00000000000100000000002C76D888EE
S1130200DC674F0823DFC1DFAE59E1B1B796E5E300
S1130210E453C63AE651997696E8E6C28426EB8919
S11302208C9B62ED407C6FFCEFBC9C9F40F2BAA5B6
S11302306FA5F490055A2AF75C936B6CF9676DC14E
S11302401BFCE0E40D47FEF520E6B500D0ED902E52
S11302500300943577050080841E080000204E0AB0
S1130260000000C80C333333330F986E12831141EE
S1130270EF8D2114893BE65516CFFEE6DB18D184B9
S11302804B381BF77C1D901DA4BBE42420328472E0
S11302905E228100C9F124ECA1E53D270E94CA0B2E
S11302A080919B15823008F05BD20E94F717F6CF3D
S11302B0CF93DF931F92CDB7DEB7CE0101960E9494
S11302C0F71449810E94EC160E944317F6CF1124BB
S11302D01FBECFEFD1E2DEBFCDBF00E00CBF17E001
S11302E0A0E0B2E0E8E0F0E600E00BBF02C0079057
S11302F00D92AE38B107D9F727E1AEE8B7E001C0F7
S11303001D92A937B207E1F70E946B1A0C940230D0
S113031077CEEAE9F7E0AEE9B7E0B183A0831382D0
S11303201282E6E4F5E1F0939907E09398071382CB
S113033012821182108288EA9DE013969C938E9318
S11303401297ED93FC939093950780939407909361
S113035097078093960780E090E890938F078093A7
S11303608E070895CF93DF93EC01AAE9B7E001C0AB
S1130370DF01ED91FC911197EC17FD07C8F312967C
S11303808D919C9113979D01280F391FC217D30794
S113039049F42A813B81820F931F13969C938E9379
S11303A01297ED018A819B819E01280F391FE21764
S11303B0F307C1F42091980730919907E217F307E6
S11303C071F022813381820F931F9B838A83ED9185
S11303D0FC911197808191819983888305C0398329
S11303E0288302C0F983E883CA17DB0711F0CD9391
S11303F0DC93DF91CF910895EF92FF920F931F93B7
S1130400CF93DF938C010E94150D809198079091F2
S11304109907892B09F47DDF80918E0790918F07CE
S113042080239123892B09F076C00115110549F029
S1130430C80104960817190718F000E010E001C07D
S11304408C010115110509F469C0809196079091FA
S113045097078017910708F464C0C0919A07D09158
S11304609B07EAE9F7E002C0FE01EC018A819B8167
S11304708017910720F4888199810097A9F78091CA
S1130480980790919907C817D90709F44DC0E080DF
S1130490F18084E0E80EF11C888199819183808346
S11304A02A813B81201B310B2930310548F0CE01D4
S11304B0800F911FFC01338322831B830A8352DF45
S11304C02A813B818091960790919707821B930B19
S11304D090939707809396074091940750919507BE
S11304E08417950720F4909395078093940780913F
S11304F08E0790918F07282B392B3B832A831982EF
S11305001882809192079091930701969093930794
S1130510809392070BC0E12CF12C08C0E12CF12C44
S113052005C0E12CF12C02C0E12CF12C0E94550EE7
S1130530E114F10411F40E940318C701DF91CF9173
S11305401F910F91FF90EF9008950F931F93CF93F6
S1130550DF93009791F1EC0124974A815B8120910C
S11305608E0730918F07BA0162237323672B29F119
S113057068817981672B09F52095309524233523EB
S11305803B832A830E94150D8A819B8120919607C3
S113059030919707820F931F909397078093960744
S11305A0CE01E0DE8091900790919107019690939F
S11305B09107809390070E94550EDF91CF911F9170
S11305C00F910895FC010396928381834FEF5FEFAF
S11305D0BA014383548365837683908787839287A4
S11305E0818710820895FC011386128608950F9363
S11305F01F93CF93DF93EB01088119812A813B81FB
S11306000F3F4FEF14072407340721F4FC01A185A1
S1130610B28511C0DC01139601C0DF011496ED917F
S1130620FC911597408151816281738104171507EC
S11306302607370790F71496ED91FC911597FD83E3
S1130640EC83D783C683BF83AE831596DC93CE93A6
S113065014979B878A87FC0120812F5F2083DF9179
S1130660CF911F910F910895CF93DF93FC01A28541
S1130670B385C481D581868197819F838E83C6810A
S1130680D781848195819D838C8311968D919C91D2
S11306901297E817F90731F48681978112969C9393
S11306A08E931197138612868C9181508C938C9122
S11306B0DF91CF910895A89590EC88E10FB6F89456
S11306C0A895809360000FBE909360000895FC018C
S11306D060833197708331971082319710823197FC
S11306E020E820833197108231971082319710824D
S11306F0779740833197508386970895DCDFA091E4
S11307000916B0910A16CD91CDBFDD91DEBFFF91E0
S1130710EF91DF91CF91BF91AF919F918F917F9195
S11307206F915F914F913F912F911F910F91FF9086
S1130730EF90DF90CF90BF90AF909F908F907F907D
S11307406F905F904F903F902F901F900F900CBE32
S11307500F900BBE0F900FBE0F90089581E0089587
S11307600F920FB6F8940F920BB60F920CB60F922D
S11307701F9211242F923F924F925F926F927F9219
S11307808F929F92AF92BF92CF92DF92EF92FF929D
S11307900F931F932F933F934F935F936F937F9385
S11307A08F939F93AF93BF93CF93DF93EF93FF9375
S11307B0A0910916B0910A160DB60D920EB60D92BF
S11307C00E94B10FA0910916B0910A16CD91CDBF28
S11307D0DD91DEBFFF91EF91DF91CF91BF91AF919A
S11307E09F918F917F916F915F914F913F912F9145
S11307F01F910F91FF90EF90DF90CF90BF90AF903B
S11308009F908F907F906F905F904F903F902F902C
S11308101F900F900CBE0F900BBE0F900FBE0F9049
S113082008950F920FB6F8940F920BB60F920CB670
S11308300F921F9211242F923F924F925F926F92C8
S11308407F928F929F92AF92BF92CF92DF92EF925C
S1130850FF920F931F932F933F934F935F936F9345
S11308607F938F939F93AF93BF93CF93DF93EF9334
S1130870FF93A0910916B0910A160DB60D920EB60B
S11308800D9213BE0E94290D81110E94B10FA091F7
S11308900916B0910A16CD91CDBFDD91DEBFFF914F
S11308A0EF91DF91CF91BF91AF919F918F917F9104
S11308B06F915F914F913F912F911F910F91FF90F5
S11308C0EF90DF90CF90BF90AF909F908F907F90EC
S11308D06F905F904F903F902F901F900F900CBEA1
S11308E00F900BBE0F900FBE0F9008959ADF1895CE
S11308F00FB6F8940F92FC01868D811102C081E03D
S113090001C080E00F900FBE08950FB6F8940F92C7
S1130910FC01268D878D281302C081E001C080E090
S11309200F900FBE08950F931F93CF93DF93EC01A5
S1130930042F1E8D48A141110CC088819981892BF7
S113094009F042C08C819D810E94C2111D821C82CB
S113095042C0011117C050E08A819B810E948B2EF6
S113096028A18A819B81820F911D9B838A832C817C
S11309703D818217930750F1888199819B838A83F3
S113098080E029C050E08E819F810E948B2E88A137
S113099090E09195819591092E813F81280F391F0F
S11309A03F832E83488159812417350730F42C81E5
S11309B03D81820F931F9F838E83023049F411235C
S11309C049F0115080E007C080E005C080E003C01A
S11309D080E001C080E01F5F1E8FDF91CF911F91E7
S11309E00F910895FC0140A14423A9F050E0268111
S11309F03781240F351F37832683848195812817F7
S1130A00390720F08081918197838683CB016681A9
S1130A1077810C948B2E08951F93CF93DF93EC0171
S1130A200FB6F8940F921AA10BC08B89882351F04A
S1130A30CE0143960E946F1081110E94AB11115098
S1130A4011169CF38FEF8AA30F900FBE0FB6F89484
S1130A500F9219A10BC08885882351F0CE01089606
S1130A600E946F1081110E94AB11115011169CF35A
S1130A708FEF89A30F900FBEDF91CF911F9108953F
S1130A80CF93DF93EC010FB6F8940F92E881F981CC
S1130A908F8D28A190E030E0829FA001839F500DAC
S1130AA0929F500D11244E0F5F1F5D834C831E8E49
S1130AB0FB83EA830197289FA001299F500D389F4B
S1130AC0500D1124CF01840F951F9F838E838FEFC8
S1130AD089A38AA361110BC08885882371F0CE0194
S1130AE008960E946F10882341F03ADE06C0CE01BA
S1130AF0089668DDCE01439665DD0F900FBE81E058
S1130B00DF91CF9108950F931F93F801611103C0F2
S1130B101183008302C051834083878F60A361E007
S1130B20CF01AEDF1F910F910895DF92EF92FF92F4
S1130B300F931F93CF93DF93F82EE62ED42E869F28
S1130B40C0011124839658DCEC01009741F08C011C
S1130B502D2DAC014D5D5F4F6E2D8F2DD4DFCE0159
S1130B60DF91CF911F910F91FF90EF90DF90089547
S1130B70CF92DF92EF92FF920F931F93CF93DF9365
S1130B80CDB7DEB729970FB6F894DEBF0FBECDBF41
S1130B907C016B012E833F834887598710E00FB691
S1130BA0F8940F92F701968D878D981710F0023004
S1130BB0B1F4402FB601C701B6DEF701938999233A
S1130BC041F0C70143960E946F10882321F0C8DDCD
S1130BD002C08111C5DD0F900FBE81E04CC08E8133
S1130BE09F81A885B985892B8A2B8B2B21F40F90A3
S1130BF00FBE80E040C0111105C0CE0101960E94D5
S1130C00341111E00F900FBE10D70FB6F8940F9265
S1130C10F70181A18F3F09F411A2F70182A18F3F4F
S1130C2009F412A20F900FBEBE016A5F7F4FCE017E
S1130C3001960E944511811119C0C70166DE8823FF
S1130C4081F04E815F8168857985C70108960E948D
S1130C501610C701E1DE0E94550E8111A0CF80DD80
S1130C609ECFC701D9DE0E94550E99CFC701D4DEAD
S1130C700E94550E80E029960FB6F894DEBF0FBE91
S1130C80CDBFDF91CF911F910F91FF90EF90DF9037
S1130C90CF9008950F93009769F0FC011582148298
S1130CA011821082168200E020E030E0A90160E0A9
S1130CB070E05EDF0F910895CF93DF93482F60E0DB
S1130CC081E033DFEC01E6DFCE01DF91CF910895BF
S1130CD0EF92FF920F931F93CF93DF938A01FC014E
S1130CE0568D378D531710F02230F9F4422F7801C6
S1130CF0EC011AA18E8DCE0116DE1F3F81F48B8983
S1130D008823A9F0CE0143960E946F10882389F0AE
S1130D10E114F10481F081E0F70180830DC0FF2428
S1130D20F394F10EFAA281E007C080E005C081E0EF
S1130D3003C081E001C081E0DF91CF911F910F9149
S1130D40FF90EF900895CF92DF92EF92FF920F936E
S1130D501F93CF93DF93CDB7DEB729970FB6F894DF
S1130D60DEBF0FBECDBF8C016B012E833F8348874E
S1130D705987E12C0FB6F8940F92F801F68CFF20F6
S1130D8099F0B601C8012EDEFA94F801F68E80853A
S1130D90882331F0C80108960E946F108111E0DCAD
S1130DA00F900FBE81E04FC08E819F81A885B985C9
S1130DB0892B8A2B8B2B21F40F900FBE80E043C02C
S1130DC0E11006C0CE0101960E943411EE24E39492
S1130DD00F900FBE2AD60FB6F8940F92F80181A196
S1130DE08F3F09F411A2F80182A18F3F09F412A2E6
S1130DF00F900FBEBE016A5F7F4FCE0101960E9425
S1130E004511811117C0C80173DD882379F04E8123
S1130E105F8168857985C80143960E941610C801D0
S1130E20FBDD43D78111A6CF9BDCA4CFC801F4DD41
S1130E303CD7A0CFC801F0DD38D7C80159DD8823DD
S1130E4009F498CF80E029960FB6F894DEBF0FBE60
S1130E50CDBFDF91CF911F910F91FF90EF90DF9065
S1130E60CF900895CF93DF93EC010FB6F8940F92CF
S1130E7089A18F3F09F419A28AA18F3F09F41AA20C
S1130E800F900FBE8E8D811104C0CE0143960E9437
S1130E902D10CE01C1DDDF91CF910895FC01448175
S1130EA0558122813381240F351F80819181B901BD
S1130EB0681B790BCB016417750710F0841B950B25
S1130EC008950F93FC018FE0DF011D928A95E9F7E5
S1130ED075876487558344833783268306870F91F8
S1130EE00895AF92BF92CF92DF92EF92FF920F9349
S1130EF01F93CF93DF936C015B017A01FC01C281E4
S1130F00D381048115810C1B1D0B4017510708F474
S1130F108A01F60184859585A801B5018C0F9D1F72
S1130F200E948B2E0E151F0558F4A701401B510B70
S1130F30B501600F711FF601848595850E948B2E83
S1130F40CE018E0D9F1DF6012481358182179307F2
S1130F5010F0821B930BF60193838283C701DF9108
S1130F60CF911F910F91FF90EF90DF90CF90BF90A2
S1130F70AF900895CF92DF92EF92FF920F931F9359
S1130F80CF93DF931F921F92CDB7DEB77C016B0125
S1130F905A83498321153105C1F0FC01868580FD02
S1130FA008C04217530708F49A013A83298381E061
S1130FB00FC02017310758F042E050E0BE016F5FC8
S1130FC07F4FC7018EDF81E003C080E001C080E075
S1130FD0882331F049815A81B601C70182DF02C0FA
S1130FE080E090E00F900F90DF91CF911F910F91CF
S1130FF0FF90EF90DF90CF900895AF92BF92CF9281
S1131000DF92EF92FF920F931F93CF93DF937C01B4
S11310105B01E9014217530708F4EA01209781F1C3
S1131020F7010081118184819581801B910B6E01F0
S11310308C179D0708F46C01F70164857585600FB2
S1131040711FA601C5010E948B2ECC16DD0658F433
S1131050AE014C195D09F70164857585C5018C0DD8
S11310609D1D0E948B2E0C0F1D1FF70184819581FD
S11310700817190710F0081B190BF70111830083D7
S1131080CE01DF91CF911F910F91FF90EF90DF90F0
S1131090CF90BF90AF9008956F927F928F929F925E
S11310A0AF92BF92CF92DF92EF92FF920F931F9372
S11310B0CF93DF931F921F92CDB7DEB76C014B0124
S11310C05A01790101151105B1F0FC0160807180AC
S11310D0A801BE016F5F7F4F90DF89819A81E01A7A
S11310E0F10AA816B90630F4F60171826082A12CC7
S11310F0B12C01C05C019701A501B401C6017DDFDB
S11311000F900F90DF91CF911F910F91FF90EF906F
S1131110DF90CF90BF90AF909F908F907F906F9013
S11311200895CF92DF92EF92FF920F93CF93DF93C4
S1131130EC016B01413011F401E001C000E0C11485
S1131140D10419F4CC24C394D12CCE014096C817F1
S1131150D90720F4219650D97C0102C0E12CF12C4E
S1131160E114F10439F09601AE01B701615F7F4FDC
S1131170C701A7DEC701DF91CF910F91FF90EF90D8
S1131180DF90CF9008950F930FB6F8940F92FC015F
S113119020853185232B71F422853385232B61F43B
S11311A0268137814481558164857585068589DE6C
S11311B081E003C080E001C080E00F900FBE0F917A
S11311C00895FC012481358180819181820F931FD0
S11311D042815381841B950B01978217930710F06A
S11311E0821B930B08952F923F924F925F926F92BE
S11311F07F928F929F92AF92BF92CF92DF92EF92A3
S1131200FF920F931F93CF93DF93CDB7DEB72B9746
S11312100FB6F894DEBF0FBECDBF4C017B876A8743
S11312201A010E831F8328873987FC0184819581E5
S11312300197268520FF0CC02A01F2E04F0E511CB5
S11312408415950558F41E821F821886198606C0D7
S11312508417950710F02A0101C02C018E819F810B
S1131260A885B985892B8A2B8B2B09F436C0CE012E
S11312700196E4D70FB6F8940F92C401A2DF3C01A3
S11312808415950538F560E080E090E00E94DD1457
S11312900E94AF11F401938782870F900FBEAE8036
S11312A0BF80C884D984E12CF12C00E010E09801BF
S11312B040E050E0BA0180E00E941D12F401138660
S11312C01286BE016A5F7F4FCE010196DED7882366
S11312D089F205C00F900FBE02C0612C712C6114FD
S11312E0710419F4C4016DDF3C0182019301A10171
S11312F06A857B85C4013EDE6C01892BE9F0C4015B
S1131300CDDDF4012681378182179307A8F08DD3B0
S1131310F40180859185892B71F080859185E12C7C
S1131320F12C00E020E030E0A90160E00E94C4124A
S1131330F40111861086B9D4C6012B960FB6F89421
S1131340DEBF0FBECDBFDF91CF911F910F91FF90F4
S1131350EF90DF90CF90BF90AF909F908F907F9051
S11313606F905F904F903F902F900895AF92BF92EF
S1131370CF92DF92EF92FF920F931F93CF93DF935D
S1131380EC017B015A0169018E8580FF04C08A014A
S11313900E5F1F4F01C08A01CE0113DF9C01A5011E
S11313A0B701CE01E7DD5C01892BC1F0CE0176DD0A
S11313B02E813F818217930788F088859985892B30
S11313C069F088859985E12CF12C00E020E030E07B
S11313D0A90160E00E94BB1319861886C501DF913C
S11313E0CF911F910F91FF90EF90DF90CF90BF901E
S11313F0AF9008954F925F926F927F928F929F92D7
S1131400AF92BF92CF92DF92EF92FF920F931F930E
S1131410CF93DF93EC012B013A01580169018E85CA
S113142080FF05C06894882481F8912C02C0812C27
S1131430912CA114B104C104D10431F10FB6F89474
S11314400F92CE012BDD7C018816990640F060E0F6
S113145080E090E00E94DD1482D7998788870F90FE
S11314600FBE8E149F0498F0E12CF12C00E010E0E4
S1131470980140E050E0BA0180E0DFD71986188671
S1131480CE010CDD7C0103C0CE0108DD7C018E148D
S11314909F04E8F484019701A301B201CE01FCDDAD
S11314A06C01892BB1F0C1D28A859B85892B69F0A7
S11314B08A859B85E12CF12C00E020E030E0A90135
S11314C060E00E94C4121B861A86EFD302C0C12CAE
S11314D0D12CC601DF91CF911F910F91FF90EF9016
S11314E0DF90CF90BF90AF909F908F907F906F9040
S11314F05F904F900895E0918315F0918415808159
S113150081110CC08FEF9FEFDC0180934D159093F8
S11315104E15A0934F15B09350150895E09183157F
S1131520F09184150780F085E02D80819181A2815E
S1131530B38180934D1590934E15A0934F15B0939E
S113154050150895CF93DF93EC018B8D9C8D0E94F1
S1131550A502CE010E94A502DF91CF9108954F927A
S11315605F926F927F928F929F92AF92BF92CF922F
S1131570DF92EF92FF920F93CF93DF932C015B01E5
S11315804A013901E60165EA70E08B8D9C8D0E9469
S1131590942E8B8D9C8D21E0821A9108880E991EC1
S11315A0A114B10489F415C0822F90E0F501E80F6D
S11315B0F91F3081DE01A80FB91F5D963C9380812D
S11315C0882329F02F5F01C020E0203168F31CA696
S11315D001C01D8E0A3008F009E00A8F0DA71EA66F
S11315E0CE01029600D8CE010E960E94F302DB874C
S11315F0CA878AE090E0A0E0B0E0801B9109A109CD
S1131600B1098E879F87A88BB98BDF8BCE8B84E043
S1131610FE01BF96DF011D928A95E9F71BAAA3017B
S1131620B201C40154D899838883E114F10419F0F8
S1131630F701D183C083DF91CF910F91FF90EF9099
S1131640DF90CF90BF90AF909F908F907F906F90DE
S11316505F904F900895CF93C0E009C02BE0C29FE4
S1131660C001112485569A4E0E94E202CF5FCA300F
S1131670A8F380E995E10E94E20285E895E10E94E1
S1131680E20286E795E10E94E2028BE695E10E9480
S1131690E2028FE595E10E94E20280E995E19093F0
S11316A084158093831585E895E190938215809342
S11316B08115CF910895CF93DF93EC010FB6F89481
S11316C00F9280915E158F5F80935E15809109164D
S11316D090910A16892B51F4D0930A16C0930916D7
S11316E080915E15813091F4B6DF10C08091581559
S11316F081110CC0E0910916F0910A16928D8A8D21
S1131700891720F0D0930A16C093091680915115B9
S11317108F5F80935115EA8D809159158E1710F4BF
S1131720E09359158BE08E9FF0011124E556FA4E93
S11317300180F281E02DFF83EE8326813781398792
S11317402887A681B7819E012E5F3F4F15963C9353
S11317502E93149737832683EA8D8E9FF0011124EC
S1131760E556FA4EFD87EC8780818F5F80830F906A
S11317700FBE80915815882351F0E0910916F0911D
S11317800A16928D8A8D981710F40E94B003DF9187
S1131790CF910895CF93DF931BC00FB6F8940F92A7
S11317A0E0917215F0917315C085D185CE01029632
S11317B00E94340380915E15815080935E15809160
S11317C06A15815080936A150F900FBECE01BADE60
S11317D080916A158111E1CFDF91CF9108958F92A5
S11317E09F92AF92BF92CF92DF92EF92FF92CF93EC
S11317F0DF936B017C01C42F80905A1590905B1588
S1131800A0905C15B0905D158091091690910A1610
S113181002960E9434038FEFC816D806E806F8062D
S1131820B1F5CC23A1F1EFE5F5E1A181B281C0913D
S11318300916D0910A16BF83AE83C0910916D091C0
S11318400A1616968D919C911797998788871696F4
S1131850CD91DC9117978091091690910A16029602
S11318609D838C838091091690910A16029617968F
S11318709C938E931697A0910916B0910A161D9603
S1131880FC93EE931C9780818F5F80833FC0C80CCC
S1131890D91CEA1CFB1CE0910916F0910A16C282BD
S11318A0D382E482F582C814D904EA04FB0468F400
S11318B06091091670910A16809181159091821594
S11318C06E5F7F4F0E94F70221C0609109167091EC
S11318D00A1680918315909184156E5F7F4F0E9444
S11318E0F70280914D1590914E15A0914F15B0912E
S11318F05015C816D906EA06FB0640F4C0924D15E9
S1131900D0924E15E0924F15F0925015DF91CF9181
S1131910FF90EF90DF90CF90BF90AF909F908F900B
S113192008952F923F924F925F926F927F928F927F
S11319309F92AF92BF92CF92DF92EF92FF920F935A
S1131940CF93DF933C011B014A012901CA010E9484
S1131950FC016C01892B71F084E390E00E94FC018E
S1131960EC01892B19F0DC8ECB8E06C0C6010E94D7
S1131970A50202C0C0E0D0E0209761F0A12CB12CF8
S11319806E019201A401B101C301E9DDCE0193DE30
S113199081E001C08FEFDF91CF910F91FF90EF9025
S11319A0DF90CF90BF90AF909F908F907F906F907B
S11319B05F904F903F902F900895EF92FF920F9376
S11319C00F2EFBE4EF2EF5E1FF2EF02D00E020E0DA
S11319D030E040EC50E062E472E08EE491E0A1DF9C
S11319E0813011F40E9481158130C9F4F8948FEF8D
S11319F09FEFDC0180934D1590934E15A0934F15E6
S1131A00B093501581E08093581510925A15109296
S1131A105B1510925C1510925D150E947E038091F7
S1131A2006020F91FF90EF90089580914A158F5F01
S1131A3080934A1508950FB6F8940F9260915A1541
S1131A4070915B1580915C1590915D150F900FBEA0
S1131A500895CF92DF92EF92FF92CF93DF9380911C
S1131A604A15811105C1C0905A15D0905B15E090BC
S1131A705C15F0905D158FEFC81AD80AE80AF80AC9
S1131A80C0925A15D0925B15E0925C15F0925D15E8
S1131A90C114D104E104F104B1F48091831590914F
S1131AA084152091811530918215309384152093EB
S1131AB083159093821580938115809152158F5FC1
S1131AC08093521518DD80914D1590914E15A0917B
S1131AD04F15B0915015C816D906EA06FB0620F436
S1131AE080E0B2C081E001C080E0E0918315F09114
S1131AF08415908191110CC04FEF5FEFBA014093B0
S1131B004D1550934E1560934F15709350159CC00E
S1131B10E0918315F09184150780F085E02D008411
S1131B20F185E02D4281538164817581C416D50607
S1131B30E606F70648F440934D1550934E1560930E
S1131B404F157093501580C0A485B585C681D78183
S1131B50208531853F832E83C085D18526813781B9
S1131B603D832C8311964D915C9112979F012E5FBA
S1131B703F4F4217530731F44085518512965C93C9
S1131B804E931197158614869C9191509C93A08D29
S1131B90B18D109709F1C289D389448955895F832E
S1131BA04E83C489D589428953895D834C831196B8
S1131BB06D917C911297AF01425F5F4F6417750777
S1131BC031F44489558912965C934E931197118E82
S1131BD0108E9C9191509C93A28D909159159A17B7
S1131BE010F4A09359159BE09A9FD0011124A55697
S1131BF0BA4E11960D90BC91A02DB783A68316966C
S1131C004D915C911797518740871696CD91DC9141
S1131C1017973D832C8317963C932E931697A28D8A
S1131C209A9FD0011124A556BA4EB587A4879C91DA
S1131C309F5F9C93228DE0910916F0910A16928D74
S1131C40291708F04FCF51CFE0910916F0910A16E9
S1131C50E28D9BE0E99FF0011124E556FA4E908154
S1131C60923008F081E090915315911116C016C07E
S1131C708091541590915515A0915615B091571512
S1131C800196A11DB11D8093541590935515A093F1
S1131C905615B093571580E001C081E0DF91CF91D4
S1131CA0FF90EF90DF90CF900895CF92DF92EF9264
S1131CB0FF92CF93DF930FB6F8940F9280914A1559
S1131CC0815080934A1580914A158111BEC080913C
S1131CD05E15811188C0BCC0E0917D15F0917E1520
S1131CE00084F185E02DA08DB18DC289D3898489CA
S1131CF095899F838E83C489D589828993899D839D
S1131D008C8311962D913C911297CF010E96281732
S1131D10390731F48489958912969C938E9311978F
S1131D20118E108E8C9181508C93A485B585C681BB
S1131D30D781808591859F838E83C085D185868157
S1131D4097819D838C8311968D919C9112979F010D
S1131D502E5F3F4F8217930731F480859185129649
S1131D609C938E931197158614868C9181508C9335
S1131D70A28D809159158A1710F4A09359158BE000
S1131D808A9FD0011124A556BA4E11960D90BC918C
S1131D90A02DB783A68316964D915C911797518712
S1131DA040871696CD91DC9117973D832C83179627
S1131DB03C932E931697A28D8A9FD0011124A55689
S1131DC0BA4EB587A4878C918F5F8C93928DA09126
S1131DD00916B0910A165A968C91981730F081E042
S1131DE08093531502C0E0E0F0E0809176158111F4
S1131DF073CFEF2B09F07FDBC0905415D0905515AD
S1131E00E0905615F0905715C114D104E104F10483
S1131E10A1F01FDE882319F081E08093531581E03F
S1131E20C81AD108E108F108A1F7109254151092CC
S1131E3055151092561510925715809153158823F5
S1131E4031F00E94B00381E003C080E001C080E073
S1131E500F900FBEDF91CF91FF90EF90DF90CF9066
S1131E6008958F929F92AF92BF92CF92DF92EF929A
S1131E70FF921F93CF93DF93EC016A017B01D5DDC1
S1131E8080905A1590905B15A0905C15B0905D15EC
S1131E9088819981AA81BB81AC01BD014C0D5D1D76
S1131EA06E1D7F1D88169906AA06BB0660F44817A6
S1131EB059076A077B0798F484169506A606B706A1
S1131EC080F010E013C0481759076A077B0758F0E1
S1131ED084169506A606B70640F010E007C010E089
S1131EE005C011E003C011E001C011E0488359832B
S1131EF06A837B83112341F0CB01BA016819790904
S1131F008A099B0940E06BDCD0DE811102C00E948B
S1131F10B003812FDF91CF911F91FF90EF90DF905D
S1131F20CF90BF90AF909F908F900895CF92DF9203
S1131F30EF92FF926B017C01672B682B692B39F0C0
S1131F4074DD40E0C701B6014ADCAFDE01C080E0C9
S1131F50811102C00E94B003FF90EF90DF90CF90F8
S1131F60089580914A15882321F081E080935315C8
S1131F70089510925315E0910916F0910A162081E4
S1131F803181E0910916F0910A16838D948D8217A0
S1131F90930760F06091091670910A16635E7F4F93
S1131FA08091091690910A160E940F188091591574
S1131FB001C08150282F30E09BE0929FF001939F55
S1131FC0F00D1124E556FA4E9081992391F39BE08C
S1131FD0929FA001939F500D1124DF010180F28193
S1131FE0E02D0480F581E02D1296FC93EE93119779
S1131FF042565A4EE417F50729F444815581FD01F0
S1132000528341839BE0929FF001939FF00D112432
S1132010E556FA4E0180F281E02D2085318530931A
S11320200A1620930916809359150895CF92DF92CA
S1132030EF92FF926A017B016091091670910A1672
S1132040625F7F4F0E94F70241E0C701B601C7DB20
S1132050FF90EF90DF90CF900895CF93DF93FC0132
S1132060CB01BA01A181B281C0910916D0910A169F
S1132070BB8BAA8BC0910916D0910A1616964D9166
S11320805C9117975D8B4C8B1696CD91DC911797CD
S11320904091091650910A16425F5F4F5D834C834D
S11320A04091091650910A16425F5F4F17965C9350
S11320B04E931697A0910916B0910A165996FC935F
S11320C0EE93589730813F5F3083222319F06FEFEE
S11320D07FEFCB01422F83DBDF91CF910895CF9324
S11320E0DF93DC011796ED91FC9118970084F1853C
S11320F0E02DA08DB18DC289D389848995899F8370
S11321008E83C489D589828993899D838C83119612
S11321108D919C9112979F01225F3F4F82179307E5
S113212031F48489958912969C938E931197118E1C
S1132130108E8C9181508C9380914A15811152C0DC
S1132140A485B585C681D781808591859F838E833B
S1132150C085D185868197819D838C8311968D91CD
S11321609C9112979F012E5F3F4F8217930731F482
S11321708085918512969C938E931197158614866B
S11321808C9181508C93A28D809159158A1710F4EB
S1132190A09359158BE08A9FD0011124A556BA4EFD
S11321A011960D90BC91A02DB783A68316964D91E0
S11321B05C911797518740871696CD91DC911797BC
S11321C03D832C8317963C932E931697A28D8A9F5A
S11321D0D0011124A556BA4EB587A4878C918F5F80
S11321E08C931CC046E755E1DA011196CD91DC9140
S11321F01297D38BC28B8E819F81958B848B8E811A
S11322009F81DC0115963C932E9314973F832E8374
S1132210518F408FDA018C918F5F8C93928DE09176
S11322200916F0910A16828D891720F481E08093B3
S1132230531501C080E0DF91CF9108950FB6F89453
S11322400F9220915215FC01208340915A15509110
S11322505B1560915C1570915D15418352836383B6
S113226074830F900FBE089520915215FC012083B2
S113227040915A1550915B1560915C1570915D15F4
S1132280418352836383748308958F929F92AF92A4
S1132290BF92CF92DF92EF92FF920F931F93CF934F
S11322A0DF93FB010FB6F8940F92C0905A15D090AB
S11322B05B15E0905C15F0905D15DC0111960D91B5
S11322C01D912D913C91149746015701801A910A52
S11322D0A20AB30A40815181628173814F3FBFEFEB
S11322E05B076B077B0739F1EC01B881A0915215AC
S11322F0BA1759F0C016D106E206F30630F0108280
S113230011821282138281E017C084169506A606F4
S1132310B70658F4481959096A097B09408351835F
S113232062837383A1DF80E007C01082118212826E
S1132330138281E001C080E00F900FBEDF91CF9146
S11323401F910F91FF90EF90DF90CF90BF90AF90CF
S11323509F908F90089581E0809353150895809104
S1132360091690910A16089580915815882331F022
S113237080914A15811104C082E0089581E0089596
S113238080E008950F931F93CF93DF93FC01892B73
S113239009F449C086A5815086A7228D95A52917E1
S11323A009F443C0811143C0EF018F010E5F1F4F39
S11323B0C8010E943403EDA5EA8F8AE090E0A0E012
S11323C0B0E08E1B9109A109B1098E879F87A88B64
S11323D0B98B809159158E1710F4E09359158BE041
S11323E08E9FF0011124E556FA4E0180F281E02D12
S11323F0FF83EE832681378139872887A681B781B9
S113240015961C930E93149717830683EA8D8E9F5B
S1132410F0011124E556FA4EFD87EC8780818F5F29
S1132420808381E005C080E003C080E001C080E0DB
S1132430DF91CF911F910F9108954F925F926F9208
S11324407F92AF92BF92CF92DF92EF92FF920F935F
S11324501F93CF93DF93280139010FB6F8940F929D
S1132460E0910916F0910A16C82FD0E0EC0FFD1F79
S113247083A9823071F1E0910916F0910A16CE0118
S1132480880F991F880F991FE80FF91F87A590A936
S1132490A1A9B2A9409550956095709548235923F8
S11324A06A237B2347A750AB61AB72ABE09109165B
S11324B0F0910A16EC0FFD1F81E083ABA114B10467
S11324C0C104D10431F041E0C601B50188D90E94AC
S11324D0B0030F900FBE0FB6F8940F92E114F104FD
S11324E0A1F0E0910916F0910A16CE01880F991F08
S11324F0880F991FE80FF91F87A590A9A1A9B2A970
S1132500F70180839183A283B383E0910916F0914C
S11325100A16EC0FFD1F83A98230E9F4E091091635
S1132520F0910A16CE01880F991F880F991FE80FA2
S1132530F91F87A590A9A1A9B2A9409450946094C9
S11325407094482259226A227B2247A650AA61AA83
S113255072AA81E001C080E02091091630910A1628
S1132560C20FD31F1BAA0F900FBEDF91CF911F91F3
S11325700F91FF90EF90DF90CF90BF90AF907F903E
S11325806F905F904F9008958F929F92AF92BF92F9
S1132590EF92FF920F93CF93DF93DC010FB6F89481
S11325A00F92E114F10489F0E62FF0E0EE0FFF1F23
S11325B0EE0FFF1FE80FF91F87A490A8A1A8B2A8E7
S11325C0F70180829182A282B38270E0FD01E60F5E
S11325D0F71F83A992E093AB023001F118F40130A4
S11325E031F04DC0033079F10430D1F148C0660FA9
S11325F0771F660F771FFD01E60FF71F87A490A8CA
S1132600A1A8B2A8BA01A901482959296A297B2994
S113261047A750AB61AB72AB01E034C0660F771FC4
S1132620660F771FFD01E60FF71F47A550A961A9A3
S113263072A94F5F5F4F6F4F7F4F47A750AB61AB9E
S113264072AB01E01FC0660F771F660F771FFD0195
S1132650E60FF71F27A730AB41AB52AB01E012C026
S1132660823079F0660F771F660F771FFD01E60F42
S1132670F71F27A730AB41AB52AB01E003C001E029
S113268001C000E0813009F069C01C96ED91FC9115
S11326901D971696CD91DC91179718968D919C9164
S11326A019979F838E831896CD91DC91199716966E
S11326B08D919C9117979D838C83818192819D013B
S11326C02E5F3F4F8217930731F418968D919C919A
S11326D01997928381831D961C921E921C97808168
S11326E0815080835A96EC915A97809159158E1790
S11326F010F4E09359158BE08E9FF0011124E556F8
S1132700FA4E0180F281E02D1796FC93EE93169712
S11327104681578119965C934E931897C681D78149
S11327203D832C83378326835A96EC915A978E9F48
S1132730F0011124E556FA4E1D96FC93EE931C9776
S113274080818F5F80835A969C91E0910916F09165
S11327500A16828D891710F40E94B0030F900FBEE1
S1132760802FDF91CF910F91FF90EF90BF90AF90AA
S11327709F908F9008958F929F92AF92BF92CF9225
S1132780DF92EF92FF920F93CF93DF93DC01E1147A
S1132790F10489F0E62FF0E0EE0FFF1FEE0FFF1FAC
S11327A0E80FF91F87A490A8A1A8B2A8F701808216
S11327B09182A282B38270E0FD01E60FF71F93A914
S11327C082E083AB023001F118F4013031F04DC0E6
S11327D0033079F10430D1F148C0660F771F660FDA
S11327E0771FFD01E60FF71F87A490A8A1A8B2A840
S11327F0BA01A901482959296A297B2947A750AB5D
S113280061AB72AB81E034C0660F771F660F771F30
S1132810FD01E60FF71F47A550A961A972A94F5FF3
S11328205F4F6F4F7F4F47A750AB61AB72AB81E0F7
S11328301FC0660F771F660F771FFD01E60FF71F96
S113284027A730AB41AB52AB81E012C0923079F094
S1132850660F771F660F771FFD01E60FF71F27A787
S113286030AB41AB52AB81E003C081E001C080E0FA
S1132870913009F096C090914A1591115FC01C9651
S1132880ED91FC911D971696CD91DC9117971896B2
S11328902D913C9119973F832E831896CD91DC910D
S11328A0199716962D913C9117973D832C8341815E
S11328B052819D012E5F3F4F4217530731F4189602
S11328C04D915C911997528341831D961C921E92DF
S11328D01C979081915090835A96EC915A979091BD
S11328E059159E1710F4E09359159BE09E9FF00133
S11328F01124E556FA4E0180F281E02D1796FC93DF
S1132900EE9316974681578119965C934E931897C8
S1132910C681D7813D832C83378326835A96EC91D5
S11329205A979E9FF0011124E556FA4E1D96FC938A
S1132930EE931C9790819F5F908321C066E775E1B9
S1132940FB01C181D2815396DC93CE9352972E81A1
S11329503F8155963C932E9354974E815F819D0100
S1132960225F3F4FFA01358324833F832E83599698
S11329707C936E935897FB0190819F5F90835A9646
S11329802C91E0910916F0910A16928D921748F451
S1132990C114D10419F091E0F601908391E0909371
S11329A05315DF91CF910F91FF90EF90DF90CF906F
S11329B0BF90AF909F908F900895009721F48091DD
S11329C0091690910A160FB6F8940F9270E0FC0164
S11329D0E60FF71F23A9223031F4FC01E60FF71F9D
S11329E013AA81E001C080E00F900FBE0895DC01BE
S11329F0E0911516F0911616808191E0811190E016
S1132A009C93911108C00780F085E02D608171814D
S1132A1082819381089560E070E0CB010895CF92A4
S1132A20DF92EF92FF920F931F93FC014283538333
S1132A3064837583938782870417150726073707EE
S1132A40C0F00C191D092E093F0986859785A089B8
S1132A50B189081719072A073B0700F5BF016E5F04
S1132A607F4F80911316909114160E94F70280E014
S1132A7018C00C151D052E053F0528F44C155D05E1
S1132A806E057F0568F4BF016E5F7F4F8091151658
S1132A90909116160E94F70280E003C081E001C005
S1132AA081E01F910F91FF90EF90DF90CF900895F8
S1132AB00FB6F8940F928091111690911216892BEB
S1132AC0E9F482E296E10E94E20287E196E10E9443
S1132AD0E20282E296E1909316168093151687E13E
S1132AE096E1909314168093131640E067E08AE011
S1132AF00E94950590931216809311160F900FBEA5
S1132B000895EF92FF920F93D3DF80911116909165
S1132B101216892B91F00F2EFFE0EF2EF6E1FF2E17
S1132B20F02D03E020E030E040EC50E067E472E098
S1132B3088E591E00E94910C01C080E00F91FF9024
S1132B40EF9008958F929F92AF92BF92CF92DF92AF
S1132B50EF92FF920F931F93CF93DF93CDB7DEB71E
S1132B6027970FB6F894DEBF0FBECDBFE0911116C4
S1132B70F0911216309781F169832A833B834C8349
S1132B805D839F838E836630F4F4EEDB823069F4D8
S1132B9000E0A7019601BE016F5F7F4F809111167F
S1132BA0909112160E94B80518C000E020E030E0B1
S1132BB0A901BE016F5F7F4F80911116909112168B
S1132BC00E94B8050AC020E0A801BE016F5F7F4FD4
S1132BD0CF010E94680601C080E027960FB6F894E2
S1132BE0DEBF0FBECDBFDF91CF911F910F91FF903C
S1132BF0EF90DF90CF90BF90AF909F908F9008950B
S1132C008F929F92AF92BF92CF92DF92EF92FF92F8
S1132C100F931F93CF93DF933BC00780F085E02D84
S1132C2080809180A280B380C085D1858E010E5FA3
S1132C301F4FC8010E943403EC89FD89CE01199508
S1132C408E8982FF25C08E859F85A889B989880DC4
S1132C50991DAA1DBB1D88169906AA06BB0670F409
S1132C608A839B83AC83BD83DB87CA87B801809149
S1132C701516909116160E94F7020AC0C12CD12C89
S1132C80760100E010E0A501940160E0CE015ADF76
S1132C90E0911516F091161680818111BECF8091B6
S1132CA01316909114169093161680931516F0939C
S1132CB01416E0931316DF91CF911F910F91FF909B
S1132CC0EF90DF90CF90BF90AF909F908F9008953A
S1132CD0CF92DF92EF92FF92CF93DF93EC010E94A9
S1132CE01B0D6B017C0180910B1690910C16A09129
S1132CF00D16B0910E16C816D906EA06FB0620F486
S1132D007FDF81E0888301C01882C0920B16D092C5
S1132D100C16E0920D16F0920E16C701B601DF9163
S1132D20CF91FF90EF90DF90CF9008954F925F92F4
S1132D306F927F928F929F92AF92BF92CF92DF92C7
S1132D40EF92FF920F931F93CF93DF934B015C019C
S1132D5029013A01E0911516F09116160780F085C5
S1132D60E02DC085D185CE0102960E9434038E8960
S1132D7082FF1BC04E855F8568897989480D591D7E
S1132D806A1D7B1D7501640193018201CE0147DE3A
S1132D90882369F0C12CD12C760100E010E0A50154
S1132DA0940160E0CE01CEDE02C08E7F8E8BEC8972
S1132DB0FD89CE011995DF91CF911F910F91FF905D
S1132DC0EF90DF90CF90BF90AF909F908F907F90C7
S1132DD06F905F904F9008958F929F92AF92BF92A1
S1132DE0CF92DF92EF92FF921F93CF93DF931F92C4
S1132DF0CDB7DEB76B017C01142F0E94150DCE01F7
S1132E00019666DF4B015C01898181112DC011118E
S1132E100DC08C149D04AE04BF0440F00E94550EF6
S1132E20A5019401C701B60181DF20C0112341F03F
S1132E30E0911316F0911416808111E0811110E0D5
S1132E40B701A601481959096A097B09212F809104
S1132E501116909112160E9432070E94550E81118C
S1132E6005C00E94B00302C00E94550E0F90DF916E
S1132E70CF911F91FF90EF90DF90CF90BF90AF90D4
S1132E809F908F900895AF92BF92CF92DF92EF926E
S1132E90FF920F931F93CF93DF93CDB7DEB728979D
S1132EA00FB6F894DEBF0FBECDBF82C089818823E0
S1132EB00CF47EC0AE80BF80D5011C968D919C9190
S1132EC01D97892B21F0C50102960E943403CE017F
S1132ED00896FEDE8B019C01E9810E2E000CFF0B8F
S1132EE0EA30F10508F064C08827EE58FF4F8F4F91
S1132EF00C947B2CF50186898160868BCA80DB80EB
S1132F00EC80FD8046855785608971894C0D5D1D77
S1132F106E1D7F1DC50183DD882309F449C0D501D9
S1132F205496ED91FC915597C5011995F501868943
S1132F3082FF3EC04A815B816C817D818685978555
S1132F40A089B1899A01AB01280F391F4A1F5B1F61
S1132F50C12CD12C760100E010E060E0C501F2DD67
S1132F6027C0D50156968C9156978E7F56968C9392
S1132F701FC0F50186898160868B4A815B816C81E3
S1132F807D8146875787608B718B400F511F621F6D
S1132F90731F68017901C50142DD0AC0F501868904
S1132FA081FD04C0C5010E94A50202C08E7F868BEC
S1132FB020E030E0A901BE016F5F7F4F80911116C0
S1132FC0909112160E94A306811170CF28960FB615
S1132FD0F894DEBF0FBECDBFDF91CF911F910F914B
S1132FE0FF90EF90DF90CF90BF90AF900895089539
S1132FF084B1806884B985B1806885B9089583B146
S1133000806883B90895F4DF2FEF80E792E02150C0
S113301080409040E1F700C00000F1DFF5CFE8DF29
S11330202FEF87EA91E6215080409040E1F700C0FD
S11330300000E5DFF5CF9093301680932F160895A6
S113304090932E1680932D160895FC01608384E0DE
S1133050818380912F16909130169283838380917F
S11330602D1690912E1694838583CF0108950F9386
S11330701F93CF93DF93CDB7DEB764970FB6F89461
S1133080DEBF0FBECDBF81E00E94A0244AD4C6D6C5
S11330909F938F938FE492E09F938F930E94312F9D
S11330A0BED5BCD69F938F9382E692E09F938F9375
S11330B00E94312F8E010F5F1F4FC80144D4AED63A
S11330C01F930F939F938F938BE792E09F938F931C
S11330D00E94312FC80153D4A1D69F938F931F937D
S11330E00F938FE892E09F938F930E94312FA80152
S11330F064EA72E085EC92E070D690D69F938F9349
S11331001F930F9384EA92E09F938F9385EC92E050
S11331109F938F9386ED92E09F938F930E94312F1C
S113312061D47CD69F938F938CE093E09F938F938D
S11331300E94312F0FB6F894DEBF0FBECDBF81E0E1
S11331404BD56CD69F938F938BE193E09F938F9392
S11331500E94312F84EF91E04AD560D69F938F93DC
S113316081E08F9384EF8F938CE393E09F938F930D
S11331700E94312F0FB6F894DEBF0FBECDBF1AE008
S113318080E036D4082F4AD69F938F931F921F93C3
S11331908CE593E09F938F930E94312F0F900F90B3
S11331A00F900F900F900F90083059F080E00E941C
S11331B0042566E371E080E090E00E94960F1150D0
S11331C0F9F6083021F481E00E94E62409C081E088
S11331D00E94F52480E00E94C3240E94B003FDCF26
S11331E064960FB6F894DEBF0FBECDBFDF91CF91CA
S11331F01F910F910895CF93DF9300D01F92CDB705
S1133200DEB781E080D362E070E080E090E00E946D
S1133210960F80E078D366E970E080E090E00E9449
S1133220960F2AD324DFE1E3F6E186E0818382E08E
S113323080830E941B0D69837A838B839C8348EA75
S113324058E460E070E0CE0101960E94310FE1E3A2
S1133250F6E180E3828389E3838382E0848383EAE3
S1133260858384E086838AE1878383E00E94162530
S113327061E376E180E0E5D3D1D59F938F938CE72A
S113328093E09F938F930E94312F0F900F900F9094
S11332900F90D5CFEF92FF920F93E12CF12C082FD2
S11332A020E030E048E851E061E973E08BEF98E119
S11332B00E94910C0F91FF90EF900895EF92FF926E
S11332C00F9380916D1790916E17892B89F481E08B
S11332D00E945C0690936E1780936D17009741F0DF
S11332E000E020E030E0A90160E070E00E94B80551
S11332F041E060E070E084E690E00E9491089093E1
S11333006C1780936B17E12CF12C03E020E030E084
S113331040EC50E068E973E085EE99E10E94910C7D
S11333200F91FF90EF9008950F931F93CF93DF9326
S1133330CDB7DEB766970FB6F894DEBF0FBECDBF2C
S113334006E010E020E030E046E150E0BE016F5FAF
S11333507F4F80916B1790916C170E94FA09009728
S113336049F19F938F9385EA93E09F938F930E94F3
S1133370312F8B8190E0982F88272C81822B0D810F
S113338010E0102F00272E81022B9F938F9389EB3F
S113339093E09F938F930E94312F1F930F9383ED9C
S11333A093E09F938F930E94312F0FB6F894DEBF62
S11333B00FBECDBF66960FB6F894DEBF0FBECDBF6D
S11333C0DF91CF911F910F910895CF93DF93CDB7E4
S11333D0DEB766970FB6F894DEBF0FBECDBF0E946E
S11333E01B0DC6D0882321F08AEE93E00E94452F5E
S11333F064E670E080E090E00E94960FCED08823CF
S113340021F080E294E00E94452F64E670E080E0C1
S113341090E00E94960F0DD1D82EC92E0CDEE3D079
S1133420F82EE92E0DDE62E0CE0101960EDE06E0F6
S113343010E020E030E046E150E0BE016F5F7F4FD6
S113344080916B1790916C170E94F3088631910557
S113345029F087E594E00E94452F1EC09F938F9327
S113346082E694E09F938F930E94312FCF92DF9254
S113347082E794E09F938F930E94312FEF92FF9203
S113348081E894E09F938F930E94312F4DDF0FB614
S1133490F894DEBF0FBECDBF68E371E080E090E03A
S11334A00E94960F9ECF81B1816881B980E00E940D
S11334B04B2304DF85E00E94522460E070E081E049
S11334C0E2D183E0E7DE3CD0811104C084E994E0DA
S11334D00C94452F0895E7DF88EA94E00E94452F75
S11334E00E94DD0CFFCF6530F1F4FA0180818F7307
S11334F090E0982F88272181822B90930A02809351
S113350009028281F0E48F9FC0011124FA01238112
S113351026952695822B909308028093070281E0DA
S1133520809347160895643051F080E090E49093BE
S113353008028093070290930A0280930902089577
S11335400F931F9303E71AE120E034E244EF50E0C5
S113355060E087E20E9438259093491680934816CC
S113356021E0892B09F020E0822F1F910F9108950B
S11335708091481690914916009759F040E060E018
S113358070E00E948925843031F41092471680E05F
S1133590089582E0089583E00895809148169091FB
S11335A04916009739F064E00E94D525853021F052
S11335B083E0089582E0089580E00895609109020F
S11335C070910A0280E090E00E94682B20E030E0D5
S11335D048EC52E40E94F62B20E038EF4FE756E423
S11335E00C94CF2A0895EADF20E030E040E251E471
S11335F00E94F62B0E943C2BCB0108956091070298
S11336007091080280E090E00E94682B20E030E096
S113361045E253E40E94F62B20E038EF4FE756E4EE
S11336200E94CF2A20E030E040E252E40C946A2A5F
S11336300895E4DF20E030E040E251E40E94F62BFC
S11336400E94372BCB0108950F931F93CF93DF93E1
S11336501F921F92CDB7DEB78C0119822DC0E09165
S11336608116EC3250F481E08E0F80938116F0E0E5
S1133670ED54F94E8A81808302C0109281168A81AA
S11336808A30D1F44091811650E0FA01EF54F94E9A
S11336901082415051099E012F5F3F4F63EB76E149
S11336A080918416909185160E94B60989818111B2
S11336B00E94B00310928116BE016E5F7F4FC80155
S11336C054D5882361F20F900F90DF91CF911F9111
S11336D00F9108950F931F93CF93DF938C01EB0108
S11336E080918416909185160E94C308B8018AE4DB
S11336F096E10E94CB2E209779F0EAE4F6E101905E
S11337000020E9F7319780E290E091838083BE0145
S11337108AE496E10E94C02EEAE4F6E1DF010D900E
S11337200020E9F711978DE09AE011969C938E930F
S113373012961C9201900020E9F73197EA54F64161
S1133740AE2F8AE496E1AC016A2F8091861690919F
S11337508716B6D4811111C008E215E020E030E0EC
S11337604DE250E06DE077E18091841690918516EA
S11337700E94FA098DE097E102C080E090E0DF91B9
S1133780CF911F910F9108952F923F924F925F9284
S11337906F927F928F929F92AF92BF92CF92DF925D
S11337A0EF92FF920F931F93CF93DF935C01FC0181
S11337B001900020E9F731976F01C81AD90A5C2CEF
S11337C00F2EF3E58F2EF7E09F2EF02DE12CF12C38
S11337D04C2C3701F40101811281E8010990002089
S11337E0E9F72197C01BD10B3C2EF9E0CF16D10489
S11337F058F0F4012080FEE02F1206C0B801C50184
S11338000E949B2E892B09F5442D351408F44C2F66
S113381050E0B801C5010E94D22E892B49F4F3016E
S1133820EE0FFF1FE60DF71DED5AF84F20800DC077
S11338308FEFE81AF80AE3E08E0E911CF1E1EF161F
S1133840F10439F66894222424F8822DDF91CF9173
S11338501F910F91FF90EF90DF90CF90BF90AF90AA
S11338609F908F907F906F905F904F903F902F909C
S1133870089530DF89CF089580918416909185163C
S11338800C94C30808958F929F92AF92CF92EF92B7
S11338900F931F93CF93C82F8B0141E060E070E03A
S11338A088EC90E00E94910890938516809384168A
S11338B010938316009382160F2EF4E28F2EFBE1F1
S11338C09F2EF02D6894AA24A6F86894CC24C6F8F8
S11338D0E12C00E023E040E051EE60E070E08C2F4A
S11338E01ED39093871680938616E7E0F1E08081DB
S11338F080618083CF911F910F91EF90CF90AF9013
S11339009F908F900895882331F0E8E0F1E0808162
S11339108F7E80830895E8E0F1E080818061808378
S1133920089560E070E089ED94E0D4DEEDE0F7E125
S113393001900020E9F73197ED50F74181E0759748
S113394008F080E00895CF93DF93EC0160E070E02D
S11339508AEE94E0BFDEEDE0F7E101900020E9F7A4
S1133960EE51F74139F46DE077E1CE010E94CB2EA0
S113397080E002C0188281E0DF91CF910895FC01BC
S113398001900020E9F79F012151310928173907D7
S113399029F4BC0188E195E06CCF089589E008958D
S11339A0FC0101900020E9F79F01215131092817FA
S11339B0390729F4BC0187E295E05BCF089589E0DB
S11339C00895FC0101900020E9F79F01215231097B
S11339D02817390729F4BC0186E395E04ACF0895F6
S11339E089E0089560E070E085E795E042CF0895AE
S11339F00F931F93E82FF0E0EE0FFF1FE15BF84FEA
S1133A00608171818EE795E034DF811114C008E292
S1133A1015E020E030E04DE250E06DE077E1809188
S1133A208416909185160E94FA09882321F08DE06E
S1133A3097E1AADE03C08DE097E1A6DE1F910F9106
S1133A4008950F931F93CF93DF931F92CDB7DEB7E3
S1133A50DB0111969C911197953108F0B4C099231C
S1133A6081F160E070E0272F30E0462F50E0FD0147
S1133A70E40FF51F928192959F709A3010F0995C33
S1133A8001C0905DF901E256F94E90832F5F3F4FDC
S1133A90FD01E40FF51F92819F70492F50E04A30D9
S1133AA0510514F0995C01C0905DF901E256F94E9C
S1133AB090837E5F6F5F11969C911197691798F2BE
S1133AC001C070E0E72FF0E0E256F94E10824C910D
S1133AD0811103C087E895E002C089E895E02EE9EA
S1133AE036E13F932F931F924F939F938F938DE8CB
S1133AF095E09F938F9380EE96E19F938F930E941E
S1133B00752F60E070E080EE96E1B3DE0FB6F894B6
S1133B10DEBF0FBECDBF811159C008E215E020E021
S1133B2030E04DE250E06DE077E1809184169091B1
S1133B3085160E94FA09882309F447C08DE097E1AD
S1133B4023DE8E3009F042C087E08983809182169B
S1133B5090918316892BA9F1BE016F5F7F4F8DE091
S1133B6097E168D180938816E981F0E0E35FF84E2D
S1133B70DF010D900020E9F71197AE1BBF0BAA23BC
S1133B8091F0BB27CD0101979C0112F42F5F3F4FA9
S1133B903595279520938916AF014F5F5F4F64E1F8
S1133BA08AE896E173D101E010E020E030E046E1DC
S1133BB050E068E876E180918216909183160E9425
S1133BC0F3088EE003C084E101C080E00F90DF9130
S1133BD0CF911F910F910895813019F06DE975E02F
S1133BE002C066E776E081EA95E043CE08959F93AC
S1133BF08F9382ED95E09F938F9380EE96E19F9350
S1133C008F930E94752F60E070E080EE96E131DEC4
S1133C100F900F900F900F900F900F9008952F9288
S1133C203F924F925F926F927F928F929F92AF9248
S1133C30BF92CF92DF92EF92FF920F931F93CF9395
S1133C40DF93CDB7DEB7A0970FB6F894DEBF0FBEF3
S1133C50CDBF6FEF75E08BE096E03CDD95DD811123
S1133C60A3C080E2E2E2F2E0DE01119601900D923F
S1133C708A95E1F79E012F5F3F4F6901E12CF12CFA
S1133C800F2EF7E1AF2EF6E0BF2EF02D00EE16E179
S1133C900F2EF0E34F2EF6E05F2EF02D0F2EF7E4FB
S1133CA08F2EF6E09F2EF02D0F2EF1E66F2EF6E00C
S1133CB07F2EF02D3E2C2F2CFF92EF92BF92AF92CD
S1133CC01F930F930E94752F60E070E0C80102DD1E
S1133CD05BDD0F900F900F900F900F900F9081115C
S1133CE063C032E03E15E8F4F60183818F9382814C
S1133CF08F9381818F9380818F93FF92EF925F9254
S1133D004F921F930F930E94752F60E070E0C801DB
S1133D10E1DC3ADD0FB6F894DEBF0FBECDBF8111F2
S1133D2043C02F923F929F928F921F930F930E94B2
S1133D30752F60E070E0C801CDDC26DD0F900F9098
S1133D400F900F900F900F9081112EC02F923F92E1
S1133D507F926F921F930F930E94752F60E070E023
S1133D60C801B8DC11DD0F900F900F900F900F90E9
S1133D700F90811119C03FEFE31AF30A84E0C80ED3
S1133D80D11C98E0E916F10409F094CF60E070E0EA
S1133D9089E796E09FDCF8DC811106C060E070E002
S1133DA08AE896E097DCF0DCA0960FB6F894DEBFC4
S1133DB00FBECDBFDF91CF911F910F91FF90EF9078
S1133DC0DF90CF90BF90AF909F908F907F906F9037
S1133DD05F904F903F902F900895EF92FF920F9332
S1133DE01F93CF93DF93EC018B017A0181E0F4DE22
S1133DF081110DC0CE01D4DD811109C0C801E1DDFE
S1133E00811105C0C701BBDD811101C0EBDDDF916C
S1133E10CF911F910F91FF90EF90089590E0FC01D6
S1133E20EE0FFF1F8E0F9F1FFC01ED5AF84F81818B
S1133E3092810895DC01009729F1FB012081FC01A6
S1133E4001900020E9F73197E81BF90B822F90E0ED
S1133E50E817F907C8F080E008C0880F382F330F3F
S1133E60330F830F8053890F2F5FFD01E20FF11D84
S1133E70908130ED390F3A3010F49111EECFFB01FF
S1133E802083089580E0089580E008950F931F93A0
S1133E90CF93DF93DC01EA012097E1F1FA0101906D
S1133EA00020E9F73197E41BF50B329710F532C087
S1133EB08D01040F151F30E0AE01420F531FFA01AC
S1133EC09081913428F09753592F5295507F03C015
S1133ED0592F5295507F2C0F3D1FF9019181913438
S1133EE010F0975301C09053950FF80190838F5FA2
S1133EF001C080E0282F220F482F50E0FE010190DE
S1133F000020E9F73197EC1BFD0B4E175F0710F407
S1133F108613CECFDF91CF911F910F9108952F92E9
S1133F203F924F925F926F927F928F929F92AF9245
S1133F30CF92EF92FF920F931F93CF93DF93CDB75E
S1133F40DEB7F82E2A013B0188E090E00E94832C22
S1133F508C018F2D90E0FC01EE0FFF1FE65CF84E04
S1133F60118300830115110509F46DC0880F991F91
S1133F70FC01E55FFD4F80819181D8018D939C9375
S1133F808C2D90E0880F991F880F991F0E94832C15
S1133F901C0186E090E00E94832C7C014C2DB10131
S1133FA0F4D6F801F582E4828A2D90E0880F991FF7
S1133FB0880F991F0E94832C1C0186E090E00E94C8
S1133FC0832C7C014A2DB101E0D6D8011396FC92D2
S1133FD0EE92129717969C928E921697FFB6F894CB
S1133FE0ED91FC91119736978081826080838D904A
S1133FF09C90C301B2010E94682B20E030E040E0B5
S113400051E40E94F62B9B01AC0160E074E284E76A
S11340109BE40E94CF2A20E030E040E85FE30E9466
S11340206A2A0E943C2BF40132976083D801ED91F7
S1134030FC911197359788E98083ED91FC91349731
S113404086E08083FFBEC801DF91CF911F910F915D
S1134050FF90EF90CF90AF909F908F907F906F9054
S11340605F904F903F902F900895CF93DF93DC01A2
S1134070892B01F11296ED91FC9113979381828122
S11340802581981B922384819817B1F0838126950A
S11340902823C081D181C20FD11D68838F5F958190
S11340A089238383ED91FC9135978081806280839D
S11340B080E003C081E001C082E0DF91CF910895E8
S11340C0EF92FF920F931F93CF93DF937C0100979E
S11340D009F441C0DC011296ED91FC911397938190
S11340E08281981B858198238481891B8617A8F176
S11340F0662341F1842F952FDC016150462F50E057
S11341004F5F5F4F480F591FE701EA81FB8193819D
S113411082812581981B92238481981779F08C9150
S1134120938126952923608171818B01020F111DD2
S1134130E80188839F5F8581982393831196A41750
S1134140B50711F7D701ED91FC9135978081806215
S1134150808380E003C081E001C082E0DF91CF91E1
S11341601F910F91FF90EF9008950097D1F0DC011B
S11341701496ED91FC91159793818281981799F08B
S11341809281858186958923A081B181A80FB11D73
S11341908C91DB018C939F5F85819823928380E0CF
S11341A0089581E0089583E008951F920F920FB659
S11341B00F9211240BB60F922F933F934F935F935B
S11341C06F937F938F939F93AF93BF93CF93DF931B
S11341D0EF93FF93A0913A17B0913B17109711F109
S11341E06091C6001496ED91FC911597938182819C
S11341F02581981B92238481981761F083812695E9
S11342002823C081D181C20FD11D68838F5F95811E
S1134210892383831696ED91FC911797309711F0BB
S1134220CD011995FF91EF91DF91CF91BF91AF919E
S11342309F918F917F916F915F914F913F912F91BA
S11342400F900BBE0F900FBE0F901F9018951F92EA
S11342500F920FB60F9211240BB60F922F938F93D8
S11342609F93AF93BF93EF93FF93E0913A17F0912D
S11342703B173097B9F00280F381E02D938182815E
S11342809817B1F092818581282F26952923A08142
S1134290B181A20FB11D2C919F5F8923828320934A
S11342A0C6000BC0E1ECF0E080818F7D808305C007
S11342B0E1ECF0E080818F7D8083FF91EF91BF91ED
S11342C0AF919F918F912F910F900BBE0F900FBEC6
S11342D00F901F9018951F920F920FB60F921124F2
S11342E00BB60F922F933F934F935F936F937F93EC
S11342F08F939F93AF93BF93CF93DF93EF93FF93EA
S1134300A0913C17B0913D17109711F16091CE0028
S11343101496ED91FC911597938182812581981BC8
S113432092238481981761F0838126952823C08184
S1134330D181C20FD11D68838F5F958189238383C7
S11343401696ED91FC911797309711F0CD011995C0
S1134350FF91EF91DF91CF91BF91AF919F918F9199
S11343607F916F915F914F913F912F910F900BBE71
S11343700F900FBE0F901F9018951F920F920FB6BB
S11343800F9211240BB60F922F938F939F93AF9399
S1134390BF93EF93FF93E0913C17F0913D17309753
S11343A0B9F00280F381E02D938182819817B1F0F6
S11343B092818581282F26952923A081B181A20F7E
S11343C0B11D2C919F5F892382832093CE000BC063
S11343D0E9ECF0E080818F7D808305C0E9ECF0E0BA
S11343E080818F7D8083FF91EF91BF91AF919F91E9
S11343F08F912F910F900BBE0F900FBE0F901F90B7
S113440018951F920F920FB60F9211240BB60F92AC
S11344102F933F934F935F936F937F938F939F93C8
S1134420AF93BF93CF93DF93EF93FF93A0913E1786
S1134430B0913F17109711F16091D6001496ED9149
S1134440FC911597938182812581981B9223848105
S1134450981761F0838126952823C081D181C20FEA
S1134460D11D68838F5F9581892383831696ED918F
S1134470FC911797309711F0CD011995FF91EF91A9
S1134480DF91CF91BF91AF919F918F917F916F9168
S11344905F914F913F912F910F900BBE0F900FBEE4
S11344A00F901F9018951F920F920FB60F92112420
S11344B00BB60F922F938F939F93AF93BF93EF936A
S11344C0FF93E0913E17F0913F173097B9F00280C7
S11344D0F381E02D938182819817B1F092818581D7
S11344E0282F26952923A081B181A20FB11D2C91DB
S11344F09F5F892382832093D6000BC0E1EDF0E017
S113450080818F7D808305C0E1EDF0E080818F7D27
S11345108083FF91EF91BF91AF919F918F912F91E4
S11345200F900BBE0F900FBE0F901F9018951F9207
S11345300F920FB60F9211240BB60F922F933F9345
S11345404F935F936F937F938F939F93AF93BF9397
S1134550CF93DF93EF93FF93A0914017B09141174E
S1134560109711F1609136011496ED91FC91159715
S1134570938182812581981B92238481981761F00D
S1134580838126952823C081D181C20FD11D6883E0
S11345908F5F9581892383831696ED91FC911797FC
S11345A0309711F0CD011995FF91EF91DF91CF91E3
S11345B0BF91AF919F918F917F916F915F914F9137
S11345C03F912F910F900BBE0F900FBE0F901F9035
S11345D018951F920F920FB60F9211240BB60F92DB
S11345E02F938F939F93AF93BF93EF93FF93E09198
S11345F04017F09141173097B9F00280F381E02D14
S1134600938182819817B1F092818581282F269514
S11346102923A081B181A20FB11D2C919F5F892311
S11346208283209336010BC0E1E3F1E080818F7D2A
S1134630808305C0E1E3F1E080818F7D8083FF9179
S1134640EF91BF91AF919F918F912F910F900BBEDE
S11346500F900FBE0F901F901895CF93DF931F926A
S1134660CDB7DEB7BE016F5F7F4F80914217909147
S113467043177BDD8111F6CF898190E00F90DF91A4
S1134680CF910895682F8091421790914317EDDCE4
S113469080E090E008958F929F92AF92CF92EF9234
S11346A00F93812C912C6894AA24A7F86894CC24A5
S11346B0C7F8E12C00E023E040E051EE60E070E058
S11346C02EDC9093431780934217E3E7F7E183E1ED
S11346D092E091838083938382830F91EF90CF90B4
S11346E0AF909F908F90089590E0FC01EE0FFF1F14
S11346F0E80FF91FEE0FFF1FEC5BF84E2381211129
S11347001FC09C01220F331FF901E80FF91FEE0FA0
S1134710FF1FEC5BF84EA081B1814C91F901E80FC9
S1134720F91FEE0FFF1FEC5BF84E81E090E0028072
S113473002C0880F991F0A94E2F7842B8C93089582
S1134740FC01EE0FFF1FDF01A80FB91FAA0FBB1F4B
S1134750AC5BB84E0D90BC91A02D2C91E80FF91FC5
S1134760EE0FFF1FEC5BF84E81E090E0028002C088
S1134770880F991F0A94E2F7809582238C930895F9
S113478090E0FC01EE0FFF1FE80FF91FEE0FFF1F73
S1134790EC5BF84E2381211120C09C01220F331FB2
S11347A0F901E80FF91FEE0FFF1FEC5BF84EA08133
S11347B0B1814C91F901E80FF91FEE0FFF1FEC5B7B
S11347C0F84E81E090E0028002C0880F991F0A949D
S11347D0E2F7809584238C930895FC01EE0FFF1F6C
S11347E0DF01A80FB91FAA0FBB1FAC5BB84E0D9019
S11347F0BC91A02D2C91E80FF91FEE0FFF1FEC5B6D
S1134800F84E81E090E0028002C0880F991F0A945C
S1134810E2F7822B8C930895CC24C394D12C689412
S1134820BB24B2F8C4E4D7E110E08C81813081F07C
S113483018F1823061F5E881F9812081C6010A808E
S113484002C0880F991F0A94E2F7822780831FC051
S11348508D818F5F863010F48D8319C01D82E881AD
S1134860F9812081C6010A8002C0880F991F0A9429
S1134870E2F7822780830BC00D81002329F0812F6A
S11348807FDF01500D8303C0BC82812F2DDF1F5FAA
S11348902696143051F66CE070E080E090E00E94BF
S11348A0960FC0CFEF92FF920F931F93CF93DF9396
S11348B0082F80E487B9C4E4D7E10F2EF8E2EF2E85
S11348C0F12CF02DF982E88286E08A831B8214E0C1
S11348D01C8380E009DF80E887B9FF82EE8287E0ED
S11348E0888719861A8781E0FFDE80E283BB84E330
S11348F090E09D878C8785E08E871F86188B82E0E9
S1134900F3DE80E18093010182E091E09B8B8A8B4E
S11349101C8B1D8A1E8B83E0E7DEE12CF12C20E04A
S113492030E040EC50E066E877E08CE094E20E94EE
S1134930910CDF91CF911F910F91FF90EF9008950B
S1134940CF93DF9390E0FC01EE0FFF1FDF01A80F70
S1134950B91FAA0FBB1FAC5BB84ECD91DC91119768
S1134960488121E030E012960C90129702C0220F89
S1134970331F0A94E2F724272883FD0181E084830E
S1134980DF91CF910895CF93DF9390E0FC01EE0F78
S1134990FF1FDF01A80FB91FAA0FBB1FAC5BB84EE6
S11349A0CD91DC911197488121E030E012960C9072
S11349B0129702C0220F331F0A94E2F72427288398
S11349C0FD0182E08483DF91CF910895282F30E0A8
S11349D0F901EE0FFF1FE20FF31FEE0FFF1FEC5B59
S11349E0F84E93E09483CCCE0895282F30E0F9015B
S11349F0EE0FFF1FE20FF31FEE0FFF1FEC5BF84EED
S1134A0094E0948371CE089590E0FC01EE0FFF1FB3
S1134A10DF01A80FB91FAA0FBB1FAC5BB84E26E07D
S1134A2015962C931597FD011482089590E0FC01CE
S1134A30EE0FFF1FDF01A80FB91FAA0FBB1FAC5B4E
S1134A40B84E15961C921597FD0114820895809115
S1134A506A1781110CC08CE08093B8008FEF8093AB
S1134A60BB0084E08093BC0081E080936A170895C2
S1134A70AF92BF92CF92DF92EF92FF920F931F9368
S1134A80CF93DF93A82EB62E69017A0184E090E0DB
S1134A903AD7EC01892B61F1A88281E0B81212C0E7
S1134AA0C701B60120EA36E841E050E002D7DA0156
S1134AB0C9014097A109B109B695A795979587951E
S1134AC0898311C0C701B60120E83AE146E050E00D
S1134AD0F0D6DA01C9014097A109B109B695A795A5
S1134AE09795879589831B830A838C2F9D2F02C0FA
S1134AF080E090E0DF91CF911F910F91FF90EF90B4
S1134B00DF90CF90BF90AF9008958091BC008170EA
S1134B100895FF920F931F93CF93DF930097D1F1E2
S1134B204A30D0F5F42E8B01EC01EFDF811136C051
S1134B3080915D1790915E17C817D90741F087DF00
S1134B4089818093B800D0935E17C0935D1781E08C
S1134B508F0D80935F178881880F80936017FF20E3
S1134B6089F0F801A1E6B7E14FEF4F0D642F70E033
S1134B70CB010196B801680F791F81918D93E617D7
S1134B80F707D9F788EF8093210285EA8093BC0068
S1134B9084E005C086E003C087E001C082E0DF91C5
S1134BA0CF911F910F91FF9008951F93CF93DF939F
S1134BB0009729F16B3028F5162FEC01A6DF81113F
S1134BC022C080915D1790915E17C817D90741F0F4
S1134BD03EDF89818093B800D0935E17C0935D1740
S1134BE010935F178881880F81608093601788EF26
S1134BF08093210285EA8093BC0085E005C086E0AD
S1134C0003C087E001C082E0DF91CF911F91089536
S1134C101F920F920FB60F9211240BB60F922F937F
S1134C203F934F935F936F937F938F939F93AF9330
S1134C30BF93EF93FF93E091B9008E2F90E0FC01B6
S1134C403897E135F10508F075C08827E458FF4F1F
S1134C508F4F51C610925C17E0915C1780915F17DB
S1134C60E81770F481E08E0F80935C17F0E0E05A4F
S1134C70F84E80818093BB0085E88093BC0072C0AD
S1134C8084E98093BC0080915D1790915E17DC01EC
S1134C901296ED91FC911397309709F463C020E0CC
S1134CA040E050E064E019955DC0E0915C1781E05C
S1134CB08E0F80935C178091BB00F0E0E05AF84EB1
S1134CC080838091B900803411F410925C17209194
S1134CD05C1730E080915F1790E00197281739073F
S1134CE024F485EC8093BC003DC085E88093BC002F
S1134CF039C08091BB00E0915C17F0E0E05AF84EB7
S1134D00808384E98093BC0080915D1790915E1745
S1134D10DC011296ED91FC911397309719F12091D3
S1134D205F1740E657E165E019951CC085EA80935A
S1134D30BC0018C08091B9008093210284E0809364
S1134D40BC0080915D1790915E17DC011296ED9185
S1134D50FC911397309731F020E040E050E06091EF
S1134D6021021995FF91EF91BF91AF919F918F917E
S1134D707F916F915F914F913F912F910F900BBE57
S1134D800F900FBE0F901F901895FC01411101C0A8
S1134D90DBD6842F90E09C01215031098223932398
S1134DA0892B09F0D1D6413808F0CED6128213826D
S1134DB04483440F415045837183608380E090E0D5
S1134DC008952F923F924F925F926F927F928F92AB
S1134DD09F92AF92BF92CF92DF92EF92FF920F9386
S1134DE01F93CF93DF93CDB7DEB760970FB6F894D8
S1134DF0DEBF0FBECDBF7C011B016A01FC0117821F
S1134E001682838181FF2AC39E012F5F3F4F3901A0
S1134E10F7019381F10193FD859193FF81911F0126
S1134E20882309F417C3853239F493FD859193FFE0
S1134E3081911F01853231F4B70190E0D6D7560134
S1134E406501E6CF10E0512C912CFFE1F915D8F063
S1134E508B3279F038F4803279F08332A1F4F92D71
S1134E60F0612EC08D3261F0803369F4292D216008
S1134E702DC0392D3260932E892D8460982E2AC03E
S1134E80E92DE86015C097FC2DC020ED280F2A30CD
S1134E9088F496FE06C03AE0139F200D1124122FC9
S1134EA019C08AE0589E200D1124522EE92DE0628B
S1134EB09E2E10C08E3231F496FCCCC2F92DF064D3
S1134EC09F2E08C08C3621F4292D2068922E02C012
S1134ED0883641F4F10193FD859193FF81911F017F
S1134EE08111B3CF9BEB980F933020F4992D9061EF
S1134EF0805E07C09BE9980F933008F059C1992D43
S1134F009F7E96FF16E09F73992E853619F4906460
S1134F10992E08C0863621F4392F3068932E02C0AA
S1134F201111115097FE07C01C3350F444244394CC
S1134F30410E27E00BC0183038F027E017E005C019
S1134F4027E09CE3492E02C0212F412C560184E026
S1134F50A80EB11CF6016081718182819381042DB8
S1134F60A301F6D56C01F981FC87F0FF02C0F3FFC1
S1134F7006C091FC06C092FE06C000E205C00DE228
S1134F8003C00BE201C000E08C858C7019F00111A4
S1134F9043C280C297FE10C04C0CFC85F4FF04C0D1
S1134FA08A81813309F44A94141474F528E0241591
S1134FB078F588E0482E2CC096FC2AC0812F90E01A
S1134FC08C159D059CF03CEFC3163FEFD30674F09F
S1134FD0892D8068982E0AC0E2E0F0E0EC0FFD1FF6
S1134FE0E10FF11D8081803319F411501111F4CFB8
S1134FF097FE0EC044244394410E812F90E0C816BE
S1135000D9062CF41C1904C04424439401C010E0B4
S113501097FE06C01C141D0434F4C601019605C095
S113502085E090E002C081E090E001110196112337
S113503031F0212F30E02F5F3F4F820F931F252D3A
S113504030E08217930714F4581A01C0512C892DAB
S1135050897041F4552031F0B70180E290E0C5D663
S11350605A94F8CF002321F0B701802F90E0BDD6E9
S113507093FC08C0552031F0B70180E390E0B5D629
S11350805A94F8CF97FE4AC04601D7FE02C0812C3D
S1135090912CC60188199909F301E80FF91FFE87BD
S11350A0ED87960124193109388B2F87012F10E0E1
S11350B01195019511093FEF8316930621F4B70169
S11350C08EE290E092D6C814D9044CF08F8598896A
S11350D08815990524F4ED85FE85818101C080E35E
S11350E0F1E08F1A91082D853E852F5F3F4F3E8753
S11350F02D878016910624F0B70190E076D6DBCF99
S1135100C814D90441F49A81963320F4953319F4E0
S11351103C8534FF81E3B70190E048C08A81813344
S113512019F09C859F7E9C87B70190E05ED6111193
S113513005C094FC16C085E690E015C0B7018EE268
S113514090E053D61E5F82E001E0080FF301E80F00
S1135150F11D8081B70190E048D6802F0113F4CF70
S1135160E8CF85E490E0B70140D6D7FC06C0C1146F
S1135170D10441F4EC85E4FF05C0D194C194D10875
S11351808DE201C08BE2B70190E02FD680E32AE0E4
S1135190C216D1042CF08F5FFAE0CF1AD108F7CFF2
S11351A0B70190E022D6B701C601C0961ED649C108
S11351B0833631F0833779F0833509F052C01FC04C
S11351C0560132E0A30EB11CF6018081898301E00F
S11351D010E0630111C05601F2E0AF0EB11CF601FC
S11351E0C080D18096FE03C0612F70E002C06FEFD3
S11351F07FEFC601EFD58C01F92DFF7713C056015F
S113520022E0A20EB11CF601C080D18096FE03C03C
S1135210612F70E002C06FEF7FEFC60171D58C0182
S1135220F92DF0689F2EF3FD18C0852D90E0081726
S1135230190798F4B70180E290E0D7D55A94F5CFD6
S1135240F60197FC859197FE81916F01B70190E07B
S1135250CCD551105A94015011090115110581F74B
S1135260F0C0843611F0893659F5560197FE09C00D
S113527024E0A20EB11CF6016081718182819381C8
S11352800AC0F2E0AF0EB11CF60160817181072EF5
S1135290000C880B990BF92DFF769F2E97FF09C000
S11352A090958095709561957F4F8F4F9F4FF068D3
S11352B09F2E2AE030E0A30147D6C82EC6183EC070
S11352C0092D853721F40F7E2AE030E01DC0097FC7
S11352D08F3691F018F4883559F0BCC0803719F036
S11352E0883711F0B7C0006104FF09C0046007C02B
S11352F094FE08C0066006C028E030E005C020E146
S113530030E002C020E132E0560107FF09C084E02A
S1135310A80EB11CF601608171818281938108C05D
S1135320F2E0AF0EB11CF6016081718180E090E083
S1135330A3010AD6C82EC6180F77902E96FE0BC06E
S1135340092D0E7FC11650F494FE0AC092FC08C0C9
S1135350092D0E7E05C0DC2C092D03C0DC2C01C0F8
S1135360D12E04FF0DC0FE01EC0DF11D80818033B0
S113537011F4097E09C002FF06C0D394D39404C07B
S1135380802F867809F0D39403FD10C000FF06C077
S11353901C2DD51478F4150D1D190CC0D51450F41A
S11353A0B70180E290E021D5D394F8CFD51410F45E
S11353B05D1801C0512C04FF0FC0B70180E390E0D9
S11353C014D502FF16C001FD03C088E790E002C0B7
S11353D088E590E0B7010CC0802F867851F001FF7A
S11353E002C08BE201C080E207FD8DE2B70190E0CC
S11353F0FCD4C11630F4B70180E390E0F6D4115028
S1135400F8CFCA94F301EC0DF11D8081B70190E04F
S1135410ECD4C110F6CF15C0F4E0F51550F584E0D6
S1135420581A93FE1EC0011125C02C8523FF27C0E6
S11354300AE911E0392D3071932EF801849181111C
S113544021C0552009F4FCCCB70180E290E0CDD412
S11354505A94F7CFF7018681978123C08FEF9FEF8E
S113546020C0B70180E290E0C0D45A945110F9CF23
S1135470DACF512CB701802F90E0B7D4D6CF0EE904
S113548011E0D8CF91108052B70190E0AED40F5FF5
S11354901F4FD3CF23E0251510F483E0C1CF512C47
S11354A0C4CF60960FB6F894DEBF0FBECDBFDF91B8
S11354B0CF911F910F91FF90EF90DF90CF90BF900D
S11354C0AF909F908F907F906F905F904F903F90A0
S11354D02F9008955058BB27AA270ED04DC13ED116
S11354E030F043D120F031F49F3F11F41EF433C166
S11354F00EF4E095E7FB29C1E92F4FD180F3BA17E9
S1135500620773078407950718F071F49EF567C165
S11355100EF4E0950B2EBA2FA02D0B01B9019001CA
S11355200C01CA01A0011124FF27591B99F0593F0E
S113553050F4503E68F11A16F040A22F232F342F56
S11355404427585FF3CF469537952795A795F040A4
S11355505395C9F77EF41F16BA0B620B730B840BB9
S1135560BAF09150A1F0FF0FBB1F661F771F881F71
S1135570C2F70EC0BA0F621F731F841F48F48795C9
S113558077956795B795F7959E3F08F0B3CF9395B8
S1135590880F08F09927EE0F9795879508950CD0FA
S11355A0EBC0E3D040F0DAD030F021F45F3F19F0E3
S11355B0CCC0511115C1CFC0F0D098F39923C9F3D1
S11355C05523B1F3951B550BBB27AA276217730705
S11355D0840738F09F5F5F4F220F331F441FAA1FB9
S11355E0A9F333D00E2E3AF0E0E830D09150504079
S11355F0E695001CCAF729D0FE2F27D0660F771F27
S1135600881FBB1F261737074807AB07B0E809F008
S1135610BB0B802DBF01FF2793585F4F2AF09E3F9D
S1135620510568F092C0DCC05F3FECF3983EDCF3B8
S1135630869577956795B795F7959F5FC9F7880F16
S1135640911D9695879597F90895E1E0660F771F68
S1135650881FBB1F621773078407BA0720F0621BF9
S1135660730B840BBA0BEE1F88F7E095089504D0F2
S11356706894B111B5C0089598D088F09F5790F000
S1135680B92F9927B751A0F0D1F0660F771F881F63
S1135690991F1AF0BA95C9F712C0B13081F09FD0A2
S11356A0B1E008959CC0672F782F8827B85F39F040
S11356B0B93FCCF3869577956795B395D9F73EF4C2
S11356C090958095709561957F4F8F4F9F4F08956A
S11356D0E89409C097FB3EF4909580957095619588
S11356E07F4F8F4F9F4F9923A9F0F92F96E9BB273E
S11356F09395F695879577956795B795F111F8CFBA
S1135700FAF4BB0F11F460FF1BC06F5F7F4F8F4F24
S11357109F4F16C0882311F096E911C0772321F01A
S11357209EE8872F762F05C0662371F096E8862FB2
S113573070E060E02AF09A95660F771F881FDAF709
S1135740880F9695879597F9089597F99F6780E84C
S113575070E060E008959FEF80EC089500240A94BF
S11357601616170618060906089500240A94121638
S11357701306140605060895092E0394000C11F46B
S1135780882352F0BB0F40F4BF2B11F460FF04C018
S11357906F5F7F4F8F4F9F4F089557FD9058440F71
S11357A0551F59F05F3F71F04795880F97FB991F7C
S11357B061F09F3F79F08795089512161306140639
S11357C0551FF2CF4695F1DF08C0161617061806C6
S11357D0991FF1CF86957105610508940895E894A1
S11357E0BB2766277727CB0197F908950BD0C4CF41
S11357F0B5DF28F0BADF18F0952309F0A6CFABCFB8
S11358001124EECFCADFA0F3959FD1F3950F50E09A
S1135810551F629FF001729FBB27F00DB11D639F5E
S1135820AA27F00DB11DAA1F649F6627B00DA11D04
S1135830661F829F2227B00DA11D621F739FB00DAA
S1135840A11D621F839FA00D611D221F749F33271A
S1135850A00D611D231F849F600D211D822F762FB3
S11358606A2F11249F5750408AF0E1F088234AF0B0
S1135870EE0FFF1FBB1F661F771F881F91505040FC
S1135880A9F79E3F510570F060CFAACF5F3FECF3BC
S1135890983EDCF3869577956795B795F795E795E8
S11358A09F5FC1F7FE2B880F911D9695879597F9F9
S11358B00895A1E21A2EAA1BBB1BFD010DC0AA1F4D
S11358C0BB1FEE1FFF1FA217B307E407F50720F065
S11358D0A21BB30BE40BF50B661F771F881F991FE0
S11358E01A9469F760957095809590959B01AC0129
S11358F0BD01CF010895EE0FFF1F881F8BBF0790D6
S1135900F691E02D19940F931F93CF93DF93823078
S1135910910510F482E090E0E0917117F091721714
S113592020E030E0A0E0B0E0309719F140815181EF
S11359300281138148175907C8F08417950769F441
S1135940109731F012960C93129713961C9327C05C
S1135950009371171093721722C02115310519F0A5
S11359604217530718F49A01BD01EF01DF01F80152
S1135970DBCF21153105F9F0281B390B2430310513
S113598080F48A819B816115710521F0FB01938369
S1135990828304C09093721780937117FE0132962C
S11359A044C0FE01E20FF31F819391932250310909
S11359B0398328833AC020916F1730917017232BB5
S11359C041F4209102023091030230937017209326
S11359D06F1720910002309101022115310541F425
S11359E02DB73EB74091040250910502241B350B9C
S11359F0E0916F17F0917017E217F307A0F42E1BD4
S1135A003F0B2817390778F0AC014E5F5F4F24171E
S1135A10350748F04E0F5F1F5093701740936F1770
S1135A208193919302C0E0E0F0E0CF01DF91CF9148
S1135A301F910F910895CF93DF93009709F481C0CC
S1135A40FC01329713821282A0917117B0917217E0
S1135A50109781F420813181820F931F20916F1759
S1135A60309170172817390751F5F0937017E093A8
S1135A706F1767C0ED0120E030E0CE17DF0740F478
S1135A804A815B819E0141155105F1F0EA01F5CF90
S1135A90D383C28340815181840F951FC817D907CE
S1135AA059F488819981840F951F0296918380838C
S1135AB08A819B81938382832115310529F4F09394
S1135AC07217E09371173DC0E901FB83EA834991A2
S1135AD05991C40FD51FEC17FD0761F480819181A2
S1135AE0840F951F0296E9019983888382819381AB
S1135AF09B838A83E0E0F0E012968D919C9113974A
S1135B00009719F0FD01DC01F7CF8D919C9111975D
S1135B109D012E5F3F4F820F931F20916F1730918D
S1135B2070172817390769F4309729F410927217FF
S1135B301092711702C013821282B0937017A0934F
S1135B406F17DF91CF91089581E090E0F8945AC2E5
S1135B50283008F027E03327DA01990F311D87FD3B
S1135B60916000966105710539F432602E5F3D93B2
S1135B7030E32A95E1F708959F3F30F080387105AE
S1135B80610509F03C5F3C5F3D93913008F080680B
S1135B90911DDF93CF931F930F93FF92EF92192FD1
S1135BA0987F9695E92F96959695E90FFF27E450EF
S1135BB0FE4F99273327EE24FF24A701E701059020
S1135BC00894079428F4360FE71EF81E491F511D48
S1135BD0660F771F881F991F0694A1F705900794F5
S1135BE028F4E70EF81E491F561FC11D770F881FA2
S1135BF0991F661F0694A1F70590079428F4F80EE0
S1135C00491F561FC71FD11D880F991F661F771F75
S1135C100694A1F70590079420F4490F561FC71F57
S1135C20D81F990F661F771F881F0694A9F78491C0
S1135C301095177041F0D695C79557954795F794E9
S1135C40E7941A95C1F7E2EAF1E06894159015918A
S1135C5035916591959105907FE27395E118F10A6C
S1135C60430B560BC90BD009C0F7E10CF11E431FBF
S1135C70561FC91FD01D7EF4703311F48A95E6CFE8
S1135C80E894015030F0080F0AF40027021708F4D2
S1135C90202F2395022F7A3328F079E37D932A95D8
S1135CA0E9F710C07D932A9589F606949795679530
S1135CB0379517951794E118F10A430B560BC90B46
S1135CC0D00998F023957E9173957A3308F070E3A8
S1135CD07C932013B8F77E9170617D9330F08395A7
S1135CE071E37D9370E32A95E1F71124EF90FF901F
