S0170000534550345F477265656E686F7573652E737265637D
S113000066C1000085C1000083C1000081C10000F9
S11300107FC100007DC100007BC1000079C10000E8
S113002077C1000075C1000073C1000071C10000F8
S11300300C94C4086DC100006BC1000069C10000CC
S113004067C1000065C1000063C1000061C1000018
S11300505FC100005DC100005BC1000059C1000028
S113006057C100000C940A2A0C945C2A51C1000068
S11300704FC100004DC100004BC1000049C1000048
S113008047C1000045C1000043C1000041C1000058
S11300900C94A02A0C94F22A3BC100000C94B730B3
S11300A037C1000035C1000033C1000031C1000078
S11300B02FC100002DC100002BC1000029C1000088
S11300C027C1000025C1000023C100000C94362B79
S11300D00C94882B1DC100000C94CC2B0C941E2C6A
S11300E017C100009E1E9E1E9E1ED51EDD1EF21E02
S11300F09E1E9E1ED51EDD1ED9304931493149311F
S11301004931493149314931D9304931493149318C
S11301104931493149314931DB304931493149317A
S113012049314931493149314931493149314931FB
S11301304931493149314931DB304931493149315A
S113014049314931493149314931493149314931DB
S113015049314931493149314531493149314931CF
S113016049314931493149311031493149314931F4
S113017049314931493149314931493149314931AB
S113018049314931493149310431493149314931E0
S1130190493149314931493128316E616E00696E06
S11301A0660000407A10F35A00A0724E180900103D
S11301B0A5D4E80000E87648170000E40B540200D8
S11301C000CA9A3B000000E1F50500008096980003
S11301D0000040420F000000A0860100000010272C
S11301E000000000E80300000000640000000000BC
S11301F00A00000000000100000000002C76D888EE
S1130200DC674F0823DFC1DFAE59E1B1B796E5E300
S1130210E453C63AE651997696E8E6C28426EB8919
S11302208C9B62ED407C6FFCEFBC9C9F40F2BAA5B6
S11302306FA5F490055A2AF75C936B6CF9676DC14E
S11302401BFCE0E40D47FEF520E6B500D0ED902E52
S11302500300943577050080841E080000204E0AB0
S1130260000000C80C333333330F986E12831141EE
S1130270EF8D2114893BE65516CFFEE6DB18D184B9
S11302804B381BF77C1D901DA4BBE42420328472E0
S11302905E228100C9F124ECA1E53D270E94DF1014
S11302A080912018823008F0A9D60E941B1FF6CF37
S11302B0CF93DF931F92CDB7DEB7CE0101960E9494
S11302C01B1C49810E94101E0E94671EF6CF112438
S11302D01FBECFEFD1E2DEBFCDBF00E00CBF19E0FF
S11302E0A0E0B2E0E4E2F6E700E00BBF02C0079052
S11302F00D92A63FB107D9F72AE1A6EFB9E001C0F4
S11303001D92AD32B207E1F70E94A5220C94103B76
S113031077CECF93DF93CDB7DEB76A970FB6F89455
S1130320DEBF0FBECDBF0E94301269837A838B83F8
S11303309C8348EA58E460E070E0CE0101960E9494
S1130340461445E150E060E070E080911D1A909100
S11303501E1A9FD3CC24CA94DC2C760101E021E040
S11303604AE250E060E070E080911B1A90911C1A00
S1130370F0D2DC01CB018A729927AA27BB27892BEB
S11303808A2B8B2BB1F20E94DA200E943F1F0E941D
S1130390DF200E94441F0E94CA1F0E94491F0E941E
S11303A04D200E944E1F4AE050E060E070E08091D2
S11303B0191A90911A1A0E94900B813079F44BD03B
S11303C00E94571F00E020E030E0A90160E070E0E7
S11303D08091191A90911A1A0E94160A62E0CE01AD
S11303E005960E945A1F0FEF1FEF980146E150E057
S11303F0BE016B5F7F4F80911F1A9091201A0E945B
S1130400020E863109F495CF8FE692E00E94533AAA
S113041090CFEF92FF920F93E12CF12C082F20E064
S113042030E040EC50E06AE772E089E891E00E9435
S1130430A6110F91FF90EF900895873F30F09091AF
S1130440F60989238093F60908959091F609892B7A
S11304508093F60908958091F60908958091FB0927
S11304609091FC0908959093FC098093FB090895E9
S11304708091F9099091FA0908959093FA0980936B
S1130480F90908958091F7099091F80908959093D6
S1130490F8098093F70908954F925F926F927F92C3
S11304A08F929F92AF92BF92CF92DF92EF92FF9280
S11304B00F931F93CF93DF93CDB7DEB78E8990E070
S11304C0982F88272F89822BA88CB12CBA2CAA2488
S11304D0298DA22A6A8C712C762C66242B8D622A93
S11304E0CC8CD12CDC2CCC242D8DC22A0E8D10E08A
S11304F0102F00272F8D022BE8A0F12CFE2CEE24C8
S113050029A1E22A0F2EFAE08F2E912CF02DB401AE
S11305100E943137562E472E862F972FA4DFC50110
S1130520B4010E943137962E872E9301ADECBCECBA
S11305300E946E375C01B694A794B694A794B694BF
S1130540A794C5019ADF9601ADECBCEC0E946E370E
S11305506C01D694C794D694C794D694C794802F2C
S1130560912F95DFFF92EF921F930F93DF92CF921B
S1130570BF92AF928F929F924F925F928AE892E0DD
S11305809F938F930E943F3A0FB6F894DEBF0FBE3D
S1130590CDBFDF91CF911F910F91FF90EF90DF902E
S11305A0CF90BF90AF909F908F907F906F905F900F
S11305B04F9008950FEF1FEF980146E150E06DEF63
S11305C079E08091211A9091221A0E940B0F8823BE
S11305D089F3EDEFF9E0918180811F929F931F923F
S11305E08F938BEC92E09F938F930E943F3A80917C
S11305F0191A90911A1A0F900F900F900F900F9054
S11306000F900097B9F24AE050E060E070E00E9479
S1130610900B813039F58DB79EB746970FB6F89495
S11306209EBF0FBE8DBFADB7BEB7119686E1EDEF8D
S1130630F9E001900D928A95E1F72EDF00E020E0C9
S113064030E0A90160E070E08091191A90911A1AC3
S1130650EDD68DB79EB746960FB6F8949EBF0FBEE3
S11306608DBFA8CF8DEF92E00E94533AA3CFEF92B3
S1130670FF920F93E12CF12C082F20E030E048E8A2
S113068051E068E173E08AED92E00E94A6110F91B7
S1130690FF90EF900895EF92FF920F939FEF91B91F
S11306A092B9E12CF12C082F20E030E040EC50E02E
S11306B067E273E088EA93E00E94A6110F91FF902D
S11306C0EF9008959B016AE070E00E94313726178D
S11306D0370754F464E680E00E94332182B18E7FB0
S11306E082B981E0AACE08956CE980E00E943321AA
S11306F082B1816082B98EEFA0CE0895AB019C01D6
S1130700ADECBCEC0E946E379695879596958795CF
S1130710969587954817590730F482B18D7F82B931
S113072082E08BCE089582B1826082B98DEF85CE4E
S113073008956817790730F482B18B7F82B984E019
S11307407CCE089582B1846082B98BEF76CE089511
S1130750CF93DF9300D01F92CDB7DEB70E94301243
S113076069837A838B839C83612C712C812C912CDB
S1130770A12CB12C48E85EE060E070E0CE01019667
S11307800E9446144AE050E060E070E08091191A3B
S113079090911A1AC5D7813089F460DE5C0168DE55
S11307A04C0170DE3C0100E020E030E0A90160E093
S11307B070E08091191A90911A1A38D645E150E0E8
S11307C060E070E080911D1A90911E1A62D1CC24D1
S11307D0CA94DC2C760101E021E04AE250E060E0BA
S11307E070E080911B1A90911C1AB3D0DC01CB01EC
S11307F08A729927AA27BB27892B8A2B8B2B09F46A
S1130800B9CF0E94DA207C010E94DF208C010E9473
S1130810CA1FC82ED92E0E944D209F938F937F9379
S11308206F937F926F92DF92CF929F928F929801F3
S1130830ADECBCEC0E946E3796958795969587959E
S1130840969587959F938F93BF92AF92C7016AE065
S113085070E00E9431377F936F9385E393E09F9319
S11308608F930E943F3A0FB6F894DEBF0FBECDBF00
S1130870A114B10431F48114910419F461147104C4
S113088079F14AE050E060E070E08091191A9091AB
S11308901A1A46D7813009F06DCFB501C70112DFAE
S11308A0B401C8012BDFB3018C2D9D2D42DFD3DDB4
S11308B01F928F9389E793E09F938F930E943F3A0F
S11308C000E020E030E0A90160E070E08091191AB6
S11308D090911A1AABD50F900F900F900F904ACFAA
S11308E085E893E00E94533A45CF0F9301110CC061
S11308F0DC01CB0182239323A423B523892B8A2BE8
S11309008B2B79F480E010C0DC01CB01822393238C
S1130910A423B523281739074A075B0721F080E091
S113092003C081E001C081E00F910895CF93DF936C
S11309308FE090E0AFD1EC01009739F0FC01119207
S1130940119211921192CF018BD2CE01DF91CF91EE
S113095008952F923F924F925F926F927F928F925F
S11309609F92AF92BF92CF92DF92EF92FF920F933A
S11309701F93CF93DF93EC014A015B01622E702E2B
S11309800E942A12288039804A805B80A501940144
S1130990C201B101AADF8823A1F0662089F1D50143
S11309A0C40180959095A095B09582219321A421AE
S11309B0B52188839983AA83BB83C12CD12C76016A
S11309C022C0C114D104E104F104E9F0611004C0AF
S11309D040E050E0BA0104C040E050E060E071E063
S11309E071107460482959296A297B299701860165
S11309F0CE0104960E944215212C312C210103C002
S1130A00C12CD12C76010E946A13CD28CE28CF2880
S1130A1059F1811101C0F2D20E9404196B017C01C9
S1130A2091FD1FC00FB6F8940F92C880D980EA8058
S1130A30FB80072DA5019401C701B60156DF882369
S1130A4071F0662061F080949094A094B0948C200E
S1130A509D20AE20BF2088829982AA82BB820F90FB
S1130A600FBE160127015524C201B101DF91CF91B8
S1130A701F910F91FF90EF90DF90CF90BF90AF90B8
S1130A809F908F907F906F905F904F903F902F90AA
S1130A9008954F925F926F927F92AF92BF92CF92DE
S1130AA0DF92EF92FF920F931F93CF93DF93EC01AA
S1130AB06A017B018C01095F1F4F0E942A12EB859A
S1130AC0FC8588819981AA81BB81C82AD92AEA2A0E
S1130AD0FB2AC882D982EA82FB82C12CD12C7601FE
S1130AE03DC0A480B58080819181A281B381AC0195
S1130AF0BD017727B2FD0EC0488059806A807B8093
S1130B00442255226622772245284628472889F41C
S1130B1020E012C0488059806A807B80442255229C
S1130B2066227722441555056605770521F020E0F5
S1130B3003C021E001C021E0222371F0B0FF04C012
S1130B40C42AD52AE62AF72A488159816A817B81F9
S1130B507260CF010E947D16EA2DFB2DE017F1078C
S1130B6009F0BFCFC094D094E094F0948881998127
S1130B70AA81BB81C822D922EA22FB22C882D98257
S1130B80EA82FB820E946A13688179818A819B814F
S1130B90DF91CF911F910F91FF90EF90DF90CF9055
S1130BA0BF90AF907F906F905F904F900895EFE16A
S1130BB0FAE0A3E2BAE0B183A08313821282EBECE1
S1130BC0F7E1F0931E0AE0931D0A13821282118248
S1130BD0108288EA9DE013969C938E931297ED936E
S1130BE0FC9390931A0A8093190A90931C0A809399
S1130BF01B0A80E090E89093140A8093130A0895E6
S1130C00CF93DF93EC01AFE1BAE001C0DF01ED91D6
S1130C10FC911197EC17FD07C8F312968D919C91E6
S1130C2013979D01280F391FC217D30749F42A814E
S1130C303B81820F931F13969C938E931297ED0121
S1130C408A819B819E01280F391FE217F307C1F4A3
S1130C5020911D0A30911E0AE217F30771F02281D8
S1130C603381820F931F9B838A83ED91FC911197AB
S1130C70808191819983888305C03983288302C048
S1130C80F983E883CA17DB0711F0CD93DC93DF9176
S1130C90CF910895EF92FF920F931F93CF93DF9319
S1130CA08C010E942A1280911D0A90911E0A892BA0
S1130CB009F47DDF8091130A9091140A8023912313
S1130CC0892B09F076C00115110549F0C801049675
S1130CD00817190718F000E010E001C08C01011595
S1130CE0110509F469C080911B0A90911C0A8017B0
S1130CF0910708F464C0C0911F0AD091200AEFE163
S1130D00FAE002C0FE01EC018A819B818017910701
S1130D1020F4888199810097A9F780911D0A909108
S1130D201E0AC817D90709F44DC0E080F18084E099
S1130D30E80EF11C88819981918380832A813B810B
S1130D40201B310B2930310548F0CE01800F911F53
S1130D50FC01338322831B830A8352DF2A813B8174
S1130D6080911B0A90911C0A821B930B90931C0A7E
S1130D7080931B0A4091190A50911A0A8417950707
S1130D8020F490931A0A8093190A8091130A90917F
S1130D90140A282B392B3B832A83198218828091C9
S1130DA0170A9091180A01969093180A8093170ACB
S1130DB00BC0E12CF12C08C0E12CF12C05C0E12C76
S1130DC0F12C02C0E12CF12C0E946A13E114F1040D
S1130DD011F40E94271FC701DF91CF911F910F913A
S1130DE0FF90EF9008950F931F93CF93DF93009795
S1130DF091F1EC0124974A815B812091130A30918F
S1130E00140ABA0162237323672B29F1688179815B
S1130E10672B09F520953095242335233B832A83BA
S1130E200E942A128A819B8120911B0A30911C0AFC
S1130E30820F931F90931C0A80931B0ACE01E0DE5D
S1130E408091150A9091160A01969093160A809340
S1130E50150A0E946A13DF91CF911F910F91089593
S1130E60FC010396928381834FEF5FEFBA014383C2
S1130E7054836583768390878783928781871082E2
S1130E800895FC011386128608950F931F93CF9340
S1130E90DF93EB01088119812A813B810F3F4FEFDA
S1130EA014072407340721F4FC01A185B28511C07D
S1130EB0DC01139601C0DF011496ED91FC911597A6
S1130EC04081518162817381041715072607370712
S1130ED090F71496ED91FC911597FD83EC83D783DD
S1130EE0C683BF83AE831596DC93CE9314979B87FA
S1130EF08A87FC0120812F5F2083DF91CF911F918E
S1130F000F910895CF93DF93FC01A285B385C4812B
S1130F10D581868197819F838E83C681D781848181
S1130F2095819D838C8311968D919C911297E817DE
S1130F30F90731F48681978112969C938E931197C9
S1130F40138612868C9181508C938C91DF91CF9172
S1130F500895A89590EC88E10FB6F894A89580932D
S1130F6060000FBE909360000895FC016083319788
S1130F7070833197108231971082319720E8208353
S1130F80319710823197108231971082779740837E
S1130F903197508386970895DCDFA0918E18B09125
S1130FA08F18CD91CDBFDD91DEBFFF91EF91DF9121
S1130FB0CF91BF91AF919F918F917F916F915F91ED
S1130FC04F913F912F911F910F91FF90EF90DF90E0
S1130FD0CF90BF90AF909F908F907F906F905F90D5
S1130FE04F903F902F901F900F900CBE0F900BBE10
S1130FF00F900FBE0F90089581E008950F920FB6E1
S1131000F8940F920BB60F920CB60F921F92112404
S11310102F923F924F925F926F927F928F929F9204
S1131020AF92BF92CF92DF92EF92FF920F931F93F2
S11310302F933F934F935F936F937F938F939F93DC
S1131040AF93BF93CF93DF93EF93FF93A0918E1849
S1131050B0918F180DB60D920EB60D920E94C61463
S1131060A0918E18B0918F18CD91CDBFDD91DEBFC8
S1131070FF91EF91DF91CF91BF91AF919F918F91AC
S11310807F916F915F914F913F912F911F910F919C
S1131090FF90EF90DF90CF90BF90AF909F908F9094
S11310A07F906F905F904F903F902F901F900F9084
S11310B00CBE0F900BBE0F900FBE0F9008950F92B1
S11310C00FB6F8940F920BB60F920CB60F921F92B4
S11310D011242F923F924F925F926F927F928F9240
S11310E09F92AF92BF92CF92DF92EF92FF920F93B3
S11310F01F932F933F934F935F936F937F938F939C
S11311009F93AF93BF93CF93DF93EF93FF93A091FC
S11311108E18B0918F180DB60D920EB60D9213BEA7
S11311200E943E1281110E94C614A0918E18B091A3
S11311308F18CD91CDBFDD91DEBFFF91EF91DF918F
S1131140CF91BF91AF919F918F917F916F915F915B
S11311504F913F912F911F910F91FF90EF90DF904E
S1131160CF90BF90AF909F908F907F906F905F9043
S11311704F903F902F901F900F900CBE0F900BBE7E
S11311800F900FBE0F9008959ADF1895DC015396C7
S11311902C915397222341F05A96ED91FC915B9741
S11311A090818AE0891B089580E008950FB6F89431
S11311B00F92FC01868D811102C081E001C080E0A4
S11311C00F900FBE08950FB6F8940F92FC01268D70
S11311D0878D281302C081E001C080E00F900FBE0C
S11311E008950F931F93CF93DF93EC01042F1E8D6B
S11311F048A141110CC088819981892B09F042C012
S11312008C819D810E9442181D821C8242C0011162
S113121017C050E08A819B810E94993928A18A8154
S11312209B81820F911D9B838A832C813D81821730
S1131230930750F1888199819B838A8380E029C038
S113124050E08E819F810E94993988A190E0919508
S1131250819591092E813F81280F391F3F832E8369
S1131260488159812417350730F42C813D81820F40
S1131270931F9F838E83023049F4112349F0115048
S113128080E007C080E005C080E003C080E001C0CA
S113129080E01F5F1E8FDF91CF911F910F91089502
S11312A0FC0140A14423A9F050E026813781240F9A
S11312B0351F37832683848195812817390720F0C9
S11312C08081918197838683CB01668177810C9499
S11312D0993908951F93CF93DF93EC010FB6F894D7
S11312E00F921AA10BC08B89882351F0CE0143962B
S11312F00E94CE1581110E94A417115011169CF35F
S11313008FEF8AA30F900FBE0FB6F8940F9219A116
S11313100BC08885882351F0CE0108960E94CE1513
S113132081110E94A417115011169CF38FEF89A309
S11313300F900FBEDF91CF911F910895CF93DF934C
S1131340EC010FB6F8940F92E881F9818F8D28A1F2
S113135090E030E0829FA001839F500D929F500D3A
S113136011244E0F5F1F5D834C831E8EFB83EA8323
S11313700197289FA001299F500D389F500D1124DB
S1131380CF01840F951F9F838E838FEF89A38AA338
S113139061110BC08885882371F0CE0108960E94E4
S11313A0CE15882341F02ADE06C0CE01089658DD0A
S11313B0CE01439655DD0F900FBE81E0DF91CF91B2
S11313C008950F931F93F801611103C011830083E3
S11313D002C051834083878F60A361E0CF01AEDFF9
S11313E01F910F910895DF92EF92FF920F931F9335
S11313F0CF93DF93F82EE62ED42E869FC0011124BE
S1131400839648DCEC01009741F08C012D2DAC0152
S11314104D5D5F4F6E2D8F2DD4DFCE01DF91CF91C7
S11314201F910F91FF90EF90DF900895CF92DF927C
S1131430EF92FF920F931F93CF93DF93CDB7DEB755
S113144029970FB6F894DEBF0FBECDBF7C016B01A8
S11314502E833F834887598710E00FB6F8940F9284
S1131460F701968D878D981710F00230B1F4402F54
S1131470B601C701B6DEF7019389992341F0C7018C
S113148043960E94CE15882321F0B8DD02C0811155
S1131490B5DD0F900FBE81E04CC08E819F81A88581
S11314A0B985892B8A2B8B2B21F40F900FBE80E0FA
S11314B040C0111105C0CE0101960E942D1711E004
S11314C00F900FBEC7D70FB6F8940F92F70181A102
S11314D08F3F09F411A2F70182A18F3F09F412A2F0
S11314E00F900FBEBE016A5F7F4FCE0101960E942E
S11314F03E17811119C0C70166DE882381F04E8131
S11315005F8168857985C70108960E942B15C701FC
S1131510E1DE0E946A138111A0CF70DD9ECFC70166
S1131520D9DE0E946A1399CFC701D4DE0E946A13E0
S113153080E029960FB6F894DEBF0FBECDBFDF91D1
S1131540CF911F910F91FF90EF90DF90CF9008956E
S11315500F93009769F0FC011582148211821082A6
S1131560168200E020E030E0A90160E070E05EDF78
S11315700F910895CF93DF93482F60E081E033DF2C
S1131580EC01E6DFCE01DF91CF910895EF92FF9257
S11315900F931F93CF93DF938A01FC01568D378DF0
S11315A0531710F02230F9F4422F7801EC011AA1FC
S11315B08E8DCE0116DE1F3F81F48B898823A9F01E
S11315C0CE0143960E94CE15882389F0E114F104DC
S11315D081F081E0F70180830DC0FF24F394F10EC4
S11315E0FAA281E007C080E005C081E003C081E089
S11315F001C081E0DF91CF911F910F91FF90EF9097
S11316000895CF92DF92EF92FF920F931F93CF939F
S1131610DF93CDB7DEB729970FB6F894DEBF0FBEC0
S1131620CDBF8C016B012E833F8348875987E12C02
S11316300FB6F8940F92F801F68CFF2099F0B601DA
S1131640C8012EDEFA94F801F68E8085882331F0E5
S1131650C80108960E94CE158111D0DC0F900FBEF0
S113166081E04FC08E819F81A885B985892B8A2B03
S11316708B2B21F40F900FBE80E043C0E11006C015
S1131680CE0101960E942D17EE24E3940F900FBE15
S1131690E1D60FB6F8940F92F80181A18F3F09F4B7
S11316A011A2F80182A18F3F09F412A20F900FBE7C
S11316B0BE016A5F7F4FCE0101960E943E178111E1
S11316C017C0C80173DD882379F04E815F81688576
S11316D07985C80143960E942B15C801FBDDFAD712
S11316E08111A6CF8BDCA4CFC801F4DDF3D7A0CF42
S11316F0C801F0DDEFD7C80159DD882309F498CF7C
S113170080E029960FB6F894DEBF0FBECDBFDF91FF
S1131710CF911F910F91FF90EF90DF90CF9008959C
S1131720EF92FF920F931F93CF93DF93CDB7DEB762
S113173029970FB6F894DEBF0FBECDBF8C014E8340
S11317405F8368877987E12CF12C0FB6F8940F92A8
S1131750F801868D8823C9F08150868F808191811C
S1131760892B29F40E942E19F80195838483F801AA
S11317708085882331F0C80108960E94CE15811116
S11317803DDC0F900FBE81E06FC08E819F81A885E4
S1131790B985892B8A2B8B2B21F40F900FBE80E007
S11317A063C0F11006C0CE0101960E942D17FF24DC
S11317B0F3940F900FBE4ED60FB6F8940F92F80123
S11317C081A18F3F09F411A2F80182A18F3F09F48E
S11317D012A20F900FBEBE016A5F7F4FCE01019629
S11317E00E943E17811126C0C801E0DC8823F1F075
S11317F0F80180819181892B51F40FB6F8940F92EE
S1131800848195810E94BB17E82E0F900FBE4E81F4
S11318105F8168857985C80143960E942B15C801AC
S113182059DD58D7811191CFE9DB8FCFC80152DD43
S113183051D78BCFC8014EDD4DD7C801B7DC882303
S113184009F483CFEE2079F00FB6F8940F92C80113
S11318509DDC682FF801848195810E949D180F906A
S11318600FBE80E001C080E029960FB6F894DEBF79
S11318700FBECDBFDF91CF911F910F91FF90EF90DD
S11318800895CF93DF93EC010FB6F8940F9289A1DA
S11318908F3F09F419A28AA18F3F09F41AA20F906D
S11318A00FBE8E8D811104C0CE0143960E948C150B
S11318B0CE0110DDDF91CF910895FC014481558163
S11318C022813381240F351F80819181B901681BE6
S11318D0790BCB016417750710F0841B950B0895E1
S11318E00F93FC018FE0DF011D928A95E9F775875C
S11318F06487558344833783268306870F9108952D
S1131900AF92BF92CF92DF92EF92FF920F931F9309
S1131910CF93DF936C015B017A01FC01C281D38117
S1131920048115810C1B1D0B4017510708F48A0113
S1131930F60184859585A801B5018C0F9D1F0E9431
S113194099390E151F0558F4A701401B510BB50119
S1131950600F711FF601848595850E949939CE0127
S11319608E0D9F1DF601248135818217930710F097
S1131970821B930BF60193838283C701DF91CF917E
S11319801F910F91FF90EF90DF90CF90BF90AF9099
S11319900895CF92DF92EF92FF920F931F93CF930C
S11319A0DF931F921F92CDB7DEB77C016B015A8380
S11319B0498321153105C1F0FC01868580FD08C0ED
S11319C04217530708F49A013A83298381E00FC030
S11319D02017310758F042E050E0BE016F5F7F4F9F
S11319E0C7018EDF81E003C080E001C080E088236E
S11319F031F049815A81B601C70182DF02C080E01B
S1131A0090E00F900F90DF91CF911F910F91FF9075
S1131A10EF90DF90CF900895AF92BF92CF92DF9274
S1131A20EF92FF920F931F93CF93DF937C015B019F
S1131A30E9014217530708F4EA01209781F1F701FD
S1131A400081118184819581801B910B6E018C171B
S1131A509D0708F46C01F70164857585600F711F9B
S1131A60A601C5010E949939CC16DD0658F4AE01D1
S1131A704C195D09F70164857585C5018C0D9D1DA3
S1131A800E9499390C0F1D1FF70184819581081755
S1131A90190710F0081B190BF70111830083CE01FD
S1131AA0DF91CF911F910F91FF90EF90DF90CF9036
S1131AB0BF90AF9008956F927F928F929F92AF9252
S1131AC0BF92CF92DF92EF92FF920F931F93CF9327
S1131AD0DF931F921F92CDB7DEB76C014B015A0101
S1131AE0790101151105B1F0FC0160807180A80134
S1131AF0BE016F5F7F4F90DF89819A81E01AF10AFE
S1131B00A816B90630F4F60171826082A12CB12CBA
S1131B1001C05C019701A501B401C6017DDF0F90EE
S1131B200F90DF91CF911F910F91FF90EF90DF9075
S1131B30CF90BF90AF909F908F907F906F900895BB
S1131B40CF92DF92EF92FF920F93CF93DF93EC014A
S1131B506B01413011F401E001C000E0C114D10473
S1131B6019F4CC24C394D12CCE014096C817D907BC
S1131B7020F421968FD87C0102C0E12CF12CE114D1
S1131B80F10439F09601AE01B701615F7F4FC701DF
S1131B90A7DEC701DF91CF910F91FF90EF90DF9007
S1131BA0CF9008950F930FB6F8940F92FC012085FF
S1131BB03185232B71F422853385232B61F426810F
S1131BC037814481558164857585068589DE81E088
S1131BD003C080E001C080E00F900FBE0F91089514
S1131BE0FC012481358180819181820F931F428180
S1131BF05381841B950B01978217930710F0821B66
S1131C00930B08952F923F924F925F926F927F921F
S1131C108F929F92AF92BF92CF92DF92EF92FF92F8
S1131C200F931F93CF93DF93CDB7DEB72B970FB6E8
S1131C30F894DEBF0FBECDBF4C017B876A871A01C3
S1131C400E831F8328873987FC018481958101973E
S1131C50268520FF0CC02A01F2E04F0E511C84158A
S1131C60950558F41E821F821886198606C08417AB
S1131C70950710F02A0101C02C018E819F81A8854F
S1131C80B985892B8A2B8B2B09F438C0CE01019698
S1131C900E9417170FB6F8940F92C401A1DF3C01FC
S1131CA08415950540F560E080E090E00E94011CF9
S1131CB00E94A817F401938782870F900FBEAE800D
S1131CC0BF80C884D984E12CF12C00E010E0980195
S1131CD040E050E0BA0180E00E944019F40113860C
S1131CE01286BE016A5F7F4FCE0101960E943E17A5
S1131CF0882381F205C00F900FBE02C0612C712CA5
S1131D006114710419F4C4016BDF3C018201930175
S1131D10A1016A857B85C4013CDE6C01892BE9F055
S1131D20C401CBDDF4012681378182179307A8F023
S1131D3091D3F40180859185892B71F080859185FB
S1131D40E12CF12C00E020E030E0A90160E00E94E9
S1131D50E819F40111861086BDD4C6012B960FB67E
S1131D60F894DEBF0FBECDBFDF91CF911F910F91CD
S1131D70FF90EF90DF90CF90BF90AF909F908F90A7
S1131D807F906F905F904F903F902F900895AF9207
S1131D90BF92CF92DF92EF92FF920F931F93CF9354
S1131DA0DF93EC017B015A0169018E8580FF04C039
S1131DB08A010E5F1F4F01C08A01CE0111DF9C0111
S1131DC0A501B701CE01E5DD5C01892BC1F0CE018F
S1131DD074DD2E813F818217930788F08885998569
S1131DE0892B69F088859985E12CF12C00E020E0AD
S1131DF030E0A90160E00E94DF1A19861886C50147
S1131E00DF91CF911F910F91FF90EF90DF90CF90D2
S1131E10BF90AF9008954F925F926F927F928F928E
S1131E209F92AF92BF92CF92DF92EF92FF920F9365
S1131E301F93CF93DF93EC012B013A015801690101
S1131E408E8580FF05C06894882481F8912C02C097
S1131E50812C912CA114B104C104D10441F10FB619
S1131E60F8940F92CE0129DD7C018816990648F07A
S1131E7060E080E090E00E94011C0E94A81799870E
S1131E8088870F900FBE8E149F04A0F0E12CF12CD4
S1131E9000E010E0980140E050E0BA0180E00E94C8
S1131EA0401919861886CE0108DD7C0103C0CE01D5
S1131EB004DD7C018E149F04E8F484019701A301DE
S1131EC0B201CE01F8DD6C01892BB1F0C3D28A8551
S1131ED09B85892B69F08A859B85E12CF12C00E098
S1131EE020E030E0A90160E00E94E8191B861A8610
S1131EF0F1D302C0C12CD12CC601DF91CF911F9127
S1131F000F91FF90EF90DF90CF90BF90AF909F9094
S1131F108F907F906F905F904F900895E091081894
S1131F20F0910918808181110CC08FEF9FEFDC01C3
S1131F308093D2179093D317A093D417B093D51747
S1131F400895E0910818F09109180780F085E02DB4
S1131F5080819181A281B3818093D2179093D3170A
S1131F60A093D417B093D5170895CF93DF93EC01C2
S1131F708B8D9C8D0E94F306CE010E94F306DF91A7
S1131F80CF9108954F925F926F927F928F929F921A
S1131F90AF92BF92CF92DF92EF92FF920F93CF93C3
S1131FA0DF932C015B014A013901E60165EA70E027
S1131FB08B8D9C8D0E94A2398B8D9C8D21E0821A81
S1131FC09108880E991EA114B10489F415C0822FBA
S1131FD090E0F501E80FF91F3081DE01A80FB91F69
S1131FE05D963C938081882329F02F5F01C020E017
S1131FF0203168F31CA601C01D8E0A3008F009E0E8
S11320000A8F0DA71EA6CE0102960E944107CE019B
S11320100E960E944107DB87CA878AE090E0A0E021
S1132020B0E0801B9109A109B1098E879F87A88B15
S1132030B98BDF8BCE8B84E0FE01BF96DF011D924E
S11320408A95E9F71BAAA301B201C4010E94B5074E
S113205099838883E114F10419F0F701D183C083D3
S1132060DF91CF910F91FF90EF90DF90CF90BF90D1
S1132070AF909F908F907F906F905F904F90089556
S1132080CF93C0E009C02BE0C29FC0011124805E41
S1132090974E0E943007CF5FCA30A8F385E198E1DC
S11320A00E9430078AE098E10E9430078BEF97E1A5
S11320B00E94300780EF97E10E94300784EE97E199
S11320C00E94300785E198E19093091880930818DD
S11320D08AE098E19093071880930618CF910895A9
S11320E0CF93DF93EC010FB6F8940F928091E3172E
S11320F08F5F8093E31780918E1890918F18892BAE
S113210051F4D0938F18C0938E188091E3178130C7
S113211091F4B6DF10C08091DD1781110CC0E091FD
S11321208E18F0918F18928D8A8D891720F0D09394
S11321308F18C0938E188091D6178F5F8093D6170F
S1132140EA8D8091DE178E1710F4E093DE178BE092
S11321508E9FF0011124E05EF74E0180F281E02DA4
S1132160FF83EE832681378139872887A681B7814B
S11321709E012E5F3F4F15963C932E931497378301
S11321802683EA8D8E9FF0011124E05EF74EFD87D1
S1132190EC8780818F5F80830F900FBE8091DD1765
S11321A0882351F0E0918E18F0918F18928D8A8DCA
S11321B0981710F40E94FE07DF91CF910895CF93F2
S11321C0DF931BC00FB6F8940F92E091F717F091CC
S11321D0F817C085D185CE0102960E9482078091AE
S11321E0E31781508093E3178091EF178150809318
S11321F0EF170F900FBECE01B8DE8091EF1781115B
S1132200E1CFDF91CF9108958F929F92AF92BF92C9
S1132210CF92DF92EF92FF92CF93DF936B017C0119
S1132220C42F8090DF179090E017A090E117B09032
S1132230E21780918E1890918F1802960E9482075F
S11322408FEFC816D806E806F806B1F5CC23A1F13D
S1132250E4EEF7E1A181B281C0918E18D0918F187C
S1132260BF83AE83C0918E18D0918F1816968D912E
S11322709C911797998788871696CD91DC9117972B
S113228080918E1890918F1802969D838C838091F3
S11322908E1890918F18029617969C938E9316978A
S11322A0A0918E18B0918F181D96FC93EE931C97F5
S11322B080818F5F80833FC0C80CD91CEA1CFB1C43
S11322C0E0918E18F0918F18C282D382E482F58255
S11322D0C814D904EA04FB0468F460918E18709160
S11322E08F1880910618909107186E5F7F4F0E9497
S11322F0450721C060918E1870918F18809108183D
S1132300909109186E5F7F4F0E9445078091D21704
S11323109091D317A091D417B091D517C816D906A8
S1132320EA06FB0640F4C092D217D092D317E0928B
S1132330D417F092D517DF91CF91FF90EF90DF90F3
S1132340CF90BF90AF909F908F9008952F923F921F
S11323504F925F926F927F928F929F92AF92BF92B1
S1132360CF92DF92EF92FF920F93CF93DF933C01D2
S11323701B014A012901CA010E944A066C01892BEA
S113238071F084E390E00E944A06EC01892B19F075
S1132390DC8ECB8E06C0C6010E94F30602C0C0E0EC
S11323A0D0E0209761F0A12CB12C6E019201A40120
S11323B0B101C301E7DDCE0193DE81E001C08FEFFF
S11323C0DF91CF910F91FF90EF90DF90CF90BF906E
S11323D0AF909F908F907F906F905F904F903F90C1
S11323E02F900895EF92FF920F930F2EF0EDEF2EA2
S11323F0F7E1FF2EF02D00E020E030E040EC50E06B
S113240064E973E08EE491E0A1DF813011F40E946D
S1132410A51C8130C9F4F8948FEF9FEFDC01809301
S1132420D2179093D317A093D417B093D51781E004
S11324308093DD171092DF171092E0171092E117C6
S11324401092E2170E94CC07809106020F91FF9030
S1132450EF9008958091CF178F5F8093CF170895E1
S11324600FB6F8940F926091DF177091E017809186
S1132470E1179091E2170F900FBE0895CF92DF926B
S1132480EF92FF92CF93DF938091CF17811105C113
S1132490C090DF17D090E017E090E117F090E217BA
S11324A08FEFC81AD80AE80AF80AC092DF17D09248
S11324B0E017E092E117F092E217C114D104E104AD
S11324C0F104B1F48091081890910918209106182C
S11324D0309107183093091820930818909307181F
S11324E0809306188091D7178F5F8093D71716DDD6
S11324F08091D2179091D317A091D417B091D5178A
S1132500C816D906EA06FB0620F480E0B2C081E0D2
S113251001C080E0E0910818F091091890819111B0
S11325200CC04FEF5FEFBA014093D2175093D3170B
S11325306093D4177093D5179CC0E0910818F0915C
S113254009180780F085E02D0084F185E02D428193
S1132550538164817581C416D506E606F70648F4EE
S11325604093D2175093D3176093D4177093D51711
S113257080C0A485B585C681D781208531853F83F8
S11325802E83C085D185268137813D832C83119686
S11325904D915C9112979F012E5F3F4F4217530755
S11325A031F44085518512965C934E9311971586AC
S11325B014869C9191509C93A08DB18D109709F134
S11325C0C289D389448955895F834E83C489D58957
S11325D0428953895D834C8311966D917C91129746
S11325E0AF01425F5F4F6417750731F44489558921
S11325F012965C934E931197118E108E9C9191506C
S11326009C93A28D9091DE179A1710F4A093DE1775
S11326109BE09A9FD0011124A05EB74E11960D90B5
S1132620BC91A02DB783A68316964D915C91179704
S1132630518740871696CD91DC9117973D832C8363
S113264017963C932E931697A28D9A9FD00111242E
S1132650A05EB74EB587A4879C919F5F9C93228D03
S1132660E0918E18F0918F18928D291708F04FCFB2
S113267051CFE0918E18F0918F18E28D9BE0E99F85
S1132680F0011124E05EF74E9081923008F081E071
S11326909091D817911116C016C08091D9179091B6
S11326A0DA17A091DB17B091DC170196A11DB11DBB
S11326B08093D9179093DA17A093DB17B093DC17A4
S11326C080E001C081E0DF91CF91FF90EF90DF9037
S11326D0CF900895CF92DF92EF92FF92CF93DF9342
S11326E00FB6F8940F928091CF1781508093CF1733
S11326F08091CF178111BEC08091E317811188C0EA
S1132700BCC0E0910218F09103180084F185E02D1B
S1132710A08DB18DC289D389848995899F838E8345
S1132720C489D589828993899D838C8311962D913F
S11327303C911297CF010E962817390731F48489FA
S1132740958912969C938E931197118E108E8C916D
S113275081508C93A485B585C681D7818085918568
S11327609F838E83C085D185868197819D838C8349
S113277011968D919C9112979F012E5F3F4F821766
S1132780930731F48085918512969C938E931197CB
S1132790158614868C9181508C93A28D8091DE17BE
S11327A08A1710F4A093DE178BE08A9FD0011124BE
S11327B0A05EB74E11960D90BC91A02DB783A68351
S11327C016964D915C911797518740871696CD9137
S11327D0DC9117973D832C8317963C932E93169781
S11327E0A28D8A9FD0011124A05EB74EB587A4871D
S11327F08C918F5F8C93928DA0918E18B0918F18CD
S11328005A968C91981730F081E08093D81702C0C3
S1132810E0E0F0E08091FB17811173CFEF2B09F01A
S11328207DDBC090D917D090DA17E090DB17F090D9
S1132830DC17C114D104E104F104A1F01FDE8823E4
S113284019F081E08093D81781E0C81AD108E10813
S1132850F108A1F71092D9171092DA171092DB172A
S11328601092DC178091D817882331F00E94FE075C
S113287081E003C080E001C080E00F900FBEDF91D3
S1132880CF91FF90EF90DF90CF9008958F929F9219
S1132890AF92BF92CF92DF92EF92FF921F93CF93AA
S11328A0DF93EC016A017B01D5DD8090DF17909006
S11328B0E017A090E117B090E21788819981AA816E
S11328C0BB81AC01BD014C0D5D1D6E1D7F1D8816C5
S11328D09906AA06BB0660F4481759076A077B07DE
S11328E098F484169506A606B70680F010E013C087
S11328F0481759076A077B0758F084169506A606F9
S1132900B70640F010E007C010E005C011E003C0B6
S113291011E001C011E0488359836A837B8311234A
S113292041F0CB01BA01681979098A099B0940E091
S11329306BDCD0DE811102C00E94FE07812FDF9183
S1132940CF911F91FF90EF90DF90CF90BF90AF9009
S11329509F908F900895CF92DF92EF92FF926B0138
S11329607C01672B682B692B39F074DD40E0C701CB
S1132970B6014ADCAFDE01C080E0811102C00E94D2
S1132980FE07FF90EF90DF90CF9008958091CF17CE
S1132990882321F081E08093D81708951092D817E6
S11329A0E0918E18F0918F1820813181E0918E187A
S11329B0F0918F18838D948D8217930760F0609146
S11329C08E1870918F18635E7F4F80918E1890914E
S11329D08F180E94331F8091DE1701C08150282F69
S11329E030E09BE0929FF001939FF00D1124E05E94
S11329F0F74E9081992391F39BE0929FA001939FBE
S1132A00500D1124DF010180F281E02D0480F58155
S1132A10E02D1296FC93EE9311974D5D574EE417FB
S1132A20F50729F444815581FD01528341839BE0DC
S1132A30929FF001939FF00D1124E05EF74E018008
S1132A40F281E02D2085318530938F1820938E18E4
S1132A508093DE170895CF92DF92EF92FF926A017E
S1132A607B0160918E1870918F18625F7F4F0E9476
S1132A70450741E0C701B601C7DBFF90EF90DF9047
S1132A80CF9008950F931F93CF93DF93FC01A091F0
S1132A908E18B0918F1870681E964D935D936D9348
S1132AA07C935197A181B281C0918E18D0918F18D7
S1132AB0BB8BAA8BC0918E18D0918F1816968D91CE
S1132AC09C9117979D8B8C8B1696CD91DC911797C3
S1132AD080918E1890918F180E969D838C8380918F
S1132AE08E1890918F180E9617969C938E93169726
S1132AF0A0918E18B0918F185996FC93EE93589725
S1132B0080818F5F808341E0C901B8017DDBDF9163
S1132B10CF911F910F910895CF93DF93FC01CB01C7
S1132B20BA01A181B281C0918E18D0918F18BB8B4C
S1132B30AA8BC0918E18D0918F1816964D915C91E6
S1132B4017975D8B4C8B1696CD91DC91179740911E
S1132B508E1850918F18425F5F4F5D834C83409174
S1132B608E1850918F18425F5F4F17965C934E9367
S1132B701697A0918E18B0918F185996FC93EE93E6
S1132B80589730813F5F3083222319F06FEF7FEF36
S1132B90CB01422F39DBDF91CF910895CF93DF939F
S1132BA0DC011796ED91FC9118970084F185E02DD6
S1132BB0A08DB18DC289D389848995899F838E83A1
S1132BC0C489D589828993899D838C8311968D913B
S1132BD09C9112979F01225F3F4F8217930731F414
S1132BE08489958912969C938E931197118E108ED9
S1132BF08C9181508C938091CF17811152C0A48500
S1132C00B585C681D781808591859F838E83C08554
S1132C10D185868197819D838C8311968D919C911A
S1132C2012979F012E5F3F4F8217930731F48085DF
S1132C30918512969C938E931197158614868C9188
S1132C4081508C93A28D8091DE178A1710F4A09383
S1132C50DE178BE08A9FD0011124A05EB74E119637
S1132C600D90BC91A02DB783A68316964D915C91CF
S1132C701797518740871696CD91DC9117973D831E
S1132C802C8317963C932E931697A28D8A9FD0017E
S1132C901124A05EB74EB587A4878C918F5F8C9367
S1132CA01CC04BEF57E1DA011196CD91DC911297DC
S1132CB0D38BC28B8E819F81958B848B8E819F81D8
S1132CC0DC0115963C932E9314973F832E83518FEA
S1132CD0408FDA018C918F5F8C93928DE0918E18E6
S1132CE0F0918F18828D891720F481E08093D81792
S1132CF001C080E0DF91CF910895CF93DF93DC0191
S1132D0070684D935D936D937C9313971896ED9132
S1132D10FC9119971A964D915C911B9714968D917D
S1132D209C91159716962D913C911797EC013F8332
S1132D302E8316968D919C91179714962D913C9104
S1132D401597EC013D832C83EA0189819A81A817A8
S1132D50B90731F416968D919C9117979A838983BC
S1132D601B961C921E921A97DA018C9181508C93B7
S1132D70A485B585C681D781808591859F838E83FF
S1132D80C085D185868197819D838C8311968D9191
S1132D909C9112979F012E5F3F4F8217930731F446
S1132DA08085918512969C938E931197158614862F
S1132DB08C9181508C93A28D8091DE178A1710F428
S1132DC0A093DE178BE08A9FD0011124A05EB74E3A
S1132DD011960D90BC91A02DB783A68316964D91A4
S1132DE05C911797518740871696CD91DC91179780
S1132DF03D832C8317963C932E931697A28D8A9F1E
S1132E00D0011124A05EB74EB587A4878C918F5F43
S1132E108C93928DE0918E18F0918F18828D891782
S1132E2018F481E08093D817DF91CF9108950FB6FD
S1132E30F8940F922091D717FC0120834091DF175B
S1132E405091E0176091E1177091E217418352832A
S1132E50638374830F900FBE08952091D717FC01EC
S1132E6020834091DF175091E0176091E117709132
S1132E70E217418352836383748308958F929F92F0
S1132E80AF92BF92CF92DF92EF92FF920F931F9374
S1132E90CF93DF93FB010FB6F8940F92C090DF1726
S1132EA0D090E017E090E117F090E217DC01119662
S1132EB00D911D912D913C91149746015701801A53
S1132EC0910AA20AB30A40815181628173814F3F02
S1132ED0BFEF5B076B077B0739F1EC01B881A09169
S1132EE0D717BA1759F0C016D106E206F30630F028
S1132EF0108211821282138281E017C08416950613
S1132F00A606B70658F4481959096A097B0940838B
S1132F10518362837383A1DF80E007C01082118232
S1132F201282138281E001C080E00F900FBEDF9116
S1132F30CF911F910F91FF90EF90DF90CF90BF90B2
S1132F40AF909F908F90089581E08093D817089553
S1132F5080918E1890918F1808958091DD178823A1
S1132F6031F08091CF17811104C082E0089581E08F
S1132F70089580E008950F931F93CF93DF93FC018E
S1132F80892B09F477C0828DA0918E18B0918F1887
S1132F905A969C91891708F063C0468557856089C5
S1132FA07189772394F0A0918E18B0918F185A9656
S1132FB09C914AE050E060E070E0491B51096109CE
S1132FC0710946875787608B718B248535854BE063
S1132FD0849FC0011124805E974E28173907B9F5E4
S1132FE0EF018F010E5F1F4FC8010E948207E0911D
S1132FF08E18F0918F18E28DEA8F8091DE178E176C
S113300010F4E093DE178BE08E9FF0011124E05E54
S1133010F74E0180F281E02DFF83EE832681378114
S113302039872887A681B78115961C930E93149728
S113303017830683EA8D8E9FF0011124E05EF74E1C
S1133040FD87EC8780818F5F808381E016C0A0912B
S11330508E18B0918F185A968C91828F81E00DC092
S113306095A5E0918E18F0918F18828D981720F015
S113307080E003C080E001C081E0DF91CF911F9127
S11330800F9108950F931F93CF93DF93FC01892B26
S113309009F449C086A5815086A7228D95A52917D4
S11330A009F443C0811143C0EF018F010E5F1F4F2C
S11330B0C8010E948207EDA5EA8F8AE090E0A0E0B3
S11330C0B0E08E1B9109A109B1098E879F87A88B57
S11330D0B98B8091DE178E1710F4E093DE178BE026
S11330E08E9FF0011124E05EF74E0180F281E02D05
S11330F0FF83EE832681378139872887A681B781AC
S113310015961C930E93149717830683EA8D8E9F4E
S1133110F0011124E05EF74EFD87EC8780818F5F1C
S1133120808381E005C080E003C080E001C080E0CE
S1133130DF91CF911F910F9108950F931F93CF9318
S1133140DF93FC01892B09F45AC085A5861708F47E
S1133150862F928D891709F452C026A5213009F0D3
S11331604EC0828F4685578560897189772364F0C4
S11331704AE050E060E070E0481B510961097109C0
S113318046875787608B718B248535854BE0949FE8
S1133190C0011124805E974E2817390781F5EF018D
S11331A08F010E5F1F4FC8010E948207EA8D809134
S11331B0DE178E1710F4E093DE178BE08E9FF0017C
S11331C01124E05EF74E0180F281E02DFF83EE834F
S11331D02681378139872887A681B78115961C9364
S11331E00E93149717830683EA8D8E9FF0011124A2
S11331F0E05EF74EFD87EC8780818F5F8083DF91EF
S1133200CF911F910F910895CF92DF92EF92FF9289
S1133210E0918E18F0918F18668577858089918961
S1133220E0918E18F0918F18A0918E18B0918F189C
S11332305A962C910F2EFAE0CF2ED12CE12CF12CA2
S1133240F02DC21AD108E108F108C686D786E08AB3
S1133250F18AFF90EF90DF90CF90089580918E18BF
S113326090918F18892B39F0E0918E18F0918F1876
S113327086A58F5F86A780918E1890918F180895E8
S11332804F925F926F927F92AF92BF92CF92DF92F2
S1133290EF92FF920F931F93CF93DF93280139018D
S11332A00FB6F8940F92E0918E18F0918F18C82FF2
S11332B0D0E0EC0FFD1F83A9823079F1E0918E18E4
S11332C0F0918F18CE01880F991F880F991FE80F6E
S11332D0F91F87A590A9A1A9B2A940955095609519
S11332E07095482359236A237B2347A750AB61ABCE
S11332F072ABE0918E18F0918F18EC0FFD1F81E0F6
S113330083ABA114B104C104D10439F041E0C60176
S1133310B5010E9404110E94FE070F900FBE0FB664
S1133320F8940F92E114F104A1F0E0918E18F09159
S11333308F18CE01880F991F880F991FE80FF91F66
S113334087A590A9A1A9B2A9F70180839183A2833B
S1133350B383E0918E18F0918F18EC0FFD1F83A9B1
S11333608230E9F4E0918E18F0918F18CE01880F25
S1133370991F880F991FE80FF91F87A590A9A1A984
S1133380B2A94094509460947094482259226A22BD
S11333907B2247A650AA61AA72AA81E001C080E0FC
S11333A020918E1830918F18C20FD31F1BAA0F9033
S11333B00FBEDF91CF911F910F91FF90EF90DF909F
S11333C0CF90BF90AF907F906F905F904F90089593
S11333D08F929F92AF92BF92EF92FF920F93CF93EF
S11333E0DF93DC010FB6F8940F92E114F10489F035
S11333F0E62FF0E0EE0FFF1FEE0FFF1FE80FF91F9F
S113340087A490A8A1A8B2A8F70180829182A28281
S1133410B38270E0FD01E60FF71F83A992E093AB3E
S1133420023001F118F4013031F04DC0033079F16C
S11334300430D1F148C0660F771F660F771FFD0176
S1133440E60FF71F87A490A8A1A8B2A8BA01A90102
S1133450482959296A297B2947A750AB61AB72AB2C
S113346001E034C0660F771F660F771FFD01E60F7A
S1133470F71F47A550A961A972A94F5F5F4F6F4F0E
S11334807F4F47A750AB61AB72AB01E01FC0660F23
S1133490771F660F771FFD01E60FF71F27A730ABD5
S11334A041AB52AB01E012C0823079F0660F771F56
S11334B0660F771FFD01E60FF71F27A730AB41AB5F
S11334C052AB01E003C001E001C000E0813009F02B
S11334D069C01C96ED91FC911D971696CD91DC91D7
S11334E0179718968D919C9119979F838E831896A0
S11334F0CD91DC91199716968D919C9117979D8388
S11335008C83818192819D012E5F3F4F82179307A7
S113351031F418968D919C911997928381831D960D
S11335201C921E921C978081815080835A96EC9144
S11335305A978091DE178E1710F4E093DE178BE014
S11335408E9FF0011124E05EF74E0180F281E02DA0
S11335501796FC93EE9316974681578119965C93C0
S11335604E931897C681D7813D832C833783268356
S11335705A96EC915A978E9FF0011124E05EF74E13
S11335801D96FC93EE931C9780818F5F80835A96DF
S11335909C91E0918E18F0918F18828D891710F408
S11335A00E94FE070F900FBE802FDF91CF910F91E5
S11335B0FF90EF90BF90AF909F908F9008958F925F
S11335C09F92AF92BF92CF92DF92EF92FF920F93AE
S11335D0CF93DF93DC01E114F10489F0E62FF0E0EE
S11335E0EE0FFF1FEE0FFF1FE80FF91F87A490A82F
S11335F0A1A8B2A8F70180829182A282B38270E06E
S1133600FD01E60FF71F93A982E083AB023001F1BD
S113361018F4013031F04DC0033079F10430D1F1A8
S113362048C0660F771F660F771FFD01E60FF71F6F
S113363087A490A8A1A8B2A8BA01A9014829592928
S11336406A297B2947A750AB61AB72AB81E034C0D8
S1133650660F771F660F771FFD01E60FF71F47A55B
S113366050A961A972A94F5F5F4F6F4F7F4F47A762
S113367050AB61AB72AB81E01FC0660F771F660F62
S1133680771FFD01E60FF71F27A730AB41AB52AB05
S113369081E012C0923079F0660F771F660F771FB2
S11336A0FD01E60FF71F27A730AB41AB52AB81E01A
S11336B003C081E001C080E0913009F096C0909190
S11336C0CF1791115FC01C96ED91FC911D97169632
S11336D0CD91DC91179718962D913C9119973F83C2
S11336E02E831896CD91DC91199716962D913C91C5
S11336F017973D832C83418152819D012E5F3F4F5B
S11337004217530731F418964D915C9119975283DF
S113371041831D961C921E921C9790819150908318
S11337205A96EC915A979091DE179E1710F4E093F5
S1133730DE179BE09E9FF0011124E05EF74E0180AE
S1133740F281E02D1796FC93EE93169746815781EC
S113375019965C934E931897C681D7813D832C8329
S1133760378326835A96EC915A979E9FF001112431
S1133770E05EF74E1D96FC93EE931C9790819F5F3D
S1133780908321C06BEF77E1FB01C181D281539615
S1133790DC93CE9352972E813F8155963C932E9382
S11337A054974E815F819D01225F3F4FFA0135831B
S11337B024833F832E8359967C936E935897FB0101
S11337C090819F5F90835A962C91E0918E18F0918E
S11337D08F18928D921748F4C114D10419F091E016
S11337E0F601908391E09093D817DF91CF910F91D8
S11337F0FF90EF90DF90CF90BF90AF909F908F900D
S11338000895009721F480918E1890918F180FB627
S1133810F8940F9270E0FC01E60FF71F23A9223001
S113382031F4FC01E60FF71F13AA81E001C080E028
S11338300F900FBE0895DC01E0919A18F0919B1847
S1133840808191E0811190E09C93911108C00780E0
S1133850F085E02D6081718182819381089560E01B
S113386070E0CB010895CF92DF92EF92FF920F9315
S11338701F93FC01428353836483758393878287F8
S11338800417150726073707C0F00C191D092E0960
S11338903F0986859785A089B189081719072A07E2
S11338A03B0700F5BF016E5F7F4F809198189091A0
S11338B099180E94450780E018C00C151D052E05B7
S11338C03F0528F44C155D056E057F0568F4BF01BE
S11338D06E5F7F4F80919A1890919B180E944507C4
S11338E080E003C081E001C081E01F910F91FF904F
S11338F0EF90DF90CF9008950FB6F8940F928091D7
S1133900961890919718892BE9F487EA98E10E9418
S113391030078CE998E10E94300787EA98E1909398
S11339209B1880939A188CE998E190939918809346
S1133930981840E067E08AE00E94F3099093971892
S1133940809396180F900FBE0895EF92FF920F93F5
S1133950D3DF8091961890919718892B91F00F2EB0
S1133960F4E9EF2EF8E1FF2EF02D03E020E030E043
S113397040EC50E069E973E088E591E00E94A6110B
S113398001C080E00F91FF90EF9008958F929F9275
S1133990AF92BF92CF92DF92EF92FF920F931F9359
S11339A0CF93DF93CDB7DEB727970FB6F894DEBF7A
S11339B00FBECDBFE0919618F0919718309781F122
S11339C069832A833B834C835D839F838E83663024
S11339D0F4F4C3DA823069F400E0A7019601BE0171
S11339E06F5F7F4F80919618909197180E94160AE6
S11339F018C000E020E030E0A901BE016F5F7F4FF6
S1133A0080919618909197180E94160A0AC020E097
S1133A10A801BE016F5F7F4FCF010E94C60A01C09B
S1133A2080E027960FB6F894DEBF0FBECDBFDF91BE
S1133A30CF911F910F91FF90EF90DF90CF90BF90A7
S1133A40AF909F908F9008958F929F92AF92BF9264
S1133A50CF92DF92EF92FF920F931F93CF93DF9356
S1133A603BC00780F085E02D80809180A280B380E8
S1133A70C085D1858E010E5F1F4FC8010E94820749
S1133A80EC89FD89CE0119958E8982FF25C08E852A
S1133A909F85A889B989880D991DAA1DBB1D881603
S1133AA09906AA06BB0670F48A839B83AC83BD8304
S1133AB0DB87CA87B80180919A1890919B180E945D
S1133AC045070AC0C12CD12C760100E010E0A50105
S1133AD0940160E0CE015ADFE0919A18F0919B18AE
S1133AE080818111BECF80919818909199189093FC
S1133AF09B1880939A18F0939918E0939818DF9183
S1133B00CF911F910F91FF90EF90DF90CF90BF90D6
S1133B10AF909F908F900895CF92DF92EF92FF9293
S1133B20CF93DF93EC010E9430126B017C018091F2
S1133B30901890919118A0919218B0919318C8166A
S1133B40D906EA06FB0620F47FDF81E0888301C002
S1133B501882C0929018D0929118E0929218F09224
S1133B609318C701B601DF91CF91FF90EF90DF90DA
S1133B70CF9008954F925F926F927F928F929F920F
S1133B80AF92BF92CF92DF92EF92FF920F931F9367
S1133B90CF93DF934B015C0129013A01E0919A181C
S1133BA0F0919B180780F085E02DC085D185CE016A
S1133BB002960E9482078E8982FF1BC04E855F8514
S1133BC068897989480D591D6A1D7B1D7501640139
S1133BD093018201CE0147DE882369F0C12CD12CE8
S1133BE0760100E010E0A501940160E0CE01CEDE94
S1133BF002C08E7F8E8BEC89FD89CE011995DF91F1
S1133C00CF911F910F91FF90EF90DF90CF90BF90D5
S1133C10AF909F908F907F906F905F904F9008959A
S1133C208F929F92AF92BF92CF92DF92EF92FF92C8
S1133C301F93CF93DF931F92CDB7DEB76B017C0147
S1133C40142F0E942A12CE01019666DF4B015C01FB
S1133C50898181112DC011110DC08C149D04AE04F5
S1133C60BF0440F00E946A13A5019401C701B60184
S1133C7081DF20C0112341F0E0919818F091991848
S1133C80808111E0811110E0B701A601481959099A
S1133C906A097B09212F80919618909197180E94A8
S1133CA0410C0E946A13811105C00E94FE0702C0E4
S1133CB00E946A130F90DF91CF911F91FF90EF90B4
S1133CC0DF90CF90BF90AF909F908F900895AF9268
S1133CD0BF92CF92DF92EF92FF920F931F93CF93F5
S1133CE0DF93CDB7DEB728970FB6F894DEBF0FBECB
S1133CF0CDBF82C0898188230CF47EC0AE80BF8092
S1133D00D5011C968D919C911D97892B21F0C5019D
S1133D1002960E948207CE010896FEDE8B019C016A
S1133D20E9810E2E000CFF0BEA30F10508F064C0A7
S1133D308827EE58FF4F8F4F0C946637F50186891C
S1133D408160868BCA80DB80EC80FD804685578548
S1133D50608971894C0D5D1D6E1D7F1DC50183DD5C
S1133D60882309F449C0D5015496ED91FC915597E7
S1133D70C5011995F501868982FF3EC04A815B81A0
S1133D806C817D8186859785A089B1899A01AB0173
S1133D90280F391F4A1F5B1FC12CD12C760100E06C
S1133DA010E060E0C501F2DD27C0D50156968C9184
S1133DB056978E7F56968C931FC0F5018689816035
S1133DC0868B4A815B816C817D8146875787608BB6
S1133DD0718B400F511F621F731F68017901C50168
S1133DE042DD0AC0F501868981FD04C0C5010E9437
S1133DF0F30602C08E7F868B20E030E0A901BE016D
S1133E006F5F7F4F80919618909197180E94010BD5
S1133E10811170CF28960FB6F894DEBF0FBECDBFC8
S1133E20DF91CF911F910F91FF90EF90DF90CF9092
S1133E30BF90AF900895089584B1806884B985B126
S1133E40806885B9089583B1806883B90895F4DFE3
S1133E502FEF80E792E0215080409040E1F700C0CE
S1133E600000F1DFF5CFE8DF2FEF87EA91E621507C
S1133E7080409040E1F700C00000E5DFF5CF90936B
S1133E80BC188093BB1808959093BA188093B918FE
S1133E9008959093B8188093B71808956093B31851
S1133EA07093B4188093B5189093B61808958093BE
S1133EB0B2180895FC013091B3182091B418909170
S1133EC0B5188091B61860834BE041834091BB18CC
S1133ED05091BC18528343834091B9185091BA1839
S1133EE0548345834091B7185091B818568347833B
S1133EF030872187928783878091B2188487CF0186
S1133F0008959093BE188093BD18089583E00E948D
S1133F10242881E89FE10C94492808950E944E28A2
S1133F208093181A882341F081EA93E09F938F933A
S1133F300E943F3A0F900F908DEB98E10E947D28EC
S1133F4090E09093BE188093BD180895CC24CA9431
S1133F50DC2C760101E021E041E050E060E070E01B
S1133F6080911D1A90911E1A0E94A90460FFEECF41
S1133F70D5DF66E070E080E090E00E94AB1442E0A0
S1133F8050E060E070E080911B1A90911C1A0E942E
S1133F904905DCCF8091BD189091BE180895EF9229
S1133FA0FF920F93082FB2DFE12CF12C20E030E0D8
S1133FB040EC50E06BEC73E086EA9FE10E94A611AE
S1133FC00F91FF90EF900895CF93DF9300D01F924D
S1133FD0CDB7DEB78130C9F4CE0101960E94FD2E23
S1133FE081110DC089819A81AB81BC818093BF18F6
S1133FF09093C018A093C118B093C21806C0833020
S113400021F48DED93E00E94533A0F900F900F909E
S11340100F90DF91CF91089584EE9FE10E94BB2E13
S1134020811109C00E94D62E882349F08DE094E0C6
S11340300C94533A08958DE294E00C94533A089505
S11340400E94EB2E882321F08FE494E00C94533AE1
S11340500895CC24CA94DC2C760101E021E040E1EF
S113406050E060E070E080911D1A90911E1A0E9449
S1134070A90464FFEECFE4DF66E070E080E090E046
S11340800E94AB1440E250E060E070E080911B1AA3
S113409090911C1A0E944905DCCF6091BF18709161
S11340A0C0188091C1189091C2180895EF92FF92A0
S11340B00F93082FB1DFE12CF12C20E030E040EC2D
S11340C050E066E774E089E290E20E94A6110F9145
S11340D0FF90EF9008956ED2882341F083E894E036
S11340E09F938F930E943F3A0F900F900895EF9201
S11340F0FF920F93082FEFDFE12CF12C20E030E04A
S113410040EC50E06AEB74E08CEB90E20E94A61164
S11341100F91FF90EF90089586EC94E09F938F9316
S113412087ED94E09F938F930E943F3A0F900F90F6
S11341300F900F90089556D2882321F088EE94E0D2
S11341400E94533A63E070E080E090E00E94AB1478
S11341505ED28111E1DF63E070E080E090E00E94D4
S1134160AB147BD29093C6188093C5189CD29093BD
S1134170C4188093C3180895CC24CA94DC2C760107
S113418001E021E044E050E060E070E080911D1A1D
S113419090911E1A0E94A90462FFEECFCCDF48E082
S11341A050E060E070E080911B1A90911C1A0E940C
S11341B04905E2CF8091C3189091C4180895809165
S11341C0C5189091C61808950E94960490931C1ADD
S11341D080931B1A0E94960490931E1A80931D1AB2
S11341E0089541E060E070E08CE290E00E94A00D50
S11341F09093201A80931F1A892B21F48BE095E069
S11342000E94533A41E060E070E08CE290E00E944A
S1134210A00D9093221A8093211A892B21F483E311
S113422095E00C94533A08950F9381E00E94BA0AE2
S113423090931A1A8093191A009749F000E020E02D
S113424030E0A90160E070E00E94160A08C08DE524
S113425095E09F938F930E943F3A0F900F900F9198
S1134260089574C708955AC708950F931F93CF9361
S1134270DF93CDB7DEB764970FB6F894DEBF0FBEF9
S1134280CDBF81E00E94D52D86D302D69F938F9314
S11342908FE795E09F938F930E943F3AFAD4F8D525
S11342A09F938F9382E995E09F938F930E943F3A67
S11342B08E010F5F1F4FC80180D3EAD51F930F9360
S11342C09F938F938BEA95E09F938F930E943F3A3D
S11342D0C8018FD3DDD59F938F931F930F938FEBDB
S11342E095E09F938F930E943F3AA80164ED75E097
S11342F085EF95E0ACD5CCD59F938F931F930F9307
S113430084ED95E09F938F9385EF95E09F938F9332
S113431086E096E09F938F930E943F3A9DD3B8D551
S11343209F938F938CE396E09F938F930E943F3AE1
S11343300FB6F894DEBF0FBECDBF81E087D4A8D5F9
S11343409F938F938BE496E09F938F930E943F3AC1
S113435084EF91E086D49CD59F938F9381E08F93D3
S113436084EF8F938CE696E09F938F930E943F3A5D
S11343700FB6F894DEBF0FBECDBF1AE080E072D353
S1134380082F86D59F938F931F921F938CE896E0F6
S11343909F938F930E943F3A0F900F900F900F902E
S11343A00F900F90083059F080E00E94392E66E398
S11343B071E080E090E00E94AB141150F9F60830EF
S11343C021F481E00E941B2E09C081E00E942A2E64
S11343D080E00E94F82D0E94FE07FDCF64960FB680
S11343E0F894DEBF0FBECDBFDF91CF911F910F9127
S11343F0089581E0C2D262E070E080E090E00E9423
S1134400AB1480E0BAD266E970E080E090E00E94EC
S1134410AB146CD22ADF0FEF1FEF980146E150E096
S113442067EC78E180911F1A9091201A0E940B0F7B
S1134430882389F3E7ECF8E1428150E0542F4427C4
S11344408381482B248130E0322F22278581282B39
S1134450868190E0982F88276781862B60857185F7
S1134460A285B385E4851F92EF93BF93AF937F93A7
S11344706F939F938F93ADECBCEC0E946E3796952F
S1134480879596958795969587959F938F93CA015F
S11344906AE070E00E9431377F936F938CEA96E074
S11344A09F938F930E943F3A83E00E944B2E67ECC8
S11344B078E180E000D3ECD49F938F9383EF96E070
S11344C09F938F930E943F3A8DB79EB742960FB643
S11344D0F8949EBF0FBE8DBF9ECFEF92FF920F93B5
S11344E0E12CF12C082F20E030E048E851E068E0AE
S11344F077E089EF91E20E94A6110F91FF90EF906F
S1134500089584E0EADF84E00E94370383E00E9498
S1134510090281E044DD81E0EADD82E0C7DD82E07A
S11345200C944B03089580E00E94802C85E00E9447
S1134530872D4ADE56DE78DE94DE6091211A709172
S1134540221A81E0DAD1DDCF0895EDDF85E197E02D
S11345500E94533A0E94F211FFCF6530F1F4FA0140
S113456080818F7390E0982F88272181822B9093EC
S11345700A02809309028281F0E48F9FC001112412
S1134580FA01238126952695822B90930802809325
S1134590070281E08093DD180895643051F080E0D3
S11345A090E4909308028093070290930A02809308
S11345B0090208950F931F930DEA12E220E034E2FA
S11345C044EF50E060E087E20E94E72F9093DF1809
S11345D08093DE1821E0892B09F020E0822F1F91BF
S11345E00F9108958091DE189091DF18009759F08B
S11345F040E060E070E00E943830843031F4109282
S1134600DD1880E0089582E0089583E008958091A4
S1134610DE189091DF18009739F064E00E9484302E
S1134620853021F083E0089582E0089580E00895C4
S11346306091090270910A0280E090E00E941836AD
S113464020E030E048EC52E40E94AA3620E038EF43
S11346504FE756E40C947F350895EADF20E030E01C
S113466040E251E40E94AA360E94EC35CB01089541
S1134670609107027091080280E090E00E94183671
S113468020E030E045E253E40E94AA3620E038EF0F
S11346904FE756E40E947F3520E030E040E252E4E8
S11346A00C941A350895E4DF20E030E040E251E450
S11346B00E94AA360E94E735CB0108950F931F93F9
S11346C0CF93DF931F921F92CDB7DEB78C0119826F
S11346D02DC0E0911719EC3250F481E08E0F8093D5
S11346E01719F0E0E75BF64E8A81808302C01092CE
S11346F017198A818A30D1F44091171950E0FA01D0
S1134700E95BF64E1082415051099E012F5F3F4FE5
S113471069E479E180911A1990911B190E94C70EDE
S1134720898181110E94FE0710921719BE016E5FE4
S11347307F4FC8014FD6882361F20F900F90DF910D
S1134740CF911F910F9108950F931F93CF93DF93F0
S11347508C01EB0180911A1990911B190E94D20DC2
S1134760B80180EE98E10E94D939209779F0E0EE03
S1134770F8E101900020E9F7319780E290E091831D
S11347808083BE0180EE98E10E94CE39E0EEF8E12C
S1134790DF010D900020E9F711978DE09AE0119662
S11347A09C938E9312961C9201900020E9F7319706
S11347B0E05EF841AE2F80EE98E1AC016A2F809163
S11347C01C1990911D19B1D5811111C008E215E091
S11347D020E030E04DE250E063EA79E180911A197B
S11347E090911B190E940B0F83EA99E102C080E0AB
S11347F090E0DF91CF911F910F9108952F923F92F6
S11348004F925F926F927F928F929F92AF92BF92DC
S1134810CF92DF92EF92FF920F931F93CF93DF9388
S11348205C01FC0101900020E9F731976F01C81A7F
S1134830D90A5C2C0F2EFBEB8F2EF9E09F2EF02D66
S1134840E12CF12C4C2C3701F40101811281E80197
S113485009900020E9F72197C01BD10B3C2EF9E009
S1134860CF16D10458F0F4012080FEE02F1206C0C8
S1134870B801C5010E94A939892B09F5442D3514C5
S113488008F44C2F50E0B801C5010E94E039892B8F
S113489049F4F301EE0FFF1FE60DF71DE554F64F43
S11348A020800DC08FEFE81AF80AE3E08E0E911C09
S11348B0F1E1EF16F10439F66894222424F8822DEC
S11348C0DF91CF911F910F91FF90EF90DF90CF90E8
S11348D0BF90AF909F908F907F906F905F904F901C
S11348E03F902F90089530DF89CF089580911A1951
S11348F090911B190C94D20D08958F929F92AF92B0
S1134900CF92EF920F931F93CF93C82F8B0141E067
S113491060E070E088EC90E00E94A00D90931B1979
S113492080931A1910931919009318190F2EFEE584
S11349308F2EF3E29F2EF02D6894AA24A6F8689493
S1134940CC24C6F8E12C00E023E040E051EE60E026
S113495070E08C2F17D490931D1980931C19E7E0F5
S1134960F1E0808180618083CF911F910F91EF905E
S1134970CF90AF909F908F900895882331F0E8E016
S1134980F1E080818F7E80830895E8E0F1E080810A
S113499080618083089560E070E086E497E0D4DE6F
S11349A0E3EAF9E101900020E9F73197E35AF9418C
S11349B081E0759708F080E00895CF93DF93EC01D0
S11349C060E070E087E597E0BFDEE3EAF9E101909B
S11349D00020E9F7E45BF94139F463EA79E1CE01B7
S11349E00E94D93980E002C0188281E0DF91CF9122
S11349F00895FC0101900020E9F79F01215131093C
S1134A002817390729F4BC0185E897E06CCF08958D
S1134A1089E00895FC0101900020E9F79F012151EC
S1134A2031092817390729F4BC0184E997E05BCFE1
S1134A30089589E00895FC0101900020E9F79F01A1
S1134A40215231092817390729F4BC0183EA97E078
S1134A504ACF089589E0089560E070E082EE97E01F
S1134A6042CF08950F931F93E82FF0E0EE0FFF1F3E
S1134A70E954F64F608171818BEE97E034DF811148
S1134A8014C008E215E020E030E04DE250E063EAB3
S1134A9079E180911A1990911B190E940B0F8823B8
S1134AA021F083EA99E1AADE03C083EA99E1A6DE54
S1134AB01F910F9108950F931F93CF93DF931F922C
S1134AC0CDB7DEB7DB0111969C911197953108F0B3
S1134AD0B4C0992381F160E070E0272F30E0462FC5
S1134AE050E0FD01E40FF51F928192959F709A307A
S1134AF010F0995C01C0905DF901EC5CF64E908376
S1134B002F5F3F4FFD01E40FF51F92819F70492FE6
S1134B1050E04A30510514F0995C01C0905DF901F0
S1134B20EC5CF64E90837E5F6F5F11969C911197BB
S1134B30691798F201C070E0E72FF0E0EC5CF64EE4
S1134B4010824C91811103C084EF97E002C086EF7C
S1134B5097E024E339E13F932F931F924F939F9360
S1134B608F938AEF97E09F938F9386E799E19F93C2
S1134B708F930E94833A60E070E086E799E1B3DEA8
S1134B800FB6F894DEBF0FBECDBF811159C008E245
S1134B9015E020E030E04DE250E063EA79E18091F5
S1134BA01A1990911B190E940B0F882309F447C00E
S1134BB083EA99E123DE8E3009F042C087E08983DD
S1134BC08091181990911919892BA9F1BE016F5F71
S1134BD07F4F83EA99E168D180931E19E981F0E05F
S1134BE0ED55F64EDF010D900020E9F71197AE1B4D
S1134BF0BF0BAA2391F0BB27CD0101979C0112F4AE
S1134C002F5F3F4F3595279520931F19AF014F5FB5
S1134C105F4F64E180E299E173D101E010E020E0AC
S1134C2030E046E150E06EE179E18091181990910D
S1134C3019190E94020E8EE003C084E101C080E0D5
S1134C400F90DF91CF911F910F910895813019F04A
S1134C506AE078E002C063EE78E08EE098E043CE4C
S1134C6008959F938F938FE398E09F938F9386E7A4
S1134C7099E19F938F930E94833A60E070E086E706
S1134C8099E131DE0F900F900F900F900F900F90DD
S1134C9008952F923F924F925F926F927F928F92DC
S1134CA09F92AF92BF92CF92DF92EF92FF920F93B7
S1134CB01F93CF93DF93CDB7DEB7A0970FB6F894C9
S1134CC0DEBF0FBECDBF6CE678E088E798E03CDD40
S1134CD095DD8111A3C080E2E2E2F2E0DE011196EB
S1134CE001900D928A95E1F79E012F5F3F4F690174
S1134CF0E12CF12C0F2EF4E8AF2EF8E0BF2EF02DAE
S1134D0006E719E10F2EFDE94F2EF8E05F2EF02D96
S1134D100F2EF4EB8F2EF8E09F2EF02D0F2EFEECCD
S1134D206F2EF8E07F2EF02D3E2C2F2CFF92EF9269
S1134D30BF92AF921F930F930E94833A60E070E09A
S1134D40C80102DD5BDD0F900F900F900F900F9064
S1134D500F90811163C032E03E15E8F4F6018381BF
S1134D608F9382818F9381818F9380818F93FF9220
S1134D70EF925F924F921F930F930E94833A60E0E9
S1134D8070E0C801E1DC3ADD0FB6F894DEBF0FBE77
S1134D90CDBF811143C02F923F929F928F921F9358
S1134DA00F930E94833A60E070E0C801CDDC26DDF9
S1134DB00F900F900F900F900F900F9081112EC0B5
S1134DC02F923F927F926F921F930F930E94833A88
S1134DD060E070E0C801B8DC11DD0F900F900F9017
S1134DE00F900F900F90811119C03FEFE31AF30A4F
S1134DF084E0C80ED11C98E0E916F10409F094CFC0
S1134E0060E070E086EE98E09FDCF8DC811106C07B
S1134E1060E070E087EF98E097DCF0DCA0960FB6D6
S1134E20F894DEBF0FBECDBFDF91CF911F910F91DC
S1134E30FF90EF90DF90CF90BF90AF909F908F90B6
S1134E407F906F905F904F903F902F900895EF92D6
S1134E50FF920F931F93CF93DF93EC018B017A01A1
S1134E6081E0F4DE81110DC0CE01D4DD811109C0D1
S1134E70C801E1DD811105C0C701BBDD811101C09D
S1134E80EBDDDF91CF911F910F91FF90EF9008958B
S1134E9090E0FC01EE0FFF1F8E0F9F1FFC01E554F5
S1134EA0F64F818192810895DC01009729F1FB017D
S1134EB02081FC0101900020E9F73197E81BF90BF0
S1134EC0822F90E0E817F907C8F080E008C0880F47
S1134ED0382F330F330F830F8053890F2F5FFD015A
S1134EE0E20FF11D908130ED390F3A3010F4911139
S1134EF0EECFFB012083089580E0089580E00895BB
S1134F000F931F93CF93DF93DC01EA012097E1F124
S1134F10FA0101900020E9F73197E41BF50B329771
S1134F2010F532C08D01040F151F30E0AE01420FA1
S1134F30531FFA019081913428F09753592F5295B9
S1134F40507F03C0592F5295507F2C0F3D1FF901FC
S1134F509181913410F0975301C09053950FF8014B
S1134F6090838F5F01C080E0282F220F482F50E0EC
S1134F70FE0101900020E9F73197EC1BFD0B4E1761
S1134F805F0710F48613CECFDF91CF911F910F915D
S1134F9008958091D319860F8093D3199091D619CF
S1134FA0913079F028F09230A9F0933019F10895F6
S1134FB06F3F09F048C01092D31981E08093D6194D
S1134FC00895663809F03FC01092D21982E08093A8
S1134FD0D6190895E091D21981E08E0F8093D219E9
S1134FE0F0E0E053F64E6083823069F583E080930D
S1134FF0D61908959091D21921E0290F2093D2193E
S1135000963009F581110EC0E0EDF9E1808190E060
S1135010982F88272181820F911D9093D81980930E
S1135020D71904C01092D8191092D7191092D61912
S1135030E091D419F091D519309729F08091D719BE
S11350409091D819199508958F929F92AF92CF920B
S1135050EF920F930F2EF9EC8F2EF7E29F2EF02D87
S11350606894AA24A4F86894CC24C4F8E12C00E041
S113507023E040E855E260E070E084D09093DA19D0
S11350808093D9190F91EF90CF90AF909F908F900C
S113509008959093D5198093D4190895CF93DF93ED
S11350A0CDB7DEB729970FB6F894DEBF0FBECDBFDC
S11350B089E0E2E4F2E09E012F5F3F4FD9010190C5
S11350C00D928A95E1F71092D8191092D719809110
S11350D0D9199091DA19009731F0422F532F69E0D2
S11350E024D180E001C082E029960FB6F894DEBF97
S11350F00FBECDBFDF91CF9108952091D719309184
S1135100D8192115310529F4FC011182108281E09E
S11351100895FC013183208380E0089565360CF006
S113512064E66C390CF46CE996EF6902B001112461
S11351306854744F811105C070932901609328014C
S1135140089570932B0160932A010895EAE0F1E039
S11351508081886180838FE39CE990932701809309
S1135160260160E080E0DADF60E081E0D7DFE0E2A2
S1135170F1E08081826A8083E1E2F1E080818A61EA
S1135180808308952F923F924F925F926F927F9205
S11351908F929F92AF92CF92EF92FF920F931F93B1
S11351A0CF93DF93CDB7DEB7F82E2A013B0188E019
S11351B090E00E9491378C018F2D90E0FC01EE0F5E
S11351C0FF1FE552F64E118300830115110509F402
S11351D06FC0880F991FFC01E55FFD4F80819181AD
S11351E0D8018D939C938C2D90E0880F991F880F84
S11351F0991F0E9491371C0186E090E00E9491372C
S11352007C014C2DB1010E947431F801F582E482D5
S11352108A2D90E0880F991F880F991F0E9491375B
S11352201C0186E090E00E9491377C014A2DB10177
S11352300E947431D8011396FC92EE92129717963D
S11352409C928E921697FFB6F894ED91FC9111976B
S113525036978081826080838D909C90C301B201D7
S11352600E94183620E030E040E051E40E94AA3663
S11352709B01AC0160E074E284E79BE40E947F350B
S113528020E030E040E85FE30E941A350E94EC35EC
S1135290F40132976083D801ED91FC911197359711
S11352A088E98083ED91FC91349786E08083FFBE8A
S11352B0C801DF91CF911F910F91FF90EF90CF9094
S11352C0AF909F908F907F906F905F904F903F90A2
S11352D02F900895CF93DF93DC01892B01F112966F
S11352E0ED91FC911397938182812581981B9223E0
S11352F084819817B1F0838126952823C081D181B8
S1135300C20FD11D68838F5F958189238383ED91BB
S1135310FC91359780818062808380E003C081E0C6
S113532001C082E0DF91CF910895EF92FF920F9335
S11353301F93CF93DF937C01009709F441C0DC01F4
S11353401296ED91FC91139793818281981B85812C
S113535098238481891B8617A8F1662341F1842F41
S1135360952FDC016150462F50E04F5F5F4F480F8F
S1135370591FE701EA81FB81938182812581981B72
S113538092238481981779F08C919381269529230F
S1135390608171818B01020F111DE80188839F5F79
S11353A08581982393831196A417B50711F7D70124
S11353B0ED91FC91359780818062808380E003C009
S11353C081E001C082E0DF91CF911F910F91FF90A6
S11353D0EF9008950097D1F0DC011496ED91FC91C3
S11353E0159793818281981799F09281858186958A
S11353F08923A081B181A80FB11D8C91DB018C930D
S11354009F5F85819823928380E0089581E00895C9
S113541083E008951F920F920FB60F9211240BB6DA
S11354200F922F933F934F935F936F937F938F9339
S11354309F93AF93BF93CF93DF93EF93FF93A09189
S1135440DB19B091DC19109711F16091C600149624
S1135450ED91FC911597938182812581981B92236C
S11354608481981761F0838126952823C081D18196
S1135470C20FD11D68838F5F95818923838316961C
S1135480ED91FC911797309711F0CD011995FF918B
S1135490EF91DF91CF91BF91AF919F918F917F91C8
S11354A06F915F914F913F912F910F900BBE0F9091
S11354B00FBE0F901F9018951F920F920FB60F9268
S11354C011240BB60F922F938F939F93AF93BF9397
S11354D0EF93FF93E091DB19F091DC193097B9F069
S11354E00280F381E02D938182819817B1F092813B
S11354F08581282F26952923A081B181A20FB11D72
S11355002C919F5F892382832093C6000BC0E1EC1A
S1135510F0E080818F7D808305C0E1ECF0E0808144
S11355208F7D8083FF91EF91BF91AF919F918F9178
S11355302F910F900BBE0F900FBE0F901F901895D8
S11355401F920F920FB60F9211240BB60F922F9346
S11355503F934F935F936F937F938F939F93AF93F7
S1135560BF93CF93DF93EF93FF93A091DD19B09195
S1135570DE19109711F16091CE001496ED91FC9113
S11355801597938182812581981B92238481981792
S113559061F0838126952823C081D181C20FD11D5A
S11355A068838F5F9581892383831696ED91FC919F
S11355B01797309711F0CD011995FF91EF91DF9175
S11355C0CF91BF91AF919F918F917F916F915F9197
S11355D04F913F912F910F900BBE0F900FBE0F90E4
S11355E01F9018951F920F920FB60F9211240BB6AD
S11355F00F922F938F939F93AF93BF93EF93FF9348
S1135600E091DD19F091DE193097B9F00280F38151
S1135610E02D938182819817B1F092818581282FA2
S113562026952923A081B181A20FB11D2C919F5FE2
S1135630892382832093CE000BC0E9ECF0E08081C3
S11356408F7D808305C0E9ECF0E080818F7D8083CD
S1135650FF91EF91BF91AF919F918F912F910F90F7
S11356600BBE0F900FBE0F901F9018951F920F92B4
S11356700FB60F9211240BB60F922F933F934F93B3
S11356805F936F937F938F939F93AF93BF93CF93C6
S1135690DF93EF93FF93A091DF19B091E019109776
S11356A011F16091D6001496ED91FC9115979381B8
S11356B082812581981B92238481981761F08381CC
S11356C026952823C081D181C20FD11D68838F5FA5
S11356D09581892383831696ED91FC9117973097D2
S11356E011F0CD011995FF91EF91DF91CF91BF9109
S11356F0AF919F918F917F916F915F914F913F9166
S11357002F910F900BBE0F900FBE0F901F90189506
S11357101F920F920FB60F9211240BB60F922F9374
S11357208F939F93AF93BF93EF93FF93E091DF1910
S1135730F091E0193097B9F00280F381E02D938164
S113574082819817B1F092818581282F269529238B
S1135750A081B181A20FB11D2C919F5F8923828307
S11357602093D6000BC0E1EDF0E080818F7D808333
S113577005C0E1EDF0E080818F7D8083FF91EF91A2
S1135780BF91AF919F918F912F910F900BBE0F906E
S11357900FBE0F901F9018951F920F920FB60F9285
S11357A011240BB60F922F933F934F935F936F93F4
S11357B07F938F939F93AF93BF93CF93DF93EF9395
S11357C0FF93A091E119B091E219109711F1609142
S11357D036011496ED91FC91159793818281258170
S11357E0981B92238481981761F08381269528233E
S11357F0C081D181C20FD11D68838F5F95818923B8
S113580083831696ED91FC911797309711F0CD0193
S11358101995FF91EF91DF91CF91BF91AF919F9136
S11358208F917F916F915F914F913F912F910F9045
S11358300BBE0F900FBE0F901F9018951F920F92E2
S11358400FB60F9211240BB60F922F938F939F9341
S1135850AF93BF93EF93FF93E091E119F091E219B5
S11358603097B9F00280F381E02D938182819817FB
S1135870B1F092818581282F26952923A081B181B9
S1135880A20FB11D2C919F5F89238283209336013F
S11358900BC0E1E3F1E080818F7D808305C0E1E30B
S11358A0F1E080818F7D8083FF91EF91BF91AF9173
S11358B09F918F912F910F900BBE0F900FBE0F9061
S11358C01F901895CF93DF931F92CDB7DEB7BE011B
S11358D06F5F7F4F8091E3199091E4197BDD811113
S11358E0F6CF898190E00F90DF91CF910895682FD2
S11358F08091E3199091E419EDDC80E090E0089543
S11359008F929F92AF92CF92EF920F93812C912C12
S11359106894AA24A7F86894CC24C7F8E12C00E082
S113592023E040E051EE60E070E02CDC9093E41959
S11359308093E319E7E2FAE183E192E091838083C3
S1135940938382830F91EF90CF90AF909F908F902D
S1135950089590E0FC01EE0FFF1FE80FF91FEE0F12
S1135960FF1FEB51F64E238121111FC09C01220F12
S1135970331FF901E80FF91FEE0FFF1FEB51F64E2D
S1135980A081B1814C91F901E80FF91FEE0FFF1FBF
S1135990EB51F64E81E090E0028002C0880F991F1F
S11359A00A94E2F7842B8C930895FC01EE0FFF1FF9
S11359B0DF01A80FB91FAA0FBB1FAB51B64E0D9044
S11359C0BC91A02D2C91E80FF91FEE0FFF1FEB5196
S11359D0F64E81E090E0028002C0880F991F0A947D
S11359E0E2F7809582238C93089590E0FC01EE0FFA
S11359F0FF1FE80FF91FEE0FFF1FEB51F64E238137
S1135A00211120C09C01220F331FF901E80FF91F57
S1135A10EE0FFF1FEB51F64EA081B1814C91F901BD
S1135A20E80FF91FEE0FFF1FEB51F64E81E090E0F7
S1135A30028002C0880F991F0A94E2F7809584239C
S1135A408C930895FC01EE0FFF1FDF01A80FB91F0F
S1135A50AA0FBB1FAB51B64E0D90BC91A02D2C913B
S1135A60E80FF91FEE0FFF1FEB51F64E81E090E0B7
S1135A70028002C0880F991F0A94E2F7822B8C934C
S1135A800895CC24C394D12C6894BB24B2F8C5EEF9
S1135A90D9E110E08C81813081F018F1823061F518
S1135AA0E881F9812081C6010A8002C0880F991F0C
S1135AB00A94E2F7822780831FC08D818F5F86302E
S1135AC010F48D8319C01D82E881F9812081C601FB
S1135AD00A8002C0880F991F0A94E2F78227808304
S1135AE00BC00D81002329F0812F7FDF01500D832E
S1135AF003C0BC82812F2DDF1F5F2696143051F620
S1135B006CE070E080E090E00E94AB14C0CFEF92B4
S1135B10FF920F931F93CF93DF93082F80E487B9ED
S1135B20C5EED9E10F2EF8E2EF2EF12CF02DF9821B
S1135B30E88286E08A831B8214E01C8380E009DF0C
S1135B4080E887B9FF82EE8287E0888719861A8702
S1135B5081E0FFDE80E283BB84E390E09D878C8755
S1135B6085E08E871F86188B82E0F3DE80E18093C8
S1135B70010182E091E09B8B8A8B1C8B1D8A1E8B1A
S1135B8083E0E7DEE12CF12C20E030E040EC50E053
S1135B906EEE79E081E49DE20E94A611DF91CF913F
S1135BA01F910F91FF90EF900895CF93DF9390E0B2
S1135BB0FC01EE0FFF1FDF01A80FB91FAA0FBB1FC7
S1135BC0AB51B64ECD91DC911197488121E030E084
S1135BD012960C90129702C0220F331F0A94E2F718
S1135BE024272883FD0181E08483DF91CF910895E8
S1135BF0CF93DF9390E0FC01EE0FFF1FDF01A80FAE
S1135C00B91FAA0FBB1FAB51B64ECD91DC911197B2
S1135C10488121E030E012960C90129702C0220FC6
S1135C20331F0A94E2F724272883FD0182E084834A
S1135C30DF91CF910895282F30E0F901EE0FFF1F77
S1135C40E20FF31FEE0FFF1FEB51F64E93E0948328
S1135C50CCCE0895282F30E0F901EE0FFF1FE20F9C
S1135C60F31FEE0FFF1FEB51F64E94E0948371CEB9
S1135C70089590E0FC01EE0FFF1FDF01A80FB91F8C
S1135C80AA0FBB1FAB51B64E26E015962C93159761
S1135C90FD011482089590E0FC01EE0FFF1FDF0167
S1135CA0A80FB91FAA0FBB1FAB51B64E15961C9275
S1135CB01597FD0114820895E091051AF091061AD2
S1135CC0309709F0199508956450623008F03BC08C
S1135CD02091041A223079F018F4213031F030C0C8
S1135CE0233081F02430A1F02BC022E02093041A49
