S0170000534550345F477265656E686F7573652E737265637D
S113000066C1000085C1000083C1000081C10000F9
S11300107FC100007DC100007BC1000079C10000E8
S113002077C1000075C1000073C1000071C10000F8
S113003059C700006DC100006BC1000069C1000018
S113004067C1000065C1000063C1000061C1000018
S11300505FC100005DC100005BC1000059C1000028
S113006057C100000C9482280C94D42851C100007C
S11300704FC100004DC100004BC1000049C1000048
S113008047C1000045C1000043C1000041C1000058
S11300900C9418290C946A293BC100000C94B52DCA
S11300A037C1000035C1000033C1000031C1000078
S11300B02FC100002DC100002BC1000029C1000088
S11300C027C1000025C1000023C100000C94AE2903
S11300D00C94002A1DC100000C94442A0C94962A06
S11300E017C100004C1D4C1D4C1D831D8B1DA01DF4
S11300F04C1D4C1D831D8B1DD72D472E472E472E7F
S1130100472E472E472E472ED72D472E472E472EB4
S1130110472E472E472E472ED92D472E472E472EA2
S1130120472E472E472E472E472E472E472E472E23
S1130130472E472E472E472ED92D472E472E472E82
S1130140472E472E472E472E472E472E472E472E03
S1130150472E472E472E472E432E472E472E472EF7
S1130160472E472E472E472E0E2E472E472E472E1C
S1130170472E472E472E472E472E472E472E472ED3
S1130180472E472E472E472E022E472E472E472E08
S1130190472E472E472E472E262E6E616E00696E1F
S11301A0660000407A10F35A00A0724E180900103D
S11301B0A5D4E80000E87648170000E40B540200D8
S11301C000CA9A3B000000E1F50500008096980003
S11301D0000040420F000000A0860100000010272C
S11301E000000000E80300000000640000000000BC
S11301F00A00000000000100000000002C76D888EE
S1130200DC674F0823DFC1DFAE59E1B1B796E5E300
S1130210E453C63AE651997696E8E6C28426EB8919
S11302208C9B62ED407C6FFCEFBC9C9F40F2BAA5B6
S11302306FA5F490055A2AF75C936B6CF9676DC14E
S11302401BFCE0E40D47FEF520E6B500D0ED902E52
S11302500300943577050080841E080000204E0AB0
S1130260000000C80C333333330F986E12831141EE
S1130270EF8D2114893BE65516CFFEE6DB18D184B9
S11302804B381BF77C1D901DA4BBE42420328472E0
S11302905E228100C9F124ECA1E53D270E948D0F67
S11302A080918D19823008F057D50E94C91DF6CF70
S11302B0CF93DF931F92CDB7DEB7CE0101960E9494
S11302C0C91A49810E94BE1C0E94151DF6CF112433
S11302D01FBECFEFD1E2DEBFCDBF00E00CBF1BE0FD
S11302E0A0E0B2E0E0EDFFE600E00BBF02C0079043
S11302F00D92A636B107D9F72BE1A6E6BBE001C003
S11303001D92A438B207E1F70E941C210C94E63731
S113031077CECF93DF93CDB7DEB76A970FB6F89455
S1130320DEBF0FBECDBF0E94DE1069837A838B834C
S11303309C8348EA58E460E070E0CE0101960E9494
S1130340F41245E050E060E070E08091741B9091FD
S1130350751B4DD2CC24CA94DC2C760101E021E03B
S11303604AE050E060E070E08091721B9091731B52
S11303709ED1DC01CB018A709927AA27BB27892B40
S11303808A2B8B2BB1F20E94941E0E94ED1D0E94B9
S1130390991E0E94F21D0E941B1E0E94F71D62E01E
S11303A0CE0105960E94FC1D0FEF1FEF980146E158
S11303B050E0BE016B5F7F4F8091761B9091771B5D
S11303C00E94B00C863129F08FE692E00E94293712
S11303D0B0CF99279F938F938AE792E09F938F934F
S11303E00E9415370F900F900F900F90A2CFEF92AD
S11303F0FF920F93E12CF12C082F20E030E040EC29
S113040050E063E972E089E891E00E9454100F9192
S1130410FF90EF90089590E0EACF08958091680BE3
S11304209091690B08958091660B9091670B0895E4
S11304309093690B8093680B08959093670B809356
S1130440660B0895EF92FF920F931F93CF93DF9360
S1130450CDB7DEB7EC84F12CFE2CEE248D85E82A92
S11304600E8510E0102F00278F85082BC701E0DFD1
S1130470802F912FE2DF1F930F93FF92EF9283EA75
S113048092E09F938F930E9415370F900F900F90D7
S11304900F900F900F90DF91CF911F910F91FF90CC
S11304A0EF9008950FEF1FEF980146E150E06AE6E0
S11304B07BE08091781B9091791B0E94B90D882371
S11304C089F3EAE6FBE0918180811F929F931F925A
S11304D08F9382ED92E09F938F930E9415378091C2
S11304E0701B9091711B0F900F900F900F900F90B5
S11304F00F900097B9F24AE050E060E070E0BED798
S1130500813039F58DB79EB746970FB6F8949EBFE4
S11305100FBE8DBFADB7BEB7119686E1EAE6FBE02C
S113052001900D928A95E1F78DDF00E020E030E044
S1130530A90160E070E08091701B9091711B24D63A
S11305408DB79EB746960FB6F8949EBF0FBE8DBF6B
S1130550A9CF8BE093E00E942937A4CFA3DF90E0DA
S1130560FDDF0C94202708950C9408270895CF9359
S1130570DF9300D01F92CDB7DEB70E94DE106983EF
S11305807A838B839C8340E15DE160E070E0CE017F
S113059001960E94F41242DF7C0145DFD82EC92E59
S11305A00E94E41E0E94941E6AE070E00E940734D8
S11305B08B01FF92EF921F936F938DE393E09F93D0
S11305C08F930E941537CF92DF9229E93EE1ADEC7B
S11305D0BCEC0E944434969587959695879596959C
S11305E087959F938F9384E793E09F938F930E94C3
S11305F015370FB6F894DEBF0FBECDBFE016F10677
S113060024F464E680E0B0DFBECF6CE980E0ACDFC8
S1130610BACFEF92FF920F93E12CF12C082F20E038
S113062030E040EC50E06AEA73E087EB92E00E942D
S113063054100F91FF90EF90089590E0EADF8FEF50
S113064081B982B908950F9301110CC0DC01CB016B
S113065082239323A423B523892B8A2B8B2B79F410
S113066080E010C0DC01CB0182239323A423B523B3
S1130670281739074A075B0721F080E003C081E0AF
S113068001C081E00F910895CF93DF938FE090E054
S1130690AFD1EC01009739F0FC0111921192119243
S11306A01192CF018BD2CE01DF91CF9108952F9279
S11306B03F924F925F926F927F928F929F92AF92EE
S11306C0BF92CF92DF92EF92FF920F931F93CF933B
S11306D0DF93EC014A015B01622E702E0E94D81058
S11306E0288039804A805B80A5019401C201B10150
S11306F0AADF8823A1F0662089F1D501C401809581
S11307009095A095B09582219321A421B521888349
S11307109983AA83BB83C12CD12C760122C0C11436
S1130720D104E104F104E9F0611004C040E050E0B8
S1130730BA0104C040E050E060E071E07110746000
S1130740482959296A297B2997018601CE010496F3
S11307500E94F013212C312C210103C0C12CD12C77
S113076076010E941812CD28CE28CF2859F1811184
S113077001C0F2D20E94B2176B017C0191FD1FC02F
S11307800FB6F8940F92C880D980EA80FB80072DB9
S1130790A5019401C701B60156DF882371F06620D4
S11307A061F080949094A094B0948C209D20AE200D
S11307B0BF2088829982AA82BB820F900FBE160145
S11307C027015524C201B101DF91CF911F910F91EF
S11307D0FF90EF90DF90CF90BF90AF909F908F905D
S11307E07F906F905F904F903F902F9008954F921D
S11307F05F926F927F92AF92BF92CF92DF92EF920D
S1130800FF920F931F93CF93DF93EC016A017B0157
S11308108C01095F1F4F0E94D810EB85FC858881ED
S11308209981AA81BB81C82AD92AEA2AFB2AC882CB
S1130830D982EA82FB82C12CD12C76013DC0A480EE
S1130840B58080819181A281B381AC01BD017727FC
S1130850B2FD0EC0488059806A807B8044225522B4
S11308606622772245284628472889F420E012C0CA
S1130870488059806A807B804422552266227722F0
S1130880441555056605770521F020E003C021E0F5
S113089001C021E0222371F0B0FF04C0C42AD52A8C
S11308A0E62AF72A488159816A817B817260CF01E7
S11308B00E942B15EA2DFB2DE017F10709F0BFCF9D
S11308C0C094D094E094F09488819981AA81BB81EA
S11308D0C822D922EA22FB22C882D982EA82FB8278
S11308E00E941812688179818A819B81DF91CF915E
S11308F01F910F91FF90EF90DF90CF90BF90AF903A
S11309007F906F905F904F900895ECE8FBE0A0E932
S1130910BBE0B183A08313821282E8E3F9E1F09390
S11309208B0BE0938A0B138212821182108288EA65
S11309309DE013969C938E931297ED93FC93909362
S1130940870B8093860B9093890B8093880B80E0B0
S113095090E89093810B8093800B0895CF93DF935D
S1130960EC01ACE8BBE001C0DF01ED91FC91119713
S1130970EC17FD07C8F312968D919C9113979D0176
S1130980280F391FC217D30749F42A813B81820FEC
S1130990931F13969C938E931297ED018A819B81EA
S11309A09E01280F391FE217F307C1F420918A0B27
S11309B030918B0BE217F30771F022813381820FA0
S11309C0931F9B838A83ED91FC9111978081918180
S11309D09983888305C03983288302C0F983E88317
S11309E0CA17DB0711F0CD93DC93DF91CF91089503
S11309F0EF92FF920F931F93CF93DF938C010E948A
S1130A00D81080918A0B90918B0B892B09F47DDF90
S1130A108091800B9091810B80239123892B09F085
S1130A2076C00115110549F0C80104960817190785
S1130A3018F000E010E001C08C010115110509F463
S1130A4069C08091880B9091890B8017910708F4F5
S1130A5064C0C0918C0BD0918D0BECE8FBE002C01C
S1130A60FE01EC018A819B818017910720F4888123
S1130A7099810097A9F780918A0B90918B0BC817E5
S1130A80D90709F44DC0E080F18084E0E80EF11C40
S1130A9088819981918380832A813B81201B310B3A
S1130AA02930310548F0CE01800F911FFC013383BA
S1130AB022831B830A8352DF2A813B818091880B26
S1130AC09091890B821B930B9093890B8093880BD5
S1130AD04091860B5091870B8417950720F49093CF
S1130AE0870B8093860B8091800B9091810B282B30
S1130AF0392B3B832A83198218828091840B90912D
S1130B00850B01969093850B8093840B0BC0E12C8D
S1130B10F12C08C0E12CF12C05C0E12CF12C02C011
S1130B20E12CF12C0E941812E114F10411F40E943A
S1130B30D51DC701DF91CF911F910F91FF90EF90C9
S1130B4008950F931F93CF93DF93009791F1EC01D6
S1130B5024974A815B812091800B3091810BBA01EB
S1130B6062237323672B29F168817981672B09F547
S1130B7020953095242335233B832A830E94D81063
S1130B808A819B812091880B3091890B820F931F5E
S1130B909093890B8093880BCE01E0DE8091820BC9
S1130BA09091830B01969093830B8093820B0E9408
S1130BB01812DF91CF911F910F910895FC010396B4
S1130BC0928381834FEF5FEFBA014383548365833C
S1130BD07683908787839287818710820895FC01AA
S1130BE01386128608950F931F93CF93DF93EB011F
S1130BF0088119812A813B810F3F4FEF1407240795
S1130C00340721F4FC01A185B28511C0DC011396DF
S1130C1001C0DF011496ED91FC911597408151813B
S1130C2062817381041715072607370790F7149616
S1130C30ED91FC911597FD83EC83D783C683BF8325
S1130C40AE831596DC93CE9314979B878A87FC0119
S1130C5020812F5F2083DF91CF911F910F91089501
S1130C60CF93DF93FC01A285B385C481D5818681AE
S1130C7097819F838E83C681D781848195819D834B
S1130C808C8311968D919C911297E817F90731F492
S1130C908681978112969C938E9311971386128660
S1130CA08C9181508C938C91DF91CF910895A8956C
S1130CB090EC88E10FB6F894A895809360000FBE7D
S1130CC0909360000895FC0160833197708331979D
S1130CD0108231971082319720E820833197108257
S1130CE031971082319710827797408331975083E0
S1130CF086970895DCDFA091FB19B091FC19CD9182
S1130D00CDBFDD91DEBFFF91EF91DF91CF91BF9118
S1130D10AF919F918F917F916F915F914F913F918F
S1130D202F911F910F91FF90EF90DF90CF90BF9084
S1130D30AF909F908F907F906F905F904F903F9077
S1130D402F901F900F900CBE0F900BBE0F900FBEF4
S1130D500F90089581E008950F920FB6F8940F92C2
S1130D600BB60F920CB60F921F9211242F923F9242
S1130D704F925F926F927F928F929F92AF92BF92A7
S1130D80CF92DF92EF92FF920F931F932F933F9393
S1130D904F935F936F937F938F939F93AF93BF937F
S1130DA0CF93DF93EF93FF93A091FB19B091FC19BC
S1130DB00DB60D920EB60D920E947413A091FB19FC
S1130DC0B091FC19CD91CDBFDD91DEBFFF91EF91C4
S1130DD0DF91CF91BF91AF919F918F917F916F914F
S1130DE05F914F913F912F911F910F91FF90EF9041
S1130DF0DF90CF90BF90AF909F908F907F906F9037
S1130E005F904F903F902F901F900F900CBE0F90CB
S1130E100BBE0F900FBE0F9008950F920FB6F8946B
S1130E200F920BB60F920CB60F921F9211242F92B1
S1130E303F924F925F926F927F928F929F92AF9266
S1130E40BF92CF92DF92EF92FF920F931F932F9353
S1130E503F934F935F936F937F938F939F93AF933E
S1130E60BF93CF93DF93EF93FF93A091FB19B091BE
S1130E70FC190DB60D920EB60D9213BE0E94EC1025
S1130E8081110E947413A091FB19B091FC19CD91AA
S1130E90CDBFDD91DEBFFF91EF91DF91CF91BF9187
S1130EA0AF919F918F917F916F915F914F913F91FE
S1130EB02F911F910F91FF90EF90DF90CF90BF90F3
S1130EC0AF909F908F907F906F905F904F903F90E6
S1130ED02F901F900F900CBE0F900BBE0F900FBE63
S1130EE00F9008959ADF1895DC0153962C9153972F
S1130EF0222341F05A96ED91FC915B9790818AE010
S1130F00891B089580E008950FB6F8940F92FC01B0
S1130F10868D811102C081E001C080E00F900FBE78
S1130F2008950FB6F8940F92FC01268D878D28132F
S1130F3002C081E001C080E00F900FBE08950F93BE
S1130F401F93CF93DF93EC01042F1E8D48A1411111
S1130F500CC088819981892B09F042C08C819D81C4
S1130F600E94F0161D821C8242C0011117C050E07D
S1130F708A819B810E946F3628A18A819B81820F7E
S1130F80911D9B838A832C813D818217930750F1A5
S1130F90888199819B838A8380E029C050E08E8177
S1130FA09F810E946F3688A190E091958195910967
S1130FB02E813F81280F391F3F832E834881598119
S1130FC02417350730F42C813D81820F931F9F83B2
S1130FD08E83023049F4112349F0115080E007C098
S1130FE080E005C080E003C080E001C080E01F5FB6
S1130FF01E8FDF91CF911F910F910895FC0140A1A5
S11310004423A9F050E026813781240F351F37830C
S11310102683848195812817390720F08081918166
S113102097838683CB01668177810C946F3608950C
S11310301F93CF93DF93EC010FB6F8940F921AA18C
S11310400BC08B89882351F0CE0143960E947C14F7
S113105081110E945216115011169CF38FEF8AA32E
S11310600F900FBE0FB6F8940F9219A10BC088858C
S1131070882351F0CE0108960E947C1481110E94AD
S11310805216115011169CF38FEF89A30F900FBEC7
S1131090DF91CF911F910895CF93DF93EC010FB6A9
S11310A0F8940F92E881F9818F8D28A190E030E0C7
S11310B0829FA001839F500D929F500D11244E0FCB
S11310C05F1F5D834C831E8EFB83EA830197289FF9
S11310D0A001299F500D389F500D1124CF01840F7A
S11310E0951F9F838E838FEF89A38AA361110BC001
S11310F08885882371F0CE0108960E947C14882389
S113110041F02ADE06C0CE01089658DDCE01439692
S113111055DD0F900FBE81E0DF91CF9108950F93BD
S11311201F93F801611103C01183008302C051832E
S11311304083878F60A361E0CF01AEDF1F910F91E1
S11311400895DF92EF92FF920F931F93CF93DF9353
S1131150F82EE62ED42E869FC0011124839648DCF7
S1131160EC01009741F08C012D2DAC014D5D5F4FDA
S11311706E2D8F2DD4DFCE01DF91CF911F910F9172
S1131180FF90EF90DF900895CF92DF92EF92FF925D
S11311900F931F93CF93DF93CDB7DEB729970FB685
S11311A0F894DEBF0FBECDBF7C016B012E833F835D
S11311B04887598710E00FB6F8940F92F701968D7F
S11311C0878D981710F00230B1F4402FB601C70193
S11311D0B6DEF7019389992341F0C70143960E9433
S11311E07C14882321F0B8DD02C08111B5DD0F9095
S11311F00FBE81E04CC08E819F81A885B985892B63
S11312008A2B8B2B21F40F900FBE80E040C011116C
S113121005C0CE0101960E94DB1511E00F900FBEB0
S1131220C7D70FB6F8940F92F70181A18F3F09F445
S113123011A2F70182A18F3F09F412A20F900FBEF1
S1131240BE016A5F7F4FCE0101960E94EC158111A9
S113125019C0C70166DE882381F04E815F816885ED
S11312607985C70108960E94D913C701E1DE0E945F
S113127018128111A0CF70DD9ECFC701D9DE0E9464
S1131280181299CFC701D4DE0E94181280E0299663
S11312900FB6F894DEBF0FBECDBFDF91CF911F9183
S11312A00F91FF90EF90DF90CF9008950F930097E8
S11312B069F0FC011582148211821082168200E00A
S11312C020E030E0A90160E070E05EDF0F91089556
S11312D0CF93DF93482F60E081E033DFEC01E6DF5A
S11312E0CE01DF91CF910895EF92FF920F931F9358
S11312F0CF93DF938A01FC01568D378D531710F07D
S11313002230F9F4422F7801EC011AA18E8DCE011E
S113131016DE1F3F81F48B898823A9F0CE01439602
S11313200E947C14882389F0E114F10481F081E0A7
S1131330F70180830DC0FF24F394F10EFAA281E03B
S113134007C080E005C081E003C081E001C081E006
S1131350DF91CF911F910F91FF90EF900895CF925D
S1131360DF92EF92FF920F931F93CF93DF93CDB74A
S1131370DEB729970FB6F894DEBF0FBECDBF8C0140
S11313806B012E833F8348875987E12C0FB6F8946D
S11313900F92F801F68CFF2099F0B601C8012EDEF9
S11313A0FA94F801F68E8085882331F0C8010896F6
S11313B00E947C148111D0DC0F900FBE81E04FC0DD
S11313C08E819F81A885B985892B8A2B8B2B21F44B
S11313D00F900FBE80E043C0E11006C0CE0101961D
S11313E00E94DB15EE24E3940F900FBEE1D60FB6F6
S11313F0F8940F92F80181A18F3F09F411A2F8012A
S113140082A18F3F09F412A20F900FBEBE016A5F42
S11314107F4FCE0101960E94EC15811117C0C801BF
S113142073DD882379F04E815F8168857985C801F1
S113143043960E94D913C801FBDDFAD78111A6CFC8
S11314408BDCA4CFC801F4DDF3D7A0CFC801F0DD55
S1131450EFD7C80159DD882309F498CF80E0299695
S11314600FB6F894DEBF0FBECDBFDF91CF911F91B1
S11314700F91FF90EF90DF90CF900895EF92FF923D
S11314800F931F93CF93DF93CDB7DEB729970FB692
S1131490F894DEBF0FBECDBF8C014E835F83688797
S11314A07987E12CF12C0FB6F8940F92F801868D10
S11314B08823C9F08150868F80819181892B29F4FA
S11314C00E94DC17F80195838483F80180858823C2
S11314D031F0C80108960E947C1481113DDC0F9004
S11314E00FBE81E06FC08E819F81A885B985892B4D
S11314F08A2B8B2B21F40F900FBE80E063C0F11078
S113150006C0CE0101960E94DB15FF24F3940F90D0
S11315100FBE4ED60FB6F8940F92F80181A18F3FFB
S113152009F411A2F80182A18F3F09F412A20F90CD
S11315300FBEBE016A5F7F4FCE0101960E94EC157B
S1131540811126C0C801E0DC8823F1F0F801808114
S11315509181892B51F40FB6F8940F92848195816F
S11315600E946916E82E0F900FBE4E815F81688538
S11315707985C80143960E94D913C80159DD58D70B
S1131580811191CFE9DB8FCFC80152DD51D78BCFC9
S1131590C8014EDD4DD7C801B7DC882309F483CFD9
S11315A0EE2079F00FB6F8940F92C8019DDC682FF5
S11315B0F801848195810E944B170F900FBE80E043
S11315C001C080E029960FB6F894DEBF0FBECDBFF0
S11315D0DF91CF911F910F91FF90EF900895CF93DA
S11315E0DF93EC010FB6F8940F9289A18F3F09F4B1
S11315F019A28AA18F3F09F41AA20F900FBE8E8DF3
S1131600811104C0CE0143960E943A14CE0110DD2C
S1131610DF91CF910895FC0144815581228133816A
S1131620240F351F80819181B901681B790BCB018F
S11316306417750710F0841B950B08950F93FC0134
S11316408FE0DF011D928A95E9F7758764875583DA
S113165044833783268306870F910895AF92BF9200
S1131660CF92DF92EF92FF920F931F93CF93DF936A
S11316706C015B017A01FC01C281D3810481158173
S11316800C1B1D0B4017510708F48A01F6018485D1
S11316909585A801B5018C0F9D1F0E946F360E150C
S11316A01F0558F4A701401B510BB501600F711FB2
S11316B0F601848595850E946F36CE018E0D9F1D9F
S11316C0F601248135818217930710F0821B930B56
S11316D0F60193838283C701DF91CF911F910F910C
S11316E0FF90EF90DF90CF90BF90AF900895CF928E
S11316F0DF92EF92FF920F931F93CF93DF931F928A
S11317001F92CDB7DEB77C016B015A834983211543
S11317103105C1F0FC01868580FD08C042175307DE
S113172008F49A013A83298381E00FC02017310716
S113173058F042E050E0BE016F5F7F4FC7018EDF7B
S113174081E003C080E001C080E0882331F049815A
S11317505A81B601C70182DF02C080E090E00F9099
S11317600F90DF91CF911F910F91FF90EF90DF9039
S1131770CF900895AF92BF92CF92DF92EF92FF92F3
S11317800F931F93CF93DF937C015B01E901421711
S1131790530708F4EA01209781F1F70100811181D0
S11317A084819581801B910B6E018C179D0708F431
S11317B06C01F70164857585600F711FA601C50171
S11317C00E946F36CC16DD0658F4AE014C195D0943
S11317D0F70164857585C5018C0D9D1D0E946F36CA
S11317E00C0F1D1FF701848195810817190710F04C
S11317F0081B190BF70111830083CE01DF91CF91F0
S11318001F910F91FF90EF90DF90CF90BF90AF901A
S113181008956F927F928F929F92AF92BF92CF92D0
S1131820DF92EF92FF920F931F93CF93DF931F9258
S11318301F92CDB7DEB76C014B015A017901011536
S11318401105B1F0FC0160807180A801BE016F5FD9
S11318507F4F90DF89819A81E01AF10AA816B906B0
S113186030F4F60171826082A12CB12C01C05C01BC
S11318709701A501B401C6017DDF0F900F90DF91A0
S1131880CF911F910F91FF90EF90DF90CF90BF9079
S1131890AF909F908F907F906F900895CF92DF923A
S11318A0EF92FF920F93CF93DF93EC016B014130E2
S11318B011F401E001C000E0C114D10419F4CC24F6
S11318C0C394D12CCE014096C817D90720F4219691
S11318D08FD87C0102C0E12CF12CE114F10439F021
S11318E09601AE01B701615F7F4FC701A7DEC70153
S11318F0DF91CF910F91FF90EF90DF90CF900895FB
S11319000F930FB6F8940F92FC0120853185232B99
S113191071F422853385232B61F426813781448138
S1131920558164857585068589DE81E003C080E084
S113193001C080E00F900FBE0F910895FC01248137
S1131940358180819181820F931F42815381841B51
S1131950950B01978217930710F0821B930B089540
S11319602F923F924F925F926F927F928F929F92AB
S1131970AF92BF92CF92DF92EF92FF920F931F9399
S1131980CF93DF93CDB7DEB72B970FB6F894DEBFB6
S11319900FBECDBF4C017B876A871A010E831F835C
S11319A028873987FC01848195810197268520FF4A
S11319B00CC02A01F2E04F0E511C8415950558F411
S11319C01E821F821886198606C08417950710F098
S11319D02A0101C02C018E819F81A885B985892B9C
S11319E08A2B8B2B09F438C0CE0101960E94C515B1
S11319F00FB6F8940F92C401A1DF3C01841595053C
S1131A0040F560E080E090E00E94AF1A0E94561614
S1131A10F401938782870F900FBEAE80BF80C88485
S1131A20D984E12CF12C00E010E0980140E050E072
S1131A30BA0180E00E94EE17F40113861286BE01FB
S1131A406A5F7F4FCE0101960E94EC15882381F2D4
S1131A5005C00F900FBE02C0612C712C611471047B
S1131A6019F4C4016BDF3C0182019301A1016A8571
S1131A707B85C4013CDE6C01892BE9F0C401CBDD1C
S1131A80F4012681378182179307A8F091D3F401DA
S1131A9080859185892B71F080859185E12CF12CCD
S1131AA000E020E030E0A90160E00E949618F40113
S1131AB011861086BDD4C6012B960FB6F894DEBFEE
S1131AC00FBECDBFDF91CF911F910F91FF90EF908B
S1131AD0DF90CF90BF90AF909F908F907F906F904A
S1131AE05F904F903F902F900895AF92BF92CF9206
S1131AF0DF92EF92FF920F931F93CF93DF93EC014A
S1131B007B015A0169018E8580FF04C08A010E5F42
S1131B101F4F01C08A01CE0111DF9C01A501B7014D
S1131B20CE01E5DD5C01892BC1F0CE0174DD2E818F
S1131B303F818217930788F088859985892B69F0FE
S1131B4088859985E12CF12C00E020E030E0A901A2
S1131B5060E00E948D1919861886C501DF91CF9126
S1131B601F910F91FF90EF90DF90CF90BF90AF90B7
S1131B7008954F925F926F927F928F929F92AF924D
S1131B80BF92CF92DF92EF92FF920F931F93CF9366
S1131B90DF93EC012B013A01580169018E8580FF26
S1131BA005C06894882481F8912C02C0812C912C62
S1131BB0A114B104C104D10441F10FB6F8940F92F9
S1131BC0CE0129DD7C018816990648F060E080E0AA
S1131BD090E00E94AF1A0E945616998788870F904A
S1131BE00FBE8E149F04A0F0E12CF12C00E010E055
S1131BF0980140E050E0BA0180E00E94EE17198697
S1131C001886CE0108DD7C0103C0CE0104DD7C0111
S1131C108E149F04E8F484019701A301B201CE015C
S1131C20F8DD6C01892BB1F0C3D28A859B85892BA1
S1131C3069F08A859B85E12CF12C00E020E030E0FE
S1131C40A90160E00E9496181B861A86F1D302C08F
S1131C50C12CD12CC601DF91CF911F910F91FF9020
S1131C60EF90DF90CF90BF90AF909F908F907F9038
S1131C706F905F904F900895E0917519F0917619E7
S1131C80808181110CC08FEF9FEFDC0180933F199D
S1131C9090934019A0934119B09342190895E0918B
S1131CA07519F09176190780F085E02D8081918176
S1131CB0A281B38180933F1990934019A093411955
S1131CC0B09342190895CF93DF93EC018B8D9C8DD3
S1131CD00E94A105CE010E94A105DF91CF91089534
S1131CE04F925F926F927F928F929F92AF92BF9228
S1131CF0CF92DF92EF92FF920F93CF93DF932C0159
S1131D005B014A013901E60165EA70E08B8D9C8D27
S1131D100E9478368B8D9C8D21E0821A9108880E62
S1131D20991EA114B10489F415C0822F90E0F50125
S1131D30E80FF91F3081DE01A80FB91F5D963C93AF
S1131D408081882329F02F5F01C020E0203168F3CF
S1131D501CA601C01D8E0A3008F009E00A8F0DA7E9
S1131D601EA6CE0102960E94EF05CE010E960E9499
S1131D70EF05DB87CA878AE090E0A0E0B0E0801B33
S1131D809109A109B1098E879F87A88BB98BDF8B35
S1131D90CE8B84E0FE01BF96DF011D928A95E9F7A0
S1131DA01BAAA301B201C4010E946306998388831C
S1131DB0E114F10419F0F701D183C083DF91CF91CD
S1131DC00F91FF90EF90DF90CF90BF90AF909F90D6
S1131DD08F907F906F905F904F900895CF93C0E065
S1131DE009C02BE0C29FC00111248357964E0E9464
S1131DF0DE05CF5FCA30A8F382E899E10E94DE05D0
S1131E0087E799E10E94DE0588E699E10E94DE05F4
S1131E108DE599E10E94DE0581E599E10E94DE05E8
S1131E2082E899E1909376198093751987E799E18F
S1131E309093741980937319CF910895CF93DF937E
S1131E40EC010FB6F8940F92809150198F5F809334
S1131E5050198091FB199091FC19892B51F4D0935E
S1131E60FC19C093FB1980915019813091F4B6DFAD
S1131E7010C080914A1981110CC0E091FB19F091B6
S1131E80FC19928D8A8D891720F0D093FC19C09388
S1131E90FB19809143198F5F80934319EA8D8091D8
S1131EA04B198E1710F4E0934B198BE08E9FF001C1
S1131EB01124E357F64E0180F281E02DFF83EE8377
S1131EC02681378139872887A681B7819E012E5FB5
S1131ED03F4F15963C932E93149737832683EA8DB0
S1131EE08E9FF0011124E357F64EFD87EC87808125
S1131EF08F5F80830F900FBE80914A19882351F021
S1131F00E091FB19F091FC19928D8A8D981710F4C9
S1131F100E94AC06DF91CF910895CF93DF931BC04D
S1131F200FB6F8940F92E0916419F0916519C08589
S1131F30D185CE0102960E943006809150198150BD
S1131F408093501980915C19815080935C190F9093
S1131F500FBECE01B8DE80915C198111E1CFDF9113
S1131F60CF9108958F929F92AF92BF92CF92DF92BA
S1131F70EF92FF92CF93DF936B017C01C42F80908B
S1131F804C1990904D19A0904E19B0904F19809112
S1131F90FB199091FC1902960E9430068FEFC81627
S1131FA0D806E806F806B1F5CC23A1F1E1E5F9E19C
S1131FB0A181B281C091FB19D091FC19BF83AE837A
S1131FC0C091FB19D091FC1916968D919C9117978D
S1131FD0998788871696CD91DC9117978091FB1984
S1131FE09091FC1902969D838C838091FB199091AA
S1131FF0FC19029617969C938E931697A091FB1941
S1132000B091FC191D96FC93EE931C9780818F5F11
S113201080833FC0C80CD91CEA1CFB1CE091FB194F
S1132020F091FC19C282D382E482F582C814D904E7
S1132030EA04FB0468F46091FB197091FC19809127
S11320407319909174196E5F7F4F0E94F30521C03C
S11320506091FB197091FC19809175199091761912
S11320606E5F7F4F0E94F30580913F199091401954
S1132070A0914119B0914219C816D906EA06FB0687
S113208040F4C0923F19D0924019E0924119F09265
S11320904219DF91CF91FF90EF90DF90CF90BF90E6
S11320A0AF909F908F9008952F923F924F925F929E
S11320B06F927F928F929F92AF92BF92CF92DF9254
S11320C0EF92FF920F93CF93DF933C011B014A01E0
S11320D02901CA010E94F8046C01892B71F084E380
S11320E090E00E94F804EC01892B19F0DC8ECB8E71
S11320F006C0C6010E94A10502C0C0E0D0E020973E
S113210061F0A12CB12C6E019201A401B101C301B3
S1132110E7DDCE0193DE81E001C08FEFDF91CF9147
S11321200F91FF90EF90DF90CF90BF90AF909F9072
S11321308F907F906F905F904F903F902F90089575
S1132140EF92FF920F930F2EFDE3EF2EF9E1FF2E96
S1132150F02D00E020E030E040EC50E06BEB73E069
S11321608EE491E0A1DF813011F40E94531B813091
S1132170C9F4F8948FEF9FEFDC0180933F1990939B
S11321804019A0934119B093421981E080934A19F0
S113219010924C1910924D1910924E1910924F1919
S11321A00E947A06809106020F91FF90EF900895A5
S11321B080913C198F5F80933C1908950FB6F89471
S11321C00F9260914C1970914D1980914E19909114
S11321D04F190F900FBE0895CF92DF92EF92FF92A6
S11321E0CF93DF9380913C19811105C1C0904C19A4
S11321F0D0904D19E0904E19F0904F198FEFC81AF6
S1132200D80AE80AF80AC0924C19D0924D19E09203
S11322104E19F0924F19C114D104E104F104B1F440
S113222080917519909176192091731930917419D0
S113223030937619209375199093741980937319B8
S1132240809144198F5F8093441916DD80913F1962
S113225090914019A0914119B0914219C816D9061C
S1132260EA06FB0620F480E0B2C081E001C080E011
S1132270E0917519F0917619908191110CC04FEF8E
S11322805FEFBA0140933F1950934019609341198D
S1132290709342199CC0E0917519F09176190780EA
S11322A0F085E02D0084F185E02D42815381648125
S11322B07581C416D506E606F70648F440933F191F
S11322C050934019609341197093421980C0A485BA
S11322D0B585C681D781208531853F832E83C0850E
S11322E0D185268137813D832C8311964D915C9154
S11322F012979F012E5F3F4F4217530731F44085D9
S1132300518512965C934E931197158614869C9171
S113231091509C93A08DB18D109709F1C289D389F6
S1132320448955895F834E83C489D58942895389F9
S11323305D834C8311966D917C911297AF01425F3E
S11323405F4F6417750731F44489558912965C937D
S11323504E931197118E108E9C9191509C93A28D47
S113236090914B199A1710F4A0934B199BE09A9FE4
S1132370D0011124A357B64E11960D90BC91A02DF7
S1132380B783A68316964D915C9117975187408722
S11323901696CD91DC9117973D832C8317963C9329
S11323A02E931697A28D9A9FD0011124A357B64E4F
S11323B0B587A4879C919F5F9C93228DE091FB1924
S11323C0F091FC19928D291708F04FCF51CFE0916D
S11323D0FB19F091FC19E28D9BE0E99FF0011124B7
S11323E0E357F64E9081923008F081E090914519C0
S11323F0911116C016C08091461990914719A09169
S11324004819B09149190196A11DB11D809346192F
S113241090934719A0934819B093491980E001C0DB
S113242081E0DF91CF91FF90EF90DF90CF900895FE
S1132430CF92DF92EF92FF92CF93DF930FB6F8948F
S11324400F9280913C19815080933C1980913C19E2
S11324508111BEC080915019811188C0BCC0E09127
S11324606F19F09170190084F185E02DA08DB18D64
S1132470C289D389848995899F838E83C489D589A8
S1132480828993899D838C8311962D913C91129717
S1132490CF010E962817390731F48489958912964D
S11324A09C938E931197118E108E8C9181508C93E6
S11324B0A485B585C681D781808591859F838E83C8
S11324C0C085D185868197819D838C8311968D915A
S11324D09C9112979F012E5F3F4F8217930731F40F
S11324E08085918512969C938E93119715861486F8
S11324F08C9181508C93A28D80914B198A1710F482
S1132500A0934B198BE08A9FD0011124A357B64E98
S113251011960D90BC91A02DB783A68316964D916C
S11325205C911797518740871696CD91DC91179748
S11325303D832C8317963C932E931697A28D8A9FE6
S1132540D0011124A357B64EB587A4878C918F5F11
S11325508C93928DA091FB19B091FC195A968C9191
S1132560981730F081E08093451902C0E0E0F0E074
S113257080916819811173CFEF2B09F07DDBC09036
S11325804619D0904719E0904819F0904919C114A0
S1132590D104E104F104A1F01FDE882319F081E0E5
S11325A08093451981E0C81AD108E108F108A1F720
S11325B0109246191092471910924819109249190D
S11325C080914519882331F00E94AC0681E003C054
S11325D080E001C080E00F900FBEDF91CF91FF90AB
S11325E0EF90DF90CF9008958F929F92AF92BF9219
S11325F0CF92DF92EF92FF921F93CF93DF93EC0180
S11326006A017B01D5DD80904C1990904D19A09002
S11326104E19B0904F1988819981AA81BB81AC0170
S1132620BD014C0D5D1D6E1D7F1D88169906AA0601
S1132630BB0660F4481759076A077B0798F48416A9
S11326409506A606B70680F010E013C04817590790
S11326506A077B0758F084169506A606B70640F06D
S113266010E007C010E005C011E003C011E001C094
S113267011E0488359836A837B83112341F0CB01A2
S1132680BA01681979098A099B0940E06BDCD0DE3C
S1132690811102C00E94AC06812FDF91CF911F915E
S11326A0FF90EF90DF90CF90BF90AF909F908F906E
S11326B00895CF92DF92EF92FF926B017C01672B1A
S11326C0682B692B39F074DD40E0C701B6014ADCA0
S11326D0AFDE01C080E0811102C00E94AC06FF9011
S11326E0EF90DF90CF90089580913C19882321F0DA
S11326F081E080934519089510924519E091FB19E2
S1132700F091FC1920813181E091FB19F091FC19C1
S1132710838D948D8217930760F06091FB197091FB
S1132720FC19635E7F4F8091FB199091FC190E9404
S1132730E11D80914B1901C08150282F30E09BE0AE
S1132740929FF001939FF00D1124E357F64E908170
S1132750992391F39BE0929FA001939F500D112424
S1132760DF010180F281E02D0480F581E02D1296D5
S1132770FC93EE9311974057564EE417F50729F44E
S113278044815581FD01528341839BE0929FF00176
S1132790939FF00D1124E357F64E0180F281E02D52
S11327A0208531853093FC192093FB1980934B19B4
S11327B00895CF92DF92EF92FF926A017B016091BC
S11327C0FB197091FC19625F7F4F0E94F30541E091
S11327D0C701B601C7DBFF90EF90DF90CF9008955B
S11327E00F931F93CF93DF93FC01A091FB19B0913A
S11327F0FC1970681E964D935D936D937C9351976D
S1132800A181B281C091FB19D091FC19BB8BAA8B19
S1132810C091FB19D091FC1916968D919C91179734
S11328209D8B8C8B1696CD91DC9117978091FB191B
S11328309091FC190E969D838C838091FB19909145
S1132840FC190E9617969C938E931697A091FB19DC
S1132850B091FC195996FC93EE93589780818F5F41
S1132860808341E0C901B8017DDBDF91CF911F91E5
S11328700F910895CF93DF93FC01CB01BA01A1819D
S1132880B281C091FB19D091FC19BB8BAA8BC0916A
S1132890FB19D091FC1916964D915C9117975D8B9D
S11328A04C8B1696CD91DC9117974091FB19509162
S11328B0FC19425F5F4F5D834C834091FB1950913B
S11328C0FC19425F5F4F17965C934E931697A09145
S11328D0FB19B091FC195996FC93EE9358973081EB
S11328E03F5F3083222319F06FEF7FEFCB01422F3C
S11328F039DBDF91CF910895CF93DF93DC011796F5
S1132900ED91FC9118970084F185E02DA08DB18D97
S1132910C289D389848995899F838E83C489D58903
S1132920828993899D838C8311968D919C911297B2
S11329309F01225F3F4F8217930731F48489958961
S113294012969C938E931197118E108E8C918150B8
S11329508C9380913C19811152C0A485B585C681A0
S1132960D781808591859F838E83C085D18586811B
S113297097819D838C8311968D919C9112979F01D1
S11329802E5F3F4F8217930731F48085918512960D
S11329909C938E931197158614868C9181508C93F9
S11329A0A28D80914B198A1710F4A0934B198BE0D8
S11329B08A9FD0011124A357B64E11960D90BC9155
S11329C0A02DB783A68316964D915C9117975187D6
S11329D040871696CD91DC9117973D832C831796EB
S11329E03C932E931697A28D8A9FD0011124A3574E
S11329F0B64EB587A4878C918F5F8C931CC048E634
S1132A0059E1DA011196CD91DC911297D38BC28BE7
S1132A108E819F81958B848B8E819F81DC0115969D
S1132A203C932E9314973F832E83518F408FDA016A
S1132A308C918F5F8C93928DE091FB19F091FC192E
S1132A40828D891720F481E08093451901C080E0CC
S1132A50DF91CF910895CF93DF93DC0170684D939C
S1132A605D936D937C9313971896ED91FC91199750
S1132A701A964D915C911B9714968D919C91159784
S1132A8016962D913C911797EC013F832E83169651
S1132A908D919C91179714962D913C911597EC016B
S1132AA03D832C83EA0189819A81A817B90731F4FF
S1132AB016968D919C9117979A8389831B961C92E5
S1132AC01E921A97DA018C9181508C93A485B58556
S1132AD0C681D781808591859F838E83C085D1856A
S1132AE0868197819D838C8311968D919C911297F9
S1132AF09F012E5F3F4F8217930731F480859185A4
S1132B0012969C938E931197158614868C918150FE
S1132B108C93A28D80914B198A1710F4A0934B19B2
S1132B208BE08A9FD0011124A357B64E11960D90C5
S1132B30BC91A02DB783A68316964D915C911797EF
S1132B40518740871696CD91DC9117973D832C834E
S1132B5017963C932E931697A28D8A9FD001112429
S1132B60A357B64EB587A4878C918F5F8C93928DB3
S1132B70E091FB19F091FC19828D891718F481E01A
S1132B8080934519DF91CF9108950FB6F8940F9271
S1132B9020914419FC01208340914C1950914D1906
S1132BA060914E1970914F194183528363837483EA
S1132BB00F900FBE089520914419FC012083409189
S1132BC04C1950914D1960914E1970914F194183D0
S1132BD052836383748308958F929F92AF92BF92BE
S1132BE0CF92DF92EF92FF920F931F93CF93DF93D5
S1132BF0FB010FB6F8940F92C0904C19D0904D1968
S1132C00E0904E19F0904F19DC0111960D911D9131
S1132C102D913C91149746015701801A910AA20AFA
S1132C20B30A40815181628173814F3FBFEF5B07DB
S1132C306B077B0739F1EC01B881A0914419BA17ED
S1132C4059F0C016D106E206F30630F01082118264
S1132C501282138281E017C084169506A606B70671
S1132C6058F4481959096A097B09408351836283DE
S1132C707383A1DF80E007C0108211821282138265
S1132C8081E001C080E00F900FBEDF91CF911F91D2
S1132C900F91FF90EF90DF90CF90BF90AF909F90F7
S1132CA08F90089581E08093451908958091FB19D0
S1132CB09091FC19089580914A19882331F08091EC
S1132CC03C19811104C082E0089581E0089580E0F8
S1132CD008950F931F93CF93DF93FC01892B09F47D
S1132CE077C0828DA091FB19B091FC195A969C91E2
S1132CF0891708F063C046855785608971897723F1
S1132D0094F0A091FB19B091FC195A969C914AE059
S1132D1050E060E070E0491B510961097109468780
S1132D205787608B718B248535854BE0849FC00168
S1132D3011248357964E28173907B9F5EF018F01EF
S1132D400E5F1F4FC8010E943006E091FB19F091FD
S1132D50FC19E28DEA8F80914B198E1710F4E093E1
S1132D604B198BE08E9FF0011124E357F64E01803E
S1132D70F281E02DFF83EE8326813781398728870E
S1132D80A681B78115961C930E9314971783068317
S1132D90EA8D8E9FF0011124E357F64EFD87EC87F0
S1132DA080818F5F808381E016C0A091FB19B09170
S1132DB0FC195A968C91828F81E00DC095A5E09103
S1132DC0FB19F091FC19828D981720F080E003C064
S1132DD080E001C081E0DF91CF911F910F910895B0
S1132DE00F931F93CF93DF93FC01892B09F449C000
S1132DF086A5815086A7228D95A5291709F443C07D
S1132E00811143C0EF018F010E5F1F4FC8010E9463
S1132E103006EDA5EA8F8AE090E0A0E0B0E08E1BDA
S1132E209109A109B1098E879F87A88BB98B8091DD
S1132E304B198E1710F4E0934B198BE08E9FF00121
S1132E401124E357F64E0180F281E02DFF83EE83D7
S1132E502681378139872887A681B78115961C93E7
S1132E600E93149717830683EA8D8E9FF001112425
S1132E70E357F64EFD87EC8780818F5F808381E086
S1132E8005C080E003C080E001C080E0DF91CF9105
S1132E901F910F9108950F931F93CF93DF93FC011C
S1132EA0892B09F45AC085A5861708F4862F928DBC
S1132EB0891709F452C026A5213009F04EC0828F2B
S1132EC04685578560897189772364F04AE050E02C
S1132ED060E070E0481B5109610971094687578712
S1132EE0608B718B248535854BE0949FC001112440
S1132EF08357964E2817390781F5EF018F010E5F2E
S1132F001F4FC8010E943006EA8D80914B198E171D
S1132F1010F4E0934B198BE08E9FF0011124E357DA
S1132F20F64E0180F281E02DFF83EE832681378106
S1132F3039872887A681B78115961C930E93149719
S1132F4017830683EA8D8E9FF0011124E357F64E12
S1132F50FD87EC8780818F5F8083DF91CF911F9104
S1132F600F910895CF92DF92EF92FF92E091FB19B7
S1132F70F091FC196685778580899189E091FB1928
S1132F80F091FC19A091FB19B091FC195A962C915F
S1132F900F2EFAE0CF2ED12CE12CF12CF02DC21AF9
S1132FA0D108E108F108C686D786E08AF18AFF9045
S1132FB0EF90DF90CF9008958091FB199091FC19C8
S1132FC0892B39F0E091FB19F091FC1986A58F5FEC
S1132FD086A78091FB199091FC1908954F925F92F6
S1132FE06F927F92AF92BF92CF92DF92EF92FF9255
S1132FF00F931F93CF93DF93280139010FB6F894F1
S11330000F92E091FB19F091FC19C82FD0E0EC0F5E
S1133010FD1F83A9823079F1E091FB19F091FC192D
S1133020CE01880F991F880F991FE80FF91F87A5F4
S113303090A9A1A9B2A9409550956095709548238F
S113304059236A237B2347A750AB61AB72ABE09152
S1133050FB19F091FC19EC0FFD1F81E083ABA11467
S1133060B104C104D10439F041E0C601B5010E94A4
S1133070B20F0E94AC060F900FBE0FB6F8940F92D9
S1133080E114F104A1F0E091FB19F091FC19CE01D7
S1133090880F991F880F991FE80FF91F87A590A91A
S11330A0A1A9B2A9F70180839183A283B383E0919C
S11330B0FB19F091FC19EC0FFD1F83A98230E9F490
S11330C0E091FB19F091FC19CE01880F991F880F2C
S11330D0991FE80FF91F87A590A9A1A9B2A9409447
S11330E0509460947094482259226A227B2247A605
S11330F050AA61AA72AA81E001C080E02091FB1964
S11331003091FC19C20FD31F1BAA0F900FBEDF9181
S1133110CF911F910F91FF90EF90DF90CF90BF90D0
S1133120AF907F906F905F904F9008958F929F9291
S1133130AF92BF92EF92FF920F93CF93DF93DC0194
S11331400FB6F8940F92E114F10489F0E62FF0E041
S1133150EE0FFF1FEE0FFF1FE80FF91F87A490A8C3
S1133160A1A8B2A8F70180829182A282B38270E002
S1133170FD01E60FF71F83A992E093AB023001F142
S113318018F4013031F04DC0033079F10430D1F13D
S113319048C0660F771F660F771FFD01E60FF71F04
S11331A087A490A8A1A8B2A8BA01A90148295929BD
S11331B06A297B2947A750AB61AB72AB01E034C0ED
S11331C0660F771F660F771FFD01E60FF71F47A5F0
S11331D050A961A972A94F5F5F4F6F4F7F4F47A7F7
S11331E050AB61AB72AB01E01FC0660F771F660F77
S11331F0771FFD01E60FF71F27A730AB41AB52AB9A
S113320001E012C0823079F0660F771F660F771FD6
S1133210FD01E60FF71F27A730AB41AB52AB01E02E
S113322003C001E001C000E0813009F069C01C96D0
S1133230ED91FC911D971696CD91DC9117971896F8
S11332408D919C9119979F838E831896CD91DC91D3
S1133250199716968D919C9117979D838C838181E4
S113326092819D012E5F3F4F8217930731F4189688
S11332708D919C911997928381831D961C921E9225
S11332801C978081815080835A96EC915A97809143
S11332904B198E1710F4E0934B198BE08E9FF001BD
S11332A01124E357F64E0180F281E02D1796FC932A
S11332B0EE9316974681578119965C934E9318970F
S11332C0C681D7813D832C83378326835A96EC911C
S11332D05A978E9FF0011124E357F64E1D96FC93E6
S11332E0EE931C9780818F5F80835A969C91E09126
S11332F0FB19F091FC19828D891710F40E94AC0619
S11333000F900FBE802FDF91CF910F91FF90EF9020
S1133310BF90AF909F908F9008958F929F92AF929D
S1133320BF92CF92DF92EF92FF920F93CF93DF93EE
S1133330DC01E114F10489F0E62FF0E0EE0FFF1F49
S1133340EE0FFF1FE80FF91F87A490A8A1A8B2A849
S1133350F70180829182A282B38270E0FD01E60FC0
S1133360F71F93A982E083AB023001F118F4013016
S113337031F04DC0033079F10430D1F148C0660F0B
S1133380771F660F771FFD01E60FF71F87A490A82C
S1133390A1A8B2A8BA01A901482959296A297B29F7
S11333A047A750AB61AB72AB81E034C0660F771FA7
S11333B0660F771FFD01E60FF71F47A550A961A906
S11333C072A94F5F5F4F6F4F7F4F47A750AB61AB01
S11333D072AB81E01FC0660F771F660F771FFD0178
S11333E0E60FF71F27A730AB41AB52AB81E012C009
S11333F0923079F0660F771F660F771FFD01E60F95
S1133400F71F27A730AB41AB52AB81E003C081E08B
S113341001C080E0913009F096C090913C1991115F
S11334205FC01C96ED91FC911D971696CD91DC9191
S1133430179718962D913C9119973F832E831896D0
S1133440CD91DC91199716962D913C9117973D8358
S11334502C83418152819D012E5F3F4F42175307B8
S113346031F418964D915C911997528341831D96BE
S11334701C921E921C979081915090835A96EC91C5
S11334805A9790914B199E1710F4E0934B199BE0B7
S11334909E9FF0011124E357F64E0180F281E02D46
S11334A01796FC93EE9316974681578119965C9371
S11334B04E931897C681D7813D832C833783268307
S11334C05A96EC915A979E9FF0011124E357F64EB9
S11334D01D96FC93EE931C9790819F5F908321C06F
S11334E068E679E1FB01C181D2815396DC93CE93E6
S11334F052972E813F8155963C932E9354974E813B
S11335005F819D01225F3F4FFA01358324833F830E
S11335102E8359967C936E935897FB0190819F5FFD
S113352090835A962C91E091FB19F091FC19928D9D
S1133530921748F4C114D10419F091E0F601908374
S113354091E090934519DF91CF910F91FF90EF9007
S1133550DF90CF90BF90AF909F908F900895009789
S113356021F48091FB199091FC190FB6F8940F92F5
S113357070E0FC01E60FF71F23A9223031F4FC01AF
S1133580E60FF71F13AA81E001C080E00F900FBE81
S11335900895DC01E091071AF091081A808191E006
S11335A0811190E09C93911108C00780F085E02D73
S11335B06081718182819381089560E070E0CB0124
S11335C00895CF92DF92EF92FF920F931F93FC0125
S11335D04283538364837583938782870417150713
S11335E026073707C0F00C191D092E093F098685E7
S11335F09785A089B189081719072A073B0700F5A1
S1133600BF016E5F7F4F8091051A9091061A0E9448
S1133610F30580E018C00C151D052E053F0528F4A0
S11336204C155D056E057F0568F4BF016E5F7F4F25
S11336308091071A9091081A0E94F30580E003C054
S113364081E001C081E01F910F91FF90EF90DF9026
S1133650CF9008950FB6F8940F928091031A909129
S1133660041A892BE9F484E19AE10E94DE0589E0D9
S11336709AE10E94DE0584E19AE19093081A80930E
S1133680071A89E09AE19093061A8093051A40E09C
S113369067E08AE00E94A1089093041A8093031AB9
S11336A00F900FBE0895EF92FF920F93D3DF809196
S11336B0031A9091041A892B91F00F2EF1E0EF2E4A
S11336C0FAE1FF2EF02D03E020E030E040EC50E082
S11336D060EC73E088E591E00E94541001C080E042
S11336E00F91FF90EF9008958F929F92AF92BF92A7
S11336F0CF92DF92EF92FF920F931F93CF93DF93BA
S1133700CDB7DEB727970FB6F894DEBF0FBECDBF97
S1133710E091031AF091041A309781F169832A83A6
S11337203B834C835D839F838E836630F4F4C3DADA
S1133730823069F400E0A7019601BE016F5F7F4FFC
S11337408091031A9091041A0E94C40818C000E0E2
S113375020E030E0A901BE016F5F7F4F8091031A22
S11337609091041A0E94C4080AC020E0A801BE0176
S11337706F5F7F4FCF010E94740901C080E02796DC
S11337800FB6F894DEBF0FBECDBFDF91CF911F916E
S11337900F91FF90EF90DF90CF90BF90AF909F90EC
S11337A08F9008958F929F92AF92BF92CF92DF92A3
S11337B0EF92FF920F931F93CF93DF933BC0078049
S11337C0F085E02D80809180A280B380C085D18572
S11337D08E010E5F1F4FC8010E943006EC89FD89DF
S11337E0CE0119958E8982FF25C08E859F85A88973
S11337F0B989880D991DAA1DBB1D88169906AA06AC
S1133800BB0670F48A839B83AC83BD83DB87CA8742
S1133810B8018091071A9091081A0E94F3050AC012
S1133820C12CD12C760100E010E0A501940160E0E8
S1133830CE015ADFE091071AF091081A80818111B4
S1133840BECF8091051A9091061A9093081A80931E
S1133850071AF093061AE093051ADF91CF911F918E
S11338600F91FF90EF90DF90CF90BF90AF909F901B
S11338708F900895CF92DF92EF92FF92CF93DF93D0
S1133880EC010E94DE106B017C018091FD19909186
S1133890FE19A091FF19B091001AC816D906EA06BC
S11338A0FB0620F47FDF81E0888301C01882C09288
S11338B0FD19D092FE19E092FF19F092001AC70187
S11338C0B601DF91CF91FF90EF90DF90CF900895F4
S11338D04F925F926F927F928F929F92AF92BF921C
S11338E0CF92DF92EF92FF920F931F93CF93DF93C8
S11338F04B015C0129013A01E091071AF091081A81
S11339000780F085E02DC085D185CE0102960E9406
S113391030068E8982FF1BC04E855F856889798950
S1133920480D591D6A1D7B1D7501640193018201B7
S1133930CE0147DE882369F0C12CD12C760100E04A
S113394010E0A501940160E0CE01CEDE02C08E7FBE
S11339508E8BEC89FD89CE011995DF91CF911F9152
S11339600F91FF90EF90DF90CF90BF90AF909F901A
S11339708F907F906F905F904F9008958F929F9259
S1133980AF92BF92CF92DF92EF92FF921F93CF93A9
S1133990DF931F92CDB7DEB76B017C01142F0E9419
S11339A0D810CE01019666DF4B015C01898181113B
S11339B02DC011110DC08C149D04AE04BF0440F041
S11339C00E941812A5019401C701B60181DF20C02D
S11339D0112341F0E091051AF091061A808111E05B
S11339E0811110E0B701A601481959096A097B0938
S11339F0212F8091031A9091041A0E94EF0A0E94C9
S1133A001812811105C00E94AC0602C00E9418124F
S1133A100F90DF91CF911F91FF90EF90DF90CF90A7
S1133A20BF90AF909F908F900895AF92BF92CF9226
S1133A30DF92EF92FF920F931F93CF93DF93CDB753
S1133A40DEB728970FB6F894DEBF0FBECDBF82C095
S1133A50898188230CF47EC0AE80BF80D5011C967A
S1133A608D919C911D97892B21F0C50102960E948E
S1133A703006CE010896FEDE8B019C01E9810E2EF4
S1133A80000CFF0BEA30F10508F064C08827EE58FB
S1133A90FF4F8F4F0C943C34F50186898160868BEF
S1133AA0CA80DB80EC80FD804685578560897189FA
S1133AB04C0D5D1D6E1D7F1DC50183DD882309F43A
S1133AC049C0D5015496ED91FC915597C5011995BE
S1133AD0F501868982FF3EC04A815B816C817D81CC
S1133AE086859785A089B1899A01AB01280F391F72
S1133AF04A1F5B1FC12CD12C760100E010E060E06E
S1133B00C501F2DD27C0D50156968C9156978E7F5C
S1133B1056968C931FC0F50186898160868B4A81F5
S1133B205B816C817D8146875787608B718B400FE9
S1133B30511F621F731F68017901C50142DD0AC06C
S1133B40F501868981FD04C0C5010E94A10502C05A
S1133B508E7F868B20E030E0A901BE016F5F7F4F2E
S1133B608091031A9091041A0E94AF09811170CFB9
S1133B7028960FB6F894DEBF0FBECDBFDF91CF916C
S1133B801F910F91FF90EF90DF90CF90BF90AF9077
S1133B900895089584B1806884B985B1806885B931
S1133BA0089583B1806883B90895F4DF2FEF80E727
S1133BB092E0215080409040E1F700C00000F1DF26
S1133BC0F5CFE8DF2FEF87EA91E62150804090405F
S1133BD0E1F700C00000E5DFF5CF9093241A80934D
S1133BE0231A08959093221A8093211A089590938A
S1133BF0201A80931F1A0895FC01608387E0818353
S1133C008091231A9091241A928383838091211A9C
S1133C109091221A9483858380911F1A9091201A7F
S1133C209683878380E18087CF0108959093261A35
S1133C308093251A08958091251A9091261A089543
S1133C40EF92FF920F93E12CF12C082F20E030E04B
S1133C5040EC50E068EC73E086E79EE10E9454106B
S1133C600F91FF90EF900895CF93C82F83E00E94A7
S1133C709E2686E19EE10E94C3268C2F90E0E0DF21
S1133C80CF9108958AED93E09F938F9387E294E018
S1133C909F938F930E9415370F900F900F900F9062
S1133CA00895CF930E94C826C82F882361F088E323
S1133CB094E09F938F930E9415378C2F90E0E2DF5E
S1133CC00F900F9008C08EE594E09F938F930E940D
S1133CD015370F900F9085E29AE10E94F72690E045
S1133CE09093261A8093251ACF910895CC24CA94D0
S1133CF0DC2C760101E021E041E050E060E070E07E
S1133D008091741B9091751B0E94570360FFEECF46
S1133D10C8DF42E050E060E070E08091721B909157
S1133D20731B0E94F703E2CF8091271A9091281AFF
S1133D3008958091291A90912A1A0895EF92FF927A
S1133D400F93E12CF12C082F20E030E040EC50E000
S1133D506EE774E088E49FE10E9454100F91FF9095
S1133D60EF9008958AE894E09F938F9387E294E01C
S1133D709F938F930E9415370F900F900F900F9081
S1133D800895CF938ED2C82F882361F080EC94E0FD
S1133D909F938F930E9415378C2F90E0E3DF0F9051
S1133DA00F9008C084EF94E09F938F930E9415377F
S1133DB00F900F90CF910895CF93C82FE2DF8C2FEF
S1133DC090E0BCDFCF910895CF9386D2C82F88238B
S1133DD061F087E295E09F938F930E9415378C2FB3
S1133DE090E0C0DF0F900F9008C088E595E09F93A6
S1133DF08F930E9415370F900F9066E070E080E07B
S1133E0090E00E9459137DD2C82F882361F086E880
S1133E1095E09F938F930E9415378C2F90E0A2DF3B
S1133E200F900F9008C08FEB95E09F938F930E94A3
S1133E3015370F900F9063E070E080E090E00E94EF
S1133E40591347D2882311F184EF95E09F938F9300
S1133E500E9415377CD290932A1A8093291A8EE0F7
S1133E6096E09F938F930E94153797D29093281AC8
S1133E708093271A84E296E09F938F930E941537CC
S1133E800F900F900F900F900F900F90CF91089577
S1133E90CC24CA94DC2C760101E021E044E050E01B
S1133EA060E070E08091741B9091751B0E94570331
S1133EB062FFEECF89DF48E050E060E070E080917F
S1133EC0721B9091731B0E94F703E2CF0E9444037C
S1133ED09093731B8093721B0E9444039093751BF1
S1133EE08093741B089541E060E070E08CE290E000
S1133EF00E944E0C9093771B8093761B892B21F4A0
S1133F008DE396E00E94293741E060E070E08CE2A6
S1133F1090E00E944E0C9093791B8093781B892B20
S1133F2021F487E796E00C94293708950F9381E0F4
S1133F300E9468099093711B8093701B009749F04D
S1133F4000E020E030E0A90160E070E00E94C408D5
S1133F5004C083EB96E00E9429370F9108950F93D4
S1133F601F93CF93DF93CDB7DEB764970FB6F89462
S1133F70DEBF0FBECDBF81E00E944D2C86D302D69A
S1133F809F938F9388EE96E09F938F930E941537AB
S1133F90FAD4F8D59F938F938BEF96E09F938F93EA
S1133FA00E9415378E010F5F1F4FC80180D3EAD5D9
S1133FB01F930F939F938F9384E197E09F938F9325
S1133FC00E941537C8018FD3DDD59F938F931F931C
S1133FD00F9388E297E09F938F930E941537A8016F
S1133FE06DE377E08EE597E0ACD5CCD59F938F93C6
S1133FF01F930F938DE397E09F938F938EE597E044
S11340009F938F938FE697E09F938F930E9415372A
S11340109DD3B8D59F938F9385EA97E09F938F9311
S11340200E9415370FB6F894DEBF0FBECDBF81E0F6
S113403087D4A8D59F938F9384EB97E09F938F9316
S11340400E94153784EF91E086D49CD59F938F937B
S113405081E08F9384EF8F9385ED97E09F938F9307
S11340600E9415370FB6F894DEBF0FBECDBF1AE01D
S113407080E072D3082F86D59F938F931F921F934E
S113408085EF97E09F938F930E9415370F900F90C1
S11340900F900F900F900F90083059F080E00E941D
S11340A0B12C66E371E080E090E00E945913115056
S11340B0F9F6083021F481E00E94932C09C081E0D4
S11340C00E94A22C80E00E94702C0E94AC06FDCFBE
S11340D064960FB6F894DEBF0FBECDBFDF91CF91CB
S11340E01F910F91089581E0C2D262E070E080E0F8
S11340F090E00E94591380E0BAD266E970E080E053
S113410090E00E9459136CD22ADF0FEF1FEF980141
S113411046E150E06BE27AE18091761B9091771B47
S11341200E94B90D882389F3EBE2FAE1828190E0E1
S1134130982F88272381822B048110E0102F0027D9
S11341402581022BC681D0E0DC2FCC272781C22B0E
S1134150F0849F938F9385E198E09F938F930E94BF
S113416015371F930F938BE298E09F938F930E94D0
S11341701537DF93CF938EE398E09F938F930E943C
S113418015371F92FF928CE498E09F938F930E94BF
S1134190153783E00E94C32C6BE27AE180E005D3FB
S11341A0F1D49F938F938DE598E09F938F930E9412
S11341B015378DB79EB744960FB6F8949EBF0FBEC1
S11341C08DBFA3CFEF92FF920F93E12CF12C082F18
S11341D020E030E048E851E062E778E083E790E2ED
S11341E00E9454100F91FF90EF90089590E0EACF51
S11341F0089584E0FBDF84E00E94AF0283E00E9424
S11342000B0281E031DD81E0D7DD82E00E941D03F5
S11342100C94B102089580E00E94F82A85E00E947F
S1134220FF2B54DE60DE82DE6091781B7091791B77
S113423081E0DDD1DECF0895EEDF8FE798E00E94C4
S113424029370E94A010FFCF6530F1F4FA01808174
S11342508F7390E0982F88272181822B90930A02F4
S1134260809309028281F0E48F9FC0011124FA0136
S1134270238126952695822B90930802809307022A
S113428081E08093411A0895643051F080E090E415
S1134290909308028093070290930A028093090284
S11342A008950F931F9304E211E220E034E244EFF7
S11342B050E060E087E20E94E52C9093431A8093DB
S11342C0421A21E0892B09F020E0822F1F910F91DF
S11342D008958091411A08958091421A9091431A49
S11342E0009759F040E060E070E00E94362D843081
S11342F031F41092411A80E0089582E0089583E039
S113430008958091421A9091431A009739F064E01D
S11343100E94822D853021F083E0089582E0089583
S113432080E008956091090270910A0280E090E0B3
S11343300E94163320E030E048EC52E40E94A4339B
S113434020E038EF4FE756E40C947D320895EADF1D
S113435020E030E040E251E40E94A4330E94EA32BB
S1134360CB010895609107027091080280E090E00B
S11343700E94163320E030E045E253E40E94A43367
S113438020E038EF4FE756E40E947D3220E030E031
S113439040E252E40C9418320895E4DF20E030E067
S11343A040E251E40E94A4330E94E532CB01089517
S11343B00F931F93CF93DF931F921F92CDB7DEB756
S11343C08C0119822DC0E0917B1AEC3250F481E00B
S11343D08E0F80937B1AF0E0E355F54E8A8180833B
S11343E002C010927B1A8A818A30D1F440917B1AE0
S11343F050E0FA01E555F54E1082415051099E01F5
S11344002F5F3F4F6DEA7AE180917E1A90917F1A77
S11344100E94750D898181110E94AC0610927B1A4D
S1134420BE016E5F7F4FC8014DD6882361F20F90A5
S11344300F90DF91CF911F910F9108950F931F93C8
S1134440CF93DF938C01EB0180917E1A90917F1AB8
S11344500E94800CB80184E49AE10E94AF36209750
S113446079F0E4E4FAE101900020E9F7319780E281
S113447090E091838083BE0184E49AE10E94A43693
S1134480E4E4FAE1DF010D900020E9F711978DE0F3
S11344909AE011969C938E9312961C9201900020A0
S11344A0E9F73197E454FA41AE2F84E49AE1AC0180
S11344B06A2F8091801A9091811AAFD5811111C011
S11344C008E215E020E030E04DE250E067E07BE1F7
S11344D080917E1A90917F1A0E94B90D87E09BE12A
S11344E002C080E090E0DF91CF911F910F91089579
S11344F02F923F924F925F926F927F928F929F92F0
S1134500AF92BF92CF92DF92EF92FF920F931F93DD
S1134510CF93DF935C01FC0101900020E9F7319710
S11345206F01C81AD90A5C2C0F2EFAE28F2EFBE019
S11345309F2EF02DE12CF12C4C2C3701F40101813C
S11345401281E80109900020E9F72197C01BD10BE3
S11345503C2EF9E0CF16D10458F0F4012080FEE09F
S11345602F1206C0B801C5010E947F36892B09F5B8
S1134570442D351408F44C2F50E0B801C5010E94B5
S1134580B636892B49F4F301EE0FFF1FE60DF71D34
S1134590E65DF44F20800DC08FEFE81AF80AE3E0DF
S11345A08E0E911CF1E1EF16F10439F66894222481
S11345B024F8822DDF91CF911F910F91FF90EF90FE
S11345C0DF90CF90BF90AF909F908F907F906F902F
S11345D05F904F903F902F90089530DF89CF0895DA
S11345E080917E1A90917F1A0C94800C08958F927A
S11345F09F92AF92CF92EF920F931F93CF93C82FB6
S11346008B0141E060E070E088EC90E00E944E0C89
S113461090937F1A80937E1A10937D1A00937C1ACC
S11346200F2EF8ED8F2EF1E29F2EF02D6894AA2420
S1134630A6F86894CC24C6F8E12C00E023E040E01E
S113464051EE60E070E08C2F17D49093811A809320
S1134650801AE7E0F1E0808180618083CF911F912F
S11346600F91EF90CF90AF909F908F9008958823F3
S113467031F0E8E0F1E080818F7E80830895E8E006
S1134680F1E0808180618083089560E070E080EBD8
S113469098E0D4DEE7E0FBE101900020E9F73197F0
S11346A0E750FB4181E0759708F080E00895CF93CF
S11346B0DF93EC0160E070E081EC98E0BFDEE7E0BE
S11346C0FBE101900020E9F7E851FB4139F467E090
S11346D07BE1CE010E94AF3680E002C0188281E007
S11346E0DF91CF910895FC0101900020E9F79F012B
S11346F0215131092817390729F4BC018FEE98E0BC
S11347006CCF089589E00895FC0101900020E9F739
S11347109F01215131092817390729F4BC018EEF73
S113472098E05BCF089589E00895FC010190002092
S1134730E9F79F01215231092817390729F4BC01EF
S11347408DE099E04ACF089589E0089560E070E033
S11347508CE499E042CF08950F931F93E82FF0E083
S1134760EE0FFF1FEA5DF44F6081718185E599E0EA
S113477034DF811114C008E215E020E030E04DE29E
S113478050E067E07BE180917E1A90917F1A0E944D
S1134790B90D882321F087E09BE1AADE03C087E0FE
S11347A09BE1A6DE1F910F9108950F931F93CF9362
S11347B0DF931F92CDB7DEB7DB0111969C91119761
S11347C0953108F0B4C0992381F160E070E0272F9F
S11347D030E0462F50E0FD01E40FF51F92819295E1
S11347E09F709A3010F0995C01C0905DF901E85611
S11347F0F54E90832F5F3F4FFD01E40FF51F92812B
S11348009F70492F50E04A30510514F0995C01C063
S1134810905DF901E856F54E90837E5F6F5F1196C7
S11348209C911197691798F201C070E0E72FF0E0AE
S1134830E856F54E10824C91811103C08EE599E043
S113484002C080E699E028E93AE13F932F931F9252
S11348504F939F938F9384E699E09F938F938AED70
S11348609AE19F938F930E94593760E070E08AED3C
S11348709AE1B3DE0FB6F894DEBF0FBECDBF81114F
S113488059C008E215E020E030E04DE250E067E076
S11348907BE180917E1A90917F1A0E94B90D882342
S11348A009F447C087E09BE123DE8E3009F042C063
S11348B087E0898380917C1A90917D1A892BA9F1D4
S11348C0BE016F5F7F4F87E09BE168D18093821ABE
S11348D0E981F0E0E95FF44EDF010D900020E9F793
S11348E01197AE1BBF0BAA2391F0BB27CD010197F3
S11348F09C0112F42F5F3F4F359527952093831A1F
S1134900AF014F5F5F4F64E184E89AE173D101E046
S113491010E020E030E046E150E062E87AE1809186
S11349207C1A90917D1A0E94B00C8EE003C084E141
S113493001C080E00F90DF91CF911F910F910895F6
S1134940813019F064E779E002C06DE47AE088E729
S113495099E043CE08959F938F9389EA99E09F93BA
S11349608F938AED9AE19F938F930E94593760E069
S113497070E08AED9AE131DE0F900F900F900F9066
S11349800F900F9008952F923F924F925F926F92E3
S11349907F928F929F92AF92BF92CF92DF92EF92CB
S11349A0FF920F931F93CF93DF93CDB7DEB7A097FA
S11349B00FB6F894DEBF0FBECDBF66ED79E082EE90
S11349C099E03CDD95DD8111A3C080E2E2E2F2E0F2
S11349D0DE01119601900D928A95E1F79E012F5FF9
S11349E03F4F6901E12CF12C0F2EFEEEAF2EF9E0C2
S11349F0BF2EF02D0AED1AE10F2EF7E04F2EFAE04C
S1134A005F2EF02D0F2EFEE18F2EFAE09F2EF02D5B
S1134A100F2EF8E36F2EFAE07F2EF02D3E2C2F2C74
S1134A20FF92EF92BF92AF921F930F930E94593758
S1134A3060E070E0C80102DD5BDD0F900F900F9025
S1134A400F900F900F90811163C032E03E15E8F48F
S1134A50F60183818F9382818F9381818F938081EB
S1134A608F93FF92EF925F924F921F930F930E9446
S1134A70593760E070E0C801E1DC3ADD0FB6F89424
S1134A80DEBF0FBECDBF811143C02F923F929F92D4
S1134A908F921F930F930E94593760E070E0C80112
S1134AA0CDDC26DD0F900F900F900F900F900F909C
S1134AB081112EC02F923F927F926F921F930F937A
S1134AC00E94593760E070E0C801B8DC11DD0F9036
S1134AD00F900F900F900F900F90811119C03FEF1E
S1134AE0E31AF30A84E0C80ED11C98E0E916F10435
S1134AF009F094CF60E070E080E59AE09FDCF8DC98
S1134B00811106C060E070E081E69AE097DCF0DC99
S1134B10A0960FB6F894DEBF0FBECDBFDF91CF9144
S1134B201F910F91FF90EF90DF90CF90BF90AF90C7
S1134B309F908F907F906F905F904F903F902F90B9
S1134B400895EF92FF920F931F93CF93DF93EC019D
S1134B508B017A0181E0F4DE81110DC0CE01D4DD38
S1134B60811109C0C801E1DD811105C0C701BBDDA8
S1134B70811101C0EBDDDF91CF911F910F91FF9067
S1134B80EF90089590E0FC01EE0FFF1F8E0F9F1F22
S1134B90FC01E65DF44F818192810895DC01009768
S1134BA029F1FB012081FC0101900020E9F73197F4
S1134BB0E81BF90B822F90E0E817F907C8F080E0B2
S1134BC008C0880F382F330F330F830F8053890F9A
S1134BD02F5FFD01E20FF11D908130ED390F3A3066
S1134BE010F49111EECFFB012083089580E0089525
S1134BF080E008950F931F93CF93DF93DC01EA01C4
S1134C002097E1F1FA0101900020E9F73197E41BC4
S1134C10F50B329710F532C08D01040F151F30E0EB
S1134C20AE01420F531FFA019081913428F097533B
S1134C30592F5295507F03C0592F5295507F2C0FF6
S1134C403D1FF9019181913410F0975301C09053A5
S1134C50950FF80190838F5F01C080E0282F220F09
S1134C60482F50E0FE0101900020E9F73197EC1B3A
S1134C70FD0B4E175F0710F48613CECFDF91CF9153
S1134C801F910F9108958091371B860F8093371BD6
S1134C9090913A1B913079F028F09230A9F093303A
S1134CA019F108956F3F09F048C01092371B81E055
S1134CB080933A1B0895663809F03FC01092361B62
S1134CC082E080933A1B0895E091361B81E08E0FB9
S1134CD08093361BF0E0EC5CF44E6083823069F51F
S1134CE083E080933A1B08959091361B21E0290FAD
S1134CF02093361B963009F581110EC0E4E3FBE1E5
S1134D00808190E0982F88272181820F911D9093B4
S1134D103C1B80933B1B04C010923C1B10923B1B1A
S1134D2010923A1BE091381BF091391B309729F00F
S1134D3080913B1B90913C1B199508958F929F92F3
S1134D40AF92CF92EF920F930F2EF3E48F2EF6E2F1
S1134D509F2EF02D6894AA24A4F86894CC24C4F857
S1134D60E12C00E023E040E855E260E070E084D00C
S1134D7090933E1B80933D1B0F91EF90CF90AF908B
S1134D809F908F9008959093391B8093381B0895BA
S1134D90CF93DF93CDB7DEB729970FB6F894DEBF74
S1134DA00FBECDBF89E0E2E4F2E09E012F5F3F4FEA
S1134DB0D90101900D928A95E1F710923C1B109253
S1134DC03B1B80913D1B90913E1B009731F0422F7D
S1134DD0532F69E022D180E001C082E029960FB60A
S1134DE0F894DEBF0FBECDBFDF91CF91089520911F
S1134DF03B1B30913C1B2115310529F4FC01118228
S1134E00108281E00895FC013183208380E00895BD
S1134E1065360CF064E66C390CF46CE996EF6902C3
S1134E20B00111246854744F811105C07093290195
S1134E3060932801089570932B0160932A010895CB
S1134E40EAE0F1E08081886180838FE39CE99093BC
S1134E5027018093260160E080E0DADF60E081E0F2
S1134E60D7DFE0E2F1E08081826A8083E1E2F1E071
S1134E7080818A61808308952F923F924F925F923E
S1134E806F927F928F929F92AF92CF92EF92FF9206
S1134E900F931F93CF93DF93CDB7DEB7F82E2A017C
S1134EA03B0188E090E00E9467348C018F2D90E0F4
S1134EB0FC01EE0FFF1FE15CF44E1183008301152A
S1134EC0110509F46DC0880F991FFC01E55FFD4FC2
S1134ED080819181D8018D939C938C2D90E0880FD3
S1134EE0991F880F991F0E9467341C0186E090E087
S1134EF00E9467347C014C2DB101F4D6F801F5828F
S1134F00E4828A2D90E0880F991F880F991F0E94D0
S1134F1067341C0186E090E00E9467347C014A2DCE
S1134F20B101E0D6D8011396FC92EE92129717962F
S1134F309C928E921697FFB6F894ED91FC9111977E
S1134F4036978081826080838D909C90C301B201EA
S1134F500E94163320E030E040E051E40E94A43384
S1134F609B01AC0160E074E284E79BE40E947D3223
S1134F7020E030E040E85FE30E9418320E94EA3209
S1134F80F40132976083D801ED91FC911197359724
S1134F9088E98083ED91FC91349786E08083FFBE9D
S1134FA0C801DF91CF911F910F91FF90EF90CF90A7
S1134FB0AF909F908F907F906F905F904F903F90B5
S1134FC02F900895CF93DF93DC01892B01F1129682
S1134FD0ED91FC911397938182812581981B9223F3
S1134FE084819817B1F0838126952823C081D181CB
S1134FF0C20FD11D68838F5F958189238383ED91CF
S1135000FC91359780818062808380E003C081E0D9
S113501001C082E0DF91CF910895EF92FF920F9348
S11350201F93CF93DF937C01009709F441C0DC0107
S11350301296ED91FC91139793818281981B85813F
S113504098238481891B8617A8F1662341F1842F54
S1135050952FDC016150462F50E04F5F5F4F480FA2
S1135060591FE701EA81FB81938182812581981B85
S113507092238481981779F08C9193812695292322
S1135080608171818B01020F111DE80188839F5F8C
S11350908581982393831196A417B50711F7D70137
S11350A0ED91FC91359780818062808380E003C01C
S11350B081E001C082E0DF91CF911F910F91FF90B9
S11350C0EF9008950097D1F0DC011496ED91FC91D6
S11350D0159793818281981799F09281858186959D
S11350E08923A081B181A80FB11D8C91DB018C9320
S11350F09F5F85819823928380E0089581E00895DD
S113510083E008951F920F920FB60F9211240BB6ED
S11351100F922F933F934F935F936F937F938F934C
S11351209F93AF93BF93CF93DF93EF93FF93A0919C
S11351303F1BB091401B109711F16091C60014966B
S1135140ED91FC911597938182812581981B92237F
S11351508481981761F0838126952823C081D181A9
S1135160C20FD11D68838F5F95818923838316962F
S1135170ED91FC911797309711F0CD011995FF919E
S1135180EF91DF91CF91BF91AF919F918F917F91DB
S11351906F915F914F913F912F910F900BBE0F90A4
S11351A00FBE0F901F9018951F920F920FB60F927B
S11351B011240BB60F922F938F939F93AF93BF93AA
S11351C0EF93FF93E0913F1BF091401B3097B9F0B0
S11351D00280F381E02D938182819817B1F092814E
S11351E08581282F26952923A081B181A20FB11D85
S11351F02C919F5F892382832093C6000BC0E1EC2E
S1135200F0E080818F7D808305C0E1ECF0E0808157
S11352108F7D8083FF91EF91BF91AF919F918F918B
S11352202F910F900BBE0F900FBE0F901F901895EB
S11352301F920F920FB60F9211240BB60F922F9359
S11352403F934F935F936F937F938F939F93AF930A
S1135250BF93CF93DF93EF93FF93A091411BB09142
S1135260421B109711F16091CE001496ED91FC91C0
S11352701597938182812581981B922384819817A5
S113528061F0838126952823C081D181C20FD11D6D
S113529068838F5F9581892383831696ED91FC91B2
S11352A01797309711F0CD011995FF91EF91DF9188
S11352B0CF91BF91AF919F918F917F916F915F91AA
S11352C04F913F912F910F900BBE0F900FBE0F90F7
S11352D01F9018951F920F920FB60F9211240BB6C0
S11352E00F922F938F939F93AF93BF93EF93FF935B
S11352F0E091411BF091421B3097B9F00280F38199
S1135300E02D938182819817B1F092818581282FB5
S113531026952923A081B181A20FB11D2C919F5FF5
S1135320892382832093CE000BC0E9ECF0E08081D6
S11353308F7D808305C0E9ECF0E080818F7D8083E0
S1135340FF91EF91BF91AF919F918F912F910F900A
S11353500BBE0F900FBE0F901F9018951F920F92C7
S11353600FB60F9211240BB60F922F933F934F93C6
S11353705F936F937F938F939F93AF93BF93CF93D9
S1135380DF93EF93FF93A091431BB091441B1097BD
S113539011F16091D6001496ED91FC9115979381CB
S11353A082812581981B92238481981761F08381DF
S11353B026952823C081D181C20FD11D68838F5FB8
S11353C09581892383831696ED91FC9117973097E5
S11353D011F0CD011995FF91EF91DF91CF91BF911C
S11353E0AF919F918F917F916F915F914F913F9179
S11353F02F910F900BBE0F900FBE0F901F9018951A
S11354001F920F920FB60F9211240BB60F922F9387
S11354108F939F93AF93BF93EF93FF93E091431BBD
S1135420F091441B3097B9F00280F381E02D938111
S113543082819817B1F092818581282F269529239E
S1135440A081B181A20FB11D2C919F5F892382831A
S11354502093D6000BC0E1EDF0E080818F7D808346
S113546005C0E1EDF0E080818F7D8083FF91EF91B5
S1135470BF91AF919F918F912F910F900BBE0F9081
S11354800FBE0F901F9018951F920F920FB60F9298
S113549011240BB60F922F933F934F935F936F9307
S11354A07F938F939F93AF93BF93CF93DF93EF93A8
S11354B0FF93A091451BB091461B109711F1609189
S11354C036011496ED91FC91159793818281258183
S11354D0981B92238481981761F083812695282351
S11354E0C081D181C20FD11D68838F5F95818923CB
S11354F083831696ED91FC911797309711F0CD01A7
S11355001995FF91EF91DF91CF91BF91AF919F9149
S11355108F917F916F915F914F913F912F910F9058
S11355200BBE0F900FBE0F901F9018951F920F92F5
S11355300FB60F9211240BB60F922F938F939F9354
S1135540AF93BF93EF93FF93E091451BF091461BFC
S11355503097B9F00280F381E02D9381828198170E
S1135560B1F092818581282F26952923A081B181CC
S1135570A20FB11D2C919F5F892382832093360152
S11355800BC0E1E3F1E080818F7D808305C0E1E31E
S1135590F1E080818F7D8083FF91EF91BF91AF9186
S11355A09F918F912F910F900BBE0F900FBE0F9074
S11355B01F901895CF93DF931F92CDB7DEB7BE012E
S11355C06F5F7F4F8091471B9091481B7BDD81115A
S11355D0F6CF898190E00F90DF91CF910895682FE5
S11355E08091471B9091481BEDDC80E090E008958A
S11355F08F929F92AF92CF92EF920F93812C912C26
S11356006894AA24A7F86894CC24C7F8E12C00E095
S113561023E040E051EE60E070E02EDC9093481B04
S11356208093471BEEE7FBE183E192E09183808363
S1135630938382830F91EF90CF90AF909F908F9040
S1135640089590E0FC01EE0FFF1FE80FF91FEE0F25
S1135650FF1FE75BF44E238121111FC09C01220F21
S1135660331FF901E80FF91FEE0FFF1FE75BF44E3C
S1135670A081B1814C91F901E80FF91FEE0FFF1FD2
S1135680E75BF44E81E090E0028002C0880F991F2E
S11356900A94E2F7842B8C930895FC01EE0FFF1F0C
S11356A0DF01A80FB91FAA0FBB1FA75BB44E0D9053
S11356B0BC91A02D2C91E80FF91FEE0FFF1FE75BA3
S11356C0F44E81E090E0028002C0880F991F0A9492
S11356D0E2F7809582238C93089590E0FC01EE0F0D
S11356E0FF1FE80FF91FEE0FFF1FE75BF44E238146
S11356F0211120C09C01220F331FF901E80FF91F6B
S1135700EE0FFF1FE75BF44EA081B1814C91F901CC
S1135710E80FF91FEE0FFF1FE75BF44E81E090E006
S1135720028002C0880F991F0A94E2F780958423AF
S11357308C930895FC01EE0FFF1FDF01A80FB91F22
S1135740AA0FBB1FA75BB44E0D90BC91A02D2C914A
S1135750E80FF91FEE0FFF1FE75BF44E81E090E0C6
S1135760028002C0880F991F0A94E2F7822B8C935F
S11357700895CC24C394D12C6894BB24B2F8C9E412
S1135780DBE110E08C81813081F018F1823061F529
S1135790E881F9812081C6010A8002C0880F991F1F
S11357A00A94E2F7822780831FC08D818F5F863041
S11357B010F48D8319C01D82E881F9812081C6010E
S11357C00A8002C0880F991F0A94E2F78227808317
S11357D00BC00D81002329F0812F7FDF01500D8341
S11357E003C0BC82812F2DDF1F5F2696143051F633
S11357F06CE070E080E090E00E945913C0CFEF921B
S1135800FF920F931F93CF93DF93082F80E487B900
S1135810C9E4DBE10F2EF8E2EF2EF12CF02DF98232
S1135820E88286E08A831B8214E01C8380E009DF1F
S113583080E887B9FF82EE8287E0888719861A8715
S113584081E0FFDE80E283BB84E390E09D878C8768
S113585085E08E871F86188B82E0F3DE80E18093DB
S1135860010182E091E09B8B8A8B1C8B1D8A1E8B2D
S113587083E0E7DEE12CF12C20E030E040EC50E066
S11358806DE57BE089EB9BE20E945410DF91CF91A0
S11358901F910F91FF90EF900895CF93DF9390E0C5
S11358A0FC01EE0FFF1FDF01A80FB91FAA0FBB1FDA
S11358B0A75BB44ECD91DC911197488121E030E093
S11358C012960C90129702C0220F331F0A94E2F72B
S11358D024272883FD0181E08483DF91CF910895FB
S11358E0CF93DF9390E0FC01EE0FFF1FDF01A80FC1
S11358F0B91FAA0FBB1FA75BB44ECD91DC911197C2
S1135900488121E030E012960C90129702C0220FD9
S1135910331F0A94E2F724272883FD0182E084835D
S1135920DF91CF910895282F30E0F901EE0FFF1F8A
S1135930E20FF31FEE0FFF1FE75BF44E93E0948337
S1135940CCCE0895282F30E0F901EE0FFF1FE20FAF
S1135950F31FEE0FFF1FE75BF44E94E0948371CEC8
S1135960089590E0FC01EE0FFF1FDF01A80FB91F9F
S1135970AA0FBB1FA75BB44E26E015962C93159770
S1135980FD011482089590E0FC01EE0FFF1FDF017A
S1135990A80FB91FAA0FBB1FA75BB44E15961C9284
S11359A01597FD011482089580916F1B81110CC01D
S11359B08CE08093B8008FEF8093BB0084E08093E9
S11359C0BC0081E080936F1B0895AF92BF92CF9289
S11359D0DF92EF92FF920F931F93CF93DF93A82E42
S11359E0B62E69017A0184E090E071D7EC01892B2D
S11359F061F1A88281E0B81212C0C701B60120EAA1
S1135A0036E841E050E016D7DA01C9014097A10910
S1135A10B109B695A79597958795898311C0C70154
S1135A20B60120E83AE146E050E004D7DA01C901C2
S1135A304097A109B109B695A7959795879589834C
S1135A401B830A838C2F9D2F02C080E090E0DF919E
S1135A50CF911F910F91FF90EF90DF90CF90BF9067
S1135A60AF9008958091BC0081700895FF920F93C8
S1135A701F93CF93DF930097D1F14A30D0F5F42EE2
S1135A808B01EC01EFDF811136C08091621B909194
S1135A90631BC817D90741F087DF89818093B80059
S1135AA0D093631BC093621B81E08F0D8093641BB2
S1135AB08881880F8093651BFF2089F0F801A6E692
S1135AC0BBE14FEF4F0D642F70E0CB010196B8019D
S1135AD0680F791F81918D93E617F707D9F788EF3F
S1135AE08093210285EA8093BC0084E005C086E0AF
S1135AF003C087E001C082E0DF91CF911F910F9135
S1135B00FF9008951F93CF93DF93009729F16B3093
S1135B1028F5162FEC01A6DF811122C08091621BAB
S1135B209091631BC817D90741F03EDF89818093A8
S1135B30B800D093631BC093621B1093641B8881CD
S1135B40880F81608093651B88EF8093210285EA2A
S1135B508093BC0085E005C086E003C087E001C0F7
S1135B6082E0DF91CF911F9108951F920F920FB69B
S1135B700F9211240BB60F922F933F934F935F9381
S1135B806F937F938F939F93AF93BF93EF93FF9301
S1135B90E091B9008E2F90E0FC013897E135F105D2
S1135BA008F075C08827E458FF4F8F4F65C61092E0
S1135BB0611BE091611B8091641BE81770F481E024
S1135BC08E0F8093611BF0E0EB59F44E808180933B
S1135BD0BB0085E88093BC0072C084E98093BC005C
S1135BE08091621B9091631BDC011296ED91FC91F4
S1135BF01397309709F463C020E040E050E064E07C
S1135C0019955DC0E091611B81E08E0F8093611B4B
S1135C108091BB00F0E0EB59F44E80838091B90091
S1135C20803411F41092611B2091611B30E080914B
S1135C30641B90E001972817390724F485EC8093BE
S1135C40BC003DC085E88093BC0039C08091BB0096
S1135C50E091611BF0E0EB59F44E808384E980937A
S1135C60BC008091621B9091631BDC011296ED9144
S1135C70FC911397309719F12091641B45E65BE181
S1135C8065E019951CC085EA8093BC0018C080911A
S1135C90B9008093210284E08093BC008091621B50
S1135CA09091631BDC011296ED91FC911397309750
S1135CB031F020E040E050E0609121021995FF911D
S1135CC0EF91BF91AF919F918F917F916F915F9170
S1135CD04F913F912F910F900BBE0F900FBE0F90DD
S1135CE01F901895FC01411101C012D7842F90E038
