:1000000066C1000085C1000083C1000081C10000FD
:100010007FC100007DC100007BC1000079C10000EC
:1000200077C1000075C1000073C1000071C10000FC
:1000300061C600006DC100006BC1000069C1000015
:1000400067C1000065C1000063C1000061C100001C
:100050005FC100005DC100005BC1000059C100002C
:1000600057C100000C94AF240C94012551C100002D
:100070004FC100004DC100004BC1000049C100004C
:1000800047C1000045C1000043C1000041C100005C
:100090000C9445250C9497253BC100000C94E22953
:1000A00037C1000035C1000033C1000031C100007C
:1000B0002FC100002DC100002BC1000029C100008C
:1000C00027C1000025C1000023C100000C94DB25DE
:1000D0000C942D261DC100000C9471260C94C3268F
:1000E00017C100006D1A6D1A6D1AA41AAC1AC11A44
:1000F0006D1A6D1AA41AAC1A042A742A742A742A66
:10010000742A742A742A742A042A742A742A742A6F
:10011000742A742A742A742A062A742A742A742A5D
:10012000742A742A742A742A742A742A742A742ADF
:10013000742A742A742A742A062A742A742A742A3D
:10014000742A742A742A742A742A742A742A742ABF
:10015000742A742A742A742A702A742A742A742AB3
:10016000742A742A742A742A3B2A742A742A742AD8
:10017000742A742A742A742A742A742A742A742A8F
:10018000742A742A742A742A2F2A742A742A742AC4
:10019000742A742A742A742A532A6E616E00696E56
:1001A000660000407A10F35A00A0724E1809001041
:1001B000A5D4E80000E87648170000E40B540200DC
:1001C00000CA9A3B000000E1F50500008096980007
:1001D000000040420F000000A08601000000102730
:1001E00000000000E80300000000640000000000C0
:1001F0000A00000000000100000000002C76D888F2
:10020000DC674F0823DFC1DFAE59E1B1B796E5E304
:10021000E453C63AE651997696E8E6C28426EB891D
:100220008C9B62ED407C6FFCEFBC9C9F40F2BAA5BA
:100230006FA5F490055A2AF75C936B6CF9676DC152
:100240001BFCE0E40D47FEF520E6B500D0ED902E56
:100250000300943577050080841E080000204E0AB4
:10026000000000C80C333333330F986E12831141F2
:10027000EF8D2114893BE65516CFFEE6DB18D184BD
:100280004B381BF77C1D901DA4BBE42420328472E4
:100290005E228100C9F124ECA1E53D270E94AF0D4B
:1002A0008091FF15823008F05FD40E94EA1AF6CFE1
:1002B000CF93DF931F92CDB7DEB7CE0101960E9498
:1002C000EA1749810E94DF190E94361AF6CF1124DD
:1002D0001FBECFEFD1E2DEBFCDBF00E00CBF17E005
:1002E000A0E0B2E0ECEBF7E600E00BBF02C0079045
:1002F0000D92A23FB107D9F727E1A2EFB7E001C005
:100300001D92A53FB207E1F70E94801D0C94DC33DB
:1003100077CECF93DF93CDB7DEB76A970FB6F89459
:10032000DEBF0FBECDBF0E94000F69837A838B832F
:100330009C8348EA58E460E070E0CE0101960E9498
:10034000161145E050E060E070E08091E617909172
:10035000E71755D1CC24CA94DC2C760101E021E0CA
:100360004AE050E060E070E08091E4179091E5177A
:10037000A6D0DC01CB018A709927AA27BB27892B3D
:100380008A2B8B2BB1F20E94FD1B0E940E1B0E9438
:10039000021C0E94131B0E94771B0E94181B62E024
:1003A000CE0105960E941D1B06E010E020E030E023
:1003B00046E150E0BE016B5F7F4F8091E81790915E
:1003C000E9170E94D80A863129F08FE692E00E9450
:1003D0001F33AFCF99279F938F938AE792E09F9324
:1003E0008F930E940B330F900F900F900F90A1CF1F
:1003F0000E947C1B0C949D1B08954ED09093E51792
:100400008093E41749D09093E7178093E6170895F7
:10041000EF92FF920F93F1DFEBDF41E060E070E0DD
:1004200084E690E00E94760A9093E9178093E8179B
:100430000E94551DE12CF12C03E020E030E040EC5F
:1004400050E063E972E089E891E00E94760E0F9136
:10045000FF90EF9008950F9301110CC0DC01CB01C8
:1004600082239323A423B523892B8A2B8B2B79F406
:1004700080E010C0DC01CB0182239323A423B523A9
:10048000281739074A075B0721F080E003C081E0A5
:1004900001C081E00F910895CF93DF938FE090E04A
:1004A000AFD1EC01009739F0FC0111921192119239
:1004B0001192CF018BD2CE01DF91CF9108952F926F
:1004C0003F924F925F926F927F928F929F92AF92E4
:1004D000BF92CF92DF92EF92FF920F931F93CF9331
:1004E000DF93EC014A015B01622E702E0E94FA0E2E
:1004F000288039804A805B80A5019401C201B10146
:10050000AADF8823A1F0662089F1D501C401809576
:100510009095A095B09582219321A421B52188833F
:100520009983AA83BB83C12CD12C760122C0C1142C
:10053000D104E104F104E9F0611004C040E050E0AE
:10054000BA0104C040E050E060E071E071107460F6
:10055000482959296A297B2997018601CE010496E9
:100560000E941212212C312C210103C0C12CD12C4C
:1005700076010E943A10CD28CE28CF2859F181115A
:1005800001C0F2D20E94E6146B017C0191FD1FC0F4
:100590000FB6F8940F92C880D980EA80FB80072DAF
:1005A000A5019401C701B60156DF882371F06620CA
:1005B00061F080949094A094B0948C209D20AE2003
:1005C000BF2088829982AA82BB820F900FBE16013B
:1005D00027015524C201B101DF91CF911F910F91E5
:1005E000FF90EF90DF90CF90BF90AF909F908F9053
:1005F0007F906F905F904F903F902F9008954F9213
:100600005F926F927F92AF92BF92CF92DF92EF9202
:10061000FF920F931F93CF93DF93EC016A017B014D
:100620008C01095F1F4F0E94FA0EEB85FC858881C3
:100630009981AA81BB81C82AD92AEA2AFB2AC882C1
:10064000D982EA82FB82C12CD12C76013DC0A480E4
:10065000B58080819181A281B381AC01BD017727F2
:10066000B2FD0EC0488059806A807B8044225522AA
:100670006622772245284628472889F420E012C0C0
:10068000488059806A807B804422552266227722E6
:10069000441555056605770521F020E003C021E0EB
:1006A00001C021E0222371F0B0FF04C0C42AD52A82
:1006B000E62AF72A488159816A817B817260CF01DD
:1006C0000E944D13EA2DFB2DE017F10709F0BFCF73
:1006D000C094D094E094F09488819981AA81BB81E0
:1006E000C822D922EA22FB22C882D982EA82FB826E
:1006F0000E943A10688179818A819B81DF91CF9134
:100700001F910F91FF90EF90DF90CF90BF90AF902F
:100710007F906F905F904F900895EEEFF7E0A2E02A
:10072000B8E0B183A08313821282EAEAF5E1F09384
:10073000FD07E093FC07138212821182108288EA7F
:100740009DE013969C938E931297ED93FC93909358
:10075000F9078093F8079093FB078093FA0780E0EE
:1007600090E89093F3078093F2070895CF93DF9377
:10077000EC01AEEFB7E001C0DF01ED91FC91119704
:10078000EC17FD07C8F312968D919C9113979D016C
:10079000280F391FC217D30749F42A813B81820FE2
:1007A000931F13969C938E931297ED018A819B81E0
:1007B0009E01280F391FE217F307C1F42091FC07AF
:1007C0003091FD07E217F30771F022813381820F28
:1007D000931F9B838A83ED91FC9111978081918176
:1007E0009983888305C03983288302C0F983E8830D
:1007F000CA17DB0711F0CD93DC93DF91CF910895F9
:10080000EF92FF920F931F93CF93DF938C010E947F
:10081000FA0E8091FC079091FD07892B09F47DDF8A
:100820008091F2079091F30780239123892B09F09F
:1008300076C00115110549F0C8010496081719077B
:1008400018F000E010E001C08C010115110509F459
:1008500069C08091FA079091FB078017910708F40F
:1008600064C0C091FE07D091FF07EEEFF7E002C031
:10087000FE01EC018A819B818017910720F4888119
:1008800099810097A9F78091FC079091FD07C817FF
:10089000D90709F44DC0E080F18084E0E80EF11C36
:1008A00088819981918380832A813B81201B310B30
:1008B0002930310548F0CE01800F911FFC013383B0
:1008C00022831B830A8352DF2A813B818091FA07AE
:1008D0009091FB07821B930B9093FB078093FA0781
:1008E0004091F8075091F9078417950720F49093E9
:1008F000F9078093F8078091F2079091F307282B6E
:10090000392B3B832A83198218828091F6079091B4
:10091000F70701969093F7078093F6070BC0E12C39
:10092000F12C08C0E12CF12C05C0E12CF12C02C007
:10093000E12CF12C0E943A10E114F10411F40E9410
:10094000F61AC701DF91CF911F910F91FF90EF90A1
:1009500008950F931F93CF93DF93009791F1EC01CC
:1009600024974A815B812091F2073091F307BA0105
:1009700062237323672B29F168817981672B09F53D
:1009800020953095242335233B832A830E94FA0E39
:100990008A819B812091FA073091FB07820F931F78
:1009A0009093FB078093FA07CE01E0DE8091F40775
:1009B0009091F50701969093F5078093F4070E94B4
:1009C0003A10DF91CF911F910F910895FC0103968A
:1009D000928381834FEF5FEFBA0143835483658332
:1009E0007683908787839287818710820895FC01A0
:1009F0001386128608950F931F93CF93DF93EB0115
:100A0000088119812A813B810F3F4FEF140724078A
:100A1000340721F4FC01A185B28511C0DC011396D5
:100A200001C0DF011496ED91FC9115974081518131
:100A300062817381041715072607370790F714960C
:100A4000ED91FC911597FD83EC83D783C683BF831B
:100A5000AE831596DC93CE9314979B878A87FC010F
:100A600020812F5F2083DF91CF911F910F910895F7
:100A7000CF93DF93FC01A285B385C481D5818681A4
:100A800097819F838E83C681D781848195819D8341
:100A90008C8311968D919C911297E817F90731F488
:100AA0008681978112969C938E9311971386128656
:100AB0008C9181508C938C91DF91CF910895A89562
:100AC00090EC88E10FB6F894A895809360000FBE73
:100AD000909360000895FC01608331977083319793
:100AE000108231971082319720E82083319710824D
:100AF00031971082319710827797408331975083D6
:100B000086970895DCDFA0916D16B0916E16CD9199
:100B1000CDBFDD91DEBFFF91EF91DF91CF91BF910E
:100B2000AF919F918F917F916F915F914F913F9185
:100B30002F911F910F91FF90EF90DF90CF90BF907A
:100B4000AF909F908F907F906F905F904F903F906D
:100B50002F901F900F900CBE0F900BBE0F900FBEEA
:100B60000F90089581E008950F920FB6F8940F92B8
:100B70000BB60F920CB60F921F9211242F923F9238
:100B80004F925F926F927F928F929F92AF92BF929D
:100B9000CF92DF92EF92FF920F931F932F933F9389
:100BA0004F935F936F937F938F939F93AF93BF9375
:100BB000CF93DF93EF93FF93A0916D16B0916E16D4
:100BC0000DB60D920EB60D920E949611A0916D1663
:100BD000B0916E16CD91CDBFDD91DEBFFF91EF914B
:100BE000DF91CF91BF91AF919F918F917F916F9145
:100BF0005F914F913F912F911F910F91FF90EF9037
:100C0000DF90CF90BF90AF909F908F907F906F902C
:100C10005F904F903F902F901F900F900CBE0F90C1
:100C20000BBE0F900FBE0F9008950F920FB6F89461
:100C30000F920BB60F920CB60F921F9211242F92A7
:100C40003F924F925F926F927F928F929F92AF925C
:100C5000BF92CF92DF92EF92FF920F931F932F9349
:100C60003F934F935F936F937F938F939F93AF9334
:100C7000BF93CF93DF93EF93FF93A0916D16B09145
:100C80006E160DB60D920EB60D9213BE0E940E0F8B
:100C900081110E949611A0916D16B0916E16CD91A2
:100CA000CDBFDD91DEBFFF91EF91DF91CF91BF917D
:100CB000AF919F918F917F916F915F914F913F91F4
:100CC0002F911F910F91FF90EF90DF90CF90BF90E9
:100CD000AF909F908F907F906F905F904F903F90DC
:100CE0002F901F900F900CBE0F900BBE0F900FBE59
:100CF0000F9008959ADF18950FB6F8940F92FC01A3
:100D0000868D811102C081E001C080E00F900FBE8E
:100D100008950FB6F8940F92FC01268D878D281345
:100D200002C081E001C080E00F900FBE08950F93D4
:100D30001F93CF93DF93EC01042F1E8D48A1411127
:100D40000CC088819981892B09F042C08C819D81DA
:100D50000E948B141D821C8242C0011117C050E0FA
:100D60008A819B810E94653228A18A819B81820FA2
:100D7000911D9B838A832C813D818217930750F1BB
:100D8000888199819B838A8380E029C050E08E818D
:100D90009F810E94653288A190E09195819591098B
:100DA0002E813F81280F391F3F832E83488159812F
:100DB0002417350730F42C813D81820F931F9F83C8
:100DC0008E83023049F4112349F0115080E007C0AE
:100DD00080E005C080E003C080E001C080E01F5FCC
:100DE0001E8FDF91CF911F910F910895FC0140A1BB
:100DF0004423A9F050E026813781240F351F378323
:100E00002683848195812817390720F0808191817C
:100E100097838683CB01668177810C946532089530
:100E20001F93CF93DF93EC010FB6F8940F921AA1A2
:100E30000BC08B89882351F0CE0143960E949E12ED
:100E400081110E947414115011169CF38FEF8AA324
:100E50000F900FBE0FB6F8940F9219A10BC08885A2
:100E6000882351F0CE0108960E949E1281110E94A3
:100E70007414115011169CF38FEF89A30F900FBEBD
:100E8000DF91CF911F910895CF93DF93EC010FB6BF
:100E9000F8940F92E881F9818F8D28A190E030E0DD
:100EA000829FA001839F500D929F500D11244E0FE1
:100EB0005F1F5D834C831E8EFB83EA830197289F0F
:100EC000A001299F500D389F500D1124CF01840F90
:100ED000951F9F838E838FEF89A38AA361110BC017
:100EE0008885882371F0CE0108960E949E1288237F
:100EF00041F03ADE06C0CE01089668DDCE01439689
:100F000065DD0F900FBE81E0DF91CF9108950F93C3
:100F10001F93F801611103C01183008302C0518344
:100F20004083878F60A361E0CF01AEDF1F910F91F7
:100F30000895DF92EF92FF920F931F93CF93DF9369
:100F4000F82EE62ED42E869FC0011124839658DCFD
:100F5000EC01009741F08C012D2DAC014D5D5F4FF0
:100F60006E2D8F2DD4DFCE01DF91CF911F910F9188
:100F7000FF90EF90DF900895CF92DF92EF92FF9273
:100F80000F931F93CF93DF93CDB7DEB729970FB69B
:100F9000F894DEBF0FBECDBF7C016B012E833F8373
:100FA0004887598710E00FB6F8940F92F701968D95
:100FB000878D981710F00230B1F4402FB601C701A9
:100FC000B6DEF7019389992341F0C70143960E9449
:100FD0009E12882321F0C8DD02C08111C5DD0F906B
:100FE0000FBE81E04BC08E819F81A885B985892B7A
:100FF0008A2B8B2B21F40F900FBE80E03FC0111184
:1010000005C0CE0101960E94FD1311E00F900FBEA6
:10101000F1D60FB6F8940F92F70181A18F3F09F432
:1010200011A2F70182A18F3F09F412A20F900FBE07
:10103000BE016A5F7F4FCE0101960E940E1481119E
:1010400019C0C70166DE882381F04E815F81688503
:101050007985C70108960E94FB11C701E1DE0E9455
:101060003A108111A0CF80DD9ECFC701D9DE0E944A
:101070003A1099CFC701D4DEFDD780E029960FB68C
:10108000F894DEBF0FBECDBFDF91CF911F910F91BE
:10109000FF90EF90DF90CF900895EF92FF920F9323
:1010A0001F93CF93DF938A01FC01568D378D531721
:1010B00010F02230F9F4422F7801EC011AA18E8D44
:1010C000CE0135DE1F3F81F48B898823A9F0CE0144
:1010D00043960E949E12882389F0E114F10481F066
:1010E00081E0F70180830DC0FF24F394F10EFAA292
:1010F00081E007C080E005C081E003C081E001C05D
:1011000081E0DF91CF911F910F91FF90EF900895B3
:10111000CF92DF92EF92FF920F931F93CF93DF93C3
:10112000CDB7DEB729970FB6F894DEBF0FBECDBF9F
:101130008C016B012E833F8348875987E12C0FB6C2
:10114000F8940F92F801F68CFF2099F0B601C801CF
:101150004DDEFA94F801F68E8085882331F0C801BF
:1011600008960E949E128111FFDC0F900FBE81E055
:101170004FC08E819F81A885B985892B8A2B8B2BA7
:1011800021F40F900FBE80E043C0E11006C0CE01F5
:1011900001960E94FD13EE24E3940F900FBE2AD611
:1011A0000FB6F8940F92F80181A18F3F09F411A2B4
:1011B000F80182A18F3F09F412A20F900FBEBE0169
:1011C0006A5F7F4FCE0101960E940E14811117C0F5
:1011D000C80192DD882379F04E815F816885798529
:1011E000C80143960E94FB11C8011ADE43D7811142
:1011F000A6CFBADCA4CFC80113DE3CD7A0CFC8016C
:101200000FDE38D7C80178DD882309F498CF80E055
:1012100029960FB6F894DEBF0FBECDBFDF91CF91F8
:101220001F910F91FF90EF90DF90CF900895CF9393
:10123000DF93EC010FB6F8940F9289A18F3F09F468
:1012400019A28AA18F3F09F41AA20F900FBE8E8DAA
:10125000811104C0CE0143960E945C12CE01E0DDF4
:10126000DF91CF910895FC01448155812281338122
:10127000240F351F80819181B901681B790BCB0147
:101280006417750710F0841B950B08950F93FC01EC
:101290008FE0DF011D928A95E9F775876487558392
:1012A00044833783268306870F910895AF92BF92B8
:1012B000CF92DF92EF92FF920F931F93CF93DF9322
:1012C0006C015B017A01FC01C281D381048115812B
:1012D0000C1B1D0B4017510708F48A01F601848589
:1012E0009585A801B5018C0F9D1F0E9465320E15D2
:1012F0001F0558F4A701401B510BB501600F711F6A
:10130000F601848595850E946532CE018E0D9F1D64
:10131000F601248135818217930710F0821B930B0D
:10132000F60193838283C701DF91CF911F910F91C3
:10133000FF90EF90DF90CF90BF90AF900895CF9245
:10134000DF92EF92FF920F931F93CF93DF931F9241
:101350001F92CDB7DEB77C016B015A8349832115FB
:101360003105C1F0FC01868580FD08C04217530796
:1013700008F49A013A83298381E00FC020173107CE
:1013800058F042E050E0BE016F5F7F4FC7018EDF33
:1013900081E003C080E001C080E0882331F0498112
:1013A0005A81B601C70182DF02C080E090E00F9051
:1013B0000F90DF91CF911F910F91FF90EF90DF90F1
:1013C000CF900895AF92BF92CF92DF92EF92FF92AB
:1013D0000F931F93CF93DF937C015B01E9014217C9
:1013E000530708F4EA01209781F1F7010081118188
:1013F00084819581801B910B6E018C179D0708F4E9
:101400006C01F70164857585600F711FA601C50128
:101410000E946532CC16DD0658F4AE014C195D0908
:10142000F70164857585C5018C0D9D1D0E9465328F
:101430000C0F1D1FF701848195810817190710F003
:10144000081B190BF70111830083CE01DF91CF91A7
:101450001F910F91FF90EF90DF90CF90BF90AF90D2
:1014600008956F927F928F929F92AF92BF92CF9288
:10147000DF92EF92FF920F931F93CF93DF931F9210
:101480001F92CDB7DEB76C014B015A0179010115EE
:101490001105B1F0FC0160807180A801BE016F5F91
:1014A0007F4F90DF89819A81E01AF10AA816B90668
:1014B00030F4F60171826082A12CB12C01C05C0174
:1014C0009701A501B401C6017DDF0F900F90DF9158
:1014D000CF911F910F91FF90EF90DF90CF90BF9031
:1014E000AF909F908F907F906F900895CF92DF92F2
:1014F000EF92FF920F93CF93DF93EC016B0141309A
:1015000011F401E001C000E0C114D10419F4CC24AD
:10151000C394D12CCE014096C817D90720F4219648
:101520006FD97C0102C0E12CF12CE114F10439F0F7
:101530009601AE01B701615F7F4FC701A7DEC7010A
:10154000DF91CF910F91FF90EF90DF90CF900895B2
:101550000F930FB6F8940F92FC0120853185232B51
:1015600071F422853385232B61F4268137814481F0
:10157000558164857585068589DE81E003C080E03C
:1015800001C080E00F900FBE0F910895FC012481EF
:10159000358180819181820F931F42815381841B09
:1015A000950B01978217930710F0821B930B0895F8
:1015B0002F923F924F925F926F927F928F929F9263
:1015C000AF92BF92CF92DF92EF92FF920F931F9351
:1015D000CF93DF93CDB7DEB72B970FB6F894DEBF6E
:1015E0000FBECDBF4C017B876A871A010E831F8314
:1015F00028873987FC01848195810197268520FF02
:101600000CC02A01F2E04F0E511C8415950558F4C8
:101610001E821F821886198606C08417950710F04F
:101620002A0101C02C018E819F81A885B985892B53
:101630008A2B8B2B09F438C0CE0101960E94E71348
:101640000FB6F8940F92C401A1DF3C0184159505F3
:1016500040F560E080E090E00E94D0170E9478148E
:10166000F401938782870F900FBEAE80BF80C8843D
:10167000D984E12CF12C00E010E0980140E050E02A
:10168000BA0180E00E941015F40113861286BE0193
:101690006A5F7F4FCE0101960E940E14882381F26B
:1016A00005C00F900FBE02C0612C712C6114710433
:1016B00019F4C4016BDF3C0182019301A1016A8529
:1016C0007B85C4013CDE6C01892BE9F0C401CBDDD4
:1016D000F4012681378182179307A8F08BD3F40198
:1016E00080859185892B71F080859185E12CF12C85
:1016F00000E020E030E0A90160E00E94B715F401AD
:1017000011861086B7D4C6012B960FB6F894DEBFAB
:101710000FBECDBFDF91CF911F910F91FF90EF9042
:10172000DF90CF90BF90AF909F908F907F906F9001
:101730005F904F903F902F900895AF92BF92CF92BD
:10174000DF92EF92FF920F931F93CF93DF93EC0101
:101750007B015A0169018E8580FF04C08A010E5FFA
:101760001F4F01C08A01CE0111DF9C01A501B70105
:10177000CE01E5DD5C01892BC1F0CE0174DD2E8147
:101780003F818217930788F088859985892B69F0B6
:1017900088859985E12CF12C00E020E030E0A9015A
:1017A00060E00E94AE1619861886C501DF91CF91C0
:1017B0001F910F91FF90EF90DF90CF90BF90AF906F
:1017C00008954F925F926F927F928F929F92AF9205
:1017D000BF92CF92DF92EF92FF920F931F93CF931E
:1017E000DF93EC012B013A01580169018E8580FFDE
:1017F00005C06894882481F8912C02C0812C912C1A
:10180000A114B104C104D10441F10FB6F8940F92B0
:10181000CE0129DD7C018816990648F060E080E061
:1018200090E00E94D0170E947814998788870F90C3
:101830000FBE8E149F04A0F0E12CF12C00E010E00C
:10184000980140E050E0BA0180E00E94101519862E
:101850001886CE0108DD7C0103C0CE0104DD7C01C9
:101860008E149F04E8F484019701A301B201CE0114
:10187000F8DD6C01892BB1F0BDD28A859B85892B5F
:1018800069F08A859B85E12CF12C00E020E030E0B6
:10189000A90160E00E94B7151B861A86EBD302C02F
:1018A000C12CD12CC601DF91CF911F910F91FF90D8
:1018B000EF90DF90CF90BF90AF909F908F907F90F0
:1018C0006F905F904F900895E091E715F091E815C3
:1018D000808181110CC08FEF9FEFDC018093B115E7
:1018E0009093B215A093B315B093B4150895E091F9
:1018F000E715F091E8150780F085E02D8081918152
:10190000A281B3818093B1159093B215A093B315C2
:10191000B093B4150895CF93DF93EC018B8D9C8D1C
:1019200018D8CE0116D8DF91CF9108954F925F92CB
:101930006F927F928F929F92AF92BF92CF92DF92DF
:10194000EF92FF920F93CF93DF932C015B014A013B
:101950003901E60165EA70E08B8D9C8D0E946E3244
:101960008B8D9C8D21E0821A9108880E991EA114FE
:10197000B10489F415C0822F90E0F501E80FF91F3A
:101980003081DE01A80FB91F5D963C9380818823CA
:1019900029F02F5F01C020E0203168F31CA601C0B0
:1019A0001D8E0A3008F009E00A8F0DA71EA6CE0191
:1019B00002961DD8CE010E961AD8DB87CA878AE018
:1019C00090E0A0E0B0E0801B9109A109B1098E87E9
:1019D0009F87A88BB98BDF8BCE8B84E0FE01BF96EF
:1019E000DF011D928A95E9F71BAAA301B201C40188
:1019F00072D899838883E114F10419F0F701D18337
:101A0000C083DF91CF910F91FF90EF90DF90CF9047
:101A1000BF90AF909F908F907F906F905F904F900E
:101A20000895CF93C0E009C02BE0C29FC0011124EC
:101A300081509A4E0E94E604CF5FCA30A8F384EF2B
:101A400095E10E94E60489EE95E10E94E6048AEDA4
:101A500095E10E94E6048FEC95E10E94E60483EC98
:101A600095E10E94E60484EF95E19093E815809358
:101A7000E71589EE95E19093E6158093E515CF91F2
:101A80000895CF93DF93EC010FB6F8940F928091F5
:101A9000C2158F5F8093C21580916D1690916E165E
:101AA000892B51F4D0936E16C0936D168091C21598
:101AB000813091F4B6DF10C08091BC1581110CC04B
:101AC000E0916D16F0916E16928D8A8D891720F037
:101AD000D0936E16C0936D168091B5158F5F80936D
:101AE000B515EA8D8091BD158E1710F4E093BD15E4
:101AF0008BE08E9FF0011124E150FA4E0180F281BB
:101B0000E02DFF83EE832681378139872887A681E0
:101B1000B7819E012E5F3F4F15963C932E931497ED
:101B200037832683EA8D8E9FF0011124E150FA4E0F
:101B3000FD87EC8780818F5F80830F900FBE80913F
:101B4000BC15882349F0E0916D16F0916E16928DC8
:101B50008A8D981708F408D8DF91CF910895CF9314
:101B6000DF931BC00FB6F8940F92E091D615F09159
:101B7000D715C085D185CE0102960E943805809187
:101B8000C21581508093C2158091CE1581508093EB
:101B9000CE150F900FBECE01BEDE8091CE15811105
:101BA000E1CFDF91CF9108958F929F92AF92BF9234
:101BB000CF92DF92EF92FF92CF93DF936B017C0184
:101BC000C42F8090BE159090BF15A090C015B09006
:101BD000C11580916D1690916E1602960E9438057F
:101BE0008FEFC816D806E806F806B1F5CC23A1F1A8
:101BF000E3ECF5E1A181B281C0916D16D0916E1632
:101C0000BF83AE83C0916D16D0916E1616968D91DE
:101C10009C911797998788871696CD91DC91179795
:101C200080916D1690916E1602969D838C838091A3
:101C30006D1690916E16029617969C938E9316973A
:101C4000A0916D16B0916E161D96FC93EE931C97A5
:101C500080818F5F80833FC0C80CD91CEA1CFB1CAD
:101C6000E0916D16F0916E16C282D382E482F58205
:101C7000C814D904EA04FB0468F460916D167091ED
:101C80006E168091E5159091E6156E5F7F4F0E946C
:101C9000FB0421C060916D1670916E168091E7155E
:101CA0009091E8156E5F7F4F0E94FB048091B11503
:101CB0009091B215A091B315B091B415C816D9067C
:101CC000EA06FB0640F4C092B115D092B215E0923C
:101CD000B315F092B415DF91CF91FF90EF90DF90A4
:101CE000CF90BF90AF909F908F9008952F923F928A
:101CF0004F925F926F927F928F929F92AF92BF921C
:101D0000CF92DF92EF92FF920F93CF93DF933C013C
:101D10001B014A012901CA010E9400046C01892BA0
:101D200071F084E390E00E940004EC01892B19F02B
:101D3000DC8ECB8E06C0C6010E94A90402C0C0E0A2
:101D4000D0E0209761F0A12CB12C6E019201A4018A
:101D5000B101C301EBDDCE0194DE81E001C08FEF64
:101D6000DF91CF910F91FF90EF90DF90CF90BF90D8
:101D7000AF909F908F907F906F905F904F903F902B
:101D80002F900895EF92FF920F930F2EFFEAEF2E00
:101D9000F5E1FF2EF02D00E020E030E040EC50E0D7
:101DA00063EA72E08EE491E0A1DF813011F40E94D9
:101DB00074188130C9F4F8948FEF9FEFDC018093A1
:101DC000B1159093B215A093B315B093B41581E0FB
:101DD0008093BC151092BE151092BF151092C015BD
:101DE0001092C1150E948205809106020F91FF900A
:101DF000EF9008958091AE158F5F8093AE15089592
:101E00000FB6F8940F926091BE157091BF15809136
:101E1000C0159091C1150F900FBE0895CF92DF921B
:101E2000EF92FF92CF93DF938091AE15811105C1A0
:101E3000C090BE15D090BF15E090C015F090C115B0
:101E40008FEFC81AD80AE80AF80AC092BE15D092D5
:101E5000BF15E092C015F092C115C114D104E10480
:101E6000F104B1F48091E7159091E8152091E51502
:101E70003091E6153093E8152093E7159093E61519
:101E80008093E5158091B6158F5F8093B6151CDDA4
:101E90008091B1159091B215A091B315B091B41580
:101EA000C816D906EA06FB0620F480E0B2C081E03D
:101EB00001C080E0E091E715F091E8159081911163
:101EC0000CC04FEF5FEFBA014093B1155093B215BC
:101ED0006093B3157093B4159CC0E091E715F09131
:101EE000E8150780F085E02D0084F185E02D428122
:101EF000538164817581C416D506E606F70648F459
:101F00004093B1155093B2156093B3157093B41507
:101F100080C0A485B585C681D781208531853F8362
:101F20002E83C085D185268137813D832C831196F0
:101F30004D915C9112979F012E5F3F4F42175307BF
:101F400031F44085518512965C934E931197158616
:101F500014869C9191509C93A08DB18D109709F19E
:101F6000C289D389448955895F834E83C489D589C1
:101F7000428953895D834C8311966D917C911297B0
:101F8000AF01425F5F4F6417750731F4448955898B
:101F900012965C934E931197118E108E9C919150D6
:101FA0009C93A28D9091BD159A1710F4A093BD1526
:101FB0009BE09A9FD0011124A150BA4E11960D902A
:101FC000BC91A02DB783A68316964D915C9117976F
:101FD000518740871696CD91DC9117973D832C83CE
:101FE00017963C932E931697A28D9A9FD001112499
:101FF000A150BA4EB587A4879C919F5F9C93228D78
:10200000E0916D16F0916E16928D291708F04FCF62
:1020100051CFE0916D16F0916E16E28D9BE0E99F35
:10202000F0011124E150FA4E9081923008F081E0E5
:102030009091B715911116C016C08091B815909166
:10204000B915A091BA15B091BB150196A11DB11D8E
:102050008093B8159093B915A093BA15B093BB159A
:1020600080E001C081E0DF91CF91FF90EF90DF90A1
:10207000CF900895CF92DF92EF92FF92CF93DF93AC
:102080000FB6F8940F928091AE1581508093AE15E3
:102090008091AE158111BEC08091C215811188C09A
:1020A000BCC0E091E115F091E2150084F185E02DCE
:1020B000A08DB18DC289D389848995899F838E83B0
:1020C000C489D589828993899D838C8311962D91AA
:1020D0003C911297CF010E962817390731F4848965
:1020E000958912969C938E931197118E108E8C91D8
:1020F00081508C93A485B585C681D78180859185D3
:102100009F838E83C085D185868197819D838C83B3
:1021100011968D919C9112979F012E5F3F4F8217D0
:10212000930731F48085918512969C938E93119735
:10213000158614868C9181508C93A28D8091BD154B
:102140008A1710F4A093BD158BE08A9FD00111244B
:10215000A150BA4E11960D90BC91A02DB783A683C5
:1021600016964D915C911797518740871696CD91A1
:10217000DC9117973D832C8317963C932E931697EB
:10218000A28D8A9FD0011124A150BA4EB587A48791
:102190008C918F5F8C93928DA0916D16B0916E167D
:1021A0005A968C91981730F081E08093B71502C051
:1021B000E0E0F0E08091DA15811173CFEF2B09F0A8
:1021C00083DBC090B815D090B915E090BA15F090A7
:1021D000BB15C114D104E104F104A1F01FDE882372
:1021E00019F081E08093B71581E0C81AD108E108A1
:1021F000F108A1F71092B8151092B9151092BA15FE
:102200001092BB158091B715882331F00E94B40558
:1022100081E003C080E001C080E00F900FBEDF913D
:10222000CF91FF90EF90DF90CF9008958F929F9283
:10223000AF92BF92CF92DF92EF92FF921F93CF9314
:10224000DF93EC016A017B01D5DD8090BE15909093
:10225000BF15A090C015B090C11588819981AA8141
:10226000BB81AC01BD014C0D5D1D6E1D7F1D88162F
:102270009906AA06BB0660F4481759076A077B0748
:1022800098F484169506A606B70680F010E013C0F1
:10229000481759076A077B0758F084169506A60663
:1022A000B70640F010E007C010E005C011E003C021
:1022B00011E001C011E0488359836A837B831123B5
:1022C00041F0CB01BA01681979098A099B0940E0FC
:1022D0006BDCD0DE811102C00E94B405812FDF913A
:1022E000CF911F91FF90EF90DF90CF90BF90AF9074
:1022F0009F908F900895CF92DF92EF92FF926B01A3
:102300007C01672B682B692B39F074DD40E0C70135
:10231000B6014ADCAFDE01C080E0811102C00E943C
:10232000B405FF90EF90DF90CF9008958091AE15A7
:10233000882321F081E08093B71508951092B71596
:10234000E0916D16F0916E1620813181E0916D164D
:10235000F0916E16838D948D8217930760F06091D3
:102360006D1670916E16635E7F4F80916D16909121
:102370006E160E94021B8091BD1501C08150282F4E
:1023800030E09BE0929FF001939FF00D1124E1500B
:10239000FA4E9081992391F39BE0929FA001939F25
:1023A000500D1124DF010180F281E02D0480F581C0
:1023B000E02D1296FC93EE9311974E5F594EE41761
:1023C000F50729F444815581FD01528341839BE047
:1023D000929FF001939FF00D1124E150FA4E01807D
:1023E000F281E02D2085318530936E1620936D1695
:1023F0008093BD150895CF92DF92EF92FF926A010C
:102400007B0160916D1670916E16625F7F4F0E9426
:10241000FB0441E0C701B601C7DBFF90EF90DF90FE
:10242000CF9008950F931F93CF93DF93FC01A0915A
:102430006D16B0916E1670681E964D935D936D93F8
:102440007C935197A181B281C0916D16D0916E1687
:10245000BB8BAA8BC0916D16D0916E1616968D917E
:102460009C9117979D8B8C8B1696CD91DC9117972D
:1024700080916D1690916E160E969D838C8380913F
:102480006D1690916E160E9617969C938E931697D6
:10249000A0916D16B0916E165996FC93EE935897D5
:1024A00080818F5F808341E0C901B8017DDBDF91CE
:1024B000CF911F910F910895CF93DF93FC01CB0132
:1024C000BA01A181B281C0916D16D0916E16BB8BFD
:1024D000AA8BC0916D16D0916E1616964D915C9197
:1024E00017975D8B4C8B1696CD91DC911797409189
:1024F0006D1650916E16425F5F4F5D834C83409125
:102500006D1650916E16425F5F4F17965C934E9317
:102510001697A0916D16B0916E165996FC93EE9396
:10252000589730813F5F3083222319F06FEF7FEFA0
:10253000CB01422F39DBDF91CF910895CF93DF9309
:10254000DC011796ED91FC9118970084F185E02D40
:10255000A08DB18DC289D389848995899F838E830B
:10256000C489D589828993899D838C8311968D91A5
:102570009C9112979F01225F3F4F8217930731F47E
:102580008489958912969C938E931197118E108E43
:102590008C9181508C938091AE15811152C0A4858D
:1025A000B585C681D781808591859F838E83C085BF
:1025B000D185868197819D838C8311968D919C9185
:1025C00012979F012E5F3F4F8217930731F480854A
:1025D000918512969C938E931197158614868C91F3
:1025E00081508C93A28D8091BD158A1710F4A09311
:1025F000BD158BE08A9FD0011124A150BA4E1196CF
:102600000D90BC91A02DB783A68316964D915C9139
:102610001797518740871696CD91DC9117973D8388
:102620002C8317963C932E931697A28D8A9FD001E8
:102630001124A150BA4EB587A4878C918F5F8C93DB
:102640001CC04AED55E1DA011196CD91DC9112974B
:10265000D38BC28B8E819F81958B848B8E819F8142
:10266000DC0115963C932E9314973F832E83518F54
:10267000408FDA018C918F5F8C93928DE0916D1673
:10268000F0916E16828D891720F481E08093B71542
:1026900001C080E0DF91CF910895CF93DF93DC01FB
:1026A00070684D935D936D937C9313971896ED919D
:1026B000FC9119971A964D915C911B9714968D91E8
:1026C0009C91159716962D913C911797EC013F839D
:1026D0002E8316968D919C91179714962D913C916F
:1026E0001597EC013D832C83EA0189819A81A81713
:1026F000B90731F416968D919C9117979A83898327
:102700001B961C921E921A97DA018C9181508C9321
:10271000A485B585C681D781808591859F838E8369
:10272000C085D185868197819D838C8311968D91FB
:102730009C9112979F012E5F3F4F8217930731F4B0
:102740008085918512969C938E9311971586148699
:102750008C9181508C93A28D8091BD158A1710F4B5
:10276000A093BD158BE08A9FD0011124A150BA4ED1
:1027700011960D90BC91A02DB783A68316964D910E
:102780005C911797518740871696CD91DC911797EA
:102790003D832C8317963C932E931697A28D8A9F88
:1027A000D0011124A150BA4EB587A4878C918F5FB8
:1027B0008C93928DE0916D16F0916E16828D891733
:1027C00018F481E08093B715DF91CF9108950FB68B
:1027D000F8940F922091B615FC0120834091BE150C
:1027E0005091BF156091C0157091C11541835283FE
:1027F000638374830F900FBE08952091B615FC017A
:1028000020834091BE155091BF156091C015709105
:10281000C115418352836383748308958F929F927D
:10282000AF92BF92CF92DF92EF92FF920F931F93DE
:10283000CF93DF93FB010FB6F8940F92C090BE15B3
:10284000D090BF15E090C015F090C115DC01119635
:102850000D911D912D913C91149746015701801ABD
:10286000910AA20AB30A40815181628173814F3F6C
:10287000BFEF5B076B077B0739F1EC01B881A091D3
:10288000B615BA1759F0C016D106E206F30630F0B5
:10289000108211821282138281E017C0841695067D
:1028A000A606B70658F4481959096A097B094083F6
:1028B000518362837383A1DF80E007C0108211829D
:1028C0001282138281E001C080E00F900FBEDF9181
:1028D000CF911F910F91FF90EF90DF90CF90BF901D
:1028E000AF909F908F90089581E08093B7150895E1
:1028F00080916D1690916E1608958091BC15882375
:1029000031F08091AE15811104C082E0089581E01C
:10291000089580E008950F931F93CF93DF93FC01F8
:10292000892B09F449C086A5815086A7228D95A5DB
:10293000291709F443C0811143C0EF018F010E5FD5
:102940001F4FC8010E943805EDA5EA8F8AE090E08C
:10295000A0E0B0E08E1B9109A109B1098E879F8785
:10296000A88BB98B8091BD158E1710F4E093BD151F
:102970008BE08E9FF0011124E150FA4E0180F2812C
:10298000E02DFF83EE832681378139872887A68152
:10299000B78115961C930E93149717830683EA8DBF
:1029A0008E9FF0011124E150FA4EFD87EC87808163
:1029B0008F5F808381E005C080E003C080E001C0BC
:1029C00080E0DF91CF911F910F910895CF92DF9218
:1029D000EF92FF92E0916D16F0916E166685778505
:1029E00080899189E0916D16F0916E16A0916D1617
:1029F000B0916E165A962C910F2EFAE0CF2ED12C54
:102A0000E12CF12CF02DC21AD108E108F108C6869C
:102A1000D786E08AF18AFF90EF90DF90CF900895FB
:102A20004F925F926F927F92AF92BF92CF92DF925E
:102A3000EF92FF920F931F93CF93DF9328013901F9
:102A40000FB6F8940F92E0916D16F0916E16C82FA4
:102A5000D0E0EC0FFD1F83A9823071F1E0916D167B
:102A6000F0916E16CE01880F991F880F991FE80FFD
:102A7000F91F87A590A9A1A9B2A940955095609585
:102A80007095482359236A237B2347A750AB61AB3A
:102A900072ABE0916D16F0916E16EC0FFD1F81E0A8
:102AA00083ABA114B104C104D10431F041E0C601EB
:102AB000B5017AD80E94B4050F900FBE0FB6F894F6
:102AC0000F92E114F104A1F0E0916D16F0916E16F1
:102AD000CE01880F991F880F991FE80FF91F87A54E
:102AE00090A9A1A9B2A9F70180839183A283B3839E
:102AF000E0916D16F0916E16EC0FFD1F83A98230E8
:102B0000E9F4E0916D16F0916E16CE01880F991FD1
:102B1000880F991FE80FF91F87A590A9A1A9B2A94D
:102B20004094509460947094482259226A227B22E7
:102B300047A650AA61AA72AA81E001C080E0209154
:102B40006D1630916E16C20FD31F1BAA0F900FBEC9
:102B5000DF91CF911F910F91FF90EF90DF90CF9079
:102B6000BF90AF907F906F905F904F9008958F923D
:102B70009F92AF92BF92EF92FF920F93CF93DF930A
:102B8000DC010FB6F8940F92E114F10489F0E62FFE
:102B9000F0E0EE0FFF1FEE0FFF1FE80FF91F87A4F5
:102BA00090A8A1A8B2A8F70180829182A282B382E4
:102BB00070E0FD01E60FF71F83A992E093AB0230AE
:102BC00001F118F4013031F04DC0033079F10430D7
:102BD000D1F148C0660F771F660F771FFD01E60F22
:102BE000F71F87A490A8A1A8B2A8BA01A9014829F3
:102BF00059296A297B2947A750AB61AB72AB01E029
:102C000034C0660F771F660F771FFD01E60FF71FB1
:102C100047A550A961A972A94F5F5F4F6F4F7F4FC2
:102C200047A750AB61AB72AB01E01FC0660F771FC7
:102C3000660F771FFD01E60FF71F27A730AB41ABEB
:102C400052AB01E012C0823079F0660F771F660F39
:102C5000771FFD01E60FF71F27A730AB41AB52AB43
:102C600001E003C001E001C000E0813009F069C06B
:102C70001C96ED91FC911D971696CD91DC911797BE
:102C800018968D919C9119979F838E831896CD915C
:102C9000DC91199716968D919C9117979D838C8343
:102CA000818192819D012E5F3F4F8217930731F4FE
:102CB00018968D919C911997928381831D961C92F1
:102CC0001E921C978081815080835A96EC915A976E
:102CD0008091BD158E1710F4E093BD158BE08E9F8B
:102CE000F0011124E150FA4E0180F281E02D179697
:102CF000FC93EE9316974681578119965C934E93F9
:102D00001897C681D7813D832C83378326835A96B3
:102D1000EC915A978E9FF0011124E150FA4E1D96C6
:102D2000FC93EE931C9780818F5F80835A969C91D1
:102D3000E0916D16F0916E16828D891710F40E9445
:102D4000B4050F900FBE802FDF91CF910F91FF90B0
:102D5000EF90BF90AF909F908F9008958F929F9229
:102D6000AF92BF92CF92DF92EF92FF920F93CF93E9
:102D7000DF93DC01E114F10489F0E62FF0E0EE0FBF
:102D8000FF1FEE0FFF1FE80FF91F87A490A8A1A84F
:102D9000B2A8F70180829182A282B38270E0FD0125
:102DA000E60FF71F93A982E083AB023001F118F41C
:102DB000013031F04DC0033079F10430D1F148C019
:102DC000660F771F660F771FFD01E60FF71F87A4B9
:102DD00090A8A1A8B2A8BA01A901482959296A292D
:102DE0007B2947A750AB61AB72AB81E034C0660F63
:102DF000771F660F771FFD01E60FF71F47A550A944
:102E000061A972A94F5F5F4F6F4F7F4F47A750ABCC
:102E100061AB72AB81E01FC0660F771F660F771F33
:102E2000FD01E60FF71F27A730AB41AB52AB81E0A6
:102E300012C0923079F0660F771F660F771FFD0181
:102E4000E60FF71F27A730AB41AB52AB81E003C0C1
:102E500081E001C080E0913009F096C09091AE15FC
:102E600091115FC01C96ED91FC911D971696CD9126
:102E7000DC91179718962D913C9119973F832E83DB
:102E80001896CD91DC91199716962D913C91179734
:102E90003D832C83418152819D012E5F3F4F42171C
:102EA000530731F418964D915C91199752834183E1
:102EB0001D961C921E921C979081915090835A9659
:102EC000EC915A979091BD159E1710F4E093BD15A3
:102ED0009BE09E9FF0011124E150FA4E0180F281A7
:102EE000E02D1796FC93EE9316974681578119961D
:102EF0005C934E931897C681D7813D832C8337838B
:102F000026835A96EC915A979E9FF0011124E15026
:102F1000FA4E1D96FC93EE931C9790819F5F9083D1
:102F200021C06AED75E1FB01C181D2815396DC932A
:102F3000CE9352972E813F8155963C932E93549772
:102F40004E815F819D01225F3F4FFA0135832483CB
:102F50003F832E8359967C936E935897FB01908103
:102F60009F5F90835A962C91E0916D16F0916E16AA
:102F7000928D921748F4C114D10419F091E0F60132
:102F8000908391E09093B715DF91CF910F91FF90CF
:102F9000EF90DF90CF90BF90AF909F908F9008956B
:102FA000009721F480916D1690916E160FB6F894EB
:102FB0000F9270E0FC01E60FF71F23A9223031F4D5
:102FC000FC01E60FF71F13AA81E001C080E00F901B
:102FD0000FBE0895DC01E0917916F0917A16808198
:102FE00091E0811190E09C93911108C00780F085D9
:102FF000E02D6081718182819381089560E070E0AD
:10300000CB010895CF92DF92EF92FF920F931F931F
:10301000FC014283538364837583938782870417FB
:10302000150726073707C0F00C191D092E093F099F
:1030300086859785A089B189081719072A073B0754
:1030400000F5BF016E5F7F4F8091771690917816E3
:103050000E94FB0480E018C00C151D052E053F05DD
:1030600028F44C155D056E057F0568F4BF016E5FA1
:103070007F4F8091791690917A160E94FB0480E030
:1030800003C081E001C081E01F910F91FF90EF909C
:10309000DF90CF9008950FB6F8940F928091751637
:1030A00090917616892BE9F486E896E10E94E60471
:1030B0008BE796E10E94E60486E896E190937A1603
:1030C000809379168BE796E1909378168093771624
:1030D00040E067E08AE00E9499079093761680931B
:1030E00075160F900FBE0895EF92FF920F93D3DFE6
:1030F0008091751690917616892B91F00F2EF3E73B
:10310000EF2EF6E1FF2EF02D03E020E030E040EC62
:1031100050E068EA72E088E591E00E94760E01C016
:1031200080E00F91FF90EF9008958F929F92AF9261
:10313000BF92CF92DF92EF92FF920F931F93CF93A4
:10314000DF93CDB7DEB727970FB6F894DEBF0FBE7B
:10315000CDBFE0917516F0917616309781F16983B5
:103160002A833B834C835D839F838E836630F4F494
:10317000C4DB823069F400E0A7019601BE016F5FF5
:103180007F4F80917516909176160E94BC0718C0EB
:1031900000E020E030E0A901BE016F5F7F4F809129
:1031A0007516909176160E94BC070AC020E0A8010F
:1031B000BE016F5F7F4FCF010E944D0801C080E0CC
:1031C00027960FB6F894DEBF0FBECDBFDF91CF912B
:1031D0001F910F91FF90EF90DF90CF90BF90AF9035
:1031E0009F908F9008958F929F92AF92BF92CF92AF
:1031F000DF92EF92FF920F931F93CF93DF933BC029
:103200000780F085E02D80809180A280B380C0850A
:10321000D1858E010E5F1F4FC8010E943805EC89D1
:10322000FD89CE0119958E8982FF25C08E859F85E7
:10323000A889B989880D991DAA1DBB1D88169906F4
:10324000AA06BB0670F48A839B83AC83BD83DB87AD
:10325000CA87B8018091791690917A160E94FB0472
:103260000AC0C12CD12C760100E010E0A501940128
:1032700060E0CE015ADFE0917916F0917A168081F4
:103280008111BECF809177169091781690937A161F
:1032900080937916F0937816E0937716DF91CF91AB
:1032A0001F910F91FF90EF90DF90CF90BF90AF9064
:1032B0009F908F900895CF92DF92EF92FF92CF93DD
:1032C000DF93EC010E94000F6B017C0180916F166F
:1032D00090917016A0917116B0917216C816D90609
:1032E000EA06FB0620F47FDF81E0888301C01882B4
:1032F000C0926F16D0927016E0927116F09272160C
:10330000C701B601DF91CF91FF90EF90DF90CF9092
:1033100008954F925F926F927F928F929F92AF9299
:10332000BF92CF92DF92EF92FF920F931F93CF93B2
:10333000DF934B015C0129013A01E0917916F0918C
:103340007A160780F085E02DC085D185CE010296E2
:103350000E9438058E8982FF1BC04E855F85688973
:103360007989480D591D6A1D7B1D75016401930102
:103370008201CE0147DE882369F0C12CD12C760171
:1033800000E010E0A501940160E0CE01CEDE02C0B5
:103390008E7F8E8BEC89FD89CE011995DF91CF91BF
:1033A0001F910F91FF90EF90DF90CF90BF90AF9063
:1033B0009F908F907F906F905F904F9008958F9225
:1033C0009F92AF92BF92CF92DF92EF92FF921F93A4
:1033D000CF93DF931F92CDB7DEB76B017C01142F23
:1033E0000E94FA0ECE01019666DF4B015C018981D5
:1033F00081112DC011110DC08C149D04AE04BF04A9
:1034000040F00E943A10A5019401C701B60181DF86
:1034100020C0112341F0E0917716F0917816808159
:1034200011E0811110E0B701A601481959096A0994
:103430007B09212F80917516909176160E941709AD
:103440000E943A10811105C00E94B40502C00E947A
:103450003A100F90DF91CF911F91FF90EF90DF9086
:10346000CF90BF90AF909F908F900895AF92BF92F2
:10347000CF92DF92EF92FF920F931F93CF93DF9340
:10348000CDB7DEB728970FB6F894DEBF0FBECDBF1D
:1034900082C0898188230CF47EC0AE80BF80D501B4
:1034A0001C968D919C911D97892B21F0C501029648
:1034B0000E943805CE010896FEDE8B019C01E98151
:1034C0000E2E000CFF0BEA30F10508F064C08827CF
:1034D000EE58FF4F8F4F0C945530F501868981606F
:1034E000868BCA80DB80EC80FD80468557856089AD
:1034F00071894C0D5D1D6E1D7F1DC50183DD882307
:1035000009F449C0D5015496ED91FC915597C50138
:103510001995F501868982FF3EC04A815B816C81E5
:103520007D8186859785A089B1899A01AB01280F95
:10353000391F4A1F5B1FC12CD12C760100E010E01F
:1035400060E0C501F2DD27C0D50156968C915697F3
:103550008E7F56968C931FC0F50186898160868B7D
:103560004A815B816C817D8146875787608B718B37
:10357000400F511F621F731F68017901C50142DDB1
:103580000AC0F501868981FD04C0C5010E94A90415
:1035900002C08E7F868B20E030E0A901BE016F5F04
:1035A0007F4F80917516909176160E948808811140
:1035B00070CF28960FB6F894DEBF0FBECDBFDF9157
:1035C000CF911F910F91FF90EF90DF90CF90BF9020
:1035D000AF900895089584B1806884B985B18068FA
:1035E00085B9089583B1806883B90895F4DF2FEF1A
:1035F00080E792E0215080409040E1F700C0000059
:10360000F1DFF5CFE8DF2FEF87EA91E62150804028
:103610009040E1F700C00000E5DFF5CF90939616EB
:103620008093951608959093941680939316089519
:1036300090939216809391160895FC01608387E021
:1036400081838091951690919616928383838091C1
:1036500093169091941694838583809191169091FE
:1036600092169683878380E18087CF010895909397
:10367000981680939716089583E0C1D787E39BE15E
:10368000E3C70895E6D78093EA17882341F080EBDB
:1036900092E09F938F930E940B330F900F9087E9D6
:1036A00096E10E94582390E0909398168093971685
:1036B0000895CC24CA94DC2C760101E021E041E09D
:1036C00050E060E070E08091E6179091E7170E946B
:1036D0005F0260FFEECFD6DF42E050E060E070E0D6
:1036E0008091E4179091E5170E94FF02E2CF80914C
:1036F0009716909198160895EF92FF920F93BCDF62
:10370000E12CF12C00E020E030E040EC50E060EEF5
:1037100072E089E59BE10E94760E0F91FF90EF9099
:10372000089523D2882341F082EF92E09F938F93F4
:103730000E940B330F900F900895EF92FF920F931A
:10374000F0DFE12CF12C00E020E030E040EC50E034
:1037500069E273E085ED9BE10E94760E0F91FF9088
:10376000EF9008951AD2882341F085E393E09F9368
:103770008F930E940B330F900F9063E070E080E016
:1037800090E00E947B111ED2882341F088E593E0EF
:103790009F938F930E940B330F900F9063E070E024
:1037A00080E090E00C947B110895CC24CA94DC2C2A
:1037B000760101E021E044E050E060E070E08091BB
:1037C000E6179091E7170E945F0262FFEECFCADF13
:1037D0001FD290939C1680939B1640D290939A167A
:1037E0008093991648E050E060E070E08091E41723
:1037F0009091E5170E94FF02D8CF80919916909181
:103800009A16089580919B1690919C1608950F9397
:103810001F93CF93DF93CDB7DEB764970FB6F894BD
:10382000DEBF0FBECDBF81E00E947A288FD30BD6BA
:103830009F938F938BE793E09F938F930E940B331B
:1038400003D501D69F938F938EE893E09F938F9338
:103850000E940B338E010F5F1F4FC80189D3F3D530
:103860001F930F939F938F9387EA93E09F938F9378
:103870000E940B33C80198D3E6D59F938F931F9373
:103880000F938BEB93E09F938F930E940B33A801D0
:1038900060ED73E081EF93E0B5D5D5D59F938F931D
:1038A0001F930F9380ED93E09F938F9381EF93E0AD
:1038B0009F938F9382E094E09F938F930E940B33AA
:1038C000A6D3C1D59F938F9388E394E09F938F9362
:1038D0000E940B330FB6F894DEBF0FBECDBF81E060
:1038E00090D4B1D59F938F9387E494E09F938F9367
:1038F0000E940B3384EF91E08FD4A5D59F938F93D3
:1039000081E08F9384EF8F9388E694E09F938F9369
:103910000E940B330FB6F894DEBF0FBECDBF1AE086
:1039200080E07BD3082F8FD59F938F931F921F9397
:1039300088E894E09F938F930E940B330F900F9031
:103940000F900F900F900F90083059F080E00E9478
:10395000DE2866E371E080E090E00E947B11115068
:10396000F9F6083021F481E00E94C02809C081E006
:103970000E94CF2880E00E949D280E94B405FDCFC0
:1039800064960FB6F894DEBF0FBECDBFDF91CF9126
:103990001F910F910895CF93DF9300D01F92CDB761
:1039A000DEB781E0C5D262E070E080E090E00E9486
:1039B0007B1180E0BDD266E970E080E090E00E947B
:1039C0007B116FD224DFEFE9F6E187E0818382E0AB
:1039D00080830E94000F69837A838B839C8348EAEB
:1039E00058E460E070E0CE0101960E9416110FEFDE
:1039F0001FEF980146E150E06FE976E180919D1656
:103A000090919E160E94E10B892BD1F1EFE9F6E12E
:103A1000828190E0982F88272381822BE480F12CEB
:103A2000FE2CEE242581E22A068110E0102F0027CB
:103A30002781022BD0849F938F9388EA94E09F93F1
:103A40008F930E940B33FF92EF928EEB94E09F9343
:103A50008F930E940B331F930F9381ED94E09F93FC
:103A60008F930E940B331F92DF928FED94E09F9310
:103A70008F930E940B330FB6F894DEBF0FBECDBFFD
:103A800083E00E94F0286FE976E180E0EFD2DBD49A
:103A90009F938F9380EF94E09F938F930E940B33BB
:103AA0000F900F900F900F909ACF90939E16809347
:103AB0009D160895EF92FF920F93E12CF12C082FA1
:103AC00020E030E048E851E065E075E08BEC9CE1F7
:103AD0000E94760E0F91FF90EF90089581B181685A
:103AE00081B980E00E94252785E00E942C2860E0B3
:103AF00070E081E0DDD183E0DDDF0C940802089501
:103B0000EDDF8CE095E00E941F330E94C20EFFCFD4
:103B10006530F1F4FA0180818F7390E0982F882747
:103B20002181822B90930A02809309028281F0E422
:103B30008F9FC0011124FA01238126952695822B9F
:103B4000909308028093070281E08093B516089550
:103B5000643051F080E090E4909308028093070273
:103B600090930A028093090208950F931F9308E827
:103B70001DE120E034E244EF50E060E087E20E9483
:103B800012299093B7168093B61621E0892B09F07D
:103B900020E0822F1F910F9108958091B616909189
:103BA000B716009759F040E060E070E00E9463298A
:103BB000843031F41092B51680E0089582E00895C3
:103BC00083E008958091B6169091B716009739F06A
:103BD00064E00E94AF29853021F083E0089582E0FF
:103BE000089580E008956091090270910A0280E0D2
:103BF00090E00E94422F20E030E048EC52E40E9426
:103C0000D02F20E038EF4FE756E40C94A92E08950A
:103C1000EADF20E030E040E251E40E94D02F0E9431
:103C2000162FCB010895609107027091080280E081
:103C300090E00E94422F20E030E045E253E40E94F1
:103C4000D02F20E038EF4FE756E40E94A92E20E065
:103C500030E040E252E40C94442E0895E4DF20E08A
:103C600030E040E251E40E94D02F0E94112FCB019E
:103C700008950F931F93CF93DF931F921F92CDB799
:103C8000DEB78C0119822DC0E091EF16EC3250F4B2
:103C900081E08E0F8093EF16F0E0EF5DF84E8A81A1
:103CA000808302C01092EF168A818A30D1F440914D
:103CB000EF1650E0FA01E15EF84E108241505109D2
:103CC0009E012F5F3F4F61E277E18091F216909164
:103CD000F3160E949D0B898181110E94B4051092F8
:103CE000EF16BE016E5F7F4FC80119D6882361F2BF
:103CF0000F900F90DF91CF911F910F9108950F9327
:103D00001F93CF93DF938C01EB018091F21690917A
:103D1000F3160E94A80AB80188EB96E10E94A5322A
:103D2000209779F0E8EBF6E101900020E9F7319770
:103D300080E290E091838083BE0188EB96E10E944F
:103D40009A32E8EBF6E1DF010D900020E9F71197D8
:103D50008DE09AE011969C938E9312961C9201909E
:103D60000020E9F73197E85BF641AE2F88EB96E14A
:103D7000AC016A2F8091F4169091F5167BD58111D4
:103D800011C008E215E020E030E04DE250E06BE7C2
:103D900077E18091F2169091F3160E94E10B8BE788
:103DA00097E102C080E090E0DF91CF911F910F91E9
:103DB00008952F923F924F925F926F927F928F92CF
:103DC0009F92AF92BF92CF92DF92EF92FF920F93AA
:103DD0001F93CF93DF935C01FC0101900020E9F772
:103DE00031976F01C81AD90A5C2C0F2EF7EB8F2E72
:103DF000F7E09F2EF02DE12CF12C4C2C3701F40133
:103E000001811281E80109900020E9F72197C01B88
:103E1000D10B3C2EF9E0CF16D10458F0F4012080EC
:103E2000FEE02F1206C0B801C5010E947532892B31
:103E300009F5442D351408F44C2F50E0B801C501A4
:103E40000E94AC32892B49F4F301EE0FFF1FE60DFF
:103E5000F71DE954F84F20800DC08FEFE81AF80ADB
:103E6000E3E08E0E911CF1E1EF16F10439F668944F
:103E7000222424F8822DDF91CF911F910F91FF9082
:103E8000EF90DF90CF90BF90AF909F908F907F90FA
:103E90006F905F904F903F902F90089530DF89CFC3
:103EA00008958091F2169091F3160C94A80A089543
:103EB0008F929F92AF92CF92EF920F931F93CF93D7
:103EC000C82F8B0141E060E070E088EC90E00E9438
:103ED000760A9093F3168093F2161093F1160093DE
:103EE000F0160F2EF9E38F2EFEE19F2EF02D689431
:103EF000AA24A6F86894CC24C6F8E12C00E023E0BC
:103F000040E051EE60E070E08C2FE3D39093F51623
:103F10008093F416E7E0F1E0808180618083CF91A7
:103F20001F910F91EF90CF90AF909F908F90089539
:103F3000882331F0E8E0F1E080818F7E808308956E
:103F4000E8E0F1E0808180618083089560E070E0C6
:103F50008DE395E0D4DEEBE7F7E101900020E9F78F
:103F60003197EB57F74181E0759708F080E00895AD
:103F7000CF93DF93EC0160E070E08EE495E0BFDE6C
:103F8000EBE7F7E101900020E9F7EC58F74139F44D
:103F90006BE777E1CE010E94A53280E002C0188273
:103FA00081E0DF91CF910895FC0101900020E9F7B5
:103FB0009F01215131092817390729F4BC018CE7E9
:103FC00095E06CCF089589E00895FC0101900020F0
:103FD000E9F79F01215131092817390729F4BC015C
:103FE0008BE895E05BCF089589E00895FC0101908E
:103FF0000020E9F79F01215231092817390729F4D8
:10400000BC018AE995E04ACF089589E0089560E00F
:1040100070E089ED95E042CF08950F931F93E82F4C
:10402000F0E0EE0FFF1FED54F84F6081718182EEDA
:1040300095E034DF811114C008E215E020E030E0A3
:104040004DE250E06BE777E18091F2169091F31624
:104050000E94E10B882321F08BE797E1AADE03C0E1
:104060008BE797E1A6DE1F910F9108950F931F93A1
:10407000CF93DF931F92CDB7DEB7DB0111969C91F2
:104080001197953108F0B4C0992381F160E070E098
:10409000272F30E0462F50E0FD01E40FF51F9281FD
:1040A00092959F709A3010F0995C01C0905DF90173
:1040B000E45FF84E90832F5F3F4FFD01E40FF51F43
:1040C00092819F70492F50E04A30510514F0995C5D
:1040D00001C0905DF901E45FF84E90837E5F6F5FF1
:1040E00011969C911197691798F201C070E0E72F23
:1040F000F0E0E45FF84E10824C91811103C08BEE2A
:1041000095E002C08DEE95E02CE037E13F932F93D0
:104110001F924F939F938F9381EF95E09F938F937F
:104120008EE497E19F938F930E944F3360E070E09D
:104130008EE497E1B3DE0FB6F894DEBF0FBECDBFBD
:10414000811159C008E215E020E030E04DE250E076
:104150006BE777E18091F2169091F3160E94E10BE4
:10416000882309F447C08BE797E123DE8E3009F0FE
:1041700042C087E089838091F0169091F116892BD7
:10418000A9F1BE016F5F7F4F8BE797E168D1809304
:10419000F616E981F0E0E558F84EDF010D900020B9
:1041A000E9F71197AE1BBF0BAA2391F0BB27CD01F6
:1041B00001979C0112F42F5F3F4F3595279520936F
:1041C000F716AF014F5F5F4F64E188EF96E173D15F
:1041D00001E010E020E030E046E150E066EF76E1FB
:1041E0008091F0169091F1160E94D80A8EE003C0DB
:1041F00084E101C080E00F90DF91CF911F910F917A
:104200000895813019F061E076E002C06AED76E051
:1042100085E096E043CE08959F938F9386E396E0E2
:104220009F938F938EE497E19F938F930E944F33D8
:1042300060E070E08EE497E131DE0F900F900F9018
:104240000F900F900F9008952F923F924F925F9290
:104250006F927F928F929F92AF92BF92CF92DF9296
:10426000EF92FF920F931F93CF93DF93CDB7DEB7FB
:10427000A0970FB6F894DEBF0FBECDBF63E676E021
:104280008FE696E03CDD95DD8111A3C080E2E2E29D
:10429000F2E0DE01119601900D928A95E1F79E0100
:1042A0002F5F3F4F6901E12CF12C0F2EFBE7AF2E62
:1042B000F6E0BF2EF02D0EE417E10F2EF4E94F2E9D
:1042C000F6E05F2EF02D0F2EFBEA8F2EF6E09F2EEC
:1042D000F02D0F2EF5EC6F2EF6E07F2EF02D3E2CFC
:1042E0002F2CFF92EF92BF92AF921F930F930E94D9
:1042F0004F3360E070E0C80102DD5BDD0F900F908E
:104300000F900F900F900F90811163C032E03E1517
:10431000E8F4F60183818F9382818F9381818F935B
:1043200080818F93FF92EF925F924F921F930F9332
:104330000E944F3360E070E0C801E1DC3ADD0FB667
:10434000F894DEBF0FBECDBF811143C02F923F92C4
:104350009F928F921F930F930E944F3360E070E003
:10436000C801CDDC26DD0F900F900F900F900F90BD
:104370000F9081112EC02F923F927F926F921F93C8
:104380000F930E944F3360E070E0C801B8DC11DD8C
:104390000F900F900F900F900F900F90811119C0F8
:1043A0003FEFE31AF30A84E0C80ED11C98E0E91647
:1043B000F10409F094CF60E070E08DED96E09FDCB1
:1043C000F8DC811106C060E070E08EEE96E097DCCC
:1043D000F0DCA0960FB6F894DEBF0FBECDBFDF9124
:1043E000CF911F910F91FF90EF90DF90CF90BF90F2
:1043F000AF909F908F907F906F905F904F903F9085
:104400002F900895EF92FF920F931F93CF93DF9316
:10441000EC018B017A0181E0F4DE81110DC0CE0147
:10442000D4DD811109C0C801E1DD811105C0C701DA
:10443000BBDD811101C0EBDDDF91CF911F910F91A9
:10444000FF90EF90089590E0FC01EE0FFF1F8E0F9C
:104450009F1FFC01E954F84F818192810895DC018E
:10446000009729F1FB012081FC0101900020E9F770
:104470003197E81BF90B822F90E0E817F907C8F095
:1044800080E008C0880F382F330F330F830F80531D
:10449000890F2F5FFD01E20FF11D908130ED390F83
:1044A0003A3010F49111EECFFB012083089580E0A3
:1044B000089580E008950F931F93CF93DF93DC015D
:1044C000EA012097E1F1FA0101900020E9F7319724
:1044D000E41BF50B329710F532C08D01040F151F48
:1044E00030E0AE01420F531FFA019081913428F061
:1044F0009753592F5295507F03C0592F5295507F93
:104500002C0F3D1FF9019181913410F0975301C098
:104510009053950FF80190838F5F01C080E0282FA2
:10452000220F482F50E0FE0101900020E9F731975B
:10453000EC1BFD0B4E175F0710F48613CECFDF91F7
:10454000CF911F910F9108958091AB17860F8093A3
:10455000AB179091AE17913079F028F09230A9F016
:10456000933019F108956F3F09F048C01092AB17CE
:1045700081E08093AE170895663809F03FC010922D
:10458000AA1782E08093AE170895E091AA1781E000
:104590008E0F8093AA17F0E0E855F84E60838230C2
:1045A00069F583E08093AE1708959091AA1721E0F2
:1045B000290F2093AA17963009F581110EC0E8EA59
:1045C000F7E1808190E0982F88272181820F911D4B
:1045D0009093B0178093AF1704C01092B017109249
:1045E000AF171092AE17E091AC17F091AD1730975E
:1045F00029F08091AF179091B017199508958F9277
:104600009F92AF92CF92EF920F930F2EF4EA8F2EDC
:10461000F2E29F2EF02D6894AA24A4F86894CC248A
:10462000C4F8E12C00E023E040E855E260E070E0EF
:1046300050D09093B2178093B1170F91EF90CF9015
:10464000AF909F908F9008959093AD178093AC1783
:104650000895CF93DF93CDB7DEB729970FB6F894BF
:10466000DEBF0FBECDBF89E0E2E4F2E09E012F5F26
:104670003F4FD90101900D928A95E1F71092B01742
:104680001092AF178091B1179091B217009731F047
:10469000422F532F69E0EED080E001C082E02996DE
:1046A0000FB6F894DEBF0FBECDBFDF91CF91089556
:1046B0002091AF173091B0172115310529F4FC0175
:1046C0001182108281E00895FC013183208380E013
:1046D00008952F923F924F925F926F927F928F92A6
:1046E0009F92AF92CF92EF92FF920F931F93CF932F
:1046F000DF93CDB7DEB7F82E2A013B0188E090E0CA
:104700000E945D308C018F2D90E0FC01EE0FFF1FA9
:10471000ED54F84E118300830115110509F46DC0A5
:10472000880F991FFC01E55FFD4F80819181D801C1
:104730008D939C938C2D90E0880F991F880F991F63
:104740000E945D301C0186E090E00E945D307C019B
:104750004C2DB101F4D6F801F582E4828A2D90E067
:10476000880F991F880F991F0E945D301C0186E0F9
:1047700090E00E945D307C014A2DB101E0D6D80165
:104780001396FC92EE92129717969C928E92169721
:10479000FFB6F894ED91FC91119736978081826075
:1047A00080838D909C90C301B2010E94422F20E033
:1047B00030E040E051E40E94D02F9B01AC0160E06A
:1047C00074E284E79BE40E94A92E20E030E040E8F8
:1047D0005FE30E94442E0E94162FF40132976083FB
:1047E000D801ED91FC911197359788E98083ED917F
:1047F000FC91349786E08083FFBEC801DF91CF91A2
:104800001F910F91FF90EF90CF90AF909F908F905E
:104810007F906F905F904F903F902F900895CF932F
:10482000DF93DC01892B01F11296ED91FC91139736
:10483000938182812581981B922384819817B1F0FE
:10484000838126952823C081D181C20FD11D688321
:104850008F5F958189238383ED91FC9135978081CA
:104860008062808380E003C081E001C082E0DF914C
:10487000CF910895EF92FF920F931F93CF93DF9301
:104880007C01009709F441C0DC011296ED91FC9186
:10489000139793818281981B858198238481891B3A
:1048A0008617A8F1662341F1842F952FDC01615012
:1048B000462F50E04F5F5F4F480F591FE701EA81D5
:1048C000FB81938182812581981B92238481981793
:1048D00079F08C91938126952923608171818B01D8
:1048E000020F111DE80188839F5F858198239383C0
:1048F0001196A417B50711F7D701ED91FC913597E3
:1049000080818062808380E003C081E001C082E01A
:10491000DF91CF911F910F91FF90EF900895009735
:10492000D1F0DC011496ED91FC9115979381828171
:10493000981799F09281858186958923A081B1810C
:10494000A80FB11D8C91DB018C939F5F858198230B
:10495000928380E0089581E0089583E008951F9296
:104960000F920FB60F9211240BB60F922F933F9315
:104970004F935F936F937F938F939F93AF93BF9367
:10498000CF93DF93EF93FF93A091B317B091B41738
:10499000109711F16091C6001496ED91FC91159756
:1049A000938182812581981B92238481981761F0DD
:1049B000838126952823C081D181C20FD11D6883B0
:1049C0008F5F9581892383831696ED91FC911797CC
:1049D000309711F0CD011995FF91EF91DF91CF91B3
:1049E000BF91AF919F918F917F916F915F914F9107
:1049F0003F912F910F900BBE0F900FBE0F901F9005
:104A000018951F920F920FB60F9211240BB60F92AA
:104A10002F938F939F93AF93BF93EF93FF93E09167
:104A2000B317F091B4173097B9F00280F381E02DFD
:104A3000938182819817B1F092818581282F2695E4
:104A40002923A081B181A20FB11D2C919F5F8923E1
:104A500082832093C6000BC0E1ECF0E080818F7D63
:104A6000808305C0E1ECF0E080818F7D8083FF9141
:104A7000EF91BF91AF919F918F912F910F900BBEAE
:104A80000F900FBE0F901F9018951F920F920FB6A8
:104A90000F9211240BB60F922F933F934F935F9376
:104AA0006F937F938F939F93AF93BF93CF93DF9336
:104AB000EF93FF93A091B517B091B617109711F12E
:104AC0006091CE001496ED91FC91159793818281AF
:104AD0002581981B92238481981761F08381269504
:104AE0002823C081D181C20FD11D68838F5F95813A
:104AF000892383831696ED91FC911797309711F0D7
:104B0000CD011995FF91EF91DF91CF91BF91AF91B9
:104B10009F918F917F916F915F914F913F912F91D5
:104B20000F900BBE0F900FBE0F901F9018951F9205
:104B30000F920FB60F9211240BB60F922F938F93F3
:104B40009F93AF93BF93EF93FF93E091B517F091CD
:104B5000B6173097B9F00280F381E02D93818281FE
:104B60009817B1F092818581282F26952923A0815D
:104B7000B181A20FB11D2C919F5F89238283209365
:104B8000CE000BC0E9ECF0E080818F7D808305C012
:104B9000E9ECF0E080818F7D8083FF91EF91BF9100
:104BA000AF919F918F912F910F900BBE0F900FBEE1
:104BB0000F901F9018951F920F920FB60F9211240D
:104BC0000BB60F922F933F934F935F936F937F9307
:104BD0008F939F93AF93BF93CF93DF93EF93FF9305
:104BE000A091B717B091B817109711F16091D60046
:104BF0001496ED91FC911597938182812581981BE4
:104C000092238481981761F0838126952823C0819F
:104C1000D181C20FD11D68838F5F958189238383E2
:104C20001696ED91FC911797309711F0CD011995DB
:104C3000FF91EF91DF91CF91BF91AF919F918F91B4
:104C40007F916F915F914F913F912F910F900BBE8C
:104C50000F900FBE0F901F9018951F920F920FB6D6
:104C60000F9211240BB60F922F938F939F93AF93B4
:104C7000BF93EF93FF93E091B717F091B817309778
:104C8000B9F00280F381E02D938182819817B1F011
:104C900092818581282F26952923A081B181A20F99
:104CA000B11D2C919F5F892382832093D6000BC076
:104CB000E1EDF0E080818F7D808305C0E1EDF0E0E3
:104CC00080818F7D8083FF91EF91BF91AF919F9104
:104CD0008F912F910F900BBE0F900FBE0F901F90D2
:104CE00018951F920F920FB60F9211240BB60F92C8
:104CF0002F933F934F935F936F937F938F939F93E4
:104D0000AF93BF93CF93DF93EF93FF93A091B91726
:104D1000B091BA17109711F1609136011496ED9188
:104D2000FC911597938182812581981B9223848120
:104D3000981761F0838126952823C081D181C20F05
:104D4000D11D68838F5F9581892383831696ED91AA
:104D5000FC911797309711F0CD011995FF91EF91C4
:104D6000DF91CF91BF91AF919F918F917F916F9183
:104D70005F914F913F912F910F900BBE0F900FBEFF
:104D80000F901F9018951F920F920FB60F9211243B
:104D90000BB60F922F938F939F93AF93BF93EF9385
:104DA000FF93E091B917F091BA173097B9F00280EC
:104DB000F381E02D938182819817B1F092818581F2
:104DC000282F26952923A081B181A20FB11D2C91F6
:104DD0009F5F89238283209336010BC0E1E3F1E0DA
:104DE00080818F7D808305C0E1E3F1E080818F7D4C
:104DF0008083FF91EF91BF91AF919F918F912F9100
:104E00000F900BBE0F900FBE0F901F901895CF9371
:104E1000DF931F92CDB7DEB7BE016F5F7F4F8091EA
:104E2000BB179091BC177BDD8111F6CF898190E093
:104E30000F90DF91CF910895682F8091BB179091CB
:104E4000BC17EDDC80E090E008958F929F92AF92C6
:104E5000CF92EF920F93812C912C6894AA24A7F8FB
:104E60006894CC24C7F8E12C00E023E040E051EE48
:104E700060E070E02EDC9093BC178093BB17EFEEE0
:104E8000F7E183E192E091838083938382830F91A2
:104E9000EF90CF90AF909F908F90089590E0FC019D
:104EA000EE0FFF1FE80FF91FEE0FFF1FE354F84E40
:104EB000238121111FC09C01220F331FF901E80F2C
:104EC000F91FEE0FFF1FE354F84EA081B1814C9102
:104ED000F901E80FF91FEE0FFF1FE354F84E81E0D0
:104EE00090E0028002C0880F991F0A94E2F7842B99
:104EF0008C930895FC01EE0FFF1FDF01A80FB91F6F
:104F0000AA0FBB1FA354B84E0D90BC91A02D2C919D
:104F1000E80FF91FEE0FFF1FE354F84E81E090E019
:104F2000028002C0880F991F0A94E2F780958223BD
:104F30008C93089590E0FC01EE0FFF1FE80FF91F1E
:104F4000EE0FFF1FE354F84E2381211120C09C0176
:104F5000220F331FF901E80FF91FEE0FFF1FE35473
:104F6000F84EA081B1814C91F901E80FF91FEE0FC5
:104F7000FF1FE354F84E81E090E0028002C0880FEA
:104F8000991F0A94E2F7809584238C930895FC017D
:104F9000EE0FFF1FDF01A80FB91FAA0FBB1FA354FD
:104FA000B84E0D90BC91A02D2C91E80FF91FEE0F7B
:104FB000FF1FE354F84E81E090E0028002C0880FAA
:104FC000991F0A94E2F7822B8C930895CC24C39402
:104FD000D12C6894BB24B2F8CDEBD7E110E08C81E2
:104FE000813081F018F1823061F5E881F98120810A
:104FF000C6010A8002C0880F991F0A94E2F782272F
:1050000080831FC08D818F5F863010F48D8319C01F
:105010001D82E881F9812081C6010A8002C0880FC3
:10502000991F0A94E2F7822780830BC00D81002329
:1050300029F0812F7FDF01500D8303C0BC82812FB7
:105040002DDF1F5F2696143051F66CE070E080E093
:1050500090E00E947B11C0CFEF92FF920F931F93BD
:10506000CF93DF93082F80E487B9CDEBD7E10F2EE4
:10507000F8E2EF2EF12CF02DF982E88286E08A83A7
:105080001B8214E01C8380E009DF80E887B9FF827F
:10509000EE8287E0888719861A8781E0FFDE80E24A
:1050A00083BB84E390E09D878C8785E08E871F8695
:1050B000188B82E0F3DE80E18093010182E091E0D1
:1050C0009B8B8A8B1C8B1D8A1E8B83E0E7DEE12C79
:1050D000F12C20E030E040EC50E06AEE77E086EE24
:1050E00097E20E94760EDF91CF911F910F91FF9072
:1050F000EF900895CF93DF9390E0FC01EE0FFF1F38
:10510000DF01A80FB91FAA0FBB1FA354B84ECD9142
:10511000DC911197488121E030E012960C901297B3
:1051200002C0220F331F0A94E2F724272883FD01CF
:1051300081E08483DF91CF910895CF93DF9390E056
:10514000FC01EE0FFF1FDF01A80FB91FAA0FBB1F45
:10515000A354B84ECD91DC911197488121E030E005
:1051600012960C90129702C0220F331F0A94E2F796
:1051700024272883FD0182E08483DF91CF91089565
:10518000282F30E0F901EE0FFF1FE20FF31FEE0FA3
:10519000FF1FE354F84E93E09483CCCE0895282F5C
:1051A00030E0F901EE0FFF1FE20FF31FEE0FFF1FBC
:1051B000E354F84E94E0948371CE089590E0FC019E
:1051C000EE0FFF1FDF01A80FB91FAA0FBB1FA354CB
:1051D000B84E26E015962C931597FD01148208957C
:1051E00090E0FC01EE0FFF1FDF01A80FB91FAA0F0F
:1051F000BB1FA354B84E15961C921597FD0114823F
:1052000008958091E31781110CC08CE08093B80061
:105210008FEF8093BB0084E08093BC0081E080939B
:10522000E3170895AF92BF92CF92DF92EF92FF9271
:105230000F931F93CF93DF93A82EB62E69017A01A7
:1052400084E090E03AD7EC01892B61F1A88281E0FB
:10525000B81212C0C701B60120EA36E841E050E0BA
:1052600002D7DA01C9014097A109B109B695A795FE
:1052700097958795898311C0C701B60120E83AE167
:1052800046E050E0F0D6DA01C9014097A109B10922
:10529000B695A7959795879589831B830A838C2F4D
:1052A0009D2F02C080E090E0DF91CF911F910F9180
:1052B000FF90EF90DF90CF90BF90AF9008958091D6
:1052C000BC0081700895FF920F931F93CF93DF93DB
:1052D0000097D1F14A30D0F5F42E8B01EC01EFDFCD
:1052E000811136C08091D6179091D717C817D9076A
:1052F00041F087DF89818093B800D093D717C0939E
:10530000D61781E08F0D8093D8178881880F8093FE
:10531000D917FF2089F0F801AAEDB7E14FEF4F0D43
:10532000642F70E0CB010196B801680F791F81915D
:105330008D93E617F707D9F788EF8093210285EA66
:105340008093BC0084E005C086E003C087E001C014
:1053500082E0DF91CF911F910F91FF9008951F93ED
:10536000CF93DF93009729F16B3028F5162FEC01CE
:10537000A6DF811122C08091D6179091D717C81748
:10538000D90741F03EDF89818093B800D093D717C9
:10539000C093D6171093D8178881880F81608093A7
:1053A000D91788EF8093210285EA8093BC0085E0BD
:1053B00005C086E003C087E001C082E0DF91CF91A5
:1053C0001F9108951F920F920FB60F9211240BB6E2
:1053D0000F922F933F934F935F936F937F938F938E
:1053E0009F93AF93BF93EF93FF93E091B9008E2FFC
:1053F00090E0FC013897E135F10508F075C0882789
:10540000E458FF4F8F4F51C61092D517E091D51732
:105410008091D817E81770F481E08E0F8093D5172C
:10542000F0E0E752F84E80818093BB0085E88093DE
:10543000BC0072C084E98093BC008091D617909123
:10544000D717DC011296ED91FC911397309709F470
:1054500063C020E040E050E064E019955DC0E09159
:10546000D51781E08E0F8093D5178091BB00F0E0B7
:10547000E752F84E80838091B900803411F4109285
:10548000D5172091D51730E08091D81790E001977B
:105490002817390724F485EC8093BC003DC085E8CB
:1054A0008093BC0039C08091BB00E091D517F0E03B
:1054B000E752F84E808384E98093BC008091D61730
:1054C0009091D717DC011296ED91FC9113973097CC
:1054D00019F12091D81749ED57E165E019951CC0E5
:1054E00085EA8093BC0018C08091B90080932102A6
:1054F00084E08093BC008091D6179091D717DC018F
:105500001296ED91FC911397309731F020E040E036
:1055100050E0609121021995FF91EF91BF91AF91F9
:105520009F918F917F916F915F914F913F912F91BB
:105530000F900BBE0F900FBE0F901F901895FC019F
:10554000411101C0DBD6842F90E09C01215031092C
:1055500082239323892B09F0D1D6413808F0CED687
:10556000128213824483440F4150458371836083C8
:1055700080E090E008952F923F924F925F926F9259
:105580007F928F929F92AF92BF92CF92DF92EF92D3
:10559000FF920F931F93CF93DF93CDB7DEB7609742
:1055A0000FB6F894DEBF0FBECDBF7C011B016A01B0
:1055B000FC0117821682838181FF2AC39E012F5F1F
:1055C0003F4F3901F7019381F10193FD859193FFDD
:1055D00081911F01882309F417C3853239F493FDA3
:1055E000859193FF81911F01853231F4B70190E0DD
:1055F000D6D756016501E6CF10E0512C912CFFE182
:10560000F915D8F08B3279F038F4803279F08332A2
:10561000A1F4F92DF0612EC08D3261F0803369F470
:10562000292D21602DC0392D3260932E892D846063
:10563000982E2AC0E92DE86015C097FC2DC020EDFA
:10564000280F2A3088F496FE06C03AE0139F200DFA
:105650001124122F19C08AE0589E200D1124522EB9
:10566000E92DE0629E2E10C08E3231F496FCCCC241
:10567000F92DF0649F2E08C08C3621F4292D206866
:10568000922E02C0883641F4F10193FD859193FF7B
:1056900081911F018111B3CF9BEB980F933020F4C0
:1056A000992D9061805E07C09BE9980F933008F0B8
:1056B00059C1992D9F7E96FF16E09F73992E8536CE
:1056C00019F49064992E08C0863621F4392F306879
:1056D000932E02C01111115097FE07C01C3350F4D5
:1056E00044244394410E27E00BC0183038F027E0E3
:1056F00017E005C027E09CE3492E02C0212F412C72
:10570000560184E0A80EB11CF6016081718182818E
:105710009381042DA301F6D56C01F981FC87F0FF7C
:1057200002C0F3FF06C091FC06C092FE06C000E274
:1057300005C00DE203C00BE201C000E08C858C7057
:1057400019F0011143C280C297FE10C04C0CFC85B9
:10575000F4FF04C08A81813309F44A94141474F567
:1057600028E0241578F588E0482E2CC096FC2AC045
:10577000812F90E08C159D059CF03CEFC3163FEF08
:10578000D30674F0892D8068982E0AC0E2E0F0E01C
:10579000EC0FFD1FE10FF11D8081803319F41150D2
:1057A0001111F4CF97FE0EC044244394410E812F73
:1057B00090E0C816D9062CF41C1904C04424439464
:1057C00001C010E097FE06C01C141D0434F4C6018D
:1057D000019605C085E090E002C081E090E00111F3
:1057E0000196112331F0212F30E02F5F3F4F820FC0
:1057F000931F252D30E08217930714F4581A01C027
:10580000512C892D897041F4552031F0B70180E287
:1058100090E0C5D65A94F8CF002321F0B701802F2D
:1058200090E0BDD693FC08C0552031F0B70180E36D
:1058300090E0B5D65A94F8CF97FE4AC04601D7FEFD
:1058400002C0812C912CC60188199909F301E80F37
:10585000F91FFE87ED87960124193109388B2F87B0
:10586000012F10E01195019511093FEF8316930662
:1058700021F4B7018EE290E092D6C814D9044CF01E
:105880008F8598898815990524F4ED85FE85818199
:1058900001C080E3F1E08F1A91082D853E852F5FCE
:1058A0003F4F3E872D878016910624F0B70190E088
:1058B00076D6DBCFC814D90441F49A81963320F40C
:1058C000953319F43C8534FF81E3B70190E048C07B
:1058D0008A81813319F09C859F7E9C87B70190E077
:1058E0005ED6111105C094FC16C085E690E015C087
:1058F000B7018EE290E053D61E5F82E001E0080F10
:10590000F301E80FF11D8081B70190E048D6802FA8
:105910000113F4CFE8CF85E490E0B70140D6D7FC7F
:1059200006C0C114D10441F4EC85E4FF05C0D19454
:10593000C194D1088DE201C08BE2B70190E02FD66F
:1059400080E32AE0C216D1042CF08F5FFAE0CF1A70
:10595000D108F7CFB70190E022D6B701C601C096B3
:105960001ED649C1833631F0833779F0833509F08B
:1059700052C01FC0560132E0A30EB11CF601808157
:10598000898301E010E0630111C05601F2E0AF0E1F
:10599000B11CF601C080D18096FE03C0612F70E07B
:1059A00002C06FEF7FEFC601EFD58C01F92DFF77B5
:1059B00013C0560122E0A20EB11CF601C080D180B6
:1059C00096FE03C0612F70E002C06FEF7FEFC6014B
:1059D00071D58C01F92DF0689F2EF3FD18C0852D2F
:1059E00090E00817190798F4B70180E290E0D7D546
:1059F0005A94F5CFF60197FC859197FE81916F013E
:105A0000B70190E0CCD551105A94015011090115FD
:105A1000110581F7F0C0843611F0893659F5560129
:105A200097FE09C024E0A20EB11CF60160817181CD
:105A3000828193810AC0F2E0AF0EB11CF601608151
:105A40007181072E000C880B990BF92DFF769F2E84
:105A500097FF09C090958095709561957F4F8F4F06
:105A60009F4FF0689F2E2AE030E0A30147D6C82E52
:105A7000C6183EC0092D853721F40F7E2AE030E09C
:105A80001DC0097F8F3691F018F4883559F0BCC0DD
:105A9000803719F0883711F0B7C0006104FF09C0E2
:105AA000046007C094FE08C0066006C028E030E02D
:105AB00005C020E130E002C020E132E0560107FFDE
:105AC00009C084E0A80EB11CF60160817181828159
:105AD000938108C0F2E0AF0EB11CF60160817181C4
