:1000000066C1000085C1000083C1000081C10000FD
:100010007FC100007DC100007BC1000079C10000EC
:1000200077C1000075C1000073C1000071C10000FC
:10003000D3C600006DC100006BC1000069C10000A3
:1000400067C1000065C1000063C1000061C100001C
:100050005FC100005DC100005BC1000059C100002C
:1000600057C100000C9437250C94892551C100001C
:100070004FC100004DC100004BC1000049C100004C
:1000800047C1000045C1000043C1000041C100005C
:100090000C94CD250C941F263BC100000C946A2AB9
:1000A00037C1000035C1000033C1000031C100007C
:1000B0002FC100002DC100002BC1000029C100008C
:1000C00027C1000025C1000023C100000C94632655
:1000D0000C94B5261DC100000C94F9260C944B27F6
:1000E00017C10000DF1ADF1ADF1A161B1E1B331B95
:1000F000DF1ADF1A161B1E1B8C2AFC2AFC2AFC2A7C
:10010000FC2AFC2AFC2AFC2A8C2AFC2AFC2AFC2A2F
:10011000FC2AFC2AFC2AFC2A8E2AFC2AFC2AFC2A1D
:10012000FC2AFC2AFC2AFC2AFC2AFC2AFC2AFC2A9F
:10013000FC2AFC2AFC2AFC2A8E2AFC2AFC2AFC2AFD
:10014000FC2AFC2AFC2AFC2AFC2AFC2AFC2AFC2A7F
:10015000FC2AFC2AFC2AFC2AF82AFC2AFC2AFC2A73
:10016000FC2AFC2AFC2AFC2AC32AFC2AFC2AFC2A98
:10017000FC2AFC2AFC2AFC2AFC2AFC2AFC2AFC2A4F
:10018000FC2AFC2AFC2AFC2AB72AFC2AFC2AFC2A84
:10019000FC2AFC2AFC2AFC2ADB2A6E616E00696EAE
:1001A000660000407A10F35A00A0724E1809001041
:1001B000A5D4E80000E87648170000E40B540200DC
:1001C00000CA9A3B000000E1F50500008096980007
:1001D000000040420F000000A08601000000102730
:1001E00000000000E80300000000640000000000C0
:1001F0000A00000000000100000000002C76D888F2
:10020000DC674F0823DFC1DFAE59E1B1B796E5E304
:10021000E453C63AE651997696E8E6C28426EB891D
:100220008C9B62ED407C6FFCEFBC9C9F40F2BAA5BA
:100230006FA5F490055A2AF75C936B6CF9676DC152
:100240001BFCE0E40D47FEF520E6B500D0ED902E56
:100250000300943577050080841E080000204E0AB4
:10026000000000C80C333333330F986E12831141F2
:10027000EF8D2114893BE65516CFFEE6DB18D184BD
:100280004B381BF77C1D901DA4BBE42420328472E4
:100290005E228100C9F124ECA1E53D270E94210ED8
:1002A0008091E116823008F0D1D40E945C1BF6CF19
:1002B000CF93DF931F92CDB7DEB7CE0101960E9498
:1002C0005C1849810E94511A0E94A81AF6CF112485
:1002D0001FBECFEFD1E2DEBFCDBF00E00CBF18E004
:1002E000A0E0B2E0EAE1F9E600E00BBF02C007904F
:1002F0000D92AE3BB107D9F728E1AEEBB8E001C0F3
:100300001D92A73DB207E1F70E94081E0C948B34A2
:1003100077CECF93DF93CDB7DEB76A970FB6F89459
:10032000DEBF0FBECDBF0E94720F69837A838B83BD
:100330009C8348EA58E460E070E0CE0101960E9498
:10034000881145E050E060E070E08091C61890911F
:10035000C718C7D1CC24CA94DC2C760101E021E077
:100360004AE050E060E070E08091C4189091C518B8
:1003700018D1DC01CB018A709927AA27BB27892BCA
:100380008A2B8B2BB1F20E94671C0E94801B0E945B
:100390006C1C0E94851B0E94E91B0E948A1B62E064
:1003A000CE0105960E948F1B0FEF1FEF980146E1CB
:1003B00050E0BE016B5F7F4F8091C8189091C918C3
:1003C0000E944A0B863129F08FE692E00E94CE33DC
:1003D000B0CF99279F938F938AE792E09F938F9353
:1003E0000E94BA330F900F900F900F90A2CFEF9210
:1003F000FF920F93E12CF12C082F20E030E040EC2D
:1004000050E063E972E089E891E00E94E80E0F9104
:10041000FF90EF90089589E190E008950FEF1FEFAE
:10042000980146E150E06EEB78E08091CA18909117
:10043000CB180E94530C882389F3EEEBF8E09181EE
:1004400080811F929F931F928F9383EA92E09F93E4
:100450008F930E94BA330F900F900F900F900F90D0
:100460000F90DCCFEF92FF920F93E12CF12C082F2D
:1004700020E030E048E851E064ED72E08EE092E088
:100480000E94E80E0F91FF90EF900895CF93DF93B5
:1004900000D01F92CDB7DEB70E94720F69837A83B6
:1004A0008B839C8340E15DE160E070E0CE010196CA
:1004B0000E948811B0DF7C010E94241C0E94671CEE
:1004C0008C010E946C1CC8016AE070E00E94BB3085
:1004D0008B011F936F9383EE92E09F938F930E9403
:1004E000BA33FF92EF9285EF92E09F938F930E9431
:1004F000BA330FB6F894DEBF0FBECDBFE016F106DB
:1005000014F412B8CFCF8FEF82B9CCCFEF92FF9215
:100510000F939FEF91B992B9E12CF12C082F20E0B5
:1005200030E040EC50E069E073E086E492E00E9445
:10053000E80E0F91FF90EF9008950F9301110CC0FA
:10054000DC01CB0182239323A423B523892B8A2B9F
:100550008B2B79F480E010C0DC01CB018223932344
:10056000A423B523281739074A075B0721F080E049
:1005700003C081E001C081E00F910895CF93DF9324
:100580008FE090E0AFD1EC01009739F0FC011192BF
:10059000119211921192CF018BD2CE01DF91CF91A6
:1005A00008952F923F924F925F926F927F928F9217
:1005B0009F92AF92BF92CF92DF92EF92FF920F93F2
:1005C0001F93CF93DF93EC014A015B01622E702EE3
:1005D0000E946C0F288039804A805B80A5019401BD
:1005E000C201B101AADF8823A1F0662089F1D501FB
:1005F000C40180959095A095B09582219321A42166
:10060000B52188839983AA83BB83C12CD12C760121
:1006100022C0C114D104E104F104E9F0611004C066
:1006200040E050E0BA0104C040E050E060E071E01A
:1006300071107460482959296A297B29970186011C
:10064000CE0104960E948412212C312C210103C07A
:10065000C12CD12C76010E94AC10CD28CE28CF28F9
:1006600059F1811101C0F2D20E9458156B017C0131
:1006700091FD1FC00FB6F8940F92C880D980EA8010
:10068000FB80072DA5019401C701B60156DF882321
:1006900071F0662061F080949094A094B0948C20C6
:1006A0009D20AE20BF2088829982AA82BB820F90B3
:1006B0000FBE160127015524C201B101DF91CF9170
:1006C0001F910F91FF90EF90DF90CF90BF90AF9070
:1006D0009F908F907F906F905F904F903F902F9062
:1006E00008954F925F926F927F92AF92BF92CF9296
:1006F000DF92EF92FF920F931F93CF93DF93EC0162
:100700006A017B018C01095F1F4F0E946C0FEB8512
:10071000FC8588819981AA81BB81C82AD92AEA2AC5
:10072000FB2AC882D982EA82FB82C12CD12C7601B5
:100730003DC0A480B58080819181A281B381AC014C
:10074000BD017727B2FD0EC0488059806A807B804A
:10075000442255226622772245284628472889F4D4
:1007600020E012C0488059806A807B804422552254
:1007700066227722441555056605770521F020E0AD
:1007800003C021E001C021E0222371F0B0FF04C0CA
:10079000C42AD52AE62AF72A488159816A817B81B1
:1007A0007260CF010E94BF13EA2DFB2DE017F10705
:1007B00009F0BFCFC094D094E094F09488819981DF
:1007C000AA81BB81C822D922EA22FB22C882D9820F
:1007D000EA82FB820E94AC10688179818A819B81C8
:1007E000DF91CF911F910F91FF90EF90DF90CF900D
:1007F000BF90AF907F906F905F904F900895E0EE24
:10080000F8E0A4EEB8E0B183A08313821282ECE892
:10081000F6E1F093DF08E093DE0813821282118282
:10082000108288EA9DE013969C938E931297ED9325
:10083000FC939093DB088093DA089093DD08809313
:10084000DC0880E090E89093D5088093D408089560
:10085000CF93DF93EC01A0EEB8E001C0DF01ED9192
:10086000FC911197EC17FD07C8F312968D919C919E
:1008700013979D01280F391FC217D30749F42A8106
:100880003B81820F931F13969C938E931297ED01D9
:100890008A819B819E01280F391FE217F307C1F45B
:1008A0002091DE083091DF08E217F30771F0228112
:1008B0003381820F931F9B838A83ED91FC91119763
:1008C000808191819983888305C03983288302C000
:1008D000F983E883CA17DB0711F0CD93DC93DF912E
:1008E000CF910895EF92FF920F931F93CF93DF93D1
:1008F0008C010E946C0F8091DE089091DF08892B9B
:1009000009F47DDF8091D4089091D508802391234C
:10091000892B09F076C00115110549F0C80104962C
:100920000817190718F000E010E001C08C0101154C
:10093000110509F469C08091DC089091DD088017E9
:10094000910708F464C0C091E008D091E108E0EE9E
:10095000F8E002C0FE01EC018A819B8180179107BB
:1009600020F4888199810097A9F78091DE08909101
:10097000DF08C817D90709F44DC0E080F18084E092
:10098000E80EF11C88819981918380832A813B81C3
:10099000201B310B2930310548F0CE01800F911F0B
:1009A000FC01338322831B830A8352DF2A813B812C
:1009B0008091DC089091DD08821B930B9093DD08F9
:1009C0008093DC084091DA085091DB088417950782
:1009D00020F49093DB088093DA088091D4089091FA
:1009E000D508282B392B3B832A83198218828091C2
:1009F000D8089091D90801969093D9088093D80887
:100A00000BC0E12CF12C08C0E12CF12C05C0E12C2D
:100A1000F12C02C0E12CF12C0E94AC10E114F10485
:100A200011F40E94681BC701DF91CF911F910F91B4
:100A3000FF90EF9008950F931F93CF93DF9300974C
:100A400091F1EC0124974A815B812091D408309187
:100A5000D508BA0162237323672B29F16881798154
:100A6000672B09F520953095242335233B832A8372
:100A70000E946C0F8A819B812091DC083091DD08F7
:100A8000820F931F9093DD088093DC08CE01E0DE97
:100A90008091D6089091D70801969093D7088093BB
:100AA000D6080E94AC10DF91CF911F910F9108954D
:100AB000FC010396928381834FEF5FEFBA0143837A
:100AC000548365837683908787839287818710829A
:100AD0000895FC011386128608950F931F93CF93F8
:100AE000DF93EB01088119812A813B810F3F4FEF92
:100AF00014072407340721F4FC01A185B28511C035
:100B0000DC01139601C0DF011496ED91FC9115975D
:100B100040815181628173810417150726073707C9
:100B200090F71496ED91FC911597FD83EC83D78394
:100B3000C683BF83AE831596DC93CE9314979B87B1
:100B40008A87FC0120812F5F2083DF91CF911F9145
:100B50000F910895CF93DF93FC01A285B385C481E3
:100B6000D581868197819F838E83C681D781848139
:100B700095819D838C8311968D919C911297E81796
:100B8000F90731F48681978112969C938E93119781
:100B9000138612868C9181508C938C91DF91CF912A
:100BA0000895A89590EC88E10FB6F894A8958093E5
:100BB00060000FBE909360000895FC016083319740
:100BC00070833197108231971082319720E820830B
:100BD0003197108231971082319710827797408336
:100BE0003197508386970895DCDFA0914F17B0911D
:100BF0005017CD91CDBFDD91DEBFFF91EF91DF9119
:100C0000CF91BF91AF919F918F917F916F915F91A4
:100C10004F913F912F911F910F91FF90EF90DF9097
:100C2000CF90BF90AF909F908F907F906F905F908C
:100C30004F903F902F901F900F900CBE0F900BBEC7
:100C40000F900FBE0F90089581E008950F920FB698
:100C5000F8940F920BB60F920CB60F921F921124BC
:100C60002F923F924F925F926F927F928F929F92BC
:100C7000AF92BF92CF92DF92EF92FF920F931F93AA
:100C80002F933F934F935F936F937F938F939F9394
:100C9000AF93BF93CF93DF93EF93FF93A0914F1741
:100CA000B09150170DB60D920EB60D920E9408121B
:100CB000A0914F17B0915017CD91CDBFDD91DEBF00
:100CC000FF91EF91DF91CF91BF91AF919F918F9164
:100CD0007F916F915F914F913F912F911F910F9154
:100CE000FF90EF90DF90CF90BF90AF909F908F904C
:100CF0007F906F905F904F903F902F901F900F903C
:100D00000CBE0F900BBE0F900FBE0F9008950F9268
:100D10000FB6F8940F920BB60F920CB60F921F926B
:100D200011242F923F924F925F926F927F928F92F7
:100D30009F92AF92BF92CF92DF92EF92FF920F936A
:100D40001F932F933F934F935F936F937F938F9353
:100D50009F93AF93BF93CF93DF93EF93FF93A091B4
:100D60004F17B09150170DB60D920EB60D9213BEDF
:100D70000E94800F81110E940812A0914F17B0911C
:100D80005017CD91CDBFDD91DEBFFF91EF91DF9187
:100D9000CF91BF91AF919F918F917F916F915F9113
:100DA0004F913F912F911F910F91FF90EF90DF9006
:100DB000CF90BF90AF909F908F907F906F905F90FB
:100DC0004F903F902F901F900F900CBE0F900BBE36
:100DD0000F900FBE0F9008959ADF18950FB6F894F4
:100DE0000F92FC01868D811102C081E001C080E07C
:100DF0000F900FBE08950FB6F8940F92FC01268D48
:100E0000878D281302C081E001C080E00F900FBEE3
:100E100008950F931F93CF93DF93EC01042F1E8D42
:100E200048A141110CC088819981892B09F042C0E9
:100E30008C819D810E94FD141D821C8242C0011183
:100E400017C050E08A819B810E94143328A18A81B7
:100E50009B81820F911D9B838A832C813D81821708
:100E6000930750F1888199819B838A8380E029C010
:100E700050E08E819F810E94143388A190E091956B
:100E8000819591092E813F81280F391F3F832E8341
:100E9000488159812417350730F42C813D81820F18
:100EA000931F9F838E83023049F4112349F0115020
:100EB00080E007C080E005C080E003C080E001C0A2
:100EC00080E01F5F1E8FDF91CF911F910F910895DA
:100ED000FC0140A14423A9F050E026813781240F72
:100EE000351F37832683848195812817390720F0A1
:100EF0008081918197838683CB01668177810C9471
:100F0000143308951F93CF93DF93EC010FB6F89439
:100F10000F921AA10BC08B89882351F0CE01439602
:100F20000E94101381110E94E614115011169CF3B7
:100F30008FEF8AA30F900FBE0FB6F8940F9219A1EE
:100F40000BC08885882351F0CE0108960E941013AB
:100F500081110E94E614115011169CF38FEF89A3A2
:100F60000F900FBEDF91CF911F910895CF93DF9324
:100F7000EC010FB6F8940F92E881F9818F8D28A1CA
:100F800090E030E0829FA001839F500D929F500D12
:100F900011244E0F5F1F5D834C831E8EFB83EA83FB
:100FA0000197289FA001299F500D389F500D1124B3
:100FB000CF01840F951F9F838E838FEF89A38AA310
:100FC00061110BC08885882371F0CE0108960E94BC
:100FD0001013882341F03ADE06C0CE01089668DD82
:100FE000CE01439665DD0F900FBE81E0DF91CF917A
:100FF00008950F931F93F801611103C011830083BB
:1010000002C051834083878F60A361E0CF01AEDFD0
:101010001F910F910895DF92EF92FF920F931F930C
:10102000CF93DF93F82EE62ED42E869FC001112495
:10103000839658DCEC01009741F08C012D2DAC011A
:101040004D5D5F4F6E2D8F2DD4DFCE01DF91CF919F
:101050001F910F91FF90EF90DF900895CF92DF9254
:10106000EF92FF920F931F93CF93DF93CDB7DEB72D
:1010700029970FB6F894DEBF0FBECDBF7C016B0180
:101080002E833F834887598710E00FB6F8940F925C
:10109000F701968D878D981710F00230B1F4402F2C
:1010A000B601C701B6DEF7019389992341F0C70164
:1010B00043960E941013882321F0C8DD02C08111DD
:1010C000C5DD0F900FBE81E04BC08E819F81A8854A
:1010D000B985892B8A2B8B2B21F40F900FBE80E0D2
:1010E0003FC0111105C0CE0101960E946F1411E09E
:1010F0000F900FBEF1D60FB6F8940F92F70181A1B1
:101100008F3F09F411A2F70182A18F3F09F412A2C7
:101110000F900FBEBE016A5F7F4FCE0101960E9405
:101120008014811119C0C70166DE882381F04E81C9
:101130005F8168857985C70108960E946D12C70195
:10114000E1DE0E94AC108111A0CF80DD9ECFC701EF
:10115000D9DE0E94AC1099CFC701D4DEFDD780E064
:1011600029960FB6F894DEBF0FBECDBFDF91CF91A9
:101170001F910F91FF90EF90DF90CF900895EF9225
:10118000FF920F931F93CF93DF938A01FC01568D3B
:10119000378D531710F02230F9F4422F7801EC010B
:1011A0001AA18E8DCE0135DE1F3F81F48B898823F5
:1011B000A9F0CE0143960E941013882389F0E11410
:1011C000F10481F081E0F70180830DC0FF24F394E6
:1011D000F10EFAA281E007C080E005C081E003C003
:1011E00081E001C081E0DF91CF911F910F91FF90CD
:1011F000EF900895CF92DF92EF92FF920F931F939B
:10120000CF93DF93CDB7DEB729970FB6F894DEBF43
:101210000FBECDBF8C016B012E833F83488759875A
:10122000E12C0FB6F8940F92F801F68CFF2099F09C
:10123000B601C8014DDEFA94F801F68E8085882348
:1012400031F0C80108960E9410138111FFDC0F9045
:101250000FBE81E04FC08E819F81A885B985892B03
:101260008A2B8B2B21F40F900FBE80E043C0E1103E
:1012700006C0CE0101960E946F14EE24E3940F90F5
:101280000FBE2AD60FB6F8940F92F80181A18F3FB6
:1012900009F411A2F80182A18F3F09F412A20F9064
:1012A0000FBEBE016A5F7F4FCE0101960E9480147F
:1012B000811117C0C80192DD882379F04E815F81CA
:1012C00068857985C80143960E946D12C8011ADEAF
:1012D00043D78111A6CFBADCA4CFC80113DE3CD717
:1012E000A0CFC8010FDE38D7C80178DD882309F404
:1012F00098CF80E029960FB6F894DEBF0FBECDBF21
:10130000DF91CF911F910F91FF90EF90DF90CF90E1
:101310000895CF93DF93EC010FB6F8940F9289A153
:101320008F3F09F419A28AA18F3F09F41AA20F90E6
:101330000FBE8E8D811104C0CE0143960E94CE1245
:10134000CE01E0DDDF91CF910895FC01448155810C
:1013500022813381240F351F80819181B901681B5F
:10136000790BCB016417750710F0841B950B08955A
:101370000F93FC018FE0DF011D928A95E9F77587D5
:101380006487558344833783268306870F910895A6
:10139000AF92BF92CF92DF92EF92FF920F931F9383
:1013A000CF93DF936C015B017A01FC01C281D38191
:1013B000048115810C1B1D0B4017510708F48A018D
:1013C000F60184859585A801B5018C0F9D1F0E94AB
:1013D00014330E151F0558F4A701401B510BB5011E
:1013E000600F711FF601848595850E941433CE012C
:1013F0008E0D9F1DF601248135818217930710F011
:10140000821B930BF60193838283C701DF91CF91F7
:101410001F910F91FF90EF90DF90CF90BF90AF9012
:101420000895CF92DF92EF92FF920F931F93CF9385
:10143000DF931F921F92CDB7DEB77C016B015A83F9
:10144000498321153105C1F0FC01868580FD08C066
:101450004217530708F49A013A83298381E00FC0A9
:101460002017310758F042E050E0BE016F5F7F4F18
:10147000C7018EDF81E003C080E001C080E08823E7
:1014800031F049815A81B601C70182DF02C080E094
:1014900090E00F900F90DF91CF911F910F91FF90EF
:1014A000EF90DF90CF900895AF92BF92CF92DF92EE
:1014B000EF92FF920F931F93CF93DF937C015B0119
:1014C000E9014217530708F4EA01209781F1F70177
:1014D0000081118184819581801B910B6E018C1795
:1014E0009D0708F46C01F70164857585600F711F15
:1014F000A601C5010E941433CC16DD0658F4AE01D6
:101500004C195D09F70164857585C5018C0D9D1D1C
:101510000E9414330C0F1D1FF70184819581081759
:10152000190710F0081B190BF70111830083CE0176
:10153000DF91CF911F910F91FF90EF90DF90CF90AF
:10154000BF90AF9008956F927F928F929F92AF92CB
:10155000BF92CF92DF92EF92FF920F931F93CF93A0
:10156000DF931F921F92CDB7DEB76C014B015A017A
:10157000790101151105B1F0FC0160807180A801AD
:10158000BE016F5F7F4F90DF89819A81E01AF10A77
:10159000A816B90630F4F60171826082A12CB12C34
:1015A00001C05C019701A501B401C6017DDF0F9068
:1015B0000F90DF91CF911F910F91FF90EF90DF90EF
:1015C000CF90BF90AF909F908F907F906F90089535
:1015D000CF92DF92EF92FF920F93CF93DF93EC01C4
:1015E0006B01413011F401E001C000E0C114D104ED
:1015F00019F4CC24C394D12CCE014096C817D90736
:1016000020F421966FD97C0102C0E12CF12CE11469
:10161000F10439F09601AE01B701615F7F4FC70158
:10162000A7DEC701DF91CF910F91FF90EF90DF9080
:10163000CF9008950F930FB6F8940F92FC01208578
:101640003185232B71F422853385232B61F4268188
:1016500037814481558164857585068589DE81E001
:1016600003C080E001C080E00F900FBE0F9108958D
:10167000FC012481358180819181820F931F4281F9
:101680005381841B950B01978217930710F0821BDF
:10169000930B08952F923F924F925F926F927F9299
:1016A0008F929F92AF92BF92CF92DF92EF92FF9272
:1016B0000F931F93CF93DF93CDB7DEB72B970FB662
:1016C000F894DEBF0FBECDBF4C017B876A871A013D
:1016D0000E831F8328873987FC01848195810197B8
:1016E000268520FF0CC02A01F2E04F0E511C841504
:1016F000950558F41E821F821886198606C0841725
:10170000950710F02A0101C02C018E819F81A885C8
:10171000B985892B8A2B8B2B09F438C0CE01019611
:101720000E9459140FB6F8940F92C401A1DF3C0136
:101730008415950540F560E080E090E00E94421835
:101740000E94EA14F401938782870F900FBEAE8047
:10175000BF80C884D984E12CF12C00E010E098010E
:1017600040E050E0BA0180E00E948215F401138647
:101770001286BE016A5F7F4FCE0101960E948014DF
:10178000882381F205C00F900FBE02C0612C712C1E
:101790006114710419F4C4016BDF3C0182019301EF
:1017A000A1016A857B85C4013CDE6C01892BE9F0CF
:1017B000C401CBDDF4012681378182179307A8F09D
:1017C0008BD3F40180859185892B71F0808591857B
:1017D000E12CF12C00E020E030E0A90160E00E9463
:1017E0002916F40111861086B7D4C6012B960FB6C0
:1017F000F894DEBF0FBECDBFDF91CF911F910F9147
:10180000FF90EF90DF90CF90BF90AF909F908F9020
:101810007F906F905F904F903F902F900895AF9280
:10182000BF92CF92DF92EF92FF920F931F93CF93CD
:10183000DF93EC017B015A0169018E8580FF04C0B2
:101840008A010E5F1F4F01C08A01CE0111DF9C018A
:10185000A501B701CE01E5DD5C01892BC1F0CE0108
:1018600074DD2E813F818217930788F088859985E2
:10187000892B69F088859985E12CF12C00E020E026
:1018800030E0A90160E00E94201719861886C50182
:10189000DF91CF911F910F91FF90EF90DF90CF904C
:1018A000BF90AF9008954F925F926F927F928F9208
:1018B0009F92AF92BF92CF92DF92EF92FF920F93DF
:1018C0001F93CF93DF93EC012B013A01580169017B
:1018D0008E8580FF05C06894882481F8912C02C011
:1018E000812C912CA114B104C104D10441F10FB693
:1018F000F8940F92CE0129DD7C018816990648F0F4
:1019000060E080E090E00E9442180E94EA1499870B
:1019100088870F900FBE8E149F04A0F0E12CF12C4D
:1019200000E010E0980140E050E0BA0180E00E9441
:10193000821519861886CE0108DD7C0103C0CE0110
:1019400004DD7C018E149F04E8F484019701A30157
:10195000B201CE01F8DD6C01892BB1F0BDD28A85D0
:101960009B85892B69F08A859B85E12CF12C00E011
:1019700020E030E0A90160E00E9429161B861A864B
:10198000EBD302C0C12CD12CC601DF91CF911F91A6
:101990000F91FF90EF90DF90CF90BF90AF909F900E
:1019A0008F907F906F905F904F900895E091C9164F
:1019B000F091CA16808181110CC08FEF9FEFDC017E
:1019C0008093931690939416A0939516B0939616C1
:1019D0000895E091C916F091CA160780F085E02DB0
:1019E00080819181A281B381809393169093941604
:1019F000A0939516B09396160895CF93DF93EC01BC
:101A00008B8D9C8D18D8CE0116D8DF91CF9108957B
:101A10004F925F926F927F928F929F92AF92BF92FE
:101A2000CF92DF92EF92FF920F93CF93DF932C012F
:101A30005B014A013901E60165EA70E08B8D9C8DFE
:101A40000E941D338B8D9C8D21E0821A9108880E97
:101A5000991EA114B10489F415C0822F90E0F501FC
:101A6000E80FF91F3081DE01A80FB91F5D963C9386
:101A70008081882329F02F5F01C020E0203168F3A6
:101A80001CA601C01D8E0A3008F009E00A8F0DA7C0
:101A90001EA6CE0102961DD8CE010E961AD8DB875F
:101AA000CA878AE090E0A0E0B0E0801B9109A1091C
:101AB000B1098E879F87A88BB98BDF8BCE8B84E093
:101AC000FE01BF96DF011D928A95E9F71BAAA301CB
:101AD000B201C40172D899838883E114F10419F02A
:101AE000F701D183C083DF91CF910F91FF90EF90E9
:101AF000DF90CF90BF90AF909F908F907F906F902E
:101B00005F904F900895CF93C0E009C02BE0C29F33
:101B1000C00111248F51994E0E945805CF5FCA30E1
:101B2000A8F386ED96E10E9458058BEC96E10E94A1
:101B300058058CEB96E10E94580581EB96E10E94D6
:101B4000580585EA96E10E94580586ED96E1909346
:101B5000CA168093C9168BEC96E19093C8168093B1
:101B6000C716CF910895CF93DF93EC010FB6F89489
:101B70000F928091A4168F5F8093A41680914F17C7
:101B800090915017892B51F4D0935017C0934F1751
:101B90008091A416813091F4B6DF10C080919E161A
:101BA00081110CC0E0914F17F0915017928D8A8DE2
:101BB000891720F0D0935017C0934F178091971634
:101BC0008F5F80939716EA8D80919F168E1710F481
:101BD000E0939F168BE08E9FF0011124EF51F94E98
:101BE0000180F281E02DFF83EE83268137813987E2
:101BF0002887A681B7819E012E5F3F4F15963C93A3
:101C00002E93149737832683EA8D8E9FF00111243B
:101C1000EF51F94EFD87EC8780818F5F80830F90B5
:101C20000FBE80919E16882349F0E0914F17F091E6
:101C30005017928D8A8D981708F408D8DF91CF91AC
:101C40000895CF93DF931BC00FB6F8940F92E091E5
:101C5000B816F091B916C085D185CE0102960E94C2
:101C6000AA058091A41681508093A4168091B01685
:101C700081508093B0160F900FBECE01BEDE8091D2
:101C8000B0168111E1CFDF91CF9108958F929F928D
:101C9000AF92BF92CF92DF92EF92FF92CF93DF93FA
:101CA0006B017C01C42F8090A0169090A116A0908B
:101CB000A216B090A31680914F17909150170296DC
:101CC0000E94AA058FEFC816D806E806F806B1F5F7
:101CD000CC23A1F1E5EAF6E1A181B281C0914F17D1
:101CE000D0915017BF83AE83C0914F17D09150173A
:101CF00016968D919C911797998788871696CD9106
:101D0000DC91179780914F179091501702969D8301
:101D10008C8380914F1790915017029617969C9341
:101D20008E931697A0914F17B09150171D96FC9364
:101D3000EE931C9780818F5F80833FC0C80CD91CB5
:101D4000EA1CFB1CE0914F17F0915017C282D3821E
:101D5000E482F582C814D904EA04FB0468F46091B3
:101D60004F17709150178091C7169091C8166E5FEB
:101D70007F4F0E946D0521C060914F1770915017E1
:101D80008091C9169091CA166E5F7F4F0E946D05B3
:101D90008091931690919416A0919516B0919616F5
:101DA000C816D906EA06FB0640F4C0929316D092F4
:101DB0009416E0929516F0929616DF91CF91FF90CF
:101DC000EF90DF90CF90BF90AF909F908F9008954D
:101DD0002F923F924F925F926F927F928F929F923B
:101DE000AF92BF92CF92DF92EF92FF920F93CF9379
:101DF000DF933C011B014A012901CA010E947204C0
:101E00006C01892B71F084E390E00E947204EC0174
:101E1000892B19F0DC8ECB8E06C0C6010E941B05F3
:101E200002C0C0E0D0E0209761F0A12CB12C6E017F
:101E30009201A401B101C301EBDDCE0194DE81E08A
:101E400001C08FEFDF91CF910F91FF90EF90DF9066
:101E5000CF90BF90AF909F908F907F906F905F904A
:101E60004F903F902F900895EF92FF920F930F2E77
:101E7000F1E9EF2EF6E1FF2EF02D00E020E030E05A
:101E800040EC50E067E173E08EE491E0A1DF813047
:101E900011F40E94E6188130C9F4F8948FEF9FEF97
:101EA000DC018093931690939416A0939516B093AB
:101EB000961681E080939E161092A0161092A1169D
:101EC0001092A2161092A3160E94F40580910602A9
:101ED0000F91FF90EF900895809190168F5F8093FF
:101EE000901608950FB6F8940F926091A016709115
:101EF000A1168091A2169091A3160F900FBE08957F
:101F0000CF92DF92EF92FF92CF93DF938091901662
:101F1000811105C1C090A016D090A116E090A21624
:101F2000F090A3168FEFC81AD80AE80AF80AC092F0
:101F3000A016D092A116E092A216F092A316C11498
:101F4000D104E104F104B1F48091C9169091CA164C
:101F50002091C7163091C8163093CA162093C9161F
:101F60009093C8168093C716809198168F5F8093C0
:101F700098161CDD8091931690919416A091951659
:101F8000B0919616C816D906EA06FB0620F480E042
:101F9000B2C081E001C080E0E091C916F091CA169C
:101FA000908191110CC04FEF5FEFBA0140939316EF
:101FB0005093941660939516709396169CC0E0917A
:101FC000C916F091CA160780F085E02D0084F185CE
:101FD000E02D4281538164817581C416D506E606E1
:101FE000F70648F440939316509394166093951611
:101FF0007093961680C0A485B585C681D78120854B
:1020000031853F832E83C085D185268137813D83ED
:102010002C8311964D915C9112979F012E5F3F4F3B
:102020004217530731F44085518512965C934E93C5
:102030001197158614869C9191509C93A08DB18D1B
:10204000109709F1C289D389448955895F834E83EA
:10205000C489D589428953895D834C8311966D91DA
:102060007C911297AF01425F5F4F6417750731F49F
:102070004489558912965C934E931197118E108E58
:102080009C9191509C93A28D90919F169A1710F459
:10209000A0939F169BE09A9FD0011124AF51B94E97
:1020A00011960D90BC91A02DB783A68316964D91E5
:1020B0005C911797518740871696CD91DC911797C1
:1020C0003D832C8317963C932E931697A28D9A9F4F
:1020D000D0011124AF51B94EB587A4879C919F5F61
:1020E0009C93228DE0914F17F0915017928D2917F4
:1020F00008F04FCF51CFE0914F17F0915017E28D7C
:102100009BE0E99FF0011124EF51F94E908192304C
:1021100008F081E090919916911116C016C0809137
:102120009A1690919B16A0919C16B0919D160196BF
:10213000A11DB11D80939A1690939B16A0939C1697
:10214000B0939D1680E001C081E0DF91CF91FF90B8
:10215000EF90DF90CF900895CF92DF92EF92FF92B1
:10216000CF93DF930FB6F8940F9280919016815021
:1021700080939016809190168111BEC08091A41614
:10218000811188C0BCC0E091C316F091C4160084D0
:10219000F185E02DA08DB18DC289D389848995897F
:1021A0009F838E83C489D589828993899D838C83FB
:1021B00011962D913C911297CF010E962817390751
:1021C00031F48489958912969C938E931197118E80
:1021D000108E8C9181508C93A485B585C681D78152
:1021E000808591859F838E83C085D18586819781E7
:1021F0009D838C8311968D919C9112979F012E5FE8
:102200003F4F8217930731F48085918512969C93F6
:102210008E931197158614868C9181508C93A28D84
:1022200080919F168A1710F4A0939F168BE08A9FC7
:10223000D0011124AF51B94E11960D90BC91A02D33
:10224000B783A68316964D915C9117975187408767
:102250001696CD91DC9117973D832C8317963C936E
:102260002E931697A28D8A9FD0011124AF51B94E9B
:10227000B587A4878C918F5F8C93928DA0914F1717
:10228000B09150175A968C91981730F081E0809356
:10229000991602C0E0E0F0E08091BC16811173CF86
:1022A000EF2B09F083DBC0909A16D0909B16E0903C
:1022B0009C16F0909D16C114D104E104F104A1F024
:1022C0001FDE882319F081E08093991681E0C81AF7
:1022D000D108E108F108A1F710929A1610929B1606
:1022E00010929C1610929D1680919916882331F0B9
:1022F0000E94260681E003C080E001C080E00F90CC
:102300000FBEDF91CF91FF90EF90DF90CF900895B7
:102310008F929F92AF92BF92CF92DF92EF92FF92F5
:102320001F93CF93DF93EC016A017B01D5DD809091
:10233000A0169090A116A090A216B090A316888126
:102340009981AA81BB81AC01BD014C0D5D1D6E1D43
:102350007F1D88169906AA06BB0660F44817590720
:102360006A077B0798F484169506A606B70680F0E0
:1023700010E013C0481759076A077B0758F0841606
:102380009506A606B70640F010E007C010E005C0AD
:1023900011E003C011E001C011E0488359836A8352
:1023A0007B83112341F0CB01BA01681979098A09AD
:1023B0009B0940E06BDCD0DE811102C00E94260642
:1023C000812FDF91CF911F91FF90EF90DF90CF9001
:1023D000BF90AF909F908F900895CF92DF92EF9231
:1023E000FF926B017C01672B682B692B39F074DD40
:1023F00040E0C701B6014ADCAFDE01C080E08111D8
:1024000002C00E942606FF90EF90DF90CF900895C3
:1024100080919016882321F081E080939916089589
:1024200010929916E0914F17F09150172081318149
:10243000E0914F17F0915017838D948D8217930779
:1024400060F060914F1770915017635E7F4F8091DD
:102450004F17909150170E94741B80919F1601C0D6
:102460008150282F30E09BE0929FF001939FF00D68
:102470001124EF51F94E9081992391F39BE0929FA3
:10248000A001939F500D1124DF010180F281E02D06
:102490000480F581E02D1296FC93EE9311974C5138
:1024A000594EE417F50729F444815581FD01528303
:1024B00041839BE0929FF001939FF00D1124EF5117
:1024C000F94E0180F281E02D20853185309350173F
:1024D00020934F1780939F160895CF92DF92EF922B
:1024E000FF926A017B0160914F1770915017625FF4
:1024F0007F4F0E946D0541E0C701B601C7DBFF9029
:10250000EF90DF90CF9008950F931F93CF93DF93B9
:10251000FC01A0914F17B091501770681E964D9313
:102520005D936D937C935197A181B281C0914F17B8
:10253000D0915017BB8BAA8BC0914F17D0915017D9
:1025400016968D919C9117979D8B8C8B1696CD919D
:10255000DC91179780914F17909150170E969D839D
:102560008C8380914F17909150170E9617969C93DD
:102570008E931697A0914F17B09150175996FC93D0
:10258000EE93589780818F5F808341E0C901B80145
:102590007DDBDF91CF911F910F910895CF93DF9352
:1025A000FC01CB01BA01A181B281C0914F17D0913A
:1025B0005017BB8BAA8BC0914F17D091501716960E
:1025C0004D915C9117975D8B4C8B1696CD91DC915C
:1025D000179740914F1750915017425F5F4F5D839F
:1025E0004C8340914F1750915017425F5F4F1796A1
:1025F0005C934E931697A0914F17B0915017599630
:10260000FC93EE93589730813F5F3083222319F07B
:102610006FEF7FEFCB01422F39DBDF91CF91089530
:10262000CF93DF93DC011796ED91FC91189700840E
:10263000F185E02DA08DB18DC289D38984899589DA
:102640009F838E83C489D589828993899D838C8356
:1026500011968D919C9112979F01225F3F4F821797
:10266000930731F48489958912969C938E931197E0
:10267000118E108E8C9181508C93809190168111C7
:1026800052C0A485B585C681D781808591859F83F9
:102690008E83C085D185868197819D838C83119699
:1026A0008D919C9112979F012E5F3F4F8217930748
:1026B00031F48085918512969C938E93119715869F
:1026C00014868C9181508C93A28D80919F168A17CD
:1026D00010F4A0939F168BE08A9FD0011124AF5174
:1026E000B94E11960D90BC91A02DB783A683169676
:1026F0004D915C911797518740871696CD91DC914B
:1027000017973D832C8317963C932E931697A28D93
:102710008A9FD0011124AF51B94EB587A4878C91FF
:102720008F5F8C931CC04CEB56E1DA011196CD9172
:10273000DC911297D38BC28B8E819F81958B848B7A
:102740008E819F81DC0115963C932E9314973F83D5
:102750002E83518F408FDA018C918F5F8C93928DF5
:10276000E0914F17F0915017828D891720F481E086
:102770008093991601C080E0DF91CF910895CF93A7
:10278000DF93DC0170684D935D936D937C93139799
:102790001896ED91FC9119971A964D915C911B97A3
:1027A00014968D919C91159716962D913C911797A3
:1027B000EC013F832E8316968D919C91179714966A
:1027C0002D913C911597EC013D832C83EA01898181
:1027D0009A81A817B90731F416968D919C91179795
:1027E0009A8389831B961C921E921A97DA018C9108
:1027F00081508C93A485B585C681D78180859185CC
:102800009F838E83C085D185868197819D838C83AC
:1028100011968D919C9112979F012E5F3F4F8217C9
:10282000930731F48085918512969C938E9311972E
:10283000158614868C9181508C93A28D80919F1661
:102840008A1710F4A0939F168BE08A9FD001112461
:10285000AF51B94E11960D90BC91A02DB783A683B0
:1028600016964D915C911797518740871696CD919A
:10287000DC9117973D832C8317963C932E931697E4
:10288000A28D8A9FD0011124AF51B94EB587A4877C
:102890008C918F5F8C93928DE0914F17F091501730
:1028A000828D891718F481E080939916DF91CF917A
:1028B00008950FB6F8940F9220919816FC0120838A
:1028C0004091A0165091A1166091A2167091A31686
:1028D00041835283638374830F900FBE08952091C8
:1028E0009816FC0120834091A0165091A11660918A
:1028F000A2167091A3164183528363837483089553
:102900008F929F92AF92BF92CF92DF92EF92FF92FF
:102910000F931F93CF93DF93FB010FB6F8940F92A1
:10292000C090A016D090A116E090A216F090A31629
:10293000DC0111960D911D912D913C91149746014A
:102940005701801A910AA20AB30A4081518162811B
:1029500073814F3FBFEF5B076B077B0739F1EC01DA
:10296000B881A0919816BA1759F0C016D106E206A0
:10297000F30630F0108211821282138281E017C0B8
:1029800084169506A606B70658F4481959096A0927
:102990007B094083518362837383A1DF80E007C09A
:1029A000108211821282138281E001C080E00F90B8
:1029B0000FBEDF91CF911F910F91FF90EF90DF90AD
:1029C000CF90BF90AF909F908F90089581E08093BB
:1029D0009916089580914F179091501708958091FE
:1029E0009E16882331F080919016811104C082E0F8
:1029F000089581E0089580E008950F931F93CF9389
:102A0000DF93FC01892B09F449C086A5815086A774
:102A1000228D95A5291709F443C0811143C0EF0108
:102A20008F010E5F1F4FC8010E94AA05EDA5EA8F16
:102A30008AE090E0A0E0B0E08E1B9109A109B10905
:102A40008E879F87A88BB98B80919F168E1710F465
:102A5000E0939F168BE08E9FF0011124EF51F94E09
:102A60000180F281E02DFF83EE8326813781398753
:102A70002887A681B78115961C930E931497178308
:102A80000683EA8D8E9FF0011124EF51F94EFD87E8
:102A9000EC8780818F5F808381E005C080E003C088
:102AA00080E001C080E0DF91CF911F910F910895E8
:102AB000CF92DF92EF92FF92E0914F17F091501773
:102AC0006685778580899189E0914F17F09150173D
:102AD000A0914F17B09150175A962C910F2EFAE0F3
:102AE000CF2ED12CE12CF12CF02DC21AD108E10807
:102AF000F108C686D786E08AF18AFF90EF90DF90D2
:102B0000CF9008954F925F926F927F92AF92BF9253
:102B1000CF92DF92EF92FF920F931F93CF93DF93A9
:102B2000280139010FB6F8940F92E0914F17F091F8
:102B30005017C82FD0E0EC0FFD1F83A9823071F130
:102B4000E0914F17F0915017CE01880F991F880F11
:102B5000991FE80FF91F87A590A9A1A9B2A94095CF
:102B6000509560957095482359236A237B2347A786
:102B700050AB61AB72ABE0914F17F0915017EC0F77
:102B8000FD1F81E083ABA114B104C104D10431F075
:102B900041E0C601B5017AD80E9426060F900FBE0B
:102BA0000FB6F8940F92E114F104A1F0E0914F17E1
:102BB000F0915017CE01880F991F880F991FE80FC9
:102BC000F91F87A590A9A1A9B2A9F70180839183D4
:102BD000A283B383E0914F17F0915017EC0FFD1FC4
:102BE00083A98230E9F4E0914F17F0915017CE019C
:102BF000880F991F880F991FE80FF91F87A590A9C3
:102C0000A1A9B2A94094509460947094482259228A
:102C10006A227B2247A650AA61AA72AA81E001C05B
:102C200080E020914F1730915017C20FD31F1BAA7D
:102C30000F900FBEDF91CF911F910F91FF90EF90FA
:102C4000DF90CF90BF90AF907F906F905F904F904C
:102C500008958F929F92AF92BF92EF92FF920F933F
:102C6000CF93DF93DC010FB6F8940F92E114F104D7
:102C700089F0E62FF0E0EE0FFF1FEE0FFF1FE80FC9
:102C8000F91F87A490A8A1A8B2A8F7018082918219
:102C9000A282B38270E0FD01E60FF71F83A992E0E4
:102CA00093AB023001F118F4013031F04DC0033024
:102CB00079F10430D1F148C0660F771F660F771F96
:102CC000FD01E60FF71F87A490A8A1A8B2A8BA013A
:102CD000A901482959296A297B2947A750AB61AB2B
:102CE00072AB01E034C0660F771F660F771FFD01DE
:102CF000E60FF71F47A550A961A972A94F5F5F4F63
:102D00006F4F7F4F47A750AB61AB72AB01E01FC065
:102D1000660F771F660F771FFD01E60FF71F27A7C6
:102D200030AB41AB52AB01E012C0823079F0660F9C
:102D3000771F660F771FFD01E60FF71F27A730AB40
:102D400041AB52AB01E003C001E001C000E08130C3
:102D500009F069C01C96ED91FC911D971696CD91D6
:102D6000DC91179718968D919C9119979F838E836C
:102D70001896CD91DC91199716968D919C91179785
:102D80009D838C83818192819D012E5F3F4F8217AD
:102D9000930731F418968D919C91199792838183B2
:102DA0001D961C921E921C978081815080835A969A
:102DB000EC915A9780919F168E1710F4E0939F160E
:102DC0008BE08E9FF0011124EF51F94E0180F281CA
:102DD000E02D1796FC93EE9316974681578119962E
:102DE0005C934E931897C681D7813D832C8337839C
:102DF00026835A96EC915A978E9FF0011124EF5139
:102E0000F94E1D96FC93EE931C9780818F5F808313
:102E10005A969C91E0914F17F0915017828D891727
:102E200010F40E9426060F900FBE802FDF91CF91E5
:102E30000F91FF90EF90BF90AF909F908F9008956B
:102E40008F929F92AF92BF92CF92DF92EF92FF92BA
:102E50000F93CF93DF93DC01E114F10489F0E62FA7
:102E6000F0E0EE0FFF1FEE0FFF1FE80FF91F87A422
:102E700090A8A1A8B2A8F70180829182A282B38211
:102E800070E0FD01E60FF71F93A982E083AB0230EB
:102E900001F118F4013031F04DC0033079F1043004
:102EA000D1F148C0660F771F660F771FFD01E60F4F
:102EB000F71F87A490A8A1A8B2A8BA01A901482920
:102EC00059296A297B2947A750AB61AB72AB81E0D6
:102ED00034C0660F771F660F771FFD01E60FF71FDF
:102EE00047A550A961A972A94F5F5F4F6F4F7F4FF0
:102EF00047A750AB61AB72AB81E01FC0660F771F75
:102F0000660F771FFD01E60FF71F27A730AB41AB18
:102F100052AB81E012C0923079F0660F771F660FD6
:102F2000771FFD01E60FF71F27A730AB41AB52AB70
:102F300081E003C081E001C080E0913009F096C0DB
:102F40009091901691115FC01C96ED91FC911D9788
:102F50001696CD91DC91179718962D913C91199763
:102F60003F832E831896CD91DC91199716962D915B
:102F70003C9117973D832C83418152819D012E5FA7
:102F80003F4F4217530731F418964D915C911997B2
:102F9000528341831D961C921E921C9790819150E2
:102FA00090835A96EC915A9790919F169E1710F421
:102FB000E0939F169BE09E9FF0011124EF51F94E84
:102FC0000180F281E02D1796FC93EE9316974681CF
:102FD000578119965C934E931897C681D7813D838C
:102FE0002C83378326835A96EC915A979E9FF00143
:102FF0001124EF51F94E1D96FC93EE931C9790818E
:103000009F5F908321C06CEB76E1FB01C181D2818F
:103010005396DC93CE9352972E813F8155963C93E5
:103020002E9354974E815F819D01225F3F4FFA019D
:10303000358324833F832E8359967C936E935897D0
:10304000FB0190819F5F90835A962C91E0914F17DE
:10305000F0915017928D921748F4C114D10419F0D1
:1030600091E0F601908391E090939916DF91CF91D2
:103070000F91FF90EF90DF90CF90BF90AF909F9017
:103080008F900895009721F480914F1790915017D9
:103090000FB6F8940F9270E0FC01E60FF71F23A91A
:1030A000223031F4FC01E60FF71F13AA81E001C0C2
:1030B00080E00F900FBE0895DC01E0915B17F09166
:1030C0005C17808191E0811190E09C93911108C080
:1030D0000780F085E02D6081718182819381089560
:1030E00060E070E0CB010895CF92DF92EF92FF9203
:1030F0000F931F93FC0142835383648375839387EB
:1031000082870417150726073707C0F00C191D0919
:103110002E093F0986859785A089B1890817190767
:103120002A073B0700F5BF016E5F7F4F809159175B
:1031300090915A170E946D0580E018C00C151D056E
:103140002E053F0528F44C155D056E057F0568F4D6
:10315000BF016E5F7F4F80915B1790915C170E945B
:103160006D0580E003C081E001C081E01F910F91F7
:10317000FF90EF90DF90CF9008950FB6F8940F92E4
:103180008091571790915817892BE9F488E697E1B9
:103190000E9458058DE597E10E94580588E697E161
:1031A00090935C1780935B178DE597E190935A1786
:1031B0008093591740E067E08AE00E940B089093E3
:1031C0005817809357170F900FBE0895EF92FF92F4
:1031D0000F93D3DF8091571790915817892B91F057
:1031E0000F2EF5E5EF2EF7E1FF2EF02D03E020E0A6
:1031F00030E040EC50E06CE173E088E591E00E9443
:10320000E80E01C080E00F91FF90EF9008958F923B
:103210009F92AF92BF92CF92DF92EF92FF920F9365
:103220001F93CF93DF93CDB7DEB727970FB6F894F0
:10323000DEBF0FBECDBFE0915717F0915817309702
:1032400081F169832A833B834C835D839F838E83D3
:103250006630F4F4C4DB823069F400E0A701960123
:10326000BE016F5F7F4F80915717909158170E9452
:103270002E0818C000E020E030E0A901BE016F5F19
:103280007F4F80915717909158170E942E080AC0BF
:1032900020E0A801BE016F5F7F4FCF010E94BF08F1
:1032A00001C080E027960FB6F894DEBF0FBECDBFF9
:1032B000DF91CF911F910F91FF90EF90DF90CF9012
:1032C000BF90AF909F908F9008958F929F92AF92F2
:1032D000BF92CF92DF92EF92FF920F931F93CF9303
:1032E000DF933BC00780F085E02D80809180A28035
:1032F000B380C085D1858E010E5F1F4FC8010E942B
:10330000AA05EC89FD89CE0119958E8982FF25C019
:103310008E859F85A889B989880D991DAA1DBB1D19
:1033200088169906AA06BB0670F48A839B83AC8331
:10333000BD83DB87CA87B80180915B1790915C17CA
:103340000E946D050AC0C12CD12C760100E010E06E
:10335000A501940160E0CE015ADFE0915B17F09186
:103360005C1780818111BECF8091591790915A17B7
:1033700090935C1780935B17F0935A17E09359175B
:10338000DF91CF911F910F91FF90EF90DF90CF9041
:10339000BF90AF909F908F900895CF92DF92EF9261
:1033A000FF92CF93DF93EC010E94720F6B017C01BF
:1033B0008091511790915217A0915317B0915417C3
:1033C000C816D906EA06FB0620F47FDF81E0888371
:1033D00001C01882C0925117D0925217E092531731
:1033E000F0925417C701B601DF91CF91FF90EF9093
:1033F000DF90CF9008954F925F926F927F928F925D
:103400009F92AF92BF92CF92DF92EF92FF920F9373
:103410001F93CF93DF934B015C0129013A01E091A7
:103420005B17F0915C170780F085E02DC085D18592
:10343000CE0102960E94AA058E8982FF1BC04E858E
:103440005F8568897989480D591D6A1D7B1D750145
:10345000640193018201CE0147DE882369F0C12C0B
:10346000D12C760100E010E0A501940160E0CE01CE
:10347000CEDE02C08E7F8E8BEC89FD89CE01199540
:10348000DF91CF911F910F91FF90EF90DF90CF9040
:10349000BF90AF909F908F907F906F905F904F9074
:1034A00008958F929F92AF92BF92CF92DF92EF9248
:1034B000FF921F93CF93DF931F92CDB7DEB76B01BF
:1034C0007C01142F0E946C0FCE01019666DF4B0128
:1034D0005C01898181112DC011110DC08C149D04D6
:1034E000AE04BF0440F00E94AC10A5019401C701D6
:1034F000B60181DF20C0112341F0E0915917F0910E
:103500005A17808111E0811110E0B701A601481916
:1035100059096A097B09212F8091571790915817F3
:103520000E9489090E94AC10811105C00E942606E4
:1035300002C00E94AC100F90DF91CF911F91FF90BD
:10354000EF90DF90CF90BF90AF909F908F900895B5
:10355000AF92BF92CF92DF92EF92FF920F931F93A1
:10356000CF93DF93CDB7DEB728970FB6F894DEBFC1
:103570000FBECDBF82C0898188230CF47EC0AE808F
:10358000BF80D5011C968D919C911D97892B21F0B0
:10359000C50102960E94AA05CE010896FEDE8B01A7
:1035A0009C01E9810E2E000CFF0BEA30F10508F0BA
:1035B00064C08827EE58FF4F8F4F0C94F030F50110
:1035C00086898160868BCA80DB80EC80FD804685A1
:1035D0005785608971894C0D5D1D6E1D7F1DC5016C
:1035E00083DD882309F449C0D5015496ED91FC91FF
:1035F0005597C5011995F501868982FF3EC04A811C
:103600005B816C817D8186859785A089B1899A01CE
:10361000AB01280F391F4A1F5B1FC12CD12C76012B
:1036200000E010E060E0C501F2DD27C0D50156964C
:103630008C9156978E7F56968C931FC0F501868984
:103640008160868B4A815B816C817D81468757874B
:10365000608B718B400F511F621F731F68017901CE
:10366000C50142DD0AC0F501868981FD04C0C5019E
:103670000E941B0502C08E7F868B20E030E0A901EE
:10368000BE016F5F7F4F80915717909158170E942E
:10369000FA08811170CF28960FB6F894DEBF0FBEDE
:1036A000CDBFDF91CF911F910F91FF90EF90DF90F1
:1036B000CF90BF90AF900895089584B1806884B989
:1036C00085B1806885B9089583B1806883B908950C
:1036D000F4DF2FEF80E792E0215080409040E1F747
:1036E00000C00000F1DFF5CFE8DF2FEF87EA91E6B9
:1036F000215080409040E1F700C00000E5DFF5CFA9
:103700009093781780937717089590937617809306
:103710007517089590937417809373170895FC019B
:10372000608387E0818380917717909178179283E7
:103730008383809175179091761794838583809108
:103740007317909174179683878380E18087CF01E8
:10375000089590937A1780937917089583E0D7D7C7
:1037600089EA9BE1F9C70895FCD78093CC18882398
:1037700041F084E293E09F938F930E94BA330F90BD
:103780000F9089E797E10E94E02390E090937A17E9
:10379000809379170895CC24CA94DC2C760101E03B
:1037A00021E041E050E060E070E08091C618909127
:1037B000C7180E94D10260FFEECFD6DF42E050E092
:1037C00060E070E08091C4189091C5180E94710368
:1037D000E2CF8091791790917A170895EF92FF9236
:1037E0000F93082FBBDFE12CF12C20E030E040EC00
:1037F00050E064E573E08BEC9BE10E94E80E0F91D2
:10380000FF90EF90089539D2882341F086E693E047
:103810009F938F930E94BA330F900F900895EF9269
:10382000FF920F93082FEFDFE12CF12C20E030E026
:1038300040EC50E06DE973E089E49CE10E94E80E01
:103840000F91FF90EF90089530D2882321F089EAFC
:1038500093E00E94CE3363E070E080E090E00E944D
:10386000ED1138D2882321F08CEC93E00E94CE3306
:1038700063E070E080E090E00E94ED1151D29093FF
:103880007E1780937D1772D290937C1780937B175D
:103890000895CC24CA94DC2C760101E021E044E0B8
:1038A00050E060E070E08091C6189091C7180E94C7
:1038B000D10262FFEECFC8DF48E050E060E070E088
:1038C0008091C4189091C5180E947103E2CF809135
:1038D0007B1790917C17089580917D1790917E17AA
:1038E00008950E94BE029093C5188093C4180E9448
:1038F000BE029093C7188093C618089541E060E017
:1039000070E08CE290E00E94E80A9093C9188093DE
:10391000C818892B21F48FEE93E00E94CE3341E04A
:1039200060E070E08CE290E00E94E80A9093CB188F
:103930008093CA18892B21F487E194E00C94CE334C
:1039400008950F931F93CF93DF93CDB7DEB764979E
:103950000FB6F894DEBF0FBECDBF81E00E940229F2
:103960007DD3F9D59F938F9381E494E09F938F93B8
:103970000E94BA33F1D4EFD59F938F9384E594E0FE
:103980009F938F930E94BA338E010F5F1F4FC80120
:1039900077D3E1D51F930F939F938F938DE694E098
:1039A0009F938F930E94BA33C80186D3D4D59F9337
:1039B0008F931F930F9381E894E09F938F930E94BE
:1039C000BA33A80166E974E087EB94E0A3D5C3D5C8
:1039D0009F938F931F930F9386E994E09F938F9308
:1039E00087EB94E09F938F9388EC94E09F938F9361
:1039F0000E94BA3394D3AFD59F938F938EEF94E008
:103A00009F938F930E94BA330FB6F894DEBF0FBE18
:103A1000CDBF81E07ED49FD59F938F938DE095E0BD
:103A20009F938F930E94BA3384EF91E07DD493D516
:103A30009F938F9381E08F9384EF8F938EE295E035
:103A40009F938F930E94BA330FB6F894DEBF0FBED8
:103A5000CDBF1AE080E069D3082F7DD59F938F9367
:103A60001F921F938EE495E09F938F930E94BA3329
:103A70000F900F900F900F900F900F90083059F00B
:103A800080E00E94662966E371E080E090E00E9499
:103A9000ED111150F9F6083021F481E00E94482917
:103AA00009C081E00E94572980E00E9425290E94D8
:103AB0002606FDCF64960FB6F894DEBF0FBECDBFCD
:103AC000DF91CF911F910F91089581E0B9D262E00B
:103AD00070E080E090E00E94ED1180E0B1D266E9F4
:103AE00070E080E090E00E94ED1163D22ADF0FEFDA
:103AF0001FEF980146E150E06FE777E18091C81829
:103B00009091C9180E94530C882389F3EFE7F7E1DD
:103B1000828190E0982F88272381822B048110E0F6
:103B2000102F00272581022BC681D0E0DC2FCC2767
:103B30002781C22BF0849F938F938EE695E09F930D
:103B40008F930E94BA331F930F9384E895E09F935D
:103B50008F930E94BA33DF93CF9387E995E09F93C9
:103B60008F930E94BA331F92FF9285EA95E09F934C
:103B70008F930E94BA3383E00E9478296FE777E140
:103B800080E0FCD2E8D49F938F9386EB95E09F93DF
:103B90008F930E94BA338DB79EB744960FB6F894B0
:103BA0009EBF0FBE8DBFA3CFEF92FF920F93E12C6C
:103BB000F12C082F20E030E048E851E06BEC75E094
:103BC00085E69DE10E94E80E0F91FF90EF90089529
:103BD00084E0EADF84E00E94320283E00E94F70181
:103BE00082E0FCDD82E01BDE82E00C948602089518
:103BF00080E00E94AD2785E00E94B4286091CA1839
:103C00007091CB1881E0DCD16CDE78DEE1CF0895D5
:103C1000EFDF88ED95E00E94CE330E94340FFFCF96
:103C20006530F1F4FA0180818F7390E0982F882736
:103C30002181822B90930A02809309028281F0E411
:103C40008F9FC0011124FA01238126952695822B8E
:103C5000909308028093070281E08093951708955E
:103C6000643051F080E090E4909308028093070262
:103C700090930A028093090208950F931F9300E125
:103C80001EE120E034E244EF50E060E087E20E9471
:103C90009A29909397178093961721E0892B09F022
:103CA00020E0822F1F910F91089580919617909197
:103CB0009717009759F040E060E070E00E94EB2910
:103CC000843031F41092951780E0089582E00895D1
:103CD00083E008958091961790919717009739F097
:103CE00064E00E94372A853021F083E0089582E065
:103CF000089580E008956091090270910A0280E0C1
:103D000090E00E94CA2F20E030E048EC52E40E948C
:103D1000583020E038EF4FE756E40C94312F0895E7
:103D2000EADF20E030E040E251E40E9458300E9497
:103D30009E2FCB010895609107027091080280E0E8
:103D400090E00E94CA2F20E030E045E253E40E9458
:103D5000583020E038EF4FE756E40E94312F20E042
:103D600030E040E252E40C94CC2E0895E4DF20E0F1
:103D700030E040E251E40E9458300E94992FCB017C
:103D800008950F931F93CF93DF931F921F92CDB788
:103D9000DEB78C0119822DC0E091CF17EC3250F4C0
:103DA00081E08E0F8093CF17F0E0EF5FF74E8A81AE
:103DB000808302C01092CF178A818A30D1F440915B
:103DC000CF1750E0FA01E150F84E108241505109EE
:103DD0009E012F5F3F4F61E078E18091D217909173
:103DE000D3170E940F0C898181110E942606109220
:103DF000CF17BE016E5F7F4FC80119D6882361F2CD
:103E00000F900F90DF91CF911F910F9108950F9315
:103E10001F93CF93DF938C01EB018091D217909188
:103E2000D3170E941A0BB80188E997E10E94543316
:103E3000209779F0E8E9F7E101900020E9F7319760
:103E400080E290E091838083BE0188E997E10E943F
:103E50004933E8E9F7E1DF010D900020E9F7119718
:103E60008DE09AE011969C938E9312961C9201908D
:103E70000020E9F73197E859F741AE2F88E997E13B
:103E8000AC016A2F8091D4179091D5177BD5811101
:103E900011C008E215E020E030E04DE250E06BE5B3
:103EA00078E18091D2179091D3170E94530C8BE543
:103EB00098E102C080E090E0DF91CF911F910F91D7
:103EC00008952F923F924F925F926F927F928F92BE
:103ED0009F92AF92BF92CF92DF92EF92FF920F9399
:103EE0001F93CF93DF935C01FC0101900020E9F761
:103EF00031976F01C81AD90A5C2C0F2EF3E88F2E68
:103F0000F8E09F2EF02DE12CF12C4C2C3701F40120
:103F100001811281E80109900020E9F72197C01B77
:103F2000D10B3C2EF9E0CF16D10458F0F4012080DB
:103F3000FEE02F1206C0B801C5010E942433892B70
:103F400009F5442D351408F44C2F50E0B801C50193
:103F50000E945B33892B49F4F301EE0FFF1FE60D3E
:103F6000F71DED57F74F20800DC08FEFE81AF80AC4
:103F7000E3E08E0E911CF1E1EF16F10439F668943E
:103F8000222424F8822DDF91CF911F910F91FF9071
:103F9000EF90DF90CF90BF90AF909F908F907F90E9
:103FA0006F905F904F903F902F90089530DF89CFB2
:103FB00008958091D2179091D3170C941A0B0895FD
:103FC0008F929F92AF92CF92EF920F931F93CF93C6
:103FD000C82F8B0141E060E070E088EC90E00E9427
:103FE000E80A9093D3178093D2171093D1170093B8
:103FF000D0170F2EF1EC8F2EFEE19F2EF02D68943E
:10400000AA24A6F86894CC24C6F8E12C00E023E0AA
:1040100040E051EE60E070E08C2FE3D39093D51731
:104020008093D417E7E0F1E0808180618083CF91B5
:104030001F910F91EF90CF90AF909F908F90089528
:10404000882331F0E8E0F1E080818F7E808308955D
:10405000E8E0F1E0808180618083089560E070E0B5
:1040600089E096E0D4DEEBE5F8E101900020E9F785
:104070003197EB55F84181E0759708F080E008959D
:10408000CF93DF93EC0160E070E08AE196E0BFDE61
:10409000EBE5F8E101900020E9F7EC56F84139F43E
:1040A0006BE578E1CE010E94543380E002C01882B3
:1040B00081E0DF91CF910895FC0101900020E9F7A4
:1040C0009F01215131092817390729F4BC0188E4DF
:1040D00096E06CCF089589E00895FC0101900020DE
:1040E000E9F79F01215131092817390729F4BC014B
:1040F00087E596E05BCF089589E00895FC01019083
:104100000020E9F79F01215231092817390729F4C6
:10411000BC0186E696E04ACF089589E0089560E004
:1041200070E085EA96E042CF08950F931F93E82F41
:10413000F0E0EE0FFF1FE158F74F608171818EEACA
:1041400096E034DF811114C008E215E020E030E091
:104150004DE250E06BE578E18091D2179091D31752
:104160000E94530C882321F08BE598E1AADE03C05E
:104170008BE598E1A6DE1F910F9108950F931F9391
:10418000CF93DF931F92CDB7DEB7DB0111969C91E1
:104190001197953108F0B4C0992381F160E070E087
:1041A000272F30E0462F50E0FD01E40FF51F9281EC
:1041B00092959F709A3010F0995C01C0905DF90162
:1041C000E451F84E90832F5F3F4FFD01E40FF51F40
:1041D00092819F70492F50E04A30510514F0995C4C
:1041E00001C0905DF901E451F84E90837E5F6F5FEE
:1041F00011969C911197691798F201C070E0E72F12
:10420000F0E0E451F84E10824C91811103C087EB2D
:1042100096E002C089EB96E02CEE37E13F932F93B6
:104220001F924F939F938F938DEB96E09F938F9365
:104230008EE298E19F938F930E94FE3360E070E0DE
:104240008EE298E1B3DE0FB6F894DEBF0FBECDBFAD
:10425000811159C008E215E020E030E04DE250E065
:104260006BE578E18091D2179091D3170E94530C9F
:10427000882309F447C08BE598E123DE8E3009F0EE
:1042800042C087E089838091D0179091D117892B04
:10429000A9F1BE016F5F7F4F8BE598E168D18093F4
:1042A000D617E981F0E0E55AF74EDF010D900020C6
:1042B000E9F71197AE1BBF0BAA2391F0BB27CD01E5
:1042C00001979C0112F42F5F3F4F3595279520935E
:1042D000D717AF014F5F5F4F64E188ED97E173D16E
:1042E00001E010E020E030E046E150E066ED77E1EB
:1042F0008091D0179091D1170E944A0B8EE003C095
:1043000084E101C080E00F90DF91CF911F910F9168
:104310000895813019F06DEC76E002C066EA77E02E
:1043200081ED96E043CE08959F938F9382E097E0CE
:104330009F938F938EE298E19F938F930E94FE3319
:1043400060E070E08EE298E131DE0F900F900F9008
:104350000F900F900F9008952F923F924F925F927F
:104360006F927F928F929F92AF92BF92CF92DF9285
:10437000EF92FF920F931F93CF93DF93CDB7DEB7EA
:10438000A0970FB6F894DEBF0FBECDBF6FE277E007
:104390008BE397E03CDD95DD8111A3C080E2E2E292
:1043A000F2E0DE01119601900D928A95E1F79E01EF
:1043B0002F5F3F4F6901E12CF12C0F2EF7E4AF2E58
:1043C000F7E0BF2EF02D0EE218E10F2EF0E64F2E93
:1043D000F7E05F2EF02D0F2EF7E78F2EF7E09F2EE0
:1043E000F02D0F2EF1E96F2EF7E07F2EF02D3E2CF1
:1043F0002F2CFF92EF92BF92AF921F930F930E94C8
:10440000FE3360E070E0C80102DD5BDD0F900F90CD
:104410000F900F900F900F90811163C032E03E1506
:10442000E8F4F60183818F9382818F9381818F934A
:1044300080818F93FF92EF925F924F921F930F9321
:104440000E94FE3360E070E0C801E1DC3ADD0FB6A7
:10445000F894DEBF0FBECDBF811143C02F923F92B3
:104460009F928F921F930F930E94FE3360E070E043
:10447000C801CDDC26DD0F900F900F900F900F90AC
:104480000F9081112EC02F923F927F926F921F93B7
:104490000F930E94FE3360E070E0C801B8DC11DDCC
:1044A0000F900F900F900F900F900F90811119C0E7
:1044B0003FEFE31AF30A84E0C80ED11C98E0E91636
:1044C000F10409F094CF60E070E089EA97E09FDCA6
:1044D000F8DC811106C060E070E08AEB97E097DCC1
:1044E000F0DCA0960FB6F894DEBF0FBECDBFDF9113
:1044F000CF911F910F91FF90EF90DF90CF90BF90E1
:10450000AF909F908F907F906F905F904F903F9073
:104510002F900895EF92FF920F931F93CF93DF9305
:10452000EC018B017A0181E0F4DE81110DC0CE0136
:10453000D4DD811109C0C801E1DD811105C0C701C9
:10454000BBDD811101C0EBDDDF91CF911F910F9198
:10455000FF90EF90089590E0FC01EE0FFF1F8E0F8B
:104560009F1FFC01ED57F74F818192810895DC0177
:10457000009729F1FB012081FC0101900020E9F75F
:104580003197E81BF90B822F90E0E817F907C8F084
:1045900080E008C0880F382F330F330F830F80530C
:1045A000890F2F5FFD01E20FF11D908130ED390F72
:1045B0003A3010F49111EECFFB012083089580E092
:1045C000089580E008950F931F93CF93DF93DC014C
:1045D000EA012097E1F1FA0101900020E9F7319713
:1045E000E41BF50B329710F532C08D01040F151F37
:1045F00030E0AE01420F531FFA019081913428F050
:104600009753592F5295507F03C0592F5295507F81
:104610002C0F3D1FF9019181913410F0975301C087
:104620009053950FF80190838F5F01C080E0282F91
:10463000220F482F50E0FE0101900020E9F731974A
:10464000EC1BFD0B4E175F0710F48613CECFDF91E6
:10465000CF911F910F91089580918B18860F8093B1
:104660008B1890918E18913079F028F09230A9F043
:10467000933019F108956F3F09F048C010928B18DC
:1046800081E080938E180895663809F03FC010923B
:104690008A1882E080938E180895E0918A1881E04C
:1046A0008E0F80938A18F0E0E857F74E60838230CF
:1046B00069F583E080938E18089590918A1821E01F
:1046C000290F20938A18963009F581110EC0E8E869
:1046D000F8E1808190E0982F88272181820F911D39
:1046E0009093901880938F1804C010929018109295
:1046F0008F1810928E18E0918C18F0918D183097C9
:1047000029F080918F1890919018199508958F92A3
:104710009F92AF92CF92EF920F930F2EFCE28F2ECB
:10472000F3E29F2EF02D6894AA24A4F86894CC2478
:10473000C4F8E12C00E023E040E855E260E070E0DE
:1047400050D090939218809391180F91EF90CF9042
:10475000AF909F908F90089590938D1880938C18B0
:104760000895CF93DF93CDB7DEB729970FB6F894AE
:10477000DEBF0FBECDBF89E0E2E4F2E09E012F5F15
:104780003F4FD90101900D928A95E1F71092901850
:1047900010928F188091911890919218009731F093
:1047A000422F532F69E0EED080E001C082E02996CD
:1047B0000FB6F894DEBF0FBECDBFDF91CF91089545
:1047C00020918F18309190182115310529F4FC01A2
:1047D0001182108281E00895FC013183208380E002
:1047E00008952F923F924F925F926F927F928F9295
:1047F0009F92AF92CF92EF92FF920F931F93CF931E
:10480000DF93CDB7DEB7F82E2A013B0188E090E0B8
:104810000E940C318C018F2D90E0FC01EE0FFF1FE8
:10482000ED56F74E118300830115110509F46DC093
:10483000880F991FFC01E55FFD4F80819181D801B0
:104840008D939C938C2D90E0880F991F880F991F52
:104850000E940C311C0186E090E00E940C317C012A
:104860004C2DB101F4D6F801F582E4828A2D90E056
:10487000880F991F880F991F0E940C311C0186E038
:1048800090E00E940C317C014A2DB101E0D6D801A4
:104890001396FC92EE92129717969C928E92169710
:1048A000FFB6F894ED91FC91119736978081826064
:1048B00080838D909C90C301B2010E94CA2F20E09A
:1048C00030E040E051E40E9458309B01AC0160E0D0
:1048D00074E284E79BE40E94312F20E030E040E85E
:1048E0005FE30E94CC2E0E949E2FF40132976083DA
:1048F000D801ED91FC911197359788E98083ED916E
:10490000FC91349786E08083FFBEC801DF91CF9190
:104910001F910F91FF90EF90CF90AF909F908F904D
:104920007F906F905F904F903F902F900895CF931E
:10493000DF93DC01892B01F11296ED91FC91139725
:10494000938182812581981B922384819817B1F0ED
:10495000838126952823C081D181C20FD11D688310
:104960008F5F958189238383ED91FC9135978081B9
:104970008062808380E003C081E001C082E0DF913B
:10498000CF910895EF92FF920F931F93CF93DF93F0
:104990007C01009709F441C0DC011296ED91FC9175
:1049A000139793818281981B858198238481891B29
:1049B0008617A8F1662341F1842F952FDC01615001
:1049C000462F50E04F5F5F4F480F591FE701EA81C4
:1049D000FB81938182812581981B92238481981782
:1049E00079F08C91938126952923608171818B01C7
:1049F000020F111DE80188839F5F858198239383AF
:104A00001196A417B50711F7D701ED91FC913597D1
:104A100080818062808380E003C081E001C082E009
:104A2000DF91CF911F910F91FF90EF900895009724
:104A3000D1F0DC011496ED91FC9115979381828160
:104A4000981799F09281858186958923A081B181FB
:104A5000A80FB11D8C91DB018C939F5F85819823FA
:104A6000928380E0089581E0089583E008951F9285
:104A70000F920FB60F9211240BB60F922F933F9304
:104A80004F935F936F937F938F939F93AF93BF9356
:104A9000CF93DF93EF93FF93A0919318B091941865
:104AA000109711F16091C6001496ED91FC91159745
:104AB000938182812581981B92238481981761F0CC
:104AC000838126952823C081D181C20FD11D68839F
:104AD0008F5F9581892383831696ED91FC911797BB
:104AE000309711F0CD011995FF91EF91DF91CF91A2
:104AF000BF91AF919F918F917F916F915F914F91F6
:104B00003F912F910F900BBE0F900FBE0F901F90F3
:104B100018951F920F920FB60F9211240BB60F9299
:104B20002F938F939F93AF93BF93EF93FF93E09156
:104B30009318F09194183097B9F00280F381E02D2A
:104B4000938182819817B1F092818581282F2695D3
:104B50002923A081B181A20FB11D2C919F5F8923D0
:104B600082832093C6000BC0E1ECF0E080818F7D52
:104B7000808305C0E1ECF0E080818F7D8083FF9130
:104B8000EF91BF91AF919F918F912F910F900BBE9D
:104B90000F900FBE0F901F9018951F920F920FB697
:104BA0000F9211240BB60F922F933F934F935F9365
:104BB0006F937F938F939F93AF93BF93CF93DF9325
:104BC000EF93FF93A0919518B0919618109711F15B
:104BD0006091CE001496ED91FC911597938182819E
:104BE0002581981B92238481981761F083812695F3
:104BF0002823C081D181C20FD11D68838F5F958129
:104C0000892383831696ED91FC911797309711F0C5
:104C1000CD011995FF91EF91DF91CF91BF91AF91A8
:104C20009F918F917F916F915F914F913F912F91C4
:104C30000F900BBE0F900FBE0F901F9018951F92F4
:104C40000F920FB60F9211240BB60F922F938F93E2
:104C50009F93AF93BF93EF93FF93E0919518F091DB
:104C600096183097B9F00280F381E02D938182810C
:104C70009817B1F092818581282F26952923A0814C
:104C8000B181A20FB11D2C919F5F89238283209354
:104C9000CE000BC0E9ECF0E080818F7D808305C001
:104CA000E9ECF0E080818F7D8083FF91EF91BF91EF
:104CB000AF919F918F912F910F900BBE0F900FBED0
:104CC0000F901F9018951F920F920FB60F921124FC
:104CD0000BB60F922F933F934F935F936F937F93F6
:104CE0008F939F93AF93BF93CF93DF93EF93FF93F4
:104CF000A0919718B0919818109711F16091D60073
:104D00001496ED91FC911597938182812581981BD2
:104D100092238481981761F0838126952823C0818E
:104D2000D181C20FD11D68838F5F958189238383D1
:104D30001696ED91FC911797309711F0CD011995CA
:104D4000FF91EF91DF91CF91BF91AF919F918F91A3
:104D50007F916F915F914F913F912F910F900BBE7B
:104D60000F900FBE0F901F9018951F920F920FB6C5
:104D70000F9211240BB60F922F938F939F93AF93A3
:104D8000BF93EF93FF93E0919718F09198183097A5
:104D9000B9F00280F381E02D938182819817B1F000
:104DA00092818581282F26952923A081B181A20F88
:104DB000B11D2C919F5F892382832093D6000BC065
:104DC000E1EDF0E080818F7D808305C0E1EDF0E0D2
:104DD00080818F7D8083FF91EF91BF91AF919F91F3
:104DE0008F912F910F900BBE0F900FBE0F901F90C1
:104DF00018951F920F920FB60F9211240BB60F92B7
:104E00002F933F934F935F936F937F938F939F93D2
:104E1000AF93BF93CF93DF93EF93FF93A091991834
:104E2000B0919A18109711F1609136011496ED9196
:104E3000FC911597938182812581981B922384810F
:104E4000981761F0838126952823C081D181C20FF4
:104E5000D11D68838F5F9581892383831696ED9199
:104E6000FC911797309711F0CD011995FF91EF91B3
:104E7000DF91CF91BF91AF919F918F917F916F9172
:104E80005F914F913F912F910F900BBE0F900FBEEE
:104E90000F901F9018951F920F920FB60F9211242A
:104EA0000BB60F922F938F939F93AF93BF93EF9374
:104EB000FF93E0919918F0919A183097B9F0028019
:104EC000F381E02D938182819817B1F092818581E1
:104ED000282F26952923A081B181A20FB11D2C91E5
:104EE0009F5F89238283209336010BC0E1E3F1E0C9
:104EF00080818F7D808305C0E1E3F1E080818F7D3B
:104F00008083FF91EF91BF91AF919F918F912F91EE
:104F10000F900BBE0F900FBE0F901F901895CF9360
:104F2000DF931F92CDB7DEB7BE016F5F7F4F8091D9
:104F30009B1890919C187BDD8111F6CF898190E0C0
:104F40000F90DF91CF910895682F80919B189091D9
:104F50009C18EDDC80E090E008958F929F92AF92D4
:104F6000CF92EF920F93812C912C6894AA24A7F8EA
:104F70006894CC24C7F8E12C00E023E040E051EE37
:104F800060E070E02EDC90939C1880939B18E1ED1C
:104F9000F8E183E192E091838083938382830F9190
:104FA000EF90CF90AF909F908F90089590E0FC018C
:104FB000EE0FFF1FE80FF91FEE0FFF1FE356F74E2E
:104FC000238121111FC09C01220F331FF901E80F1B
:104FD000F91FEE0FFF1FE356F74EA081B1814C91F0
:104FE000F901E80FF91FEE0FFF1FE356F74E81E0BE
:104FF00090E0028002C0880F991F0A94E2F7842B88
:105000008C930895FC01EE0FFF1FDF01A80FB91F5D
:10501000AA0FBB1FA356B74E0D90BC91A02D2C918B
:10502000E80FF91FEE0FFF1FE356F74E81E090E007
:10503000028002C0880F991F0A94E2F780958223AC
:105040008C93089590E0FC01EE0FFF1FE80FF91F0D
:10505000EE0FFF1FE356F74E2381211120C09C0164
:10506000220F331FF901E80FF91FEE0FFF1FE35660
:10507000F74EA081B1814C91F901E80FF91FEE0FB5
:10508000FF1FE356F74E81E090E0028002C0880FD8
:10509000991F0A94E2F7809584238C930895FC016C
:1050A000EE0FFF1FDF01A80FB91FAA0FBB1FA356EA
:1050B000B74E0D90BC91A02D2C91E80FF91FEE0F6B
:1050C000FF1FE356F74E81E090E0028002C0880F98
:1050D000991F0A94E2F7822B8C930895CC24C394F1
:1050E000D12C6894BB24B2F8CDE9D8E110E08C81D2
:1050F000813081F018F1823061F5E881F9812081F9
:10510000C6010A8002C0880F991F0A94E2F782271D
:1051100080831FC08D818F5F863010F48D8319C00E
:105120001D82E881F9812081C6010A8002C0880FB2
:10513000991F0A94E2F7822780830BC00D81002318
:1051400029F0812F7FDF01500D8303C0BC82812FA6
:105150002DDF1F5F2696143051F66CE070E080E082
:1051600090E00E94ED11C0CFEF92FF920F931F933A
:10517000CF93DF93082F80E487B9CDE9D8E10F2ED4
:10518000F8E2EF2EF12CF02DF982E88286E08A8396
:105190001B8214E01C8380E009DF80E887B9FF826E
:1051A000EE8287E0888719861A8781E0FFDE80E239
:1051B00083BB84E390E09D878C8785E08E871F8684
:1051C000188B82E0F3DE80E18093010182E091E0C0
:1051D0009B8B8A8B1C8B1D8A1E8B83E0E7DEE12C68
:1051E000F12C20E030E040EC50E066EB78E08EE619
:1051F00098E20E94E80EDF91CF911F910F91FF90EE
:10520000EF900895CF93DF9390E0FC01EE0FFF1F26
:10521000DF01A80FB91FAA0FBB1FA356B74ECD9130
:10522000DC911197488121E030E012960C901297A2
:1052300002C0220F331F0A94E2F724272883FD01BE
:1052400081E08483DF91CF910895CF93DF9390E045
:10525000FC01EE0FFF1FDF01A80FB91FAA0FBB1F34
:10526000A356B74ECD91DC911197488121E030E0F3
:1052700012960C90129702C0220F331F0A94E2F785
:1052800024272883FD0182E08483DF91CF91089554
:10529000282F30E0F901EE0FFF1FE20FF31FEE0F92
:1052A000FF1FE356F74E93E09483CCCE0895282F4A
:1052B00030E0F901EE0FFF1FE20FF31FEE0FFF1FAB
:1052C000E356F74E94E0948371CE089590E0FC018C
:1052D000EE0FFF1FDF01A80FB91FAA0FBB1FA356B8
:1052E000B74E26E015962C931597FD01148208956C
:1052F00090E0FC01EE0FFF1FDF01A80FB91FAA0FFE
:10530000BB1FA356B74E15961C921597FD0114822C
:1053100008958091C31881110CC08CE08093B8006F
:105320008FEF8093BB0084E08093BC0081E080938A
:10533000C3180895AF92BF92CF92DF92EF92FF927F
:105340000F931F93CF93DF93A82EB62E69017A0196
:1053500084E090E061D7EC01892B61F1A88281E0C3
:10536000B81212C0C701B60120EA36E841E050E0A9
:1053700015D7DA01C9014097A109B109B695A795DA
:1053800097958795898311C0C701B60120E83AE156
:1053900046E050E003D7DA01C9014097A109B109FD
:1053A000B695A7959795879589831B830A838C2F3C
:1053B0009D2F02C080E090E0DF91CF911F910F916F
:1053C000FF90EF90DF90CF90BF90AF9008958091C5
:1053D000BC0081700895FF920F931F93CF93DF93CA
:1053E0000097D1F14A30D0F5F42E8B01EC01EFDFBC
:1053F000811136C08091B6189091B718C817D90797
:1054000041F087DF89818093B800D093B718C093AB
:10541000B61881E08F0D8093B8188881880F80932B
:10542000B918FF2089F0F801AAEBB8E14FEF4F0D52
:10543000642F70E0CB010196B801680F791F81914C
:105440008D93E617F707D9F788EF8093210285EA55
:105450008093BC0084E005C086E003C087E001C003
:1054600082E0DF91CF911F910F91FF9008951F93DC
:10547000CF93DF93009729F16B3028F5162FEC01BD
:10548000A6DF811122C08091B6189091B718C81775
:10549000D90741F03EDF89818093B800D093B718D7
:1054A000C093B6181093B8188881880F81608093D4
:1054B000B91888EF8093210285EA8093BC0085E0CB
:1054C00005C086E003C087E001C082E0DF91CF9194
:1054D0001F9108951F920F920FB60F9211240BB6D1
:1054E0000F922F933F934F935F936F937F938F937D
:1054F0009F93AF93BF93EF93FF93E091B9008E2FEB
:1055000090E0FC013897E135F10508F075C0882777
:10551000E458FF4F8F4F64C61092B518E091B5184C
:105520008091B818E81770F481E08E0F8093B51859
:10553000F0E0E754F74E80818093BB0085E88093CC
:10554000BC0072C084E98093BC008091B618909131
:10555000B718DC011296ED91FC911397309709F47E
:1055600063C020E040E050E064E019955DC0E09148
:10557000B51881E08E0F8093B5188091BB00F0E0E4
:10558000E754F74E80838091B900803411F4109273
:10559000B5182091B51830E08091B81890E00197C7
:1055A0002817390724F485EC8093BC003DC085E8BA
:1055B0008093BC0039C08091BB00E091B518F0E049
:1055C000E754F74E808384E98093BC008091B6183D
:1055D0009091B718DC011296ED91FC9113973097DA
:1055E00019F12091B81849EB58E165E019951CC0F4
:1055F00085EA8093BC0018C08091B9008093210295
:1056000084E08093BC008091B6189091B718DC01BB
:105610001296ED91FC911397309731F020E040E025
:1056200050E0609121021995FF91EF91BF91AF91E8
:105630009F918F917F916F915F914F913F912F91AA
:105640000F900BBE0F900FBE0F901F901895FC018E
:10565000411101C002D7842F90E09C0121503109F3
:1056600082239323892B09F0F8D6413808F0F5D628
:10567000128213824483440F4150458371836083B7
:1056800080E090E008952F923F924F925F926F9248
:105690007F928F929F92AF92BF92CF92DF92EF92C2
:1056A000FF920F931F93CF93DF93CDB7DEB7609731
:1056B0000FB6F894DEBF0FBECDBF7C011B016A019F
:1056C000FC0117821682838181FF2AC39E012F5F0E
:1056D0003F4F3901F7019381F10193FD859193FFCC
:1056E00081911F01882309F417C3853239F493FD92
:1056F000859193FF81911F01853231F4B70190E0CC
:10570000FDD756016501E6CF10E0512C912CFFE149
:10571000F915D8F08B3279F038F4803279F0833291
:10572000A1F4F92DF0612EC08D3261F0803369F45F
:10573000292D21602DC0392D3260932E892D846052
:10574000982E2AC0E92DE86015C097FC2DC020EDE9
:10575000280F2A3088F496FE06C03AE0139F200DE9
:105760001124122F19C08AE0589E200D1124522EA8
:10577000E92DE0629E2E10C08E3231F496FCCCC230
:10578000F92DF0649F2E08C08C3621F4292D206855
:10579000922E02C0883641F4F10193FD859193FF6A
:1057A00081911F018111B3CF9BEB980F933020F4AF
:1057B000992D9061805E07C09BE9980F933008F0A7
:1057C00059C1992D9F7E96FF16E09F73992E8536BD
:1057D00019F49064992E08C0863621F4392F306868
:1057E000932E02C01111115097FE07C01C3350F4C4
:1057F00044244394410E27E00BC0183038F027E0D2
:1058000017E005C027E09CE3492E02C0212F412C60
:10581000560184E0A80EB11CF6016081718182817D
:105820009381042DA3011DD66C01F981FC87F0FF43
:1058300002C0F3FF06C091FC06C092FE06C000E263
:1058400005C00DE203C00BE201C000E08C858C7046
:1058500019F0011143C280C297FE10C04C0CFC85A8
:10586000F4FF04C08A81813309F44A94141474F556
:1058700028E0241578F588E0482E2CC096FC2AC034
:10588000812F90E08C159D059CF03CEFC3163FEFF7
:10589000D30674F0892D8068982E0AC0E2E0F0E00B
:1058A000EC0FFD1FE10FF11D8081803319F41150C1
:1058B0001111F4CF97FE0EC044244394410E812F62
:1058C00090E0C816D9062CF41C1904C04424439453
:1058D00001C010E097FE06C01C141D0434F4C6017C
:1058E000019605C085E090E002C081E090E00111E2
:1058F0000196112331F0212F30E02F5F3F4F820FAF
:10590000931F252D30E08217930714F4581A01C015
:10591000512C892D897041F4552031F0B70180E276
:1059200090E0ECD65A94F8CF002321F0B701802FF5
:1059300090E0E4D693FC08C0552031F0B70180E335
:1059400090E0DCD65A94F8CF97FE4AC04601D7FEC5
:1059500002C0812C912CC60188199909F301E80F26
:10596000F91FFE87ED87960124193109388B2F879F
:10597000012F10E01195019511093FEF8316930651
:1059800021F4B7018EE290E0B9D6C814D9044CF0E6
:105990008F8598898815990524F4ED85FE85818188
:1059A00001C080E3F1E08F1A91082D853E852F5FBD
:1059B0003F4F3E872D878016910624F0B70190E077
:1059C0009DD6DBCFC814D90441F49A81963320F4D4
:1059D000953319F43C8534FF81E3B70190E048C06A
:1059E0008A81813319F09C859F7E9C87B70190E066
:1059F00085D6111105C094FC16C085E690E015C04F
:105A0000B7018EE290E07AD61E5F82E001E0080FD7
:105A1000F301E80FF11D8081B70190E06FD6802F70
:105A20000113F4CFE8CF85E490E0B70167D6D7FC47
:105A300006C0C114D10441F4EC85E4FF05C0D19443
:105A4000C194D1088DE201C08BE2B70190E056D637
:105A500080E32AE0C216D1042CF08F5FFAE0CF1A5F
:105A6000D108F7CFB70190E049D6B701C601C0967B
:105A700045D649C1833631F0833779F0833509F053
:105A800052C01FC0560132E0A30EB11CF601808146
:105A9000898301E010E0630111C05601F2E0AF0E0E
:105AA000B11CF601C080D18096FE03C0612F70E06A
:105AB00002C06FEF7FEFC60116D68C01F92DFF777C
:105AC00013C0560122E0A20EB11CF601C080D180A5
:105AD00096FE03C0612F70E002C06FEF7FEFC6013A
