:1000000066C1000085C1000083C1000081C10000FD
:100010007FC100007DC100007BC1000079C10000EC
:1000200077C1000075C1000073C1000071C10000FC
:1000300047C700006DC100006BC1000069C100002E
:1000400067C1000065C1000063C1000061C100001C
:100050005FC100005DC100005BC1000059C100002C
:1000600057C100000C94BD270C940F2851C100000B
:100070004FC100004DC100004BC1000049C100004C
:1000800047C1000045C1000043C1000041C100005C
:100090000C9453280C94A5283BC100000C94F02C20
:1000A00037C1000035C1000033C1000031C100007C
:1000B0002FC100002DC100002BC1000029C100008C
:1000C00027C1000025C1000023C100000C94E928CD
:1000D0000C943B291DC100000C947F290C94D1295C
:1000E00017C100003A1D3A1D3A1D711D791D8E1D64
:1000F0003A1D3A1D711D791D122D822D822D822DE2
:10010000822D822D822D822D122D822D822D822DE7
:10011000822D822D822D822D142D822D822D822DD5
:10012000822D822D822D822D822D822D822D822D57
:10013000822D822D822D822D142D822D822D822DB5
:10014000822D822D822D822D822D822D822D822D37
:10015000822D822D822D822D7E2D822D822D822D2B
:10016000822D822D822D822D492D822D822D822D50
:10017000822D822D822D822D822D822D822D822D07
:10018000822D822D822D822D3D2D822D822D822D3C
:10019000822D822D822D822D612D6E616E00696E01
:1001A000660000407A10F35A00A0724E1809001041
:1001B000A5D4E80000E87648170000E40B540200DC
:1001C00000CA9A3B000000E1F50500008096980007
:1001D000000040420F000000A08601000000102730
:1001E00000000000E80300000000640000000000C0
:1001F0000A00000000000100000000002C76D888F2
:10020000DC674F0823DFC1DFAE59E1B1B796E5E304
:10021000E453C63AE651997696E8E6C28426EB891D
:100220008C9B62ED407C6FFCEFBC9C9F40F2BAA5BA
:100230006FA5F490055A2AF75C936B6CF9676DC152
:100240001BFCE0E40D47FEF520E6B500D0ED902E56
:100250000300943577050080841E080000204E0AB4
:10026000000000C80C333333330F986E12831141F2
:10027000EF8D2114893BE65516CFFEE6DB18D184BD
:100280004B381BF77C1D901DA4BBE42420328472E4
:100290005E228100C9F124ECA1E53D270E947B0F7D
:1002A00080916117823008F045D50E94B71DF6CFC6
:1002B000CF93DF931F92CDB7DEB7CE0101960E9498
:1002C000B71A49810E94AC1C0E94031DF6CF11246D
:1002D0001FBECFEFD1E2DEBFCDBF00E00CBF19E003
:1002E000A0E0B2E0E6E2FEE600E00BBF02C007904D
:1002F0000D92AA33B107D9F729E1AAE3B9E001C009
:100300001D92A935B207E1F70E948E200C94113797
:1003100077CECF93DF93CDB7DEB76A970FB6F89459
:10032000DEBF0FBECDBF0E94CC1069837A838B8362
:100330009C8348EA58E460E070E0CE0101960E9498
:10034000E21245E050E060E070E080914919909140
:100350004A193BD2CC24CA94DC2C760101E021E07E
:100360004AE050E060E070E08091471990914819B0
:100370008CD1DC01CB018A709927AA27BB27892B56
:100380008A2B8B2BB1F20E94CF1E0E94DB1D0E9494
:10039000D41E0E94E01D0E94471E0E94E51D62E0DF
:1003A000CE0105960E94EA1D0FEF1FEF980146E16E
:1003B00050E0BE016B5F7F4F80914B1990914C19BB
:1003C0000E949E0C863129F08FE692E00E945436FE
:1003D000B0CF99279F938F938AE792E09F938F9353
:1003E0000E9440360F900F900F900F90A2CFEF9287
:1003F000FF920F93E12CF12C082F20E030E040EC2D
:1004000050E063E972E089E891E00E9442100F91A8
:10041000FF90EF90089580913C0990913D090895D7
:1004200090933D0980933C09089590933B098093F4
:100430003A090895EF92FF920F931F93CF93DF93A2
:10044000CDB7DEB7EC84F12CFE2CEE248D85E82AA6
:100450000E8510E0102F00278F85082BC701E0DFE5
:10046000802F912FE2DF1F930F93FF92EF9283EA89
:1004700092E09F938F930E9440360F900F900F90C1
:100480000F900F900F90DF91CF911F910F91FF90E0
:10049000EF9008950FEF1FEF980146E150E06EE3F3
:1004A00079E080914D1990914E190E94A70D8823F3
:1004B00089F3EEE3F9E0918180811F929F931F926F
:1004C0008F938AEC92E09F938F930E9440368091A5
:1004D0004519909146190F900F900F900F900F9023
:1004E0000F900097B9F24AE050E060E070E0B4D7B6
:1004F000813039F58DB79EB746970FB6F8949EBFF9
:100500000FBE8DBFADB7BEB7119686E1EEE3F9E041
:1005100001900D928A95E1F78DDF00E020E030E058
:10052000A90160E070E080914519909146191AD6B2
:100530008DB79EB746960FB6F8949EBF0FBE8DBF7F
:10054000A9CF8BEF92E00E945436A4CFEF92FF9296
:100550000F93E12CF12C082F20E030E048E851E027
:1005600066E173E08AE492E00E9442100F91FF90EE
:10057000EF900895CF93DF9300D01F92CDB7DEB7F1
:100580000E94CC1069837A838B839C8340E15DE178
:1005900060E070E0CE0101960E94E2123CDF7C0137
:1005A0000E94821E0E94CF1E8C010E94D41EC80190
:1005B0006AE070E00E9441338B011F936F9385E2E4
:1005C00093E09F938F930E944036FF92EF9287E3D0
:1005D00093E09F938F930E9440360FB6F894DEBF4E
:1005E0000FBECDBFE016F10614F412B8CFCF8FEFD7
:1005F00082B9CCCFEF92FF920F939FEF91B992B94E
:10060000E12CF12C082F20E030E040EC50E06BE4CE
:1006100073E08AEB92E00E9442100F91FF90EF90FE
:1006200008950F9301110CC0DC01CB0182239323A9
:10063000A423B523892B8A2B8B2B79F480E010C05F
:10064000DC01CB0182239323A423B5232817390788
:100650004A075B0721F080E003C081E001C081E030
:100660000F910895CF93DF938FE090E0AFD1EC012D
:10067000009739F0FC011192119211921192CF0161
:100680008BD2CE01DF91CF9108952F923F924F925E
:100690005F926F927F928F929F92AF92BF92CF9212
:1006A000DF92EF92FF920F931F93CF93DF93EC01B2
:1006B0004A015B01622E702E0E94C610288039808C
:1006C0004A805B80A5019401C201B101AADF8823A1
:1006D000A1F0662089F1D501C40180959095A0957F
:1006E000B09582219321A421B52188839983AA837F
:1006F000BB83C12CD12C760122C0C114D104E104EA
:10070000F104E9F0611004C040E050E0BA0104C017
:1007100040E050E060E071E07110746048295929B0
:100720006A297B2997018601CE0104960E94DE1377
:10073000212C312C210103C0C12CD12C76010E9427
:100740000612CD28CE28CF2859F1811101C0F2D24E
:100750000E94A0176B017C0191FD1FC00FB6F89499
:100760000F92C880D980EA80FB80072DA5019401F3
:10077000C701B60156DF882371F0662061F08094CE
:100780009094A094B0948C209D20AE20BF208882AD
:100790009982AA82BB820F900FBE160127015524B1
:1007A000C201B101DF91CF911F910F91FF90EF90A6
:1007B000DF90CF90BF90AF909F908F907F906F9081
:1007C0005F904F903F902F9008954F925F926F925D
:1007D0007F92AF92BF92CF92DF92EF92FF920F93F0
:1007E0001F93CF93DF93EC016A017B018C01095FBA
:1007F0001F4F0E94C610EB85FC8588819981AA81D4
:10080000BB81C82AD92AEA2AFB2AC882D982EA826D
:10081000FB82C12CD12C76013DC0A480B5808081A3
:100820009181A281B381AC01BD017727B2FD0EC0D9
:10083000488059806A807B80442255226622772234
:1008400045284628472889F420E012C0488059806E
:100850006A807B8044225522662277224415550502
:100860006605770521F020E003C021E001C021E00A
:10087000222371F0B0FF04C0C42AD52AE62AF72A41
:10088000488159816A817B817260CF010E9419156C
:10089000EA2DFB2DE017F10709F0BFCFC094D094EB
:1008A000E094F09488819981AA81BB81C822D922E1
:1008B000EA22FB22C882D982EA82FB820E940612C7
:1008C000688179818A819B81DF91CF911F910F91FE
:1008D000FF90EF90DF90CF90BF90AF907F906F90A0
:1008E0005F904F900895E0E6F9E0A4E6B9E0B183A7
:1008F000A08313821282ECE0F7E1F0935F09E093AA
:100900005E09138212821182108288EA9DE013969A
:100910009C938E931297ED93FC9390935B09809335
:100920005A0990935D0980935C0980E090E8909368
:100930005509809354090895CF93DF93EC01A0E605
:10094000B9E001C0DF01ED91FC911197EC17FD07B3
:10095000C8F312968D919C9113979D01280F391F12
:10096000C217D30749F42A813B81820F931F139644
:100970009C938E931297ED018A819B819E01280F93
:10098000391FE217F307C1F420915E0930915F0926
:10099000E217F30771F022813381820F931F9B834B
:1009A0008A83ED91FC91119780819181998388834D
:1009B00005C03983288302C0F983E883CA17DB079F
:1009C00011F0CD93DC93DF91CF910895EF92FF92D8
:1009D0000F931F93CF93DF938C010E94C6108091D9
:1009E0005E0990915F09892B09F47DDF809154099C
:1009F0009091550980239123892B09F076C0011528
:100A0000110549F0C80104960817190718F000E00D
:100A100010E001C08C010115110509F469C0809135
:100A20005C0990915D098017910708F464C0C0913A
:100A30006009D0916109E0E6F9E002C0FE01EC0135
:100A40008A819B818017910720F488819981009782
:100A5000A9F780915E0990915F09C817D90709F439
:100A60004DC0E080F18084E0E80EF11C888199811E
:100A7000918380832A813B81201B310B29303105F2
:100A800048F0CE01800F911FFC01338322831B832A
:100A90000A8352DF2A813B8180915C0990915D0934
:100AA000821B930B90935D0980935C0940915A09D6
:100AB00050915B098417950720F490935B0980930C
:100AC0005A098091540990915509282B392B3B8361
:100AD0002A831982188280915809909159090196A8
:100AE00090935909809358090BC0E12CF12C08C050
:100AF000E12CF12C05C0E12CF12C02C0E12CF12CF1
:100B00000E940612E114F10411F40E94C31DC701F2
:100B1000DF91CF911F910F91FF90EF9008950F9368
:100B20001F93CF93DF93009791F1EC0124974A81B3
:100B30005B812091540930915509BA0162237323D6
:100B4000672B29F168817981672B09F5209530950C
:100B5000242335233B832A830E94C6108A819B81EC
:100B600020915C0930915D09820F931F90935D097C
:100B700080935C09CE01E0DE80915609909157097F
:100B8000019690935709809356090E940612DF91AF
:100B9000CF911F910F910895FC0103969283818359
:100BA0004FEF5FEFBA014383548365837683908769
:100BB00087839287818710820895FC0113861286AD
:100BC00008950F931F93CF93DF93EB010881198151
:100BD0002A813B810F3F4FEF14072407340721F48C
:100BE000FC01A185B28511C0DC01139601C0DF01B3
:100BF0001496ED91FC91159740815181628173812A
:100C0000041715072607370790F71496ED91FC9106
:100C10001597FD83EC83D783C683BF83AE83159678
:100C2000DC93CE9314979B878A87FC0120812F5FEA
:100C30002083DF91CF911F910F910895CF93DF9380
:100C4000FC01A285B385C481D581868197819F836C
:100C50008E83C681D781848195819D838C831196F3
:100C60008D919C911297E817F90731F4868197814D
:100C700012969C938E931197138612868C918150B5
:100C80008C938C91DF91CF910895A89590EC88E199
:100C90000FB6F894A895809360000FBE9093600003
:100CA0000895FC01608331977083319710823197EA
:100CB0001082319720E8208331971082319710827B
:100CC00031971082779740833197508386970895A4
:100CD000DCDFA091CF17B091D017CD91CDBFDD91C2
:100CE000DEBFFF91EF91DF91CF91BF91AF919F91C7
:100CF0008F917F916F915F914F913F912F911F91B4
:100D00000F91FF90EF90DF90CF90BF90AF909F90AA
:100D10008F907F906F905F904F903F902F901F909B
:100D20000F900CBE0F900BBE0F900FBE0F9008954A
:100D300081E008950F920FB6F8940F920BB60F92C0
:100D40000CB60F921F9211242F923F924F925F92F6
:100D50006F927F928F929F92AF92BF92CF92DF92CB
:100D6000EF92FF920F931F932F933F934F935F93B5
:100D70006F937F938F939F93AF93BF93CF93DF93A3
:100D8000EF93FF93A091CF17B091D0170DB60D92AE
:100D90000EB60D920E946213A091CF17B091D0179A
:100DA000CD91CDBFDD91DEBFFF91EF91DF91CF916E
:100DB000BF91AF919F918F917F916F915F914F9173
:100DC0003F912F911F910F91FF90EF90DF90CF9067
:100DD000BF90AF909F908F907F906F905F904F905B
:100DE0003F902F901F900F900CBE0F900BBE0F9056
:100DF0000FBE0F9008950F920FB6F8940F920BB696
:100E00000F920CB60F921F9211242F923F924F9285
:100E10005F926F927F928F929F92AF92BF92CF928A
:100E2000DF92EF92FF920F931F932F933F934F9375
:100E30005F936F937F938F939F93AF93BF93CF9362
:100E4000DF93EF93FF93A091CF17B091D0170DB61A
:100E50000D920EB60D9213BE0E94DA1081110E94FF
:100E60006213A091CF17B091D017CD91CDBFDD9176
:100E7000DEBFFF91EF91DF91CF91BF91AF919F9135
:100E80008F917F916F915F914F913F912F911F9122
:100E90000F91FF90EF90DF90CF90BF90AF909F9019
:100EA0008F907F906F905F904F903F902F901F900A
:100EB0000F900CBE0F900BBE0F900FBE0F900895B9
:100EC0009ADF1895DC0153962C915397222341F019
:100ED0005A96ED91FC915B9790818AE0891B089569
:100EE00080E008950FB6F8940F92FC01868D811171
:100EF00002C081E001C080E00F900FBE08950FB6E0
:100F0000F8940F92FC01268D878D281302C081E092
:100F100001C080E00F900FBE08950F931F93CF93F1
:100F2000DF93EC01042F1E8D48A141110CC0888174
:100F30009981892B09F042C08C819D810E94DE1627
:100F40001D821C8242C0011117C050E08A819B8122
:100F50000E949A3528A18A819B81820F911D9B83D3
:100F60008A832C813D818217930750F18881998172
:100F70009B838A8380E029C050E08E819F810E94FC
:100F80009A3588A190E09195819591092E813F81B4
:100F9000280F391F3F832E83488159812417350735
:100FA00030F42C813D81820F931F9F838E8302300A
:100FB00049F4112349F0115080E007C080E005C0DA
:100FC00080E003C080E001C080E01F5F1E8FDF91E2
:100FD000CF911F910F910895FC0140A14423A9F0E6
:100FE00050E026813781240F351F37832683848183
:100FF00095812817390720F0808191819783868316
:10100000CB01668177810C949A3508951F93CF9315
:10101000DF93EC010FB6F8940F921AA10BC08B89E5
:10102000882351F0CE0143960E946A1481110E94D8
:101030004016115011169CF38FEF8AA30F900FBE2C
:101040000FB6F8940F9219A10BC08885882351F030
:10105000CE0108960E946A1481110E944016115018
:1010600011169CF38FEF89A30F900FBEDF91CF91E4
:101070001F910895CF93DF93EC010FB6F8940F9270
:10108000E881F9818F8D28A190E030E0829FA00156
:10109000839F500D929F500D11244E0F5F1F5D8353
:1010A0004C831E8EFB83EA830197289FA001299F12
:1010B000500D389F500D1124CF01840F951F9F8331
:1010C0008E838FEF89A38AA361110BC08885882343
:1010D00071F0CE0108960E946A14882341F02ADE3E
:1010E00006C0CE01089658DDCE01439655DD0F901F
:1010F0000FBE81E0DF91CF9108950F931F93F80108
:10110000611103C01183008302C051834083878F24
:1011100060A361E0CF01AEDF1F910F910895DF92D0
:10112000EF92FF920F931F93CF93DF93F82EE62E4B
:10113000D42E869FC0011124839648DCEC010097D1
:1011400041F08C012D2DAC014D5D5F4F6E2D8F2D2B
:10115000D4DFCE01DF91CF911F910F91FF90EF90DF
:10116000DF900895CF92DF92EF92FF920F931F933B
:10117000CF93DF93CDB7DEB729970FB6F894DEBFD4
:101180000FBECDBF7C016B012E833F8348875987FB
:1011900010E00FB6F8940F92F701968D878D98178F
:1011A00010F00230B1F4402FB601C701B6DEF701EE
:1011B0009389992341F0C70143960E946A148823BA
:1011C00021F0B8DD02C08111B5DD0F900FBE81E0C6
:1011D0004CC08E819F81A885B985892B8A2B8B2B4A
:1011E00021F40F900FBE80E040C0111105C0CE0168
:1011F00001960E94C91511E00F900FBEC7D70FB618
:10120000F8940F92F70181A18F3F09F411A2F70121
:1012100082A18F3F09F412A20F900FBEBE016A5F38
:101220007F4FCE0101960E94DA15811119C0C701C6
:1012300066DE882381F04E815F8168857985C701EC
:1012400008960E94C713C701E1DE0E9406128111B1
:10125000A0CF70DD9ECFC701D9DE0E94061299CFC4
:10126000C701D4DE0E94061280E029960FB6F894DA
:10127000DEBF0FBECDBFDF91CF911F910F91FF90C9
:10128000EF90DF90CF9008950F93009769F0FC01E5
:101290001582148211821082168200E020E030E074
:1012A000A90160E070E05EDF0F910895CF93DF93B6
:1012B000482F60E081E033DFEC01E6DFCE01DF9113
:1012C000CF910895EF92FF920F931F93CF93DF93E7
:1012D0008A01FC01568D378D531710F02230F9F436
:1012E000422F7801EC011AA18E8DCE0116DE1F3F30
:1012F00081F48B898823A9F0CE0143960E946A1459
:10130000882389F0E114F10481F081E0F701808302
:101310000DC0FF24F394F10EFAA281E007C080E033
:1013200005C081E003C081E001C081E0DF91CF9181
:101330001F910F91FF90EF900895CF92DF92EF925F
:10134000FF920F931F93CF93DF93CDB7DEB729970B
:101350000FB6F894DEBF0FBECDBF8C016B012E839C
:101360003F8348875987E12C0FB6F8940F92F80114
:10137000F68CFF2099F0B601C8012EDEFA94F80130
:10138000F68E8085882331F0C80108960E946A1481
:101390008111D0DC0F900FBE81E04FC08E819F8104
:1013A000A885B985892B8A2B8B2B21F40F900FBE32
:1013B00080E043C0E11006C0CE0101960E94C9152D
:1013C000EE24E3940F900FBEE1D60FB6F8940F927F
:1013D000F80181A18F3F09F411A2F80182A18F3F8A
:1013E00009F412A20F900FBEBE016A5F7F4FCE01BB
:1013F00001960E94DA15811117C0C80173DD882398
:1014000079F04E815F8168857985C80143960E9495
:10141000C713C801FBDDFAD78111A6CF8BDCA4CF9F
:10142000C801F4DDF3D7A0CFC801F0DDEFD7C801C4
:1014300059DD882309F498CF80E029960FB6F894F7
:10144000DEBF0FBECDBFDF91CF911F910F91FF90F7
:10145000EF90DF90CF900895EF92FF920F931F933C
:10146000CF93DF93CDB7DEB729970FB6F894DEBFE1
:101470000FBECDBF8C014E835F8368877987E12CD7
:10148000F12C0FB6F8940F92F801868D8823C9F0DD
:101490008150868F80819181892B29F40E94CA17FF
:1014A000F80195838483F8018085882331F0C80191
:1014B00008960E946A1481113DDC0F900FBE81E0F6
:1014C0006FC08E819F81A885B985892B8A2B8B2B34
:1014D00021F40F900FBE80E063C0F11006C0CE0172
:1014E00001960E94C915FF24F3940F900FBE4ED6AB
:1014F0000FB6F8940F92F80181A18F3F09F411A261
:10150000F80182A18F3F09F412A20F900FBEBE0115
:101510006A5F7F4FCE0101960E94DA15811126C0C5
:10152000C801E0DC8823F1F0F80180819181892BEA
:1015300051F40FB6F8940F92848195810E9457164A
:10154000E82E0F900FBE4E815F8168857985C801B6
:1015500043960E94C713C80159DD58D7811191CF16
:10156000E9DB8FCFC80152DD51D78BCFC8014EDDEB
:101570004DD7C801B7DC882309F483CFEE2079F07A
:101580000FB6F8940F92C8019DDC682FF801848192
:1015900095810E9439170F900FBE80E001C080E056
:1015A00029960FB6F894DEBF0FBECDBFDF91CF9165
:1015B0001F910F91FF90EF900895CF93DF93EC016F
:1015C0000FB6F8940F9289A18F3F09F419A28AA14E
:1015D0008F3F09F41AA20F900FBE8E8D811104C0A7
:1015E000CE0143960E942814CE0110DDDF91CF91E9
:1015F0000895FC014481558122813381240F351FD8
:1016000080819181B901681B790BCB016417750743
:1016100010F0841B950B08950F93FC018FE0DF0100
:101620001D928A95E9F775876487558344833783CC
:10163000268306870F910895AF92BF92CF92DF92D3
:10164000EF92FF920F931F93CF93DF936C015B0197
:101650007A01FC01C281D381048115810C1B1D0B11
:101660004017510708F48A01F60184859585A80181
:10167000B5018C0F9D1F0E949A350E151F0558F459
:10168000A701401B510BB501600F711FF601848546
:1016900095850E949A35CE018E0D9F1DF6012481FD
:1016A00035818217930710F0821B930BF601938309
:1016B0008283C701DF91CF911F910F91FF90EF902F
:1016C000DF90CF90BF90AF900895CF92DF92EF92CE
:1016D000FF920F931F93CF93DF931F921F92CDB76B
:1016E000DEB77C016B015A83498321153105C1F0B6
:1016F000FC01868580FD08C04217530708F49A0153
:101700003A83298381E00FC02017310758F042E067
:1017100050E0BE016F5F7F4FC7018EDF81E003C0E5
:1017200080E001C080E0882331F049815A81B60110
:10173000C70182DF02C080E090E00F900F90DF9140
:10174000CF911F910F91FF90EF90DF90CF90089570
:10175000AF92BF92CF92DF92EF92FF920F931F93BF
:10176000CF93DF937C015B01E9014217530708F433
:10177000EA01209781F1F70100811181848195812F
:10178000801B910B6E018C179D0708F46C01F7010B
:1017900064857585600F711FA601C5010E949A3589
:1017A000CC16DD0658F4AE014C195D09F7016485CD
:1017B0007585C5018C0D9D1D0E949A350C0F1D1F4E
:1017C000F701848195810817190710F0081B190B80
:1017D000F70111830083CE01DF91CF911F910F910B
:1017E000FF90EF90DF90CF90BF90AF9008956F92F1
:1017F0007F928F929F92AF92BF92CF92DF92EF92A1
:10180000FF920F931F93CF93DF931F921F92CDB739
:10181000DEB76C014B015A01790101151105B1F0D8
:10182000FC0160807180A801BE016F5F7F4F90DF77
:1018300089819A81E01AF10AA816B90630F4F601F6
:1018400071826082A12CB12C01C05C019701A501BD
:10185000B401C6017DDF0F900F90DF91CF911F91F2
:101860000F91FF90EF90DF90CF90BF90AF909F903F
:101870008F907F906F900895CF92DF92EF92FF92BA
:101880000F93CF93DF93EC016B01413011F401E032
:1018900001C000E0C114D10419F4CC24C394D12CAC
:1018A000CE014096C817D90720F421968FD87C0125
:1018B00002C0E12CF12CE114F10439F09601AE01E3
:1018C000B701615F7F4FC701A7DEC701DF91CF91ED
:1018D0000F91FF90EF90DF90CF9008950F930FB688
:1018E000F8940F92FC0120853185232B71F4228519
:1018F0003385232B61F426813781448155816485AA
:101900007585068589DE81E003C080E001C080E046
:101910000F900FBE0F910895FC01248135818081C5
:101920009181820F931F42815381841B950B0197F4
:101930008217930710F0821B930B08952F923F920A
:101940004F925F926F927F928F929F92AF92BF92CF
:10195000CF92DF92EF92FF920F931F93CF93DF937B
:10196000CDB7DEB72B970FB6F894DEBF0FBECDBF55
:101970004C017B876A871A010E831F83288739876A
:10198000FC01848195810197268520FF0CC02A01E6
:10199000F2E04F0E511C8415950558F41E821F82EB
:1019A0001886198606C08417950710F02A0101C011
:1019B0002C018E819F81A885B985892B8A2B8B2B41
:1019C00009F438C0CE0101960E94B3150FB6F89401
:1019D0000F92C401A1DF3C018415950540F560E03C
:1019E00080E090E00E949D1A0E944416F4019387C3
:1019F00082870F900FBEAE80BF80C884D984E12C4F
:101A0000F12C00E010E0980140E050E0BA0180E0E5
:101A10000E94DC17F40113861286BE016A5F7F4FB5
:101A2000CE0101960E94DA15882381F205C00F903D
:101A30000FBE02C0612C712C6114710419F4C40131
:101A40006BDF3C0182019301A1016A857B85C401A2
:101A50003CDE6C01892BE9F0C401CBDDF401268169
:101A6000378182179307A8F091D3F401808591857F
:101A7000892B71F080859185E12CF12C00E020E02C
:101A800030E0A90160E00E948418F40111861086FC
:101A9000BDD4C6012B960FB6F894DEBF0FBECDBFE6
:101AA000DF91CF911F910F91FF90EF90DF90CF903A
:101AB000BF90AF909F908F907F906F905F904F906E
:101AC0003F902F900895AF92BF92CF92DF92EF9206
:101AD000FF920F931F93CF93DF93EC017B015A0189
:101AE00069018E8580FF04C08A010E5F1F4F01C00F
:101AF0008A01CE0111DF9C01A501B701CE01E5DD10
:101B00005C01892BC1F0CE0174DD2E813F818217EB
:101B1000930788F088859985892B69F08885998550
:101B2000E12CF12C00E020E030E0A90160E00E940F
:101B30007B1919861886C501DF91CF911F910F91EE
:101B4000FF90EF90DF90CF90BF90AF9008954F92AD
:101B50005F926F927F928F929F92AF92BF92CF923D
:101B6000DF92EF92FF920F931F93CF93DF93EC01DD
:101B70002B013A01580169018E8580FF05C06894E8
:101B8000882481F8912C02C0812C912CA114B104DD
:101B9000C104D10441F10FB6F8940F92CE0129DDB2
:101BA0007C018816990648F060E080E090E00E9491
:101BB0009D1A0E944416998788870F900FBE8E1435
:101BC0009F04A0F0E12CF12C00E010E0980140E02F
:101BD00050E0BA0180E00E94DC1719861886CE0119
:101BE00008DD7C0103C0CE0104DD7C018E149F045E
:101BF000E8F484019701A301B201CE01F8DD6C0184
:101C0000892BB1F0C3D28A859B85892B69F08A859F
:101C10009B85E12CF12C00E020E030E0A90160E0A0
:101C20000E9484181B861A86F1D302C0C12CD12CC5
:101C3000C601DF91CF911F910F91FF90EF90DF9040
:101C4000CF90BF90AF909F908F907F906F905F905C
:101C50004F900895E0914917F0914A1780818111C2
:101C60000CC08FEF9FEFDC01809313179093141734
:101C7000A0931517B09316170895E0914917F091A6
:101C80004A170780F085E02D80819181A281B38180
:101C90008093131790931417A0931517B0931617EA
:101CA0000895CF93DF93EC018B8D9C8D0E948F055F
:101CB000CE010E948F05DF91CF9108954F925F92E0
:101CC0006F927F928F929F92AF92BF92CF92DF924C
:101CD000EF92FF920F93CF93DF932C015B014A01A8
:101CE0003901E60165EA70E08B8D9C8D0E94A33579
:101CF0008B8D9C8D21E0821A9108880E991EA1146B
:101D0000B10489F415C0822F90E0F501E80FF91FA6
:101D10003081DE01A80FB91F5D963C938081882336
:101D200029F02F5F01C020E0203168F31CA601C01C
:101D30001D8E0A3008F009E00A8F0DA71EA6CE01FD
:101D400002960E94DD05CE010E960E94DD05DB871E
:101D5000CA878AE090E0A0E0B0E0801B9109A10969
:101D6000B1098E879F87A88BB98BDF8BCE8B84E0E0
:101D7000FE01BF96DF011D928A95E9F71BAAA30118
:101D8000B201C4010E94510699838883E114F104D1
:101D900019F0F701D183C083DF91CF910F91FF90AC
:101DA000EF90DF90CF90BF90AF909F908F907F90FB
:101DB0006F905F904F900895CF93C0E009C02BE0E3
:101DC000C29FC00111248F59984E0E94CC05CF5F4D
:101DD000CA30A8F386E597E10E94CC058BE497E131
:101DE0000E94CC058CE397E10E94CC0581E397E14A
:101DF0000E94CC0585E297E10E94CC0586E597E13B
:101E000090934A17809349178BE497E19093481772
:101E100080934717CF910895CF93DF93EC010FB6CE
:101E2000F8940F92809124178F5F809324178091EC
:101E3000CF179091D017892B51F4D093D017C0931E
:101E4000CF1780912417813091F4B6DF10C08091B4
:101E50001E1781110CC0E091CF17F091D017928D11
:101E60008A8D891720F0D093D017C093CF17809117
:101E700017178F5F80931717EA8D80911F178E17A2
:101E800010F4E0931F178BE08E9FF0011124EF599F
:101E9000F84E0180F281E02DFF83EE8326813781A9
:101EA00039872887A681B7819E012E5F3F4F1596FF
:101EB0003C932E93149737832683EA8D8E9FF001EF
:101EC0001124EF59F84EFD87EC8780818F5F808366
:101ED0000F900FBE80911E17882351F0E091CF170D
:101EE000F091D017928D8A8D981710F40E949A065F
:101EF000DF91CF910895CF93DF931BC00FB6F89475
:101F00000F92E0913817F0913917C085D185CE0135
:101F100002960E941E0680912417815080932417F8
:101F2000809130178150809330170F900FBECE01F3
:101F3000B8DE809130178111E1CFDF91CF91089504
:101F40008F929F92AF92BF92CF92DF92EF92FF92C9
:101F5000CF93DF936B017C01C42F8090201790906A
:101F60002117A0902217B09023178091CF1790913E
:101F7000D01702960E941E068FEFC816D806E806F4
:101F8000F806B1F5CC23A1F1E5E2F7E1A181B28138
:101F9000C091CF17D091D017BF83AE83C091CF1718
:101FA000D091D01716968D919C9117979987888715
:101FB0001696CD91DC9117978091CF179091D017FD
:101FC00002969D838C838091CF179091D0170296B3
:101FD00017969C938E931697A091CF17B091D01718
:101FE0001D96FC93EE931C9780818F5F80833FC08A
:101FF000C80CD91CEA1CFB1CE091CF17F091D0173C
:10200000C282D382E482F582C814D904EA04FB04B4
:1020100068F46091CF177091D01780914717909115
:1020200048176E5F7F4F0E94E10521C06091CF1776
:102030007091D0178091491790914A176E5F7F4F2A
:102040000E94E1058091131790911417A091151724
:10205000B0911617C816D906EA06FB0640F4C092DE
:102060001317D0921417E0921517F0921617DF91FC
:10207000CF91FF90EF90DF90CF90BF90AF909F9067
:102080008F9008952F923F924F925F926F927F921E
:102090008F929F92AF92BF92CF92DF92EF92FF9278
:1020A0000F93CF93DF933C011B014A012901CA0121
:1020B0000E94E6046C01892B71F084E390E00E9499
:1020C000E604EC01892B19F0DC8ECB8E06C0C6012C
:1020D0000E948F0502C0C0E0D0E0209761F0A12CE3
:1020E000B12C6E019201A401B101C301E7DDCE0163
:1020F00093DE81E001C08FEFDF91CF910F91FF90D0
:10210000EF90DF90CF90BF90AF909F908F907F9097
:102110006F905F904F903F902F900895EF92FF92B5
:102120000F930F2EF1E1EF2EF7E1FF2EF02D00E0DF
:1021300020E030E040EC50E069E573E08EE491E0AF
:10214000A1DF813011F40E94411B8130C9F4F89461
:102150008FEF9FEFDC018093131790931417A093D8
:102160001517B093161781E080931E171092201751
:102170001092211710922217109223170E946806BE
:10218000809106020F91FF90EF90089580911017B3
:102190008F5F8093101708950FB6F8940F92609197
:1021A00020177091211780912217909123170F907B
:1021B0000FBE0895CF92DF92EF92FF92CF93DF93FD
:1021C00080911017811105C1C0902017D090211760
:1021D000E0902217F09023178FEFC81AD80AE80A68
:1021E000F80AC0922017D0922117E0922217F0929D
:1021F0002317C114D104E104F104B1F4809149170B
:1022000090914A17209147173091481730934A17F9
:102210002093491790934817809347178091181778
:102220008F5F8093181716DD809113179091141704
:10223000A0911517B0911617C816D906EA06FB0625
:1022400020F480E0B2C081E001C080E0E091491755
:10225000F0914A17908191110CC04FEF5FEFBA01D6
:102260004093131750931417609315177093161714
:102270009CC0E0914917F0914A170780F085E02D46
:102280000084F185E02D4281538164817581C416FB
:10229000D506E606F70648F4409313175093141733
:1022A000609315177093161780C0A485B585C681F5
:1022B000D781208531853F832E83C085D1852681B6
:1022C00037813D832C8311964D915C9112979F012C
:1022D0002E5F3F4F4217530731F4408551851296C8
:1022E0005C934E931197158614869C9191509C9304
:1022F000A08DB18D109709F1C289D3894489558980
:102300005F834E83C489D589428953895D834C8319
:1023100011966D917C911297AF01425F5F4F6417E8
:10232000750731F44489558912965C934E93119741
:10233000118E108E9C9191509C93A28D90911F179D
:102340009A1710F4A0931F179BE09A9FD0011124B5
:10235000AF59B84E11960D90BC91A02DB783A683AE
:1023600016964D915C911797518740871696CD919F
:10237000DC9117973D832C8317963C932E931697E9
:10238000A28D9A9FD0011124AF59B84EB587A4876A
:102390009C919F5F9C93228DE091CF17F091D01775
:1023A000928D291708F04FCF51CFE091CF17F091C0
:1023B000D017E28D9BE0E99FF0011124EF59F84E10
:1023C0009081923008F081E090911917911116C018
:1023D00016C080911A1790911B17A0911C17B091ED
:1023E0001D170196A11DB11D80931A1790931B17FD
:1023F000A0931C17B0931D1780E001C081E0DF910E
:10240000CF91FF90EF90DF90CF900895CF92DF9221
:10241000EF92FF92CF93DF930FB6F8940F928091D3
:102420001017815080931017809110178111BEC032
:1024300080912417811188C0BCC0E0914317F091AE
:1024400044170084F185E02DA08DB18DC289D38918
:10245000848995899F838E83C489D589828993894C
:102460009D838C8311962D913C911297CF010E96EE
:102470002817390731F48489958912969C938E9395
:102480001197118E108E8C9181508C93A485B585F7
:10249000C681D781808591859F838E83C085D185B4
:1024A000868197819D838C8311968D919C91129743
:1024B0009F012E5F3F4F8217930731F480859185EE
:1024C00012969C938E931197158614868C91815049
:1024D0008C93A28D80911F178A1710F4A0931F1759
:1024E0008BE08A9FD0011124AF59B84E11960D9000
:1024F000BC91A02DB783A68316964D915C9117973A
:10250000518740871696CD91DC9117973D832C8398
:1025100017963C932E931697A28D8A9FD001112473
:10252000AF59B84EB587A4878C918F5F8C93928DED
:10253000A091CF17B091D0175A968C91981730F080
:1025400081E08093191702C0E0E0F0E080913C1731
:10255000811173CFEF2B09F07DDBC0901A17D0905B
:102560001B17E0901C17F0901D17C114D104E10453
:10257000F104A1F01FDE882319F081E08093191780
:1025800081E0C81AD108E108F108A1F710921A17E2
:1025900010921B1710921C1710921D17809119177B
:1025A000882331F00E949A0681E003C080E001C0D8
:1025B00080E00F900FBEDF91CF91FF90EF90DF9002
:1025C000CF9008958F929F92AF92BF92CF92DF9259
:1025D000EF92FF921F93CF93DF93EC016A017B018F
:1025E000D5DD8090201790902117A0902217B090F1
:1025F000231788819981AA81BB81AC01BD014C0D53
:102600005D1D6E1D7F1D88169906AA06BB0660F427
:10261000481759076A077B0798F484169506A6069B
:10262000B70680F010E013C0481759076A077B0708
:1026300058F084169506A606B70640F010E007C0CD
:1026400010E005C011E003C011E001C011E04883B3
:1026500059836A837B83112341F0CB01BA01681946
:1026600079098A099B0940E06BDCD0DE811102C048
:102670000E949A06812FDF91CF911F91FF90EF90DA
:10268000DF90CF90BF90AF909F908F900895CF92A2
:10269000DF92EF92FF926B017C01672B682B692B15
:1026A00039F074DD40E0C701B6014ADCAFDE01C09D
:1026B00080E0811102C00E949A06FF90EF90DF90A7
:1026C000CF90089580911017882321F081E08093A6
:1026D0001917089510921917E091CF17F091D0179C
:1026E00020813181E091CF17F091D017838D948DA7
:1026F0008217930760F06091CF177091D017635ED7
:102700007F4F8091CF179091D0170E94CF1D80915D
:102710001F1701C08150282F30E09BE0929FF001ED
:10272000939FF00D1124EF59F84E9081992391F366
:102730009BE0929FA001939F500D1124DF01018027
:10274000F281E02D0480F581E02D1296FC93EE934A
:1027500011974C59584EE417F50729F444815581D7
:10276000FD01528341839BE0929FF001939FF00D06
:102770001124EF59F84E0180F281E02D208531853A
:102780003093D0172093CF1780931F170895CF92BF
:10279000DF92EF92FF926A017B016091CF177091F7
:1027A000D017625F7F4F0E94E10541E0C701B6018B
:1027B000C7DBFF90EF90DF90CF9008950F931F93AA
:1027C000CF93DF93FC01A091CF17B091D017706821
:1027D0001E964D935D936D937C935197A181B28129
:1027E000C091CF17D091D017BB8BAA8BC091CF17B8
:1027F000D091D01716968D919C9117979D8B8C8BAD
:102800001696CD91DC9117978091CF179091D017A4
:102810000E969D838C838091CF179091D0170E9642
:1028200017969C938E931697A091CF17B091D017BF
:102830005996FC93EE93589780818F5F808341E097
:10284000C901B8017DDBDF91CF911F910F910895F0
:10285000CF93DF93FC01CB01BA01A181B281C0917A
:10286000CF17D091D017BB8BAA8BC091CF17D09127
:10287000D01716964D915C9117975D8B4C8B1696E1
:10288000CD91DC9117974091CF175091D017425FAF
:102890005F4F5D834C834091CF175091D017425FBB
:1028A0005F4F17965C934E931697A091CF17B091F8
:1028B000D0175996FC93EE93589730813F5F308341
:1028C000222319F06FEF7FEFCB01422F39DBDF912D
:1028D000CF910895CF93DF93DC011796ED91FC9192
:1028E00018970084F185E02DA08DB18DC289D38920
:1028F000848995899F838E83C489D58982899389A8
:102900009D838C8311968D919C9112979F01225FDC
:102910003F4F8217930731F48489958912969C93CF
:102920008E931197118E108E8C9181508C93809183
:102930001017811152C0A485B585C681D7818085C5
:1029400091859F838E83C085D185868197819D8364
:102950008C8311968D919C9112979F012E5F3F4F12
:102960008217930731F48085918512969C938E93FC
:102970001197158614868C9181508C93A28D80912D
:102980001F178A1710F4A0931F178BE08A9FD0019E
:102990001124AF59B84E11960D90BC91A02DB7835C
:1029A000A68316964D915C9117975187408716968E
:1029B000CD91DC9117973D832C8317963C932E93F2
:1029C0001697A28D8A9FD0011124AF59B84EB587B2
:1029D000A4878C918F5F8C931CC04CE357E1DA0184
:1029E0001196CD91DC911297D38BC28B8E819F81F2
:1029F000958B848B8E819F81DC0115963C932E9361
:102A000014973F832E83518F408FDA018C918F5F13
:102A10008C93928DE091CF17F091D017828D89170A
:102A200020F481E08093191701C080E0DF91CF91FD
:102A30000895CF93DF93DC0170684D935D936D93A0
:102A40007C9313971896ED91FC9119971A964D91D6
:102A50005C911B9714968D919C91159716962D91CC
:102A60003C911797EC013F832E8316968D919C9194
:102A7000179714962D913C911597EC013D832C836B
:102A8000EA0189819A81A817B90731F416968D91C8
:102A90009C9117979A8389831B961C921E921A9772
:102AA000DA018C9181508C93A485B585C681D7813C
:102AB000808591859F838E83C085D185868197810E
:102AC0009D838C8311968D919C9112979F012E5F0F
:102AD0003F4F8217930731F48085918512969C931E
:102AE0008E931197158614868C9181508C93A28DAC
:102AF00080911F178A1710F4A0931F178BE08A9FED
:102B0000D0011124AF59B84E11960D90BC91A02D53
:102B1000B783A68316964D915C911797518740878E
:102B20001696CD91DC9117973D832C8317963C9395
:102B30002E931697A28D8A9FD0011124AF59B84EBB
:102B4000B587A4878C918F5F8C93928DE091CF177E
:102B5000F091D017828D891718F481E080931917AE
:102B6000DF91CF9108950FB6F8940F922091181726
:102B7000FC0120834091201750912117609122176A
:102B80007091231741835283638374830F900FBE28
:102B9000089520911817FC0120834091201750912F
:102BA0002117609122177091231741835283638309
:102BB000748308958F929F92AF92BF92CF92DF92CB
:102BC000EF92FF920F931F93CF93DF93FB010FB60A
:102BD000F8940F92C0902017D0902117E090221700
:102BE000F0902317DC0111960D911D912D913C91D0
:102BF000149746015701801A910AA20AB30A40812C
:102C00005181628173814F3FBFEF5B076B077B0789
:102C100039F1EC01B881A0911817BA1759F0C01614
:102C2000D106E206F30630F010821182128213827E
:102C300081E017C084169506A606B70658F4481911
:102C400059096A097B094083518362837383A1DF39
:102C500080E007C0108211821282138281E001C0DD
:102C600080E00F900FBEDF91CF911F910F91FF90E9
:102C7000EF90DF90CF90BF90AF909F908F9008958E
:102C800081E08093191708958091CF179091D01704
:102C9000089580911E17882331F0809110178111BB
:102CA00004C082E0089581E0089580E008950F93C4
:102CB0001F93CF93DF93FC01892B09F477C0828D9A
:102CC000A091CF17B091D0175A969C91891708F010
:102CD00063C04685578560897189772394F0A091F8
:102CE000CF17B091D0175A969C914AE050E060E01F
:102CF00070E0491B51096109710946875787608B4C
:102D0000718B248535854BE0849FC00111248F5938
:102D1000984E28173907B9F5EF018F010E5F1F4F45
:102D2000C8010E941E06E091CF17F091D017E28DE6
:102D3000EA8F80911F178E1710F4E0931F178BE016
:102D40008E9FF0011124EF59F84E0180F281E02DA1
:102D5000FF83EE832681378139872887A681B78153
:102D600015961C930E93149717830683EA8D8E9FF6
:102D7000F0011124EF59F84EFD87EC8780818F5FB9
:102D8000808381E016C0A091CF17B091D0175A96DA
:102D90008C91828F81E00DC095A5E091CF17F091C5
:102DA000D017828D981720F080E003C080E001C02A
:102DB00081E0DF91CF911F910F9108950F931F93A1
:102DC000CF93DF93FC01892B09F449C086A581507C
:102DD00086A7228D95A5291709F443C0811143C008
:102DE000EF018F010E5F1F4FC8010E941E06EDA567
:102DF000EA8F8AE090E0A0E0B0E08E1B9109A10983
:102E0000B1098E879F87A88BB98B80911F178E176A
:102E100010F4E0931F178BE08E9FF0011124EF59FF
:102E2000F84E0180F281E02DFF83EE832681378109
:102E300039872887A681B78115961C930E9314971E
:102E400017830683EA8D8E9FF0011124EF59F84E07
:102E5000FD87EC8780818F5F808381E005C080E003
:102E600003C080E001C080E0DF91CF911F910F91FE
:102E700008950F931F93CF93DF93FC01892B09F4DF
:102E80005AC085A5861708F4862F928D891709F4F4
:102E900052C026A5213009F04EC0828F4685578545
:102EA00060897189772364F04AE050E060E070E067
:102EB000481B51096109710946875787608B718BDF
:102EC000248535854BE0949FC00111248F59984E7D
:102ED0002817390781F5EF018F010E5F1F4FC801D9
:102EE0000E941E06EA8D80911F178E1710F4E09342
:102EF0001F178BE08E9FF0011124EF59F84E0180CF
:102F0000F281E02DFF83EE83268137813987288780
:102F1000A681B78115961C930E9314971783068389
:102F2000EA8D8E9FF0011124EF59F84EFD87EC8752
:102F300080818F5F8083DF91CF911F910F910895E2
:102F4000CF92DF92EF92FF92E091CF17F091D017DE
:102F50006685778580899189E091CF17F091D017A8
:102F6000A091CF17B091D0175A962C910F2EFAE05E
:102F7000CF2ED12CE12CF12CF02DC21AD108E10872
:102F8000F108C686D786E08AF18AFF90EF90DF903D
:102F9000CF9008958091CF179091D017892B39F059
:102FA000E091CF17F091D01786A58F5F86A780910B
:102FB000CF179091D01708954F925F926F927F92A2
:102FC000AF92BF92CF92DF92EF92FF920F931F9337
:102FD000CF93DF93280139010FB6F8940F92E09157
:102FE000CF17F091D017C82FD0E0EC0FFD1F83A9A9
:102FF000823079F1E091CF17F091D017CE01880F90
:10300000991F880F991FE80FF91F87A590A9A1A9FB
:10301000B2A94095509560957095482359236A232D
:103020007B2347A750AB61AB72ABE091CF17F09118
:10303000D017EC0FFD1F81E083ABA114B104C104D4
:10304000D10439F041E0C601B5010E94A00F0E94F1
:103050009A060F900FBE0FB6F8940F92E114F10488
:10306000A1F0E091CF17F091D017CE01880F991FF2
:10307000880F991FE80FF91F87A590A9A1A9B2A9E8
:10308000F70180839183A283B383E091CF17F091FE
:10309000D017EC0FFD1F83A98230E9F4E091CF1720
:1030A000F091D017CE01880F991F880F991FE80F54
:1030B000F91F87A590A9A1A9B2A940945094609442
:1030C0007094482259226A227B2247A650AA61AAFC
:1030D00072AA81E001C080E02091CF173091D01713
:1030E000C20FD31F1BAA0F900FBEDF91CF911F916C
:1030F0000F91FF90EF90DF90CF90BF90AF907F90B7
:103100006F905F904F9008958F929F92AF92BF9271
:10311000EF92FF920F93CF93DF93DC010FB6F894F9
:103120000F92E114F10489F0E62FF0E0EE0FFF1F9B
:10313000EE0FFF1FE80FF91F87A490A8A1A8B2A85F
:10314000F70180829182A282B38270E0FD01E60FD6
:10315000F71F83A992E093AB023001F118F401301C
:1031600031F04DC0033079F10430D1F148C0660F21
:10317000771F660F771FFD01E60FF71F87A490A842
:10318000A1A8B2A8BA01A901482959296A297B290D
:1031900047A750AB61AB72AB01E034C0660F771F3D
:1031A000660F771FFD01E60FF71F47A550A961A91C
:1031B00072A94F5F5F4F6F4F7F4F47A750AB61AB17
:1031C00072AB01E01FC0660F771F660F771FFD010E
:1031D000E60FF71F27A730AB41AB52AB01E012C09F
:1031E000823079F0660F771F660F771FFD01E60FBB
:1031F000F71F27A730AB41AB52AB01E003C001E0A2
:1032000001C000E0813009F069C01C96ED91FC918D
:103210001D971696CD91DC91179718968D919C91DC
:1032200019979F838E831896CD91DC9119971696E6
:103230008D919C9117979D838C83818192819D01B3
:103240002E5F3F4F8217930731F418968D919C9112
:103250001997928381831D961C921E921C978081E0
:10326000815080835A96EC915A9780911F178E1740
:1032700010F4E0931F178BE08E9FF0011124EF599B
:10328000F84E0180F281E02D1796FC93EE9316978D
:103290004681578119965C934E931897C681D781C2
:1032A0003D832C83378326835A96EC915A978E9FC1
:1032B000F0011124EF59F84E1D96FC93EE931C97E4
:1032C00080818F5F80835A969C91E091CF17F09117
:1032D000D017828D891710F40E949A060F900FBEA6
:1032E000802FDF91CF910F91FF90EF90BF90AF9023
:1032F0009F908F9008958F929F92AF92BF92CF929E
:10330000DF92EF92FF920F93CF93DF93DC01E114F2
:10331000F10489F0E62FF0E0EE0FFF1FEE0FFF1F24
:10332000E80FF91F87A490A8A1A8B2A8F70180828E
:103330009182A282B38270E0FD01E60FF71F93A98C
:1033400082E083AB023001F118F4013031F04DC05E
:10335000033079F10430D1F148C0660F771F660F52
:10336000771FFD01E60FF71F87A490A8A1A8B2A8B8
:10337000BA01A901482959296A297B2947A750ABD5
:1033800061AB72AB81E034C0660F771F660F771FA9
:10339000FD01E60FF71F47A550A961A972A94F5F6C
:1033A0005F4F6F4F7F4F47A750AB61AB72AB81E070
:1033B0001FC0660F771F660F771FFD01E60FF71F0F
:1033C00027A730AB41AB52AB81E012C0923079F00D
:1033D000660F771F660F771FFD01E60FF71F27A700
:1033E00030AB41AB52AB81E003C081E001C080E073
:1033F000913009F096C09091101791115FC01C9602
:10340000ED91FC911D971696CD91DC91179718962A
:103410002D913C9119973F832E831896CD91DC9185
:10342000199716962D913C9117973D832C834181D6
:1034300052819D012E5F3F4F4217530731F418967A
:103440004D915C911997528341831D961C921E9257
:103450001C979081915090835A96EC915A97909135
:103460001F179E1710F4E0931F179BE09E9FF0011B
:103470001124EF59F84E0180F281E02D1796FC934C
:10348000EE9316974681578119965C934E93189741
:10349000C681D7813D832C83378326835A96EC914E
:1034A0005A979E9FF0011124EF59F84E1D96FC93F8
:1034B000EE931C9790819F5F908321C06CE377E12E
:1034C000FB01C181D2815396DC93CE9352972E811A
:1034D0003F8155963C932E9354974E815F819D0179
:1034E000225F3F4FFA01358324833F832E83599611
:1034F0007C936E935897FB0190819F5F90835A96BF
:103500002C91E091CF17F091D017928D921748F43B
:10351000C114D10419F091E0F601908391E09093E9
:103520001917DF91CF910F91FF90EF90DF90CF901F
:10353000BF90AF909F908F900895009721F4809155
:10354000CF179091D0170FB6F8940F9270E0FC014E
:10355000E60FF71F23A9223031F4FC01E60FF71F15
:1035600013AA81E001C080E00F900FBE0895DC0136
:10357000E091DB17F091DC17808191E0811190E000
:103580009C93911108C00780F085E02D60817181C6
:1035900082819381089560E070E0CB010895CF921D
:1035A000DF92EF92FF920F931F93FC0142835383AC
:1035B0006483758393878287041715072607370767
:1035C000C0F00C191D092E093F0986859785A08931
:1035D000B189081719072A073B0700F5BF016E5F7D
:1035E0007F4F8091D9179091DA170E94E10580E012
:1035F00018C00C151D052E053F0528F44C155D055A
:103600006E057F0568F4BF016E5F7F4F8091DB1709
:103610009091DC170E94E10580E003C081E001C0C9
:1036200081E01F910F91FF90EF90DF90CF90089570
:103630000FB6F8940F928091D7179091D817892BD5
:10364000E9F488EE97E10E94CC058DED97E10E94A8
:10365000CC0588EE97E19093DC178093DB178DED16
:1036600097E19093DA178093D91740E067E08AE0FA
:103670000E948F089093D8178093D7170F900FBE92
:103680000895EF92FF920F93D3DF8091D717909117
:10369000D817892B91F00F2EF5EDEF2EF7E1FF2EC5
:1036A000F02D03E020E030E040EC50E06EE573E008
:1036B00088E591E00E94421001C080E00F91FF90E8
:1036C000EF9008958F929F92AF92BF92CF92DF9228
:1036D000EF92FF920F931F93CF93DF93CDB7DEB797
:1036E00027970FB6F894DEBF0FBECDBFE091D71776
:1036F000F091D817309781F169832A833B834C83FB
:103700005D839F838E836630F4F4C3DA823069F47C
:1037100000E0A7019601BE016F5F7F4F8091D71730
:103720009091D8170E94B20818C000E020E030E065
:10373000A901BE016F5F7F4F8091D7179091D81775
:103740000E94B2080AC020E0A801BE016F5F7F4F4F
:10375000CF010E94620901C080E027960FB6F8945D
:10376000DEBF0FBECDBFDF91CF911F910F91FF90B4
:10377000EF90DF90CF90BF90AF909F908F90089583
:103780008F929F92AF92BF92CF92DF92EF92FF9271
:103790000F931F93CF93DF933BC00780F085E02DFD
:1037A00080809180A280B380C085D1858E010E5F1C
:1037B0001F4FC8010E941E06EC89FD89CE01199594
:1037C0008E8982FF25C08E859F85A889B989880D3D
:1037D000991DAA1DBB1D88169906AA06BB0670F482
:1037E0008A839B83AC83BD83DB87CA87B8018091C2
:1037F000DB179091DC170E94E1050AC0C12CD12C87
:10380000760100E010E0A501940160E0CE015ADFEE
:10381000E091DB17F091DC1780818111BECF8091A0
:10382000D9179091DA179093DC178093DB17F093F8
:10383000DA17E093D917DF91CF911F910F91FF9085
:10384000EF90DF90CF90BF90AF909F908F900895B2
:10385000CF92DF92EF92FF92CF93DF93EC010E9421
:10386000CC106B017C018091D1179091D217A0915F
:10387000D317B091D417C816D906EA06FB0620F470
:103880007FDF81E0888301C01882C092D117D09277
:10389000D217E092D317F092D417C701B601DF9187
:1038A000CF91FF90EF90DF90CF9008954F925F926D
:1038B0006F927F928F929F92AF92BF92CF92DF9240
:1038C000EF92FF920F931F93CF93DF934B015C0115
:1038D00029013A01E091DB17F091DC170780F085B0
:1038E000E02DC085D185CE0102960E941E068E89EC
:1038F00082FF1BC04E855F8568897989480D591DF7
:103900006A1D7B1D7501640193018201CE0147DEB2
:10391000882369F0C12CD12C760100E010E0A501CC
:10392000940160E0CE01CEDE02C08E7F8E8BEC89EA
:10393000FD89CE011995DF91CF911F910F91FF90D5
:10394000EF90DF90CF90BF90AF909F908F907F903F
:103950006F905F904F9008958F929F92AF92BF9219
:10396000CF92DF92EF92FF921F93CF93DF931F923C
:10397000CDB7DEB76B017C01142F0E94C610CE01BB
:10398000019666DF4B015C01898181112DC0111107
:103990000DC08C149D04AE04BF0440F00E940612BA
:1039A000A5019401C701B60181DF20C0112341F0B8
:1039B000E091D917F091DA17808111E0811110E0C0
:1039C000B701A601481959096A097B09212F80917D
:1039D000D7179091D8170E94DD0A0E940612811114
:1039E00005C00E949A0602C00E9406120F90DF9145
:1039F000CF911F91FF90EF90DF90CF90BF90AF904D
:103A00009F908F900895AF92BF92CF92DF92EF92E6
:103A1000FF920F931F93CF93DF93CDB7DEB7289715
:103A20000FB6F894DEBF0FBECDBF82C08981882358
:103A30000CF47EC0AE80BF80D5011C968D919C9108
:103A40001D97892B21F0C50102960E941E06CE010A
:103A50000896FEDE8B019C01E9810E2E000CFF0B07
:103A6000EA30F10508F064C08827EE58FF4F8F4F09
:103A70000C947633F50186898160868BCA80DB8061
:103A8000EC80FD8046855785608971894C0D5D1DF0
:103A90006E1D7F1DC50183DD882309F449C0D50152
:103AA0005496ED91FC915597C5011995F5018689BC
:103AB00082FF3EC04A815B816C817D8186859785CE
:103AC000A089B1899A01AB01280F391F4A1F5B1FDA
:103AD000C12CD12C760100E010E060E0C501F2DDE0
:103AE00027C0D50156968C9156978E7F56968C930B
:103AF0001FC0F50186898160868B4A815B816C815C
:103B00007D8146875787608B718B400F511F621FE5
:103B1000731F68017901C50142DD0AC0F50186897C
:103B200081FD04C0C5010E948F0502C08E7F868B77
:103B300020E030E0A901BE016F5F7F4F8091D71771
:103B40009091D8170E949D09811170CF28960FB6C9
:103B5000F894DEBF0FBECDBFDF91CF911F910F91C3
:103B6000FF90EF90DF90CF90BF90AF9008950895B1
:103B700084B1806884B985B1806885B9089583B1BE
:103B8000806883B90895F4DF2FEF80E792E0215039
:103B900080409040E1F700C00000F1DFF5CFE8DFA2
:103BA0002FEF87EA91E6215080409040E1F700C076
:103BB0000000E5DFF5CF9093F8178093F71708958D
:103BC0009093F6178093F51708959093F4178093C8
:103BD000F3170895FC01608387E081838091F717D4
:103BE0009091F817928383838091F5179091F6173F
:103BF000948385838091F3179091F417968387833C
:103C000080E18087CF0108959093FA178093F91788
:103C1000089583E00E940D2684E09EE10C943226F4
:103C200008950E94372680934419882341F086E640
:103C300093E09F938F930E9440360F900F9089EFEF
:103C400097E10E94662690E09093FA178093F91707
:103C50000895CC24CA94DC2C760101E021E041E0F7
:103C600050E060E070E08091491990914A190E94FB
:103C7000450360FFEECFD5DF42E050E060E070E04A
:103C800080914719909148190E94E503E2CF8091F5
:103C9000F9179091FA170895EF92FF920F93082F5A
:103CA000B8DFE12CF12C20E030E040EC50E066E998
:103CB00073E089E29EE10E9442100F91FF90EF9025
:103CC000089561D2882341F088EA93E09F938F930F
:103CD0000E9440360F900F900895EF92FF920F933D
:103CE000082FEFDFE12CF12C20E030E040EC50E039
:103CF0006FED73E081EB9EE10E9442100F91FF9007
:103D0000EF90089558D2882321F08BEE93E00E9423
:103D1000543663E070E080E090E00E94471360D288
:103D2000882371F08EE094E09F938F938FE194E06D
:103D30009F938F930E9440360F900F900F900F909B
:103D400063E070E080E090E00E9447136FD29093B0
:103D5000FE178093FD1790D29093FC178093FB176A
:103D60000895CC24CA94DC2C760101E021E044E0E3
:103D700050E060E070E08091491990914A190E94EA
:103D8000450362FFEECFBEDF48E050E060E070E048
:103D900080914719909148190E94E503E2CF8091E4
:103DA000FB179091FC1708958091FD179091FE17D5
:103DB00008950E94320390934819809347190E94F6
:103DC000320390934A1980934919089541E060E0C5
:103DD00070E08CE290E00E943C0C90934C19809330
:103DE0004B19892B21F48DE494E00E94543641E074
:103DF00060E070E08CE290E00E943C0C90934E19E1
:103E000080934D19892B21F485E794E00C94543666
:103E100008950F9381E00E9456099093461980936C
:103E20004519009749F000E020E030E0A90160E08A
:103E300070E00E94B20808C08FE994E09F938F93CE
:103E40000E9440360F900F900F9108950F931F938B
:103E5000CF93DF93CDB7DEB764970FB6F894DEBF8C
:103E60000FBECDBF81E00E94882B7ED3FAD59F93F1
:103E70008F9381EC94E09F938F930E944036F2D40D
:103E8000F0D59F938F9384ED94E09F938F930E943E
:103E900040368E010F5F1F4FC80178D3E2D51F93C4
:103EA0000F939F938F938DEE94E09F938F930E9437
:103EB0004036C80187D3D5D59F938F931F930F9317
:103EC00081E095E09F938F930E944036A80166E1C0
:103ED00075E087E395E0A4D5C4D59F938F931F9396
:103EE0000F9386E195E09F938F9387E395E09F93EF
:103EF0008F9388E495E09F938F930E94403695D3EB
:103F0000B0D59F938F938EE795E09F938F930E94F8
:103F100040360FB6F894DEBF0FBECDBF81E07FD430
:103F2000A0D59F938F938DE895E09F938F930E94E8
:103F3000403684EF91E07ED494D59F938F9381E0B7
:103F40008F9384EF8F938EEA95E09F938F930E94D7
:103F500040360FB6F894DEBF0FBECDBF1AE080E04A
:103F60006AD3082F7ED59F938F931F921F938EEC59
:103F700095E09F938F930E9440360F900F900F9083
:103F80000F900F900F90083059F080E00E94EC2BBA
:103F900066E371E080E090E00E9447131150F9F66B
:103FA000083021F481E00E94CE2B09C081E00E94FC
:103FB000DD2B80E00E94AB2B0E949A06FDCF649619
:103FC0000FB6F894DEBF0FBECDBFDF91CF911F912A
:103FD0000F91089581E0BAD262E070E080E090E055
:103FE0000E94471380E0B2D266E970E080E090E082
:103FF0000E94471364D22ADF0FEF1FEF980146E1BA
:1040000050E06FEF77E180914B1990914C190E942D
:10401000A70D882389F3EFEFF7E1828190E0982FD5
:1040200088272381822B048110E0102F002725810F
:10403000022BC681D0E0DC2FCC272781C22BF08455
:104040009F938F938EEE95E09F938F930E944036BF
:104050001F930F9384E096E09F938F930E944036C6
:10406000DF93CF9387E196E09F938F930E94403632
:104070001F92FF9285E296E09F938F930E944036B5
:1040800083E00E94FE2B6FEF77E180E0FDD2E9D460
:104090009F938F9386E396E09F938F930E94403681
:1040A0008DB79EB744960FB6F8949EBF0FBE8DBFD6
:1040B000A3CFEF92FF920F93E12CF12C082F20E079
:1040C00030E048E851E06BE476E08AEE9FE10E9440
:1040D00042100F91FF90EF90089584E0EADF84E0B2
:1040E0000E94A60283E00E94F70181E0D5DD81E015
:1040F000F4DD82E00C94FA02089580E00E94332AF5
:1041000085E00E943A2B55DE61DE83DE60914D1919
:1041100070914E1981E0DAD1E0CF0895EEDF88E5A5
:1041200096E00E9454360E948E10FFCF6530F1F465
:10413000FA0180818F7390E0982F88272181822B4C
:1041400090930A02809309028281F0E48F9FC0015C
:104150001124FA01238126952695822B909308023B
:104160008093070281E0809315180895643051F020
:1041700080E090E4909308028093070290930A02F3
:104180008093090208950F931F9306E910E220E03F
:1041900034E244EF50E060E087E20E94202C9093EC
:1041A00017188093161821E0892B09F020E0822F40
:1041B0001F910F91089580911618909117180097EC
:1041C00059F040E060E070E00E94712C843031F4DE
:1041D0001092151880E0089582E0089583E0089514
:1041E0008091161890911718009739F064E00E949A
:1041F000BD2C853021F083E0089582E0089580E0B1
:1042000008956091090270910A0280E090E00E9496
:10421000503220E030E048EC52E40E94DE3220E0F0
:1042200038EF4FE756E40C94B7310895EADF20E009
:1042300030E040E251E40E94DE320E942432CB01A1
:104240000895609107027091080280E090E00E945A
:10425000503220E030E045E253E40E94DE3220E0BC
:1042600038EF4FE756E40E94B73120E030E040E2FB
:1042700052E40C9452310895E4DF20E030E040E253
:1042800051E40E94DE320E941F32CB0108950F9349
:104290001F93CF93DF931F921F92CDB7DEB78C0190
:1042A00019822DC0E0914F18EC3250F481E08E0F4E
:1042B00080934F18F0E0EF57F74E8A81808302C059
:1042C00010924F188A818A30D1F440914F1850E0F3
:1042D000FA01E158F74E1082415051099E012F5FBB
:1042E0003F4F61E878E180915218909153180E94F5
:1042F000630D898181110E949A0610924F18BE01A8
:104300006E5F7F4FC80119D6882361F20F900F901E
:10431000DF91CF911F910F9108950F931F93CF932A
:10432000DF938C01EB0180915218909153180E94F9
:104330006E0CB80188E198E10E94DA35209779F097
:10434000E8E1F8E101900020E9F7319780E290E0A0
:1043500091838083BE0188E198E10E94CF35E8E136
:10436000F8E1DF010D900020E9F711978DE09AE068
:1043700011969C938E9312961C9201900020E9F75F
:104380003197E851F841AE2F88E198E1AC016A2FEE
:1043900080915418909155187BD5811111C008E275
:1043A00015E020E030E04DE250E06BED78E18091E7
:1043B0005218909153180E94A70D8BED98E102C0FE
:1043C00080E090E0DF91CF911F910F9108952F929F
:1043D0003F924F925F926F927F928F929F92AF9295
:1043E000BF92CF92DF92EF92FF920F931F93CF93E2
:1043F000DF935C01FC0101900020E9F731976F0128
:10440000C81AD90A5C2C0F2EFEEF8F2EF8E09F2ED3
:10441000F02DE12CF12C4C2C3701F401018112819B
:10442000E80109900020E9F72197C01BD10B3C2E31
:10443000F9E0CF16D10458F0F4012080FEE02F12ED
:1044400006C0B801C5010E94AA35892B09F5442D83
:10445000351408F44C2F50E0B801C5010E94E13535
:10446000892B49F4F301EE0FFF1FE60DF71DE25013
:10447000F74F20800DC08FEFE81AF80AE3E08E0EA8
:10448000911CF1E1EF16F10439F66894222424F826
:10449000822DDF91CF911F910F91FF90EF90DF90D0
:1044A000CF90BF90AF909F908F907F906F905F90D4
:1044B0004F903F902F90089530DF89CF08958091DD
:1044C0005218909153180C946E0C08958F929F92ED
:1044D000AF92CF92EF920F931F93CF93C82F8B0180
:1044E00041E060E070E088EC90E00E943C0C90932A
:1044F00053188093521810935118009350180F2E90
:10450000F7E48F2EF1E29F2EF02D6894AA24A6F8EE
:104510006894CC24C6F8E12C00E023E040E051EEA2
:1045200060E070E08C2FE3D390935518809354187B
:10453000E7E0F1E0808180618083CF911F910F914E
:10454000EF90CF90AF909F908F900895882331F097
:10455000E8E0F1E080818F7E80830895E8E0F1E07B
:10456000808180618083089560E070E089E896E052
:10457000D4DEEBEDF8E101900020E9F73197EB5D37
:10458000F84181E0759708F080E00895CF93DF93BC
:10459000EC0160E070E08AE996E0BFDEEBEDF8E167
:1045A00001900020E9F7EC5EF84139F46BED78E119
:1045B000CE010E94DA3580E002C0188281E0DF91EE
:1045C000CF910895FC0101900020E9F79F0121514E
:1045D00031092817390729F4BC0188EC96E06CCF23
:1045E000089589E00895FC0101900020E9F79F01FA
:1045F000215131092817390729F4BC0187ED96E0CC
:104600005BCF089589E00895FC0101900020E9F74F
:104610009F01215231092817390729F4BC0186EE80
:1046200096E04ACF089589E0089560E070E085E261
:1046300097E042CF08950F931F93E82FF0E0EE0F1D
:10464000FF1FE650F74F608171818EE297E034DF03
:10465000811114C008E215E020E030E04DE250E0A6
:104660006BED78E180915218909153180E94A70D3C
:10467000882321F08BED98E1AADE03C08BED98E151
:10468000A6DE1F910F9108950F931F93CF93DF9391
:104690001F92CDB7DEB7DB0111969C911197953132
:1046A00008F0B4C0992381F160E070E0272F30E07A
:1046B000462F50E0FD01E40FF51F928192959F7007
:1046C0009A3010F0995C01C0905DF901E459F74E01
:1046D00090832F5F3F4FFD01E40FF51F92819F7084
:1046E000492F50E04A30510514F0995C01C0905DAB
:1046F000F901E459F74E90837E5F6F5F11969C91AC
:104700001197691798F201C070E0E72FF0E0E459C3
:10471000F74E10824C91811103C087E397E002C0ED
:1047200089E397E02CE638E13F932F931F924F9354
:104730009F938F938DE397E09F938F938EEA98E1F9
:104740009F938F930E94843660E070E08EEA98E138
:10475000B3DE0FB6F894DEBF0FBECDBF811159C0D6
:1047600008E215E020E030E04DE250E06BED78E14A
:1047700080915218909153180E94A70D882309F434
:1047800047C08BED98E123DE8E3009F042C087E010
:1047900089838091501890915118892BA9F1BE01FD
:1047A0006F5F7F4F8BED98E168D180935618E98158
:1047B000F0E0E552F74EDF010D900020E9F7119788
:1047C000AE1BBF0BAA2391F0BB27CD0101979C0123
:1047D00012F42F5F3F4F3595279520935718AF015F
:1047E0004F5F5F4F64E188E598E173D101E010E02D
:1047F00020E030E046E150E066E578E18091501835
:10480000909151180E949E0C8EE003C084E101C07B
:1048100080E00F90DF91CF911F910F91089581302B
:1048200019F06DE477E002C066E278E081E597E098
:1048300043CE08959F938F9382E897E09F938F9341
:104840008EEA98E19F938F930E94843660E070E037
:104850008EEA98E131DE0F900F900F900F900F903D
:104860000F9008952F923F924F925F926F927F9296
:104870008F929F92AF92BF92CF92DF92EF92FF9270
:104880000F931F93CF93DF93CDB7DEB7A0970FB6EB
:10489000F894DEBF0FBECDBF6FEA77E08BEB97E0F9
:1048A0003CDD95DD8111A3C080E2E2E2F2E0DE01B1
:1048B000119601900D928A95E1F79E012F5F3F4F6F
:1048C0006901E12CF12C0F2EF7ECAF2EF7E0BF2E93
:1048D000F02D0EEA18E10F2EF0EE4F2EF7E05F2ECE
:1048E000F02D0F2EF7EF8F2EF7E09F2EF02D0F2ECD
:1048F000F1E16F2EF8E07F2EF02D3E2C2F2CFF9251
:10490000EF92BF92AF921F930F930E94843660E0A4
:1049100070E0C80102DD5BDD0F900F900F900F90EB
:104920000F900F90811163C032E03E15E8F4F6015C
:1049300083818F9382818F9381818F9380818F93E5
:10494000FF92EF925F924F921F930F930E948436D3
:1049500060E070E0C801E1DC3ADD0FB6F894DEBF3C
:104960000FBECDBF811143C02F923F929F928F9275
:104970001F930F930E94843660E070E0C801CDDC85
:1049800026DD0F900F900F900F900F900F908111D8
:104990002EC02F923F927F926F921F930F930E948F
:1049A000843660E070E0C801B8DC11DD0F900F9034
:1049B0000F900F900F900F90811119C03FEFE31AE5
:1049C000F30A84E0C80ED11C98E0E916F10409F05E
:1049D00094CF60E070E089E298E09FDCF8DC811120
:1049E00006C060E070E08AE398E097DCF0DCA09617
:1049F0000FB6F894DEBF0FBECDBFDF91CF911F91F0
:104A00000F91FF90EF90DF90CF90BF90AF909F906D
:104A10008F907F906F905F904F903F902F90089570
:104A2000EF92FF920F931F93CF93DF93EC018B01D3
:104A30007A0181E0F4DE81110DC0CE01D4DD811157
:104A400009C0C801E1DD811105C0C701BBDD8111CD
:104A500001C0EBDDDF91CF911F910F91FF90EF909F
:104A6000089590E0FC01EE0FFF1F8E0F9F1FFC01C9
:104A7000E250F74F818192810895DC01009729F17E
:104A8000FB012081FC0101900020E9F73197E81B30
:104A9000F90B822F90E0E817F907C8F080E008C012
:104AA000880F382F330F330F830F8053890F2F5FF9
:104AB000FD01E20FF11D908130ED390F3A3010F415
:104AC0009111EECFFB012083089580E0089580E0EE
:104AD00008950F931F93CF93DF93DC01EA01209792
:104AE000E1F1FA0101900020E9F73197E41BF50BA1
:104AF000329710F532C08D01040F151F30E0AE0162
:104B0000420F531FFA019081913428F09753592F87
:104B10005295507F03C0592F5295507F2C0F3D1F47
:104B2000F9019181913410F0975301C09053950F82
:104B3000F80190838F5F01C080E0282F220F482F5B
:104B400050E0FE0101900020E9F73197EC1BFD0BCE
:104B50004E175F0710F48613CECFDF91CF911F91D0
:104B60000F91089580910B19860F80930B199091E6
:104B70000E19913079F028F09230A9F0933019F1A4
:104B800008956F3F09F048C010920B1981E080939F
:104B90000E190895663809F03FC010920A1982E094
:104BA00080930E190895E0910A1981E08E0F809389
:104BB0000A19F0E0E85FF64E6083823069F583E021
:104BC00080930E19089590910A1921E0290F2093DE
:104BD0000A19963009F581110EC0E8E0F9E18081EB
:104BE00090E0982F88272181820F911D90931019B2
:104BF00080930F1904C01092101910920F1910927F
:104C00000E19E0910C19F0910D19309729F080914F
:104C10000F1990911019199508958F929F92AF9244
:104C2000CF92EF920F930F2EF2EB8F2EF5E29F2E85
:104C3000F02D6894AA24A4F86894CC24C4F8E12C3C
:104C400000E023E040E855E260E070E050D090934F
:104C50001219809311190F91EF90CF90AF909F9000
:104C60008F90089590930D1980930C190895CF9308
:104C7000DF93CDB7DEB729970FB6F894DEBF0FBE2E
:104C8000CDBF89E0E2E4F2E09E012F5F3F4FD90102
:104C900001900D928A95E1F71092101910920F1958
:104CA0008091111990911219009731F0422F532FD2
:104CB00069E0EED080E001C082E029960FB6F8945A
:104CC000DEBF0FBECDBFDF91CF91089520910F19A8
:104CD000309110192115310529F4FC01118210823F
:104CE00081E00895FC013183208380E008952F92B4
:104CF0003F924F925F926F927F928F929F92AF926C
:104D0000CF92EF92FF920F931F93CF93DF93CDB784
:104D1000DEB7F82E2A013B0188E090E00E94923332
:104D20008C018F2D90E0FC01EE0FFF1FED5EF64E23
:104D3000118300830115110509F46DC0880F991FB7
:104D4000FC01E55FFD4F80819181D8018D939C939B
:104D50008C2D90E0880F991F880F991F0E94923325
:104D60001C0186E090E00E9492337C014C2DB10141
:104D7000F4D6F801F582E4828A2D90E0880F991F1D
:104D8000880F991F0E9492331C0186E090E00E94D8
:104D900092337C014A2DB101E0D6D8011396FC92E2
:104DA000EE92129717969C928E921697FFB6F894F1
:104DB000ED91FC91119736978081826080838D9070
:104DC0009C90C301B2010E94503220E030E040E0EC
:104DD00051E40E94DE329B01AC0160E074E284E7A2
:104DE0009BE40E94B73120E030E040E85FE30E949E
:104DF00052310E942432F40132976083D801ED9140
:104E0000FC911197359788E98083ED91FC91349757
:104E100086E08083FFBEC801DF91CF911F910F9183
:104E2000FF90EF90CF90AF909F908F907F906F907A
:104E30005F904F903F902F900895CF93DF93DC01C8
:104E4000892B01F11296ED91FC9113979381828148
:104E50002581981B922384819817B1F08381269530
:104E60002823C081D181C20FD11D68838F5F9581B6
:104E700089238383ED91FC913597808180628083C3
:104E800080E003C081E001C082E0DF91CF9108950E
:104E9000EF92FF920F931F93CF93DF937C010097C4
:104EA00009F441C0DC011296ED91FC9113979381B6
:104EB0008281981B858198238481891B8617A8F19C
:104EC000662341F1842F952FDC016150462F50E07D
:104ED0004F5F5F4F480F591FE701EA81FB819381C4
:104EE00082812581981B92238481981779F08C9177
:104EF000938126952923608171818B01020F111DF9
:104F0000E80188839F5F8581982393831196A41776
:104F1000B50711F7D701ED91FC913597808180623B
:104F2000808380E003C081E001C082E0DF91CF9107
:104F30001F910F91FF90EF9008950097D1F0DC0141
:104F40001496ED91FC91159793818281981799F0B1
:104F50009281858186958923A081B181A80FB11D99
:104F60008C91DB018C939F5F85819823928380E0F5
:104F7000089581E0089583E008951F920F920FB67F
:104F80000F9211240BB60F922F933F934F935F9381
:104F90006F937F938F939F93AF93BF93CF93DF9341
:104FA000EF93FF93A0911319B0911419109711F179
:104FB0006091C6001496ED91FC91159793818281C2
:104FC0002581981B92238481981761F0838126950F
:104FD0002823C081D181C20FD11D68838F5F958145
:104FE000892383831696ED91FC911797309711F0E2
:104FF000CD011995FF91EF91DF91CF91BF91AF91C5
:105000009F918F917F916F915F914F913F912F91E0
:105010000F900BBE0F900FBE0F901F9018951F9210
:105020000F920FB60F9211240BB60F922F938F93FE
:105030009F93AF93BF93EF93FF93E0911319F09178
:1050400014193097B9F00280F381E02D93818281A9
:105050009817B1F092818581282F26952923A08168
:10506000B181A20FB11D2C919F5F89238283209370
:10507000C6000BC0E1ECF0E080818F7D808305C02D
:10508000E1ECF0E080818F7D8083FF91EF91BF9113
:10509000AF919F918F912F910F900BBE0F900FBEEC
:1050A0000F901F9018951F920F920FB60F92112418
:1050B0000BB60F922F933F934F935F936F937F9312
:1050C0008F939F93AF93BF93CF93DF93EF93FF9310
:1050D000A0911519B0911619109711F16091CE0099
:1050E0001496ED91FC911597938182812581981BEF
:1050F00092238481981761F0838126952823C081AB
:10510000D181C20FD11D68838F5F958189238383ED
:105110001696ED91FC911797309711F0CD011995E6
:10512000FF91EF91DF91CF91BF91AF919F918F91BF
:105130007F916F915F914F913F912F910F900BBE97
:105140000F900FBE0F901F9018951F920F920FB6E1
:105150000F9211240BB60F922F938F939F93AF93BF
:10516000BF93EF93FF93E0911519F09116193097C3
:10517000B9F00280F381E02D938182819817B1F01C
:1051800092818581282F26952923A081B181A20FA4
:10519000B11D2C919F5F892382832093CE000BC089
:1051A000E9ECF0E080818F7D808305C0E9ECF0E0E0
:1051B00080818F7D8083FF91EF91BF91AF919F910F
:1051C0008F912F910F900BBE0F900FBE0F901F90DD
:1051D00018951F920F920FB60F9211240BB60F92D3
:1051E0002F933F934F935F936F937F938F939F93EF
:1051F000AF93BF93CF93DF93EF93FF93A0911719D2
:10520000B0911819109711F16091D6001496ED9194
:10521000FC911597938182812581981B922384812B
:10522000981761F0838126952823C081D181C20F10
:10523000D11D68838F5F9581892383831696ED91B5
:10524000FC911797309711F0CD011995FF91EF91CF
:10525000DF91CF91BF91AF919F918F917F916F918E
:105260005F914F913F912F910F900BBE0F900FBE0A
:105270000F901F9018951F920F920FB60F92112446
:105280000BB60F922F938F939F93AF93BF93EF9390
:10529000FF93E0911719F09118193097B9F0028037
:1052A000F381E02D938182819817B1F092818581FD
:1052B000282F26952923A081B181A20FB11D2C9101
:1052C0009F5F892382832093D6000BC0E1EDF0E03D
:1052D00080818F7D808305C0E1EDF0E080818F7D4E
:1052E0008083FF91EF91BF91AF919F918F912F910B
:1052F0000F900BBE0F900FBE0F901F9018951F922E
:105300000F920FB60F9211240BB60F922F933F936B
:105310004F935F936F937F938F939F93AF93BF93BD
:10532000CF93DF93EF93FF93A0911919B0911A19BE
:10533000109711F1609136011496ED91FC9115973B
:10534000938182812581981B92238481981761F033
:10535000838126952823C081D181C20FD11D688306
:105360008F5F9581892383831696ED91FC91179722
:10537000309711F0CD011995FF91EF91DF91CF9109
:10538000BF91AF919F918F917F916F915F914F915D
:105390003F912F910F900BBE0F900FBE0F901F905B
:1053A00018951F920F920FB60F9211240BB60F9201
:1053B0002F938F939F93AF93BF93EF93FF93E091BE
:1053C0001919F0911A193097B9F00280F381E02D84
:1053D000938182819817B1F092818581282F26953B
:1053E0002923A081B181A20FB11D2C919F5F892338
:1053F0008283209336010BC0E1E3F1E080818F7D51
:10540000808305C0E1E3F1E080818F7D8083FF919F
:10541000EF91BF91AF919F918F912F910F900BBE04
:105420000F900FBE0F901F901895CF93DF931F9290
:10543000CDB7DEB7BE016F5F7F4F80911B19909192
:105440001C197BDD8111F6CF898190E00F90DF91EF
:10545000CF910895682F80911B1990911C19EDDC54
:1054600080E090E008958F929F92AF92CF92EF925A
:105470000F93812C912C6894AA24A7F86894CC24CB
:10548000C7F8E12C00E023E040E051EE60E070E07E
:105490002EDC90931C1980931B19E3E5F9E183E15D
:1054A00092E091838083938382830F91EF90CF90DA
:1054B000AF909F908F90089590E0FC01EE0FFF1F3A
:1054C000E80FF91FEE0FFF1FE35EF64E2381211157
:1054D0001FC09C01220F331FF901E80FF91FEE0FC7
:1054E000FF1FE35EF64EA081B1814C91F901E80FF8
:1054F000F91FEE0FFF1FE35EF64E81E090E00280A1
:1055000002C0880F991F0A94E2F7842B8C930895A8
:10551000FC01EE0FFF1FDF01A80FB91FAA0FBB1F71
:10552000A35EB64E0D90BC91A02D2C91E80FF91FF3
:10553000EE0FFF1FE35EF64E81E090E0028002C0B6
:10554000880F991F0A94E2F7809582238C9308951F
:1055500090E0FC01EE0FFF1FE80FF91FEE0FFF1F99
:10556000E35EF64E2381211120C09C01220F331FE0
:10557000F901E80FF91FEE0FFF1FE35EF64EA08161
:10558000B1814C91F901E80FF91FEE0FFF1FE35EA7
:10559000F64E81E090E0028002C0880F991F0A94C5
:1055A000E2F7809584238C930895FC01EE0FFF1F92
:1055B000DF01A80FB91FAA0FBB1FA35EB64E0D9047
:1055C000BC91A02D2C91E80FF91FEE0FFF1FE35E99
:1055D000F64E81E090E0028002C0880F991F0A9485
:1055E000E2F7822B8C930895CC24C394D12C689439
:1055F000BB24B2F8CDE1D9E110E08C81813081F09B
:1056000018F1823061F5E881F9812081C6010A80B4
:1056100002C0880F991F0A94E2F7822780831FC077
:105620008D818F5F863010F48D8319C01D82E881D3
:10563000F9812081C6010A8002C0880F991F0A944F
:10564000E2F7822780830BC00D81002329F0812F90
:105650007FDF01500D8303C0BC82812F2DDF1F5FD0
:105660002696143051F66CE070E080E090E00E94E5
:105670004713C0CFEF92FF920F931F93CF93DF9307
:10568000082F80E487B9CDE1D9E10F2EF8E2EF2EA3
:10569000F12CF02DF982E88286E08A831B8214E0E7
:1056A0001C8380E009DF80E887B9FF82EE8287E013
:1056B000888719861A8781E0FFDE80E283BB84E356
:1056C00090E09D878C8785E08E871F86188B82E00F
:1056D000F3DE80E18093010182E091E09B8B8A8B75
:1056E0001C8B1D8A1E8B83E0E7DEE12CF12C20E071
:1056F00030E040EC50E061E379E084EF9AE20E9410
:105700004210DF91CF911F910F91FF90EF9008957C
:10571000CF93DF9390E0FC01EE0FFF1FDF01A80F96
:10572000B91FAA0FBB1FA35EB64ECD91DC91119796
:10573000488121E030E012960C90129702C0220FAF
:10574000331F0A94E2F724272883FD0181E0848334
:10575000DF91CF910895CF93DF9390E0FC01EE0F9E
:10576000FF1FDF01A80FB91FAA0FBB1FA35EB64E14
:10577000CD91DC911197488121E030E012960C9098
:10578000129702C0220F331F0A94E2F724272883BE
:10579000FD0182E08483DF91CF910895282F30E0CE
:1057A000F901EE0FFF1FE20FF31FEE0FFF1FE35E85
:1057B000F64E93E09483CCCE0895282F30E0F90183
:1057C000EE0FFF1FE20FF31FEE0FFF1FE35EF64E1B
:1057D00094E0948371CE089590E0FC01EE0FFF1FDA
:1057E000DF01A80FB91FAA0FBB1FA35EB64E26E0AC
:1057F00015962C931597FD011482089590E0FC01F5
:10580000EE0FFF1FDF01A80FB91FAA0FBB1FA35E7A
:10581000B64E15961C921597FD011482089580913D
:10582000431981110CC08CE08093B8008FEF8093F6
:10583000BB0084E08093BC0081E08093431908950D
:10584000AF92BF92CF92DF92EF92FF920F931F938E
:10585000CF93DF93A82EB62E69017A0184E090E001
:1058600061D7EC01892B61F1A88281E0B81212C0E6
:10587000C701B60120EA36E841E050E015D7DA0169
:10588000C9014097A109B109B695A7959795879544
:10589000898311C0C701B60120E83AE146E050E033
:1058A00003D7DA01C9014097A109B109B695A795B7
:1058B0009795879589831B830A838C2F9D2F02C020
:1058C00080E090E0DF91CF911F910F91FF90EF90DA
:1058D000DF90CF90BF90AF9008958091BC00817011
:1058E0000895FF920F931F93CF93DF930097D1F109
:1058F0004A30D0F5F42E8B01EC01EFDF811136C078
:105900008091361990913719C817D90741F087DF70
:1059100089818093B800D0933719C093361981E0FC
:105920008F0D809338198881880F80933919FF2053
:1059300089F0F801AAE3B9E14FEF4F0D642F70E051
:10594000CB010196B801680F791F81918D93E617FD
:10595000F707D9F788EF8093210285EA8093BC008E
:1059600084E005C086E003C087E001C082E0DF91EB
:10597000CF911F910F91FF9008951F93CF93DF93C5
:10598000009729F16B3028F5162FEC01A6DF811165
:1059900022C08091361990913719C817D90741F064
:1059A0003EDF89818093B800D0933719C0933619B0
:1059B000109338198881880F81608093391988EF96
:1059C0008093210285EA8093BC0085E005C086E0D3
:1059D00003C087E001C082E0DF91CF911F9108955D
:1059E0001F920F920FB60F9211240BB60F922F93A6
:1059F0003F934F935F936F937F938F939F93AF9357
:105A0000BF93EF93FF93E091B9008E2F90E0FC01DC
:105A10003897E135F10508F075C08827E458FF4F45
:105A20008F4F64C610923519E0913519809138195D
:105A3000E81770F481E08E0F80933519F0E0E75C91
:105A4000F64E80818093BB0085E88093BC0072C0D5
:105A500084E98093BC008091361990913719DC015C
:105A60001296ED91FC911397309709F463C020E0F2
:105A700040E050E064E019955DC0E091351981E0A7
:105A80008E0F809335198091BB00F0E0E75CF64EF5
:105A900080838091B900803411F4109235192091DF
:105AA000351930E08091381990E0019728173907AF
:105AB00024F485EC8093BC003DC085E88093BC0055
:105AC00039C08091BB00E0913519F0E0E75CF64EFB
:105AD000808384E98093BC008091361990913719B6
