:1000000066C1000085C1000083C1000081C10000FD
:100010007FC100007DC100007BC1000079C10000EC
:1000200077C1000075C1000073C1000071C10000FC
:1000300039C700006DC100006BC1000069C100003C
:1000400067C1000065C1000063C1000061C100001C
:100050005FC100005DC100005BC1000059C100002C
:1000600057C100000C94F81A0C944A1B51C10000AF
:100070004FC100004DC100004BC1000049C100004C
:1000800047C1000045C1000043C1000041C100005C
:100090000C948E1B0C94E01B3BC100000C94A41F1D
:1000A00037C1000035C1000033C1000031C100007C
:1000B0002FC100002DC100002BC1000029C100008C
:1000C00027C1000025C1000023C100000C94241C9E
:1000D0000C94761C1DC100000C94BA1C0C940C1DD1
:1000E00017C10000FA16FA16FA16311739174E170B
:1000F000FA16FA1631173917C61F36203620362061
:100100003620362036203620C61F362036203620B0
:100110003620362036203620C81F3620362036209E
:10012000362036203620362036203620362036201F
:100130003620362036203620C81F3620362036207E
:1001400036203620362036203620362036203620FF
:1001500036203620362036203220362036203620F3
:100160003620362036203620FD1F36203620362019
:1001700036203620362036203620362036203620CF
:100180003620362036203620F11F36203620362005
:10019000362036203620362015206E616E00696EBE
:1001A000660000407A10F35A00A0724E1809001041
:1001B000A5D4E80000E87648170000E40B540200DC
:1001C00000CA9A3B000000E1F50500008096980007
:1001D000000040420F000000A08601000000102730
:1001E00000000000E80300000000640000000000C0
:1001F0000A00000000000100000000002C76D888F2
:10020000DC674F0823DFC1DFAE59E1B1B796E5E304
:10021000E453C63AE651997696E8E6C28426EB891D
:100220008C9B62ED407C6FFCEFBC9C9F40F2BAA5BA
:100230006FA5F490055A2AF75C936B6CF9676DC152
:100240001BFCE0E40D47FEF520E6B500D0ED902E56
:100250000300943577050080841E080000204E0AB4
:10026000000000C80C333333330F986E12831141F2
:10027000EF8D2114893BE65516CFFEE6DB18D184BD
:100280004B381BF77C1D901DA4BBE42420328472E4
:100290005E228100C9F124ECA1E53D270E94800C7B
:1002A0008091E312823008F038D50E947717F6CF9C
:1002B000CF93DF931F92CDB7DEB7CE0101960E9498
:1002C0007B1449810E946F160E94C316F6CF112439
:1002D0001FBECFEFD1E2DEBFCDBF00E00CBF14E008
:1002E000A0E0B2E0E4E4F2E500E00BBF02C007905A
:1002F0000D92A03DB107D9F723E1A0EDB4E001C014
:100300001D92A73FB207E1F70E94AD170C94202978
:1003100077CEDBD005C1089598D19093E9138093EF
:10032000E81393D19093EB138093EA130895CF923F
:10033000DF92EF92FF920F938FE492E09F938F935F
:100340000E947E2888E592E00E94922845E050E0D5
:1003500060E070E08091EA139091EB1329D284E67B
:1003600092E09F938F930E947E28CC24CA94DC2C29
:10037000760101E021E04AE050E060E070E0809129
:10038000E8139091E91374D1DC01CB018A709927AD
:10039000AA27BB270F900F900F900F90892B8A2BC5
:1003A0008B2B79F18AE992E09F938F930E947E28AC
:1003B00021D19F938F938EED92E09F938F930E9414
:1003C0007E281DD19F938F938BEE92E09F938F9306
:1003D0000E947E2875D09F938F9387EF92E09F9322
:1003E0008F930E947E2864E771E080E090E00E9495
:1003F000E00F8DB79EB70E960FB6F8949EBF0FBE56
:100400008DBF0F91FF90EF90DF90CF900895909364
:10041000D1048093D004089583E00E94481987E0B6
:1004200092E00C946D1908950E9472198093EC1358
:10043000882341F083E093E09F938F930E947E286E
:100440000F900F9080ED94E00E94A11990E090939E
:10045000D1048093D004089583E393E09F938F9316
:100460000E947E280F900F90CC24CA94DC2C760139
:1004700001E021E041E050E060E070E08091EA13AB
:100480009091EB13F5D060FFEFCF8DE593E09F9354
:100490008F930E947E28C8DF81E993E09F938F931A
:1004A0000E947E2842E050E060E070E08091E81316
:1004B0009091E9137DD10F900F900F900F90D4CFB2
:1004C0008091D0049091D1040895EF92FF920F9300
:1004D000A3DFE12CF12C00E020E030E040EC50E024
:1004E0006CEC73E08CE292E00E94430D0F91FF9060
:1004F000EF9008950E94E617811109C08EED93E0F8
:100500009F938F930E947E280F900F9008958AEFFB
:1005100093E09F938F930E947E280F900F900895F1
:10052000EF92FF920F93E6DFE12CF12C00E020E048
:1005300030E040EC50E061E374E08AEC92E00E942D
:10054000430D0F91FF90EF9008950E94FD178823AF
:1005500041F08DE394E09F938F930E947E280F904B
:100560000F9063E070E080E090E00E94E00F0E9456
:100570001118882341F080E694E09F938F930E94A6
:100580007E280F900F9063E070E080E090E00C9484
:10059000E00F0895CC24CA94DC2C760101E021E020
:1005A00044E050E060E070E08091EA139091EB133A
:1005B0005FD062FFEFCFC9DF0E9436189093D50459
:1005C0008093D4040E945C189093D3048093D20447
:1005D00083E894E09F938F930E947E2848E050E048
:1005E00060E070E08091E8139091E913E1D00F9002
:1005F0000F90D0CF8091D2049091D3040895809130
:10060000D4049091D50408950F9301110CC0DC011E
:10061000CB0182239323A423B523892B8A2B8B2BF5
:1006200079F480E010C0DC01CB0182239323A42362
:10063000B523281739074A075B0721F080E003C07C
:1006400081E001C081E00F910895CF93DF938FE0A7
:1006500090E0AFD1EC01009739F0FC0111921192BA
:1006600011921192CF018BD2CE01DF91CF910895DB
:100670002F923F924F925F926F927F928F929F92B2
:10068000AF92BF92CF92DF92EF92FF920F931F93A0
:10069000CF93DF93EC014A015B01622E702E0E9422
:1006A000C40D288039804A805B80A5019401C20175
:1006B000B101AADF8823A1F0662089F1D501C40128
:1006C00080959095A095B09582219321A421B52184
:1006D00088839983AA83BB83C12CD12C760122C045
:1006E000C114D104E104F104E9F0611004C040E058
:1006F00050E0BA0104C040E050E060E071E07110E9
:100700007460482959296A297B2997018601CE01FD
:1007100004960E947610212C312C210103C0C12C9B
:10072000D12C76010E94040FCD28CE28CF2859F174
:10073000811101C0F2D20E942F136B017C0191FD47
:100740001FC00FB6F8940F92C880D980EA80FB8052
:10075000072DA5019401C701B60156DF882371F06A
:10076000662061F080949094A094B0948C209D2099
:10077000AE20BF2088829982AA82BB820F900FBED2
:10078000160127015524C201B101DF91CF911F91BC
:100790000F91FF90EF90DF90CF90BF90AF909F9020
:1007A0008F907F906F905F904F903F902F90089523
:1007B0004F925F926F927F92AF92BF92CF92DF92F1
:1007C000EF92FF920F931F93CF93DF93EC016A0197
:1007D0007B018C01095F1F4F0E94C40DEB85FC85D6
:1007E00088819981AA81BB81C82AD92AEA2AFB2A51
:1007F000C882D982EA82FB82C12CD12C76013DC00D
:10080000A480B58080819181A281B381AC01BD01BA
:100810007727B2FD0EC0488059806A807B804422D1
:1008200055226622772245284628472889F420E069
:1008300012C0488059806A807B80442255226622FB
:100840007722441555056605770521F020E003C0A1
:1008500021E001C021E0222371F0B0FF04C0C42ACE
:10086000D52AE62AF72A488159816A817B817260FC
:10087000CF010E94B111EA2DFB2DE017F10709F01D
:10088000BFCFC094D094E094F09488819981AA81DC
:10089000BB81C822D922EA22FB22C882D982EA82FD
:1008A000FB820E94040F688179818A819B81DF919C
:1008B000CF911F910F91FF90EF90DF90CF90BF905D
:1008C000AF907F906F905F904F900895E2EEF4E0CC
:1008D000A6EEB4E0B183A08313821282EEE8F2E1C7
:1008E000F093E104E093E0041382128211821082FB
:1008F00088EA9DE013969C938E931297ED93FC9358
:100900009093DD048093DC049093DF048093DE04F5
:1009100080E090E89093D7048093D6040895CF9315
:10092000DF93EC01A2EEB4E001C0DF01ED91FC9198
:100930001197EC17FD07C8F312968D919C911397B0
:100940009D01280F391FC217D30749F42A813B8123
:10095000820F931F13969C938E931297ED018A81B9
:100960009B819E01280F391FE217F307C1F42091E4
:10097000E0043091E104E217F30771F02281338142
:10098000820F931F9B838A83ED91FC911197808145
:1009900091819983888305C03983288302C0F983B4
:1009A000E883CA17DB0711F0CD93DC93DF91CF9179
:1009B0000895EF92FF920F931F93CF93DF938C01D3
:1009C0000E94C40D8091E0049091E104892B09F408
:1009D0007DDF8091D6049091D70480239123892BC9
:1009E00009F076C00115110549F0C80104960817F1
:1009F000190718F000E010E001C08C010115110585
:100A000009F469C08091DE049091DF04801791079A
:100A100008F464C0C091E204D091E304E2EEF4E093
:100A200002C0FE01EC018A819B818017910720F4AE
:100A3000888199810097A9F78091E0049091E10461
:100A4000C817D90709F44DC0E080F18084E0E80EB2
:100A5000F11C88819981918380832A813B81201BAD
:100A6000310B2930310548F0CE01800F911FFC0178
:100A7000338322831B830A8352DF2A813B81809147
:100A8000DE049091DF04821B930B9093DF0480932C
:100A9000DE044091DC045091DD048417950720F4B6
:100AA0009093DD048093DC048091D6049091D70468
:100AB000282B392B3B832A83198218828091DA04F0
:100AC0009091DB0401969093DB048093DA040BC0D1
:100AD000E12CF12C08C0E12CF12C05C0E12CF12C0B
:100AE00002C0E12CF12C0E94040FE114F10411F476
:100AF0000E948317C701DF91CF911F910F91FF9043
:100B0000EF9008950F931F93CF93DF93009791F188
:100B1000EC0124974A815B812091D6043091D7045F
:100B2000BA0162237323672B29F168817981672BCE
:100B300009F520953095242335233B832A830E9491
:100B4000C40D8A819B812091DE043091DF04820FE5
:100B5000931F9093DF048093DE04CE01E0DE80914A
:100B6000D8049091D90401969093D9048093D80425
:100B70000E94040FDF91CF911F910F910895FC0106
:100B80000396928381834FEF5FEFBA0143835483CF
:100B90006583768390878783928781871082089503
:100BA000FC011386128608950F931F93CF93DF9352
:100BB000EB01088119812A813B810F3F4FEF140718
:100BC0002407340721F4FC01A185B28511C0DC01A2
:100BD000139601C0DF011496ED91FC9115974081A9
:100BE000518162817381041715072607370790F733
:100BF0001496ED91FC911597FD83EC83D783C68302
:100C0000BF83AE831596DC93CE9314979B878A8718
:100C1000FC0120812F5F2083DF91CF911F910F91E5
:100C20000895CF93DF93FC01A285B385C481D5815C
:100C3000868197819F838E83C681D78184819581A8
:100C40009D838C8311968D919C911297E817F907DB
:100C500031F48681978112969C938E931197138617
:100C600012868C9181508C938C91DF91CF91089555
:100C7000A89590EC88E10FB6F894A8958093600051
:100C80000FBE909360000895FC01608331977083DC
:100C90003197108231971082319720E82083319765
:100CA0001082319710823197108277974083319765
:100CB000508386970895DCDFA0915113B0915213B1
:100CC000CD91CDBFDD91DEBFFF91EF91DF91CF914F
:100CD000BF91AF919F918F917F916F915F914F9154
:100CE0003F912F911F910F91FF90EF90DF90CF9048
:100CF000BF90AF909F908F907F906F905F904F903C
:100D00003F902F901F900F900CBE0F900BBE0F9036
:100D10000FBE0F90089581E008950F920FB6F894DA
:100D20000F920BB60F920CB60F921F9211242F92B6
:100D30003F924F925F926F927F928F929F92AF926B
:100D4000BF92CF92DF92EF92FF920F931F932F9358
:100D50003F934F935F936F937F938F939F93AF9343
:100D6000BF93CF93DF93EF93FF93A0915113B09173
:100D700052130DB60D920EB60D920E94FB0FA0916C
:100D80005113B0915213CD91CDBFDD91DEBFFF91D4
:100D9000EF91DF91CF91BF91AF919F918F917F9113
:100DA0006F915F914F913F912F911F910F91FF9004
:100DB000EF90DF90CF90BF90AF909F908F907F90FB
:100DC0006F905F904F903F902F901F900F900CBEB0
:100DD0000F900BBE0F900FBE0F9008950F920FB69D
:100DE000F8940F920BB60F920CB60F921F9211242B
:100DF0002F923F924F925F926F927F928F929F922B
:100E0000AF92BF92CF92DF92EF92FF920F931F9318
:100E10002F933F934F935F936F937F938F939F9302
:100E2000AF93BF93CF93DF93EF93FF93A0915113B1
:100E3000B09152130DB60D920EB60D9213BEB8D6E8
:100E400081110E94FB0FA0915113B0915213CD91CB
:100E5000CDBFDD91DEBFFF91EF91DF91CF91BF91CB
:100E6000AF919F918F917F916F915F914F913F9142
:100E70002F911F910F91FF90EF90DF90CF90BF9037
:100E8000AF909F908F907F906F905F904F903F902A
:100E90002F901F900F900CBE0F900BBE0F900FBEA7
:100EA0000F9008959BDF18950FB6F8940F92FC01F0
:100EB000868D811102C081E001C080E00F900FBEDD
:100EC00008950FB6F8940F92FC01268D878D281394
:100ED00002C081E001C080E00F900FBE08950F9323
:100EE0001F93CF93DF93EC01042F1E8D48A1411176
:100EF0000CC088819981892B09F042C08C819D8129
:100F00000E94D4121D821C8242C0011117C050E001
:100F10008A819B810E94272828A18A819B81820F38
:100F2000911D9B838A832C813D818217930750F109
:100F3000888199819B838A8380E029C050E08E81DB
:100F40009F810E94272888A190E091958195910921
:100F50002E813F81280F391F3F832E83488159817D
:100F60002417350730F42C813D81820F931F9F8316
:100F70008E83023049F4112349F0115080E007C0FC
:100F800080E005C080E003C080E001C080E01F5F1A
:100F90001E8FDF91CF911F910F910895FC0140A109
:100FA0004423A9F050E026813781240F351F378371
:100FB0002683848195812817390720F080819181CB
:100FC00097838683CB01668177810C9427280895C7
:100FD0001F93CF93DF93EC010FB6F8940F921AA1F1
:100FE0000BC08B89882351F0CE0143960E940211D9
:100FF00081110E94C212115011169CF38FEF8AA327
:101000000F900FBE0FB6F8940F9219A10BC08885F0
:10101000882351F0CE0108960E94021181110E948E
:10102000C212115011169CF38FEF89A30F900FBEBF
:10103000DF91CF911F910895CF93DF93EC010FB60D
:10104000F8940F92E881F9818F8D28A190E030E02B
:10105000829FA001839F500D929F500D11244E0F2F
:101060005F1F5D834C831E8EFB83EA830197289F5D
:10107000A001299F500D389F500D1124CF01840FDE
:10108000951F9F838E838FEF89A38AA361110BC065
:101090008885882371F0CE0108960E94021188236A
:1010A00041F03BDE06C0CE01089669DDCE014396D5
:1010B00066DD0F900FBE81E0DF91CF9108950F9311
:1010C0001F93F801611103C01183008302C0518393
:1010D0004083878F60A361E0CF01AEDF1F910F9146
:1010E0000895DF92EF92FF920F931F93CF93DF93B8
:1010F000F82EE62ED42E869FC0011124839659DC4B
:10110000EC01009741F08C012D2DAC014D5D5F4F3E
:101110006E2D8F2DD4DFCE01DF91CF911F910F91D6
:10112000FF90EF90DF900895CF92DF92EF92FF92C1
:101130000F931F93CF93DF93CDB7DEB729970FB6E9
:10114000F894DEBF0FBECDBF7C016B012E833F83C1
:101150004887598710E00FB6F8940F92F701968DE3
:10116000878D981710F00230B1F4402FB601C701F7
:10117000B6DEF7019389992341F0C70143960E9497
:101180000211882321F0C9DD02C08111C6DD0F9054
:101190000FBE81E048C08E819F81A885B985892BCB
:1011A0008A2B8B2B21F40F900FBE80E03CC01111D5
:1011B00005C0CE0101960E944B1211E00F900FBEA8
:1011C000E3D40FB6F8940F92F70181A18F3F09F491
:1011D00011A2F70182A18F3F09F412A20F900FBE56
:1011E000BE016A5F7F4FCE0101960E945C128111A1
:1011F00016C0C70166DE882371F04E815F81688565
:101200007985C70108965BD7C701E2DEFDD581115C
:10121000A2CF83DDA0CFC701DBDEF6D59CCFC7010F
:10122000D7DEF2D580E029960FB6F894DEBF0FBE68
:10123000CDBFDF91CF911F910F91FF90EF90DF9085
:10124000CF900895EF92FF920F931F93CF93DF9368
:101250008A01FC01568D378D531710F02230F1F4BE
:10126000422F7801EC011AA18E8DCE0138DE1F3F8E
:1012700079F48B898823A1F0CE014396C3D78823C4
:1012800089F0E114F10481F081E0F70180830DC061
:10129000FF24F394F10EFAA281E007C080E005C0BC
:1012A00081E003C081E001C081E0DF91CF911F9117
:1012B0000F91FF90EF900895CF92DF92EF92FF92FF
:1012C0000F931F93CF93DF93CDB7DEB729970FB658
:1012D000F894DEBF0FBECDBF8C016B012E833F8320
:1012E00048875987E12C0FB6F8940F92F801F68CD5
:1012F000FF2091F0B601C80151DEFA94F801F68E94
:101300008085882329F0C80108967CD7811105DDE6
:101310000F900FBE81E04EC08E819F81A885B98558
:10132000892B8A2B8B2B21F40F900FBE80E042C0BB
:10133000E11006C0CE0101960E944B12EE24E39408
:101340000F900FBE21D40FB6F8940F92F80181A12F
:101350008F3F09F411A2F80182A18F3F09F412A274
:101360000F900FBEBE016A5F7F4FCE0101960E94B3
:101370005C12811116C0C80197DD882371F04E817F
:101380005F8168857985C801439699D6C80120DEBA
:101390003BD58111A8CFC1DCA6CFC80119DE34D559
:1013A000A2CFC80115DE30D5C8017EDD882309F43F
:1013B0009ACF80E029960FB6F894DEBF0FBECDBF5E
:1013C000DF91CF911F910F91FF90EF90DF90CF9021
:1013D0000895CF93DF93EC010FB6F8940F9289A193
:1013E0008F3F09F419A28AA18F3F09F41AA20F9026
:1013F0000FBE8E8D811103C0CE014396C1D6CE01A2
:10140000E7DDDF91CF910895FC0144815581228170
:101410003381240F351F80819181B901681B790BBD
:10142000CB016417750710F0841B950B08950F937B
:10143000FC018FE0DF011D928A95E9F775876487CB
:10144000558344833783268306870F910895AF928F
:10145000BF92CF92DF92EF92FF920F931F93CF93A1
:10146000DF936C015B017A01FC01C281D3810481AD
:1014700015810C1B1D0B4017510708F48A01F6015A
:1014800084859585A801B5018C0F9D1F0E94272892
:101490000E151F0558F4A701401B510BB501600F35
:1014A000711FF601848595850E942728CE018E0D37
:1014B0009F1DF601248135818217930710F0821B4E
:1014C000930BF60193838283C701DF91CF911F9124
:1014D0000F91FF90EF90DF90CF90BF90AF90089565
:1014E000CF92DF92EF92FF920F931F93CF93DF93F0
:1014F0001F921F92CDB7DEB77C016B015A834983DF
:1015000021153105C1F0FC01868580FD08C0421718
:10151000530708F49A013A83298381E00FC020170A
:10152000310758F042E050E0BE016F5F7F4FC701C6
:101530008EDF81E003C080E001C080E0882331F0CD
:1015400049815A81B601C70182DF02C080E090E084
:101550000F900F90DF91CF911F910F91FF90EF901F
:10156000DF90CF900895CF92DF92EF92FF920F938A
:10157000CF93DF93EC016B01413011F401E001C026
:1015800000E0C114D10419F4CC24C394D12CCE01B1
:101590004096C817D90720F421960BDA7C0102C0C7
:1015A000E12CF12CE114F10439F09601AE01B70100
:1015B000615F7F4FC7013BDFC701DF91CF910F9183
:1015C000FF90EF90DF90CF900895FC01248135814A
:1015D00080819181820F931F42815381841B950BDF
:1015E00001978217930710F0821B930B0895AF9217
:1015F000BF92CF92DF92EF92FF920F931F93CF9300
:10160000DF93EC017B015A0169018E8580FF04C0E4
:101610008A010E5F1F4F01C08A01CE01D6DF9C01F7
:10162000A501B701CE015CDF5C01892BC1F0CE01C1
:10163000EBDE2E813F818217930788F0888599859C
:10164000892B69F088859985E12CF12C00E020E058
:1016500030E0A90160E00E94591319861886C5017F
:10166000DF91CF911F910F91FF90EF90DF90CF907E
:10167000BF90AF900895E091CB12F091CC12808191
:1016800081110CC08FEF9FEFDC0180939512909336
:101690009612A0939712B09398120895E091CB12EE
:1016A000F091CC120780F085E02D80819181A2819C
:1016B000B3818093951290939612A0939712B09352
:1016C00098120895CF93DF93EC018B8D9C8D1ADADD
:1016D000CE0118DADF91CF9108954F925F926F9209
:1016E0007F928F929F92AF92BF92CF92DF92EF92B2
:1016F000FF920F93CF93DF932C015B014A013901D5
:10170000E60165EA70E08B8D9C8D0E9430288B8D00
:101710009C8D21E0821A9108880E991EA114B104B3
:1017200089F415C0822F90E0F501E80FF91F308190
:10173000DE01A80FB91F5D963C938081882329F0B4
:101740002F5F01C020E0203168F31CA601C01D8E70
:101750000A3008F009E00A8F0DA71EA6CE010296F6
:101760001FDACE010E961CDADB87CA878AE090E08A
:10177000A0E0B0E0801B9109A109B1098E879F8785
:10178000A88BB98BDF8BCE8B84E0FE01BF96DF0187
:101790001D928A95E9F71BAAA301B201C40174DA6C
:1017A00099838883E114F10419F0F701D183C08390
:1017B000DF91CF910F91FF90EF90DF90CF90BF908E
:1017C000AF909F908F907F906F905F904F90089513
:1017D000CF93C0E008C02BE0C29FC00111248D51FF
:1017E0009D4ECDD9CF5FCA30B0F388ED92E1C7D915
:1017F0008DEC92E1C4D98EEB92E1C1D983EB92E1F9
:10180000BED987EA92E1BBD988ED92E19093CC12E0
:101810008093CB128DEC92E19093CA128093C912FF
:10182000CF910895CF93DF93EC010FB6F8940F9208
:101830008091A6128F5F8093A61280915113909190
:101840005213892B51F4D0935213C09351138091AA
:10185000A612813091F4BCDF10C08091A0128111DA
:101860000CC0E0915113F0915213928D8A8D89171B
:1018700020F0D0935213C0935113809199128F5F2F
:1018800080939912EA8D8091A1128E1710F4E09343
:10189000A1128BE08E9FF0011124ED51FD4E0180CD
:1018A000F281E02DFF83EE832681378139872887F7
:1018B000A681B7819E012E5F3F4F15963C932E93D4
:1018C000149737832683EA8D8E9FF0011124ED5102
:1018D000FD4EFD87EC8780818F5F80830F900FBE68
:1018E0008091A012882349F0E0915113F091521396
:1018F000928D8A8D981708F410DADF91CF910895B0
:10190000CF93DF931AC00FB6F8940F92E091BA12FA
:10191000F091BB12C085D185CE01029682D980910B
:10192000A61281508093A6128091B21281508093AA
:10193000B2120F900FBECE01C5DE8091B21281119E
:10194000E2CFDF91CF9108958F929F92AF92BF9295
:10195000CF92DF92EF92FF92CF93DF936B017C01E6
:10196000C42F8090A2129090A312A090A412B090C5
:10197000A5128091511390915213029652D98FEF74
:10198000C816D806E806F806B1F5CC23A1F1E7EAB7
:10199000F2E1A181B281C0915113D0915213BF8362
:1019A000AE83C0915113D091521316968D919C9194
:1019B0001797998788871696CD91DC911797809114
:1019C00051139091521302969D838C8380915113F1
:1019D00090915213029617969C938E931697A0910E
:1019E0005113B09152131D96FC93EE931C97808176
:1019F0008F5F80833DC0C80CD91CEA1CFB1CE091A2
:101A00005113F0915213C282D382E482F582C8143A
:101A1000D904EA04FB0460F46091511370915213ED
:101A20008091C9129091CA126E5F7F4FBDD820C0BD
:101A300060915113709152138091CB129091CC12FE
:101A40006E5F7F4FB1D88091951290919612A091C0
:101A50009712B0919812C816D906EA06FB0640F410
:101A6000C0929512D0929612E0929712F09298122C
:101A7000DF91CF91FF90EF90DF90CF90BF90AF902C
:101A80009F908F9008952F923F924F925F926F9206
:101A90007F928F929F92AF92BF92CF92DF92EF92FE
:101AA000FF920F93CF93DF933C011B014A01290161
:101AB000CA010E94D9046C01892B69F084E390E08B
:101AC0000E94D904EC01892B19F0DC8ECB8E05C065
:101AD000C60118D802C0C0E0D0E0209761F0A12C68
:101AE000B12C6E019201A401B101C301F6DDCE015A
:101AF00099DE81E001C08FEFDF91CF910F91FF90D0
:101B0000EF90DF90CF90BF90AF909F908F907F909D
:101B10006F905F904F903F902F900895EF92FF92BB
:101B20000F930F2EF3E9EF2EF2E1FF2EF02D00E0E0
:101B300020E030E040EC50E063EA74E08EE491E0B5
:101B4000A2DF813009F461D78130C1F4F8948FEFBE
:101B50009FEFDC018093951290939612A0939712B9
:101B6000B093981281E08093A0121092A21210926A
:101B7000A3121092A4121092A5129DD88091060271
:101B80000F91FF90EF900895809192128F5F809354
:101B9000921208950FB6F8940F926091A21270916C
:101BA000A3128091A4129091A5120F900FBE0895D8
:101BB000CF92DF92EF92FF92CF93DF9380919212B8
:101BC000811105C1C090A212D090A312E090A4127E
:101BD000F090A5128FEFC81AD80AE80AF80AC09246
:101BE000A212D092A312E092A412F092A512C114F4
:101BF000D104E104F104B1F48091CB129091CC12A4
:101C00002091C9123091CA123093CC122093CB127A
:101C10009093CA128093C91280919A128F5F809319
:101C20009A1229DD8091951290919612A0919712A7
:101C3000B0919812C816D906EA06FB0620F480E097
:101C4000B2C081E001C080E0E091CB12F091CC12F3
:101C5000908191110CC04FEF5FEFBA014093951244
:101C60005093961260939712709398129CC0E091D3
:101C7000CB12F091CC120780F085E02D0084F18525
:101C8000E02D4281538164817581C416D506E60634
:101C9000F70648F44093951250939612609397126A
:101CA0007093981280C0A485B585C681D7812085A0
:101CB00031853F832E83C085D185268137813D8341
:101CC0002C8311964D915C9112979F012E5F3F4F8F
:101CD0004217530731F44085518512965C934E9319
:101CE0001197158614869C9191509C93A08DB18D6F
:101CF000109709F1C289D389448955895F834E833E
:101D0000C489D589428953895D834C8311966D912D
:101D10007C911297AF01425F5F4F6417750731F4F2
:101D20004489558912965C934E931197118E108EAB
:101D30009C9191509C93A28D9091A1129A1710F4AE
:101D4000A093A1129BE09A9FD0011124AD51BD4EEA
:101D500011960D90BC91A02DB783A68316964D9138
:101D60005C911797518740871696CD91DC91179714
:101D70003D832C8317963C932E931697A28D9A9FA2
:101D8000D0011124AD51BD4EB587A4879C919F5FB2
:101D90009C93228DE0915113F0915213928D29174B
:101DA00008F04FCF51CFE0915113F0915213E28DD3
:101DB0009BE0E99FF0011124ED51FD4E908192309E
:101DC00008F081E090919B12911116C016C080918D
:101DD0009C1290919D12A0919E12B0919F1201961B
:101DE000A11DB11D80939C1290939D12A0939E12F1
:101DF000B0939F1280E001C081E0DF91CF91FF900E
:101E0000EF90DF90CF900895CF92DF92EF92FF9204
:101E1000CF93DF930FB6F8940F9280919212815076
:101E200080939212809192128111BEC08091A6126D
:101E3000811188C0BCC0E091C512F091C612008427
:101E4000F185E02DA08DB18DC289D38984899589D2
:101E50009F838E83C489D589828993899D838C834E
:101E600011962D913C911297CF010E9628173907A4
:101E700031F48489958912969C938E931197118ED3
:101E8000108E8C9181508C93A485B585C681D781A5
:101E9000808591859F838E83C085D185868197813A
:101EA0009D838C8311968D919C9112979F012E5F3B
:101EB0003F4F8217930731F48085918512969C934A
:101EC0008E931197158614868C9181508C93A28DD8
:101ED0008091A1128A1710F4A093A1128BE08A9F1F
:101EE000D0011124AD51BD4E11960D90BC91A02D85
:101EF000B783A68316964D915C91179751874087BB
:101F00001696CD91DC9117973D832C8317963C93C1
:101F10002E931697A28D8A9FD0011124AD51BD4EEC
:101F2000B587A4878C918F5F8C93928DA09151136C
:101F3000B09152135A968C91981730F081E08093AB
:101F40009B1202C0E0E0F0E08091BE12811173CFDD
:101F5000EF2B09F090DBC0909C12D0909D12E09086
:101F60009E12F0909F12C114D104E104F104A1F07B
:101F70001FDE882319F081E080939B1281E0C81A4C
:101F8000D108E108F108A1F710929C1210929D125D
:101F900010929E1210929F1280919B12882331F012
:101FA0000E948D0681E003C080E001C080E00F90B8
:101FB0000FBEDF91CF91FF90EF90DF90CF9008950B
:101FC000CF92DF92EF92FF926B017C01672B682B1F
:101FD000692B39F0D9DD40E0C701B601B5DC14DF6B
:101FE00001C080E0811102C00E948D06FF90EF9039
:101FF000DF90CF90089580919212882321F081E0A4
:1020000080939B12089510929B12E0915113F091CE
:10201000521320813181E0915113F0915213838D3D
:10202000948D8217930758F0609151137091521359
:10203000635E7F4F809151139091521370D78091BE
:10204000A11201C08150282F30E09BE0929FF00147
:10205000939FF00D1124ED51FD4E9081992391F342
:102060009BE0929FA001939F500D1124DF010180FE
:10207000F281E02D0480F581E02D1296FC93EE9321
:1020800011974A515D4EE417F50729F444815581B3
:10209000FD01528341839BE0929FF001939FF00DDD
:1020A0001124ED51FD4E0180F281E02D2085318516
:1020B00030935213209351138093A1120895CF921D
:1020C000DF92EF92FF926A017B0160915113709150
:1020D0005213625F7F4F0E94D40541E0C701B601F1
:1020E00033DCFF90EF90DF90CF9008950F931F9314
:1020F000CF93DF93FC01A0915113B09152137068FC
:102100001E964D935D936D937C935197A181B281FF
:10211000C0915113D0915213BB8BAA8BC091511314
:10212000D091521316968D919C9117979D8B8C8B05
:102130001696CD91DC91179780915113909152137F
:102140000E969D838C8380915113909152130E961D
:1021500017969C938E931697A0915113B09152139A
:102160005996FC93EE93589780818F5F808341E06E
:10217000C901B801E9DBDF91CF911F910F9108955B
:10218000CF93DF93FC01CB01BA01A181B281C09151
:102190005113D0915213BB8BAA8BC0915113D09184
:1021A000521316964D915C9117975D8B4C8B16963A
:1021B000CD91DC9117974091511350915213425F8A
:1021C0005F4F5D834C834091511350915213425F96
:1021D0005F4F17965C934E931697A0915113B09151
:1021E00052135996FC93EE93589730813F5F30839A
:1021F000222319F06FEF7FEFCB01422FA5DBDF9198
:10220000CF910895CF93DF93DC011796ED91FC9168
:1022100018970084F185E02DA08DB18DC289D389F6
:10222000848995899F838E83C489D589828993897E
:102230009D838C8311968D919C9112979F01225FB3
:102240003F4F8217930731F48489958912969C93A6
:102250008E931197118E108E8C9181508C9380915A
:102260009212811152C0A485B585C681D78180851F
:1022700091859F838E83C085D185868197819D833B
:102280008C8311968D919C9112979F012E5F3F4FE9
:102290008217930731F48085918512969C938E93D3
:1022A0001197158614868C9181508C93A28D809104
:1022B000A1128A1710F4A093A1128BE08A9FD0017B
:1022C0001124AD51BD4E11960D90BC91A02DB78338
:1022D000A68316964D915C91179751874087169665
:1022E000CD91DC9117973D832C8317963C932E93C9
:1022F0001697A28D8A9FD0011124AD51BD4EB5878E
:10230000A4878C918F5F8C931CC04EEB52E1DA0155
:102310001196CD91DC911297D38BC28B8E819F81C8
:10232000958B848B8E819F81DC0115963C932E9337
:1023300014973F832E83518F408FDA018C918F5FEA
:102340008C93928DE0915113F0915213828D8917E5
:1023500020F481E080939B1201C080E0DF91CF9157
:102360000895CF93DF93DC0170684D935D936D9377
:102370007C9313971896ED91FC9119971A964D91AD
:102380005C911B9714968D919C91159716962D91A3
:102390003C911797EC013F832E8316968D919C916B
:1023A000179714962D913C911597EC013D832C8342
:1023B000EA0189819A81A817B90731F416968D919F
:1023C0009C9117979A8389831B961C921E921A9749
:1023D000DA018C9181508C93A485B585C681D78113
:1023E000808591859F838E83C085D18586819781E5
:1023F0009D838C8311968D919C9112979F012E5FE6
:102400003F4F8217930731F48085918512969C93F4
:102410008E931197158614868C9181508C93A28D82
:102420008091A1128A1710F4A093A1128BE08A9FC9
:10243000D0011124AD51BD4E11960D90BC91A02D2F
:10244000B783A68316964D915C9117975187408765
:102450001696CD91DC9117973D832C8317963C936C
:102460002E931697A28D8A9FD0011124AD51BD4E97
:10247000B587A4878C918F5F8C93928DE0915113D7
:10248000F0915213828D891718F481E080939B128A
:10249000DF91CF91089520919A12FC012083409101
:1024A000A2125091A3126091A4127091A5124183BF
:1024B00052836383748308958F929F92AF92BF92E9
:1024C000CF92DF92EF92FF920F931F93CF93DF9300
:1024D000FB010FB6F8940F92C090A212D090A312F5
:1024E000E090A412F090A512DC0111960D911D91BF
:1024F0002D913C91149746015701801A910AA20A26
:10250000B30A40815181628173814F3FBFEF5B0706
:102510006B077B0739F1EC01B881A0919A12BA17C9
:1025200059F0C016D106E206F30630F0108211828F
:102530001282138281E017C084169506A606B7069C
:1025400058F4481959096A097B0940835183628309
:102550007383A1DF80E007C0108211821282138290
:1025600081E001C080E00F900FBEDF91CF911F91FD
:102570000F91FF90EF90DF90CF90BF90AF909F9022
:102580008F90089581E080939B1208958091A0120E
:10259000882331F080919212811104C082E0089565
:1025A00081E0089580E008950F931F93CF93DF9308
:1025B000FC01892B09F449C086A5815086A7228D8C
:1025C00095A5291709F443C0811143C0EF018F017C
:1025D0000E5F1F4FC8010E941106EDA5EA8F8AE029
:1025E00090E0A0E0B0E08E1B9109A109B1098E87AF
:1025F0009F87A88BB98B8091A1128E1710F4E0935E
:10260000A1128BE08E9FF0011124ED51FD4E01804F
:10261000F281E02DFF83EE83268137813987288779
:10262000A681B78115961C930E9314971783068382
:10263000EA8D8E9FF0011124ED51FD4EFD87EC8750
:1026400080818F5F808381E005C080E003C080E0EF
:1026500001C080E0DF91CF911F910F910895CF923B
:10266000DF92EF92FF92E0915113F0915213668541
:10267000778580899189E0915113F0915213A0914F
:102680005113B09152135A962C910F2EFAE0CF2E7F
:10269000D12CE12CF12CF02DC21AD108E108F1085F
:1026A000C686D786E08AF18AFF90EF90DF90CF90C0
:1026B00008958F929F92AF92BF92CF92DF92EF9246
:1026C000FF920F93CF93DF93DC01E114F10489F0C3
:1026D000E62FF0E0EE0FFF1FEE0FFF1FE80FF91FD0
:1026E00087A490A8A1A8B2A8F70180829182A282B3
:1026F000B38270E0FD01E60FF71F93A982E083AB80
:10270000023001F118F4013031F04DC0033079F19D
:102710000430D1F148C0660F771F660F771FFD01A7
:10272000E60FF71F87A490A8A1A8B2A8BA01A90133
:10273000482959296A297B2947A750AB61AB72AB5D
:1027400081E034C0660F771F660F771FFD01E60F2B
:10275000F71F47A550A961A972A94F5F5F4F6F4F3F
:102760007F4F47A750AB61AB72AB81E01FC0660FD4
:10277000771F660F771FFD01E60FF71F27A730AB06
:1027800041AB52AB81E012C0923079F0660F771FF7
:10279000660F771FFD01E60FF71F27A730AB41AB90
:1027A00052AB81E003C081E001C080E0913009F0CC
:1027B00096C09091921291115FC01C96ED91FC9180
:1027C0001D971696CD91DC91179718962D913C91F7
:1027D00019973F832E831896CD91DC911997169601
:1027E0002D913C9117973D832C83418152819D010E
:1027F0002E5F3F4F4217530731F418964D915C916D
:102800001997528341831D961C921E921C979081AA
:10281000915090835A96EC915A979091A1129E17DD
:1028200010F4E093A1129BE09E9FF0011124ED5162
:10283000FD4E0180F281E02D1796FC93EE931697E2
:102840004681578119965C934E931897C681D7811C
:102850003D832C83378326835A96EC915A979E9F0B
:10286000F0011124ED51FD4E1D96FC93EE931C9743
:1028700090819F5F908321C06EEB72E1FB01C1816B
:10288000D2815396DC93CE9352972E813F815596F9
:102890003C932E9354974E815F819D01225F3F4F61
:1028A000FA01358324833F832E8359967C936E935C
:1028B0005897FB0190819F5F90835A962C91E091ED
:1028C0005113F0915213928D921748F4C114D10410
:1028D00019F091E0F601908391E090939B12DF91C3
:1028E000CF910F91FF90EF90DF90CF90BF90AF907E
:1028F0009F908F900895DC01E0915D13F0915E133D
:10290000808191E0811190E09C93911108C0078033
:10291000F085E02D6081718182819381089560E06E
:1029200070E0CB010895CF92DF92EF92FF920F9368
:102930001F93FC014283538364837583938782874B
:102940000417150726073707C0F00C191D092E09B3
:102950003F0986859785A089B189081719072A0735
:102960003B0700F5BF016E5F7F4F80915B13909135
:102970005C130E94D40580E018C00C151D052E05BF
:102980003F0528F44C155D056E057F0568F4BF0111
:102990006E5F7F4F80915D1390915E130E94D4050E
:1029A00080E003C081E001C081E01F910F91FF90A2
:1029B000EF90DF90CF9008950FB6F8940F9280912A
:1029C000591390915A13892BE9F48AE693E10E94F6
:1029D000BF058FE593E10E94BF058AE693E19093DE
:1029E0005E1380935D138FE593E190935C13809366
:1029F0005B1340E067E08AE00E94710890935A13ED
:102A0000809359130F900FBE0895EF92FF920F938A
:102A1000D3DF8091591390915A13892B89F00F2E8F
:102A2000F7E5EF2EF3E1FF2EF02D03E020E030E09C
:102A300040EC50E068EA74E088E591E024D801C0F9
:102A400080E00F91FF90EF9008958F929F92AF9248
:102A5000BF92CF92DF92EF92FF920F931F93CF938B
:102A6000DF93CDB7DEB727970FB6F894DEBF0FBE62
:102A7000CDBFE0915913F0915A13309781F16983DA
:102A80002A833B834C835D839F838E836630F4F47B
:102A90007DDD823069F400E0A7019601BE016F5F21
:102AA0007F4F8091591390915A130E94940818C037
:102AB00000E020E030E0A901BE016F5F7F4F809110
:102AC000591390915A130E9494080AC020E0A8015B
:102AD000BE016F5F7F4FCF010E94220901C080E0DD
:102AE00027960FB6F894DEBF0FBECDBFDF91CF9112
:102AF0001F910F91FF90EF90DF90CF90BF90AF901C
:102B00009F908F9008958F929F92AF92BF92CF9295
:102B1000DF92EF92FF920F931F93CF93DF933BC00F
:102B20000780F085E02D80809180A280B380C085F1
:102B3000D1858E010E5F1F4FC8010E941106EC89DE
:102B4000FD89CE0119958E8982FF25C08E859F85CE
:102B5000A889B989880D991DAA1DBB1D88169906DB
:102B6000AA06BB0670F48A839B83AC83BD83DB8794
:102B7000CA87B80180915D1390915E130E94D405BD
:102B80000AC0C12CD12C760100E010E0A50194010F
:102B900060E0CE015ADFE0915D13F0915E13808119
:102BA0008111BECF80915B1390915C1390935E1363
:102BB00080935D13F0935C13E0935B13DF91CF91EF
:102BC0001F910F91FF90EF90DF90CF90BF90AF904B
:102BD0009F908F900895CF92DF92EF92FF92CF93C4
:102BE000DF93EC010E94CA0D6B017C0180915313AD
:102BF00090915413A0915513B0915613C816D9064D
:102C0000EA06FB0620F47FDF81E0888301C018829A
:102C1000C0925313D0925413E0925513F09256136E
:102C2000C701B601DF91CF91FF90EF90DF90CF9079
:102C300008954F925F926F927F928F929F92AF9280
:102C4000BF92CF92DF92EF92FF920F931F93CF9399
:102C5000DF934B015C0129013A01E0915D13F09192
:102C60005E130780F085E02DC085D185CE010296E8
:102C70000E9411068E8982FF1BC04E855F85688980
:102C80007989480D591D6A1D7B1D750164019301E9
:102C90008201CE0148DE882369F0C12CD12C760157
:102CA00000E010E0A501940160E0CE01CEDE02C09C
:102CB0008E7F8E8BEC89FD89CE011995DF91CF91A6
:102CC0001F910F91FF90EF90DF90CF90BF90AF904A
:102CD0009F908F907F906F905F904F9008958F920C
:102CE0009F92AF92BF92CF92DF92EF92FF921F938B
:102CF000CF93DF931F92CDB7DEB76B017C01142F0A
:102D00000E94C40DCE01019666DF4B015C018981F2
:102D100081112BC011110CC08C149D04AE04BF0492
:102D200038F072D8A5019401C701B60182DF1EC038
:102D3000112341F0E0915B13F0915C13808111E06D
:102D4000811110E0B701A601481959096A097B09E8
:102D5000212F8091591390915A130E94E90954D858
:102D6000811104C00E948D0601C04ED80F90DF91E2
:102D7000CF911F91FF90EF90DF90CF90BF90AF90D9
:102D80009F908F900895AF92BF92CF92DF92EF9273
:102D9000FF920F931F93CF93DF93CDB7DEB72897A2
:102DA0000FB6F894DEBF0FBECDBF82C089818823E5
:102DB0000CF47EC0AE80BF80D5011C968D919C9195
:102DC0001D97892B21F0C50102960E941106CE01A4
:102DD000089601DF8B019C01E9810E2E000CFF0B90
:102DE000EA30F10508F064C08827EE58FF4F8F4F96
:102DF0000C941726F50186898160868BCA80DB805A
:102E0000EC80FD8046855785608971894C0D5D1D7C
:102E10006E1D7F1DC50187DD882309F449C0D501DA
:102E20005496ED91FC915597C5011995F501868948
:102E300082FF3EC04A815B816C817D81868597855A
:102E4000A089B1899A01AB01280F391F4A1F5B1F66
:102E5000C12CD12C760100E010E060E0C501F5DD69
:102E600027C0D50156968C9156978E7F56968C9397
:102E70001FC0F50186898160868B4A815B816C81E8
:102E80007D8146875787608B718B400F511F621F72
:102E9000731F68017901C50146DD0AC0F501868905
:102EA00081FD04C0C5010E94820502C08E7F868B11
:102EB00020E030E0A901BE016F5F7F4F8091591380
:102EC00090915A130E945C09811170CF28960FB619
:102ED000F894DEBF0FBECDBFDF91CF911F910F9150
:102EE000FF90EF90DF90CF90BF90AF90089508953E
:102EF00084B1806884B985B1806885B9089583B14B
:102F0000806883B90895F4DF2FEF80E792E02150C5
:102F100080409040E1F700C00000F1DFF5CFE8DF2E
:102F20002FEF87EA91E6215080409040E1F700C002
:102F30000000E5DFF5CF81B1816881B980E0CED5B1
:102F400085E0D3D660E070E081E007D10E948C017B
:102F50000E9489010C949701089580EB94E00E94EF
:102F60009228E9DF85EB94E00E9492280E948E0D62
:102F7000FFCF6530F1F4FA0180818F7390E0982FD4
:102F800088272181822B90930A02809309028281F3
:102F9000F0E48F9FC0011124FA0123812695269524
:102FA000822B909308028093070281E0809375132F
:102FB0000895643051F080E090E49093080280938B
:102FC000070290930A028093090208950F931F93BA
:102FD00009EB17E120E034E244EF50E060E087E2E3
:102FE000E3D6909377138093761321E0892B09F031
:102FF00020E0822F1F910F91089580917613909178
:103000007713009751F040E060E070E01ED7843005
:1030100031F41092751380E0089582E0089583E002
:1030200008958091761390917713009731F064E0C2
:1030300058D7853021F083E0089582E0089580E03C
:1030400008956091090270910A0280E090E00E9468
:10305000042520E030E048EC52E40E94922520E074
:1030600038EF4FE756E40C946B240895EADF20E034
:1030700030E040E251E40E9492250E94D824CB0126
:103080000895609107027091080280E090E00E942C
:10309000042520E030E045E253E40E94922520E040
:1030A00038EF4FE756E40E946B2420E030E040E226
:1030B00052E40C9406240895E4DF20E030E040E27E
:1030C00051E40E9492250E94D324CB0108950F93CE
:1030D0001F93CF93DF931F921F92CDB7DEB78C0162
:1030E00019822DC0E0917813EC3250F481E08E0FFC
:1030F00080937813F0E0E158FC4E8A81808302C00F
:10310000109278138A818A30D1F44091781350E07C
:10311000FA01E358FC4E1082415051099E012F5F85
:103120003F4F6FE773E180917B1390917C130E9476
:10313000F70A898181110E948D0610927813BE01D1
:103140006E5F7F4FC80134D2882361F20F900F90D9
:10315000DF91CF911F910F9108958F929F92AF921F
:10316000CF92EF920F931F93CF93C82F8B0141E023
:1031700060E070E088EC90E00E94B30A90937C13CA
:1031800080937B1310937A13009379130F2EF7E635
:103190008F2EF8E19F2EF02D6894AA24A6F868944B
:1031A000CC24C6F8E12C00E023E040E051EE60E0E2
:1031B00070E08C2FD7D090937E1380937D13E7E03F
:1031C000F1E0808180618083CF911F910F91EF901A
:1031D000CF90AF909F908F9008958091AF13860FFE
:1031E0008093AF139091B213913079F028F0923020
:1031F000A9F0933019F108956F3F09F048C010927B
:10320000AF1381E08093B2130895663809F03FC090
:103210001092AE1382E08093B2130895E091AE1342
:1032200081E08E0F8093AE13F0E0E455FC4E608396
:10323000823069F583E08093B21308959091AE13C4
:1032400021E0290F2093AE13963009F581110EC0AD
:10325000ECEAF3E1808190E0982F88272181820FAA
:10326000911D9093B4138093B31304C01092B413C0
:103270001092B3131092B213E091B013F091B11306
:10328000309729F08091B3139091B4131995089554
:103290008F929F92AF92CF92EF920F930F2EFDEEEF
:1032A0008F2EF8E19F2EF02D6894AA24A4F868943C
:1032B000CC24C4F8E12C00E023E040E855E260E0D3
:1032C00070E050D09093B6138093B5130F91EF90A8
:1032D000CF90AF909F908F9008959093B11380936B
:1032E000B0130895CF93DF93CDB7DEB729970FB60C
:1032F000F894DEBF0FBECDBF89E0E2E2F2E09E01AE
:103300002F5F3F4FD90101900D928A95E1F71092FE
:10331000B4131092B3138091B5139091B613009724
:1033200031F0422F532F69E0EED080E001C082E0FF
:1033300029960FB6F894DEBF0FBECDBFDF91CF91B7
:1033400008952091B3133091B4132115310529F458
:10335000FC011182108281E00895FC0131832083F9
:1033600080E008952F923F924F925F926F927F92EA
:103370008F929F92AF92CF92EF92FF920F931F93F3
:10338000CF93DF93CDB7DEB7F82E2A013B0188E05B
:1033900090E00E941F268C018F2D90E0FC01EE0F23
:1033A000FF1FE954FC4E118300830115110509F438
:1033B0006DC0880F991FFC01E55FFD4F80819181F1
:1033C000D8018D939C938C2D90E0880F991F880FC6
:1033D000991F0E941F261C0186E090E00E941F2674
:1033E0007C014C2DB1016DD6F801F582E4828A2D65
:1033F00090E0880F991F880F991F0E941F261C01BB
:1034000086E090E00E941F267C014A2DB10159D62A
:10341000D8011396FC92EE92129717969C928E9278
:103420001697FFB6F894ED91FC911197369780812D
:10343000826080838D909C90C301B2010E9404251C
:1034400020E030E040E051E40E9492259B01AC0175
:1034500060E074E284E79BE40E946B2420E030E0AB
:1034600040E85FE30E9406240E94D824F4013297CA
:103470006083D801ED91FC911197359788E980839D
:10348000ED91FC91349786E08083FFBEC801DF9107
:10349000CF911F910F91FF90EF90CF90AF909F90A1
:1034A0008F907F906F905F904F903F902F900895F6
:1034B000CF93DF93DC01892B01F11296ED91FC9102
:1034C0001397938182812581981B92238481981779
:1034D000B1F0838126952823C081D181C20FD11DEF
:1034E00068838F5F958189238383ED91FC91359764
:1034F00080818062808380E003C081E001C082E03F
:10350000DF91CF910895EF92FF920F931F93CF9386
:10351000DF937C01009709F441C0DC011296ED9124
:10352000FC91139793818281981B858198238481D4
:10353000891B8617A8F1662341F1842F952FDC01A2
:103540006150462F50E04F5F5F4F480F591FE70112
:10355000EA81FB81938182812581981B922384815A
:10356000981779F08C919381269529236081718138
:103570008B01020F111DE80188839F5F85819823CD
:1035800093831196A417B50711F7D701ED91FC911C
:10359000359780818062808380E003C081E001C034
:1035A00082E0DF91CF911F910F91FF90EF900895EE
:1035B0000097D1F0DC011496ED91FC911597938161
:1035C0008281981799F09281858186958923A081BF
:1035D000B181A80FB11D8C91DB018C939F5F858118
:1035E0009823928380E0089581E0089583E0089510
:1035F0001F920F920FB60F9211240BB60F922F93BA
:103600003F934F935F936F937F938F939F93AF936A
:10361000BF93CF93DF93EF93FF93A091B713B09134
:10362000B813109711F16091C6001496ED91FC91BA
:103630001597938182812581981B92238481981705
:1036400061F0838126952823C081D181C20FD11DCD
:1036500068838F5F9581892383831696ED91FC9112
:103660001797309711F0CD011995FF91EF91DF91E8
:10367000CF91BF91AF919F918F917F916F915F910A
:103680004F913F912F910F900BBE0F900FBE0F9057
:103690001F9018951F920F920FB60F9211240BB620
:1036A0000F922F938F939F93AF93BF93EF93FF93BB
:1036B000E091B713F091B8133097B9F00280F3811D
:1036C000E02D938182819817B1F092818581282F16
:1036D00026952923A081B181A20FB11D2C919F5F56
:1036E000892382832093C6000BC0E1ECF0E0808147
:1036F0008F7D808305C0E1ECF0E080818F7D808349
:10370000FF91EF91BF91AF919F918F912F910F906A
:103710000BBE0F900FBE0F901F9018951F920F9227
:103720000FB60F9211240BB60F922F933F934F9326
:103730005F936F937F938F939F93AF93BF93CF9339
:10374000DF93EF93FF93A091B913B091BA13109741
:1037500011F16091CE001496ED91FC911597938133
:1037600082812581981B92238481981761F083813F
:1037700026952823C081D181C20FD11D68838F5F18
:103780009581892383831696ED91FC911797309745
:1037900011F0CD011995FF91EF91DF91CF91BF917C
:1037A000AF919F918F917F916F915F914F913F91D9
:1037B0002F910F900BBE0F900FBE0F901F9018957A
:1037C0001F920F920FB60F9211240BB60F922F93E8
:1037D0008F939F93AF93BF93EF93FF93E091B913B0
:1037E000F091BA133097B9F00280F381E02D938104
:1037F00082819817B1F092818581282F26952923FF
:10380000A081B181A20FB11D2C919F5F892382837A
:103810002093CE000BC0E9ECF0E080818F7D8083A7
:1038200005C0E9ECF0E080818F7D8083FF91EF910E
:10383000BF91AF919F918F912F910F900BBE0F90E1
:103840000FBE0F901F9018951F920F920FB60F92F8
:1038500011240BB60F922F933F934F935F936F9367
:103860007F938F939F93AF93BF93CF93DF93EF9308
:10387000FF93A091BB13B091BC13109711F160910D
:10388000D6001496ED91FC91159793818281258144
:10389000981B92238481981761F0838126952823B1
:1038A000C081D181C20FD11D68838F5F958189232B
:1038B00083831696ED91FC911797309711F0CD0107
:1038C0001995FF91EF91DF91CF91BF91AF919F91AA
:1038D0008F917F916F915F914F913F912F910F90B9
:1038E0000BBE0F900FBE0F901F9018951F920F9256
:1038F0000FB60F9211240BB60F922F938F939F93B5
:10390000AF93BF93EF93FF93E091BB13F091BC1380
:103910003097B9F00280F381E02D9381828198176E
:10392000B1F092818581282F26952923A081B1812C
:10393000A20FB11D2C919F5F892382832093D60013
:103940000BC0E1EDF0E080818F7D808305C0E1ED6B
:10395000F0E080818F7D8083FF91EF91BF91AF91E7
:103960009F918F912F910F900BBE0F900FBE0F90D4
:103970001F9018951F920F920FB60F9211240BB63D
:103980000F922F933F934F935F936F937F938F93F8
:103990009F93AF93BF93CF93DF93EF93FF93A09148
:1039A000BD13B091BE13109711F1609136011496BA
:1039B000ED91FC911597938182812581981B92232B
:1039C0008481981761F0838126952823C081D18155
:1039D000C20FD11D68838F5F9581892383831696DB
:1039E000ED91FC911797309711F0CD011995FF914A
:1039F000EF91DF91CF91BF91AF919F918F917F9187
:103A00006F915F914F913F912F910F900BBE0F904F
:103A10000FBE0F901F9018951F920F920FB60F9226
:103A200011240BB60F922F938F939F93AF93BF9355
:103A3000EF93FF93E091BD13F091BE133097B9F06F
:103A40000280F381E02D938182819817B1F09281F9
:103A50008581282F26952923A081B181A20FB11D30
:103A60002C919F5F89238283209336010BC0E1E371
:103A7000F1E080818F7D808305C0E1E3F1E080810A
:103A80008F7D8083FF91EF91BF91AF919F918F9137
:103A90002F910F900BBE0F900FBE0F901F90189597
:103AA000CF93DF931F92CDB7DEB7BE016F5F7F4F1D
:103AB0008091BF139091C0137BDD8111F6CF898176
:103AC00090E00F90DF91CF910895682F8091BF1300
:103AD0009091C013EDDC80E090E008958F929F926A
:103AE000AF92CF92EF920F93812C912C6894AA24DD
:103AF000A7F86894CC24C7F8E12C00E023E040E06C
:103B000051EE60E070E02EDC9093C0138093BF1301
:103B1000E1EFF3E183E192E09183808393838283F9
:103B20000F91EF90CF90AF909F908F90089590E07D
:103B3000FC01EE0FFF1FE80FF91FEE0FFF1FEF5301
:103B4000FC4E238121111FC09C01220F331FF9015C
:103B5000E80FF91FEE0FFF1FEF53FC4EA081B1815C
:103B60004C91F901E80FF91FEE0FFF1FEF53FC4EC8
:103B700081E090E0028002C0880F991F0A94E2F76A
:103B8000842B8C930895FC01EE0FFF1FDF01A80F1B
:103B9000B91FAA0FBB1FAF53BC4E0D90BC91A02DF7
:103BA0002C91E80FF91FEE0FFF1FEF53FC4E81E041
:103BB00090E0028002C0880F991F0A94E2F7809576
:103BC00082238C93089590E0FC01EE0FFF1FE80F15
:103BD000F91FEE0FFF1FEF53FC4E2381211120C070
:103BE0009C01220F331FF901E80FF91FEE0FFF1F91
:103BF000EF53FC4EA081B1814C91F901E80FF91F00
:103C0000EE0FFF1FEF53FC4E81E090E0028002C0F8
:103C1000880F991F0A94E2F7809584238C93089566
:103C2000FC01EE0FFF1FDF01A80FB91FAA0FBB1F7A
:103C3000AF53BC4E0D90BC91A02D2C91E80FF91FF5
:103C4000EE0FFF1FEF53FC4E81E090E0028002C0B8
:103C5000880F991F0A94E2F7822B8C930895CC2445
:103C6000C394D12C6894BB24B2F8C1ECD3E110E02A
:103C70008C81813081F018F1823061F5E881F98121
:103C80002081C6010A8002C0880F991F0A94E2F7BA
:103C9000822780831FC08D818F5F863010F48D83D3
:103CA00019C01D82E881F9812081C6010A8002C005
:103CB000880F991F0A94E2F7822780830BC00D8139
:103CC000002329F0812F7FDF01500D8303C0BC82C8
:103CD000812F2DDF1F5F2696143051F66CE070E0C7
:103CE00080E090E00E94E00FC0CFEF92FF920F9330
:103CF0001F93CF93DF93082F80E487B9C1ECD3E102
:103D00000F2EF8E2EF2EF12CF02DF982E88286E0FA
:103D10008A831B8214E01C8380E009DF80E887B976
:103D2000FF82EE8287E0888719861A8781E0FFDEAE
:103D300080E283BB84E390E09D878C8785E08E875B
:103D40001F86188B82E0F3DE80E18093010182E020
:103D500091E09B8B8A8B1C8B1D8A1E8B83E0E7DE98
:103D6000E12CF12C20E030E040EC50E067EC74E016
:103D70008FE29EE10E94430DDF91CF911F910F9141
:103D8000FF90EF9008958091E71381110CC08CE0B3
:103D90008093B8008FEF8093BB0084E08093BC00D9
:103DA00081E08093E7130895AF92BF92CF92DF92A4
:103DB000EF92FF920F931F93CF93DF93A82EB62E0F
:103DC00069017A0184E090E03AD7EC01892B61F136
:103DD000A88281E0B81212C0C701B60120EA36E815
:103DE00041E050E002D7DA01C9014097A109B109C9
:103DF000B695A79597958795898311C0C701B60198
:103E000020E83AE146E050E0F0D6DA01C9014097F7
:103E1000A109B109B695A7959795879589831B83C5
:103E20000A838C2F9D2F02C080E090E0DF91CF911C
:103E30001F910F91FF90EF90DF90CF90BF90AF90C8
:103E400008958091BC0081700895FF920F931F9395
:103E5000CF93DF930097D1F14A30D0F5F42E8B0148
:103E6000EC01EFDF811136C08091DA139091DB1302
:103E7000C817D90741F087DF89818093B800D093B4
:103E8000DB13C093DA1381E08F0D8093DC138881FC
:103E9000880F8093DD13FF2089F0F801AEEDB3E1C8
:103EA0004FEF4F0D642F70E0CB010196B801680F02
:103EB000791F81918D93E617F707D9F788EF8093E3
:103EC000210285EA8093BC0084E005C086E003C03F
:103ED00087E001C082E0DF91CF911F910F91FF90A9
:103EE00008951F93CF93DF93009729F16B3028F546
:103EF000162FEC01A6DF811122C08091DA13909178
:103F0000DB13C817D90741F03EDF89818093B800E1
:103F1000D093DB13C093DA131093DC138881880FDE
:103F200081608093DD1388EF8093210285EA80937E
:103F3000BC0085E005C086E003C087E001C082E0E8
:103F4000DF91CF911F9108951F920F920FB60F929C
:103F500011240BB60F922F933F934F935F936F9360
:103F60007F938F939F93AF93BF93EF93FF93E091D2
:103F7000B9008E2F90E0FC013897E135F10508F08B
:103F800075C08827E458FF4F8F4F51C61092D91340
:103F9000E091D9138091DC13E81770F481E08E0F63
:103FA0008093D913F0E0E352FC4E80818093BB00F4
:103FB00085E88093BC0072C084E98093BC00809146
:103FC000DA139091DB13DC011296ED91FC911397BB
:103FD000309709F463C020E040E050E064E01995B8
:103FE0005DC0E091D91381E08E0F8093D913809149
:103FF000BB00F0E0E352FC4E80838091B900803436
:1040000011F41092D9132091D91330E08091DC1370
:1040100090E001972817390724F485EC8093BC00C1
:104020003DC085E88093BC0039C08091BB00E09121
:10403000D913F0E0E352FC4E808384E98093BC0006
:104040008091DA139091DB13DC011296ED91FC91D3
:104050001397309719F12091DC134DED53E165E092
:1040600019951CC085EA8093BC0018C08091B900E6
:104070008093210284E08093BC008091DA139091B8
:10408000DB13DC011296ED91FC911397309731F020
:1040900020E040E050E0609121021995FF91EF91FE
:1040A000BF91AF919F918F917F916F915F914F9150
:1040B0003F912F910F900BBE0F900FBE0F901F904E
:1040C0001895FC01411101C0DBD6842F90E09C01C2
:1040D0002150310982239323892B09F0D1D641380D
:1040E00008F0CED6128213824483440F4150458398
:1040F0007183608380E090E008952F923F924F9209
:104100005F926F927F928F929F92AF92BF92CF9267
:10411000DF92EF92FF920F931F93CF93DF93CDB770
:10412000DEB760970FB6F894DEBF0FBECDBF7C013F
:104130001B016A01FC0117821682838181FF2AC359
:104140009E012F5F3F4F3901F7019381F10193FDEC
:10415000859193FF81911F01882309F417C385324C
:1041600039F493FD859193FF81911F01853231F4DC
:10417000B70190E087D756016501E6CF10E0512CDA
:10418000912CFFE1F915D8F08B3279F038F48032B8
:1041900079F08332A1F4F92DF0612EC08D3261F0F7
:1041A000803369F4292D21602DC0392D3260932E82
:1041B000892D8460982E2AC0E92DE86015C097FCEF
:1041C0002DC020ED280F2A3088F496FE06C03AE074
:1041D000139F200D1124122F19C08AE0589E200D24
:1041E0001124522EE92DE0629E2E10C08E3231F441
:1041F00096FCCCC2F92DF0649F2E08C08C3621F4B9
:10420000292D2068922E02C0883641F4F10193FDD9
:10421000859193FF81911F018111B3CF9BEB980F83
:10422000933020F4992D9061805E07C09BE9980F30
:10423000933008F059C1992D9F7E96FF16E09F7329
:10424000992E853619F49064992E08C0863621F48B
:10425000392F3068932E02C01111115097FE07C0FC
:104260001C3350F444244394410E27E00BC0183013
:1042700038F027E017E005C027E09CE3492E02C094
:10428000212F412C560184E0A80EB11CF60160815B
:10429000718182819381042DA301F6D56C01F9818E
:1042A000FC87F0FF02C0F3FF06C091FC06C092FE3F
:1042B00006C000E205C00DE203C00BE201C000E051
:1042C0008C858C7019F0011143C280C297FE10C01A
:1042D0004C0CFC85F4FF04C08A81813309F44A94B4
:1042E000141474F528E0241578F588E0482E2CC0C5
:1042F00096FC2AC0812F90E08C159D059CF03CEF28
:10430000C3163FEFD30674F0892D8068982E0AC03B
:10431000E2E0F0E0EC0FFD1FE10FF11D8081803342
:1043200019F411501111F4CF97FE0EC04424439498
:10433000410E812F90E0C816D9062CF41C1904C038
:104340004424439401C010E097FE06C01C141D04D1
:1043500034F4C601019605C085E090E002C081E01A
:1043600090E001110196112331F0212F30E02F5FF1
:104370003F4F820F931F252D30E08217930714F4CF
:10438000581A01C0512C892D897041F4552031F003
:10439000B70180E290E076D65A94F8CF002321F05E
:1043A000B701802F90E06ED693FC08C0552031F005
:1043B000B70180E390E066D65A94F8CF97FE4AC0E2
:1043C0004601D7FE02C0812C912CC601881999099B
:1043D000F301E80FF91FFE87ED87960124193109D3
:1043E000388B2F87012F10E01195019511093FEFB0
:1043F0008316930621F4B7018EE290E043D6C814E9
:10440000D9044CF08F8598898815990524F4ED8599
:10441000FE85818101C080E3F1E08F1A91082D852E
:104420003E852F5F3F4F3E872D878016910624F0F3
:10443000B70190E027D6DBCFC814D90441F49A81A4
:10444000963320F4953319F43C8534FF81E3B701AA
:1044500090E048C08A81813319F09C859F7E9C87BB
:10446000B70190E00FD6111105C094FC16C085E687
:1044700090E015C0B7018EE290E004D61E5F82E0A6
:1044800001E0080FF301E80FF11D8081B70190E012
:10449000F9D5802F0113F4CFE8CF85E490E0B70180
:1044A000F1D5D7FC06C0C114D10441F4EC85E4FF7A
:1044B00005C0D194C194D1088DE201C08BE2B7014F
:1044C00090E0E0D580E32AE0C216D1042CF08F5FA3
:1044D000FAE0CF1AD108F7CFB70190E0D3D5B701F2
:1044E000C601C096CFD549C1833631F0833779F004
:1044F000833509F052C01FC0560132E0A30EB11C33
:10450000F6018081898301E010E0630111C056014A
:10451000F2E0AF0EB11CF601C080D18096FE03C060
:10452000612F70E002C06FEF7FEFC601A0D58C0154
:10453000F92DFF7713C0560122E0A20EB11CF6013F
:10454000C080D18096FE03C0612F70E002C06FEF83
:104550007FEFC60171D58C01F92DF0689F2EF3FD18
:1045600018C0852D90E00817190798F4B70180E26C
:1045700090E088D55A94F5CFF60197FC859197FE87
:1045800081916F01B70190E07DD551105A9401508F
:1045900011090115110581F7F0C0843611F0893633
:1045A00059F5560197FE09C024E0A20EB11CF60190
:1045B00060817181828193810AC0F2E0AF0EB11CEB
:1045C000F60160817181072E000C880B990BF92D83
:1045D000FF769F2E97FF09C0909580957095619505
:1045E0007F4F8F4F9F4FF0689F2E2AE030E0A3014E
:1045F000C9D5C82EC6183EC0092D853721F40F7EB7
:104600002AE030E01DC0097F8F3691F018F488351C
:1046100059F0BCC0803719F0883711F0B7C000617D
:1046200004FF09C0046007C094FE08C0066006C00D
:1046300028E030E005C020E130E002C020E132E0B7
:10464000560107FF09C084E0A80EB11CF601608185
:1046500071818281938108C0F2E0AF0EB11CF60136
:104660006081718180E090E0A3018CD5C82EC618CE
:104670000F77902E96FE0BC0092D0E7FC11650F4B9
:1046800094FE0AC092FC08C0092D0E7E05C0DC2CE9
:10469000092D03C0DC2C01C0D12E04FF0DC0FE018A
:1046A000EC0DF11D8081803311F4097E09C002FFF9
:1046B00006C0D394D39404C0802F867809F0D39495
:1046C00003FD10C000FF06C01C2DD51478F4150D95
:1046D0001D190CC0D51450F4B70180E290E0D2D47B
:1046E000D394F8CFD51410F45D1801C0512C04FFF9
:1046F0000FC0B70180E390E0C5D402FF16C001FDF2
:1047000003C088E790E002C088E590E0B7010CC0E4
:10471000802F867851F001FF02C08BE201C080E259
:1047200007FD8DE2B70190E0ADD4C11630F4B701BA
:1047300080E390E0A7D41150F8CFCA94F301EC0DB8
:10474000F11D8081B70190E09DD4C110F6CF15C056
:10475000F4E0F51550F584E0581A93FE1EC00111DF
:1047600025C02C8523FF27C00AE911E0392D3071BF
:10477000932EF8018491811121C0552009F4FCCCBD
:10478000B70180E290E07ED45A94F7CFF70186819A
:10479000978123C08FEF9FEF20C0B70180E290E0A8
:1047A00071D45A945110F9CFDACF512CB701802F20
:1047B00090E068D4D6CF0EE911E0D8CF91108052A6
:1047C000B70190E05FD40F5F1F4FD3CF23E02515D3
:1047D00010F483E0C1CF512CC4CF60960FB6F8948B
:1047E000DEBF0FBECDBFDF91CF911F910F91FF9024
:1047F000EF90DF90CF90BF90AF909F908F907F9081
:104800006F905F904F903F902F9008955058BB2726
:10481000AA270ED04DC13ED130F043D120F031F463
:104820009F3F11F41EF433C10EF4E095E7FB29C15C
:10483000E92F4FD180F3BA176207730784079507F2
:1048400018F071F49EF567C10EF4E0950B2EBA2FA7
:10485000A02D0B01B90190010C01CA01A001112486
:10486000FF27591B99F0593F50F4503E68F11A1632
:10487000F040A22F232F342F4427585FF3CF4695C3
:1048800037952795A795F0405395C9F77EF41F16E5
:10489000BA0B620B730B840BBAF09150A1F0FF0FAF
:1048A000BB1F661F771F881FC2F70EC0BA0F621F9B
:1048B000731F841F48F4879577956795B795F7958B
:1048C0009E3F08F0B3CF9395880F08F09927EE0F1D
:1048D0009795879508950CD0EBC0E3D040F0DAD0DF
:1048E00030F021F45F3F19F0CCC0511115C1CFC099
:1048F000F0D098F39923C9F35523B1F3951B550BC9
:10490000BB27AA2762177307840738F09F5F5F4FA2
:10491000220F331F441FAA1FA9F333D00E2E3AF0E3
:10492000E0E830D091505040E695001CCAF729D0FD
:10493000FE2F27D0660F771F881FBB1F261737074C
:104940004807AB07B0E809F0BB0B802DBF01FF277C
:1049500093585F4F2AF09E3F510568F092C0DCC02B
:104960005F3FECF3983EDCF3869577956795B795B6
:10497000F7959F5FC9F7880F911D9695879597F9D1
:104980000895E1E0660F771F881FBB1F621773074A
:104990008407BA0720F0621B730B840BBA0BEE1F5F
:1049A00088F7E095089504D06894B111B5C00895D2
:1049B00098D088F09F5790F0B92F9927B751A0F061
:1049C000D1F0660F771F881F991F1AF0BA95C9F7A3
:1049D00012C0B13081F09FD0B1E008959CC0672F24
:1049E000782F8827B85F39F0B93FCCF38695779553
:1049F0006795B395D9F73EF490958095709561953C
:104A00007F4F8F4F9F4F0895E89409C097FB3EF466
:104A100090958095709561957F4F8F4F9F4F99230B
:104A2000A9F0F92F96E9BB279395F6958795779589
:104A30006795B795F111F8CFFAF4BB0F11F460FF49
:104A40001BC06F5F7F4F8F4F9F4F16C0882311F0A1
:104A500096E911C0772321F09EE8872F762F05C0B5
:104A6000662371F096E8862F70E060E02AF09A9550
:104A7000660F771F881FDAF7880F9695879597F945
:104A8000089597F99F6780E870E060E008959FEFD0
:104A900080EC089500240A941616170618060906D5
:104AA000089500240A9412161306140605060895A4
:104AB000092E0394000C11F4882352F0BB0F40F42C
:104AC000BF2B11F460FF04C06F5F7F4F8F4F9F4F6C
:104AD000089557FD9058440F551F59F05F3F71F0EE
:104AE0004795880F97FB991F61F09F3F79F0879555
:104AF0000895121613061406551FF2CF4695F1DFDE
:104B000008C0161617061806991FF1CF869571056D
:104B1000610508940895E894BB2766277727CB01A1
:104B200097F908950BD0C4CFB5DF28F0BADF18F09D
:104B3000952309F0A6CFABCF1124EECFCADFA0F3A7
:104B4000959FD1F3950F50E0551F629FF001729F22
:104B5000BB27F00DB11D639FAA27F00DB11DAA1F41
:104B6000649F6627B00DA11D661F829F2227B00D8E
:104B7000A11D621F739FB00DA11D621F839FA00D19
:104B8000611D221F749F3327A00D611D231F849F69
:104B9000600D211D822F762F6A2F11249F575040C0
:104BA0008AF0E1F088234AF0EE0FFF1FBB1F661F5B
:104BB000771F881F91505040A9F79E3F510570F014
:104BC00060CFAACF5F3FECF3983EDCF386957795F4
:104BD0006795B795F795E7959F5FC1F7FE2B880F0F
:104BE000911D9695879597F90895A1E21A2EAA1B13
:104BF000BB1BFD010DC0AA1FBB1FEE1FFF1FA2178D
:104C0000B307E407F50720F0A21BB30BE40BF50B89
:104C1000661F771F881F991F1A9469F76095709512
:104C2000809590959B01AC01BD01CF010895EE0FD9
:104C3000FF1F881F8BBF0790F691E02D19940F93EB
:104C40001F93CF93DF938230910510F482E090E0C0
:104C5000E091EF13F091F01320E030E0A0E0B0E03D
:104C6000309719F14081518102811381481759070A
:104C7000C8F08417950769F4109731F012960C93D9
:104C8000129713961C9327C00093EF131093F01301
:104C900022C02115310519F04217530718F49A0163
:104CA000BD01EF01DF01F801DBCF21153105F9F07E
:104CB000281B390B2430310580F48A819B816115D2
:104CC000710521F0FB019383828304C09093F0135C
:104CD0008093EF13FE01329644C0FE01E20FF31FF2
:104CE0008193919322503109398328833AC02091CE
:104CF000ED133091EE13232B41F4209102023091F9
:104D000003023093EE132093ED13209100023091B3
:104D100001022115310541F42DB73EB7409104023F
:104D200050910502241B350BE091ED13F091EE1329
:104D3000E217F307A0F42E1B3F0B2817390778F072
:104D4000AC014E5F5F4F2417350748F04E0F5F1FD1
:104D50005093EE134093ED138193919302C0E0E0E2
:104D6000F0E0CF01DF91CF911F910F910895CF9384
:104D7000DF93009709F481C0FC01329713821282FD
:104D8000A091EF13B091F013109781F4208131813D
:104D9000820F931F2091ED133091EE1328173907DE
:104DA00051F5F093EE13E093ED1367C0ED0120E0B1
:104DB00030E0CE17DF0740F44A815B819E01411548
:104DC0005105F1F0EA01F5CFD383C28340815181CF
:104DD000840F951FC817D90759F488819981840FCA
:104DE000951F0296918380838A819B81938382831E
:104DF0002115310529F4F093F013E093EF133DC032
:104E0000E901FB83EA8349915991C40FD51FEC173F
:104E1000FD0761F480819181840F951F0296E9015D
:104E200099838883828193819B838A83E0E0F0E089
:104E300012968D919C911397009719F0FD01DC015A
:104E4000F7CF8D919C9111979D012E5F3F4F820F5F
:104E5000931F2091ED133091EE132817390769F451
:104E6000309729F41092F0131092EF1302C01382BE
:104E70001282B093EE13A093ED13DF91CF910895BA
:104E800081E090E0F894DCC1283008F027E0332777
:104E9000DA01990F311D87FD91600096610571055A
:104EA00039F432602E5F3D9330E32A95E1F708959F
:104EB0009F3F30F080387105610509F03C5F3C5F31
:104EC0003D93913008F08068911DDF93CF931F933D
:104ED0000F93FF92EF92192F987F9695E92F969551
:104EE0009695E90FFF27E450FE4F99273327EE24CC
:104EF000FF24A701E70105900894079428F4360FD2
:104F0000E71EF81E491F511D660F771F881F991F46
:104F10000694A1F70590079428F4E70EF81E491FA0
:104F2000561FC11D770F881F991F661F0694A1F792
:104F30000590079428F4F80E491F561FC71FD11D6E
:104F4000880F991F661F771F0694A1F70590079495
:104F500020F4490F561FC71FD81F990F661F771FD0
:104F6000881F0694A9F784911095177041F0D69583
:104F7000C79557954795F794E7941A95C1F7E2EAD4
:104F8000F1E0689415901591359165919591059092
:104F90007FE27395E118F10A430B560BC90BD00958
:104FA000C0F7E10CF11E431F561FC91FD01D7EF430
:104FB000703311F48A95E6CFE894015030F0080F71
:104FC0000AF40027021708F4202F2395022F7A33C2
:104FD00028F079E37D932A95E9F710C07D932A950F
:104FE00089F6069497956795379517951794E11864
:104FF000F10A430B560BC90BD00998F023957E910B
:1050000073957A3308F070E37C932013B8F77E91A0
:1050100070617D9330F0839571E37D9370E32A9501
:10502000E1F71124EF90FF900F911F91CF91DF9145
:10503000992787FD90950895FC0105906150704077
:105040000110D8F7809590958E0F9F1F0895FB0152
:10505000DC0102C001900D9241505040D8F70895F4
:10506000DC0101C06D9341505040E0F70895FC0110
:105070006150704001900110D8F7809590958E0F87
:105080009F1F08950F931F93CF93DF93FB012381FD
:1050900021FD03C08FEF9FEF2CC022FF16C0468179
:1050A0005781248135814217530744F4A081B1818F
:1050B0009D012F5F3F4F318320838C932681378161
:1050C0002F5F3F4F3783268314C08B01EC01FB0118
:1050D0000084F185E02D1995892BE1F6D80116960B
:1050E0008D919C911797019617969C938E93169786
:1050F000CE01DF91CF911F910F910895CF93DF9350
:10510000CDB7DEB7AE014A5F5F4FFA016191719191
:10511000AF018091F3139091F4130E947D20DF91F1
:10512000CF9108950F931F93CF93DF93E091F313E3
:10513000F091F413238121FF1BC08C01D0E0C0E06B
:10514000F80181918F016091F3137091F413DB01E9
:105150001896ED91FC911997882331F01995892BB8
:1051600079F3DFEFCFEFECCF8AE01995892B19F0B7
:105170008FEF9FEF02C08D2F9C2FDF91CF911F915A
:105180000F910895FA01AA27283051F1203181F1B9
:10519000E8946F936E7F6E5F7F4F8F4F9F4FAF4F3F
:1051A000B1E03ED0B4E03CD0670F781F891F9A1F52
:1051B000A11D680F791F8A1F911DA11D6A0F711D06
:1051C000811D911DA11D20D009F468943F912AE012
:1051D000269F11243019305D3193DEF6CF010895FA
:1051E000462F4770405D4193B3E00FD0C9F7F6CF2B
:1051F000462F4F70405D4A3318F0495D31FD4052F3
:10520000419302D0A9F7EACFB4E0A6959795879588
:1052100077956795BA95C9F7009761057105089567
:105220009B01AC010A2E0694579547953795279513
:10523000BA95C9F7620F731F841F951FA01D0895AB
:04524000F894FFCF10
:105244000000F71320000900400040C600CE00D63D
:105254000036010000000300000000651D501D0021
:1052640000F8FF0186000000000079FF0179A0002A
:10527400000000E6FF0179000000000086FF0187BE
:10528400000000000078FF018800000000000041D9
:1052940063746976617465004170706C69636174EC
:1052A400696F6E004D6561737572696E6720667211
:1052B4006F6D2073656E736F7220697320646F6EF7
:1052C40065206E6F7720726561647920626974204D
:1052D40061726520646F6E6520005961687575752B
:1052E400202121212045766572797468696E6720D2
:1052F4006973206D65617375726564206E6F7720C4
:1053040073657474696E67207468652076616C7562
:10531400652066726F6D2073656E736F72005465DD
:105324006D70206973203A2025750048554D206919
:1053340073203A20257500636F32206973203A2068
:105344002575002020534F6D657468696E6720775A
:10535400656E742077726F6E67207768696C65205C
:105364006D6561737572696E6720434F3221212127
:105374002020004D6561737572656D656E74206FD4
:105384006620636F32207461736B206861732062DE
:1053940065656E207374617274656420004D656187
:1053A400737572652062697420616E642065766528
:1053B4006E7420626974207761732073756363650A
:1053C400737366756C6C7920636865636B656420C0
:1053D400004D6561737572656D656E7420737563D8
:1053E4006365737366756C202C206E6F7720746907
:1053F4006D6520746F207365742072656164792013
:10540400626974206F662063303220004D656173D9
:105414007572696E67434F325F5461736B00496EF6
:10542400697469616C69736564202074656D704882
:10543400756D2073656E736F7200536F6D6574685C
:10544400696E672077656E742077726F6E67207758
:1054540068696C6520696E697469616C6973696EE9
:10546400672074656D7048756D2073656E736F7217
:105474000054656D7048756D5461736B00436F75AE
:105484006C64206E6F742077616B65207570207476
:10549400656D702068756D2073656E736F72200082
:1054A400436F756C64206E6F74206D6561737572E3
:1054B400652074656D702068756D2073656E736FFB
:1054C4007220004D6561737572696E6720646F6E3A
:1054D4006520666F722074656D7020616E6420684B
:1054E400756D0049444C4500546D72205376630039
:1054F4004D41494E0050726F6772616D2053746163
:105504007274656421210048414C5F4C454400009D
:00000001FF
