S0170000534550345F477265656E686F7573652E737265637D
S113000066C1000085C1000083C1000081C10000F9
S11300107FC100007DC100007BC1000079C10000E8
S113002077C1000075C1000073C1000071C10000F8
S11300300C941B086DC100006BC1000069C1000075
S113004067C1000065C1000063C1000061C1000018
S11300505FC100005DC100005BC1000059C1000028
S113006057C100000C94B6280C94082951C1000013
S11300704FC100004DC100004BC1000049C1000048
S113008047C1000045C1000043C1000041C1000058
S11300900C944C290C949E293BC100000C94E92D2E
S11300A037C1000035C1000033C1000031C1000078
S11300B02FC100002DC100002BC1000029C1000088
S11300C027C1000025C1000023C100000C94E229CF
S11300D00C94342A1DC100000C94782A0C94CA2A6A
S11300E017C10000F51DF51DF51D2C1E341E491EFB
S11300F0F51DF51D2C1E341E0B2E7B2E7B2E7B2E08
S11301007B2E7B2E7B2E7B2E0B2E7B2E7B2E7B2E13
S11301107B2E7B2E7B2E7B2E0D2E7B2E7B2E7B2E01
S11301207B2E7B2E7B2E7B2E7B2E7B2E7B2E7B2E83
S11301307B2E7B2E7B2E7B2E0D2E7B2E7B2E7B2EE1
S11301407B2E7B2E7B2E7B2E7B2E7B2E7B2E7B2E63
S11301507B2E7B2E7B2E7B2E772E7B2E7B2E7B2E57
S11301607B2E7B2E7B2E7B2E422E7B2E7B2E7B2E7C
S11301707B2E7B2E7B2E7B2E7B2E7B2E7B2E7B2E33
S11301807B2E7B2E7B2E7B2E362E7B2E7B2E7B2E68
S11301907B2E7B2E7B2E7B2E5A2E6E616E00696E1B
S11301A0660000407A10F35A00A0724E180900103D
S11301B0A5D4E80000E87648170000E40B540200D8
S11301C000CA9A3B000000E1F50500008096980003
S11301D0000040420F000000A0860100000010272C
S11301E000000000E80300000000640000000000BC
S11301F00A00000000000100000000002C76D888EE
S1130200DC674F0823DFC1DFAE59E1B1B796E5E300
S1130210E453C63AE651997696E8E6C28426EB8919
S11302208C9B62ED407C6FFCEFBC9C9F40F2BAA5B6
S11302306FA5F490055A2AF75C936B6CF9676DC14E
S11302401BFCE0E40D47FEF520E6B500D0ED902E52
S11302500300943577050080841E080000204E0AB0
S1130260000000C80C333333330F986E12831141EE
S1130270EF8D2114893BE65516CFFEE6DB18D184B9
S11302804B381BF77C1D901DA4BBE42420328472E0
S11302905E228100C9F124ECA1E53D270E943610BD
S11302A080916817823008F000D60E94721EF6CF43
S11302B0CF93DF931F92CDB7DEB7CE0101960E9494
S11302C0721B49810E94671D0E94BE1DF6CF112436
S11302D01FBECFEFD1E2DEBFCDBF00E00CBF19E0FF
S11302E0A0E0B2E0E8E3F0E700E00BBF02C0079053
S11302F00D92AE33B107D9F729E1AEE3B9E001C0FD
S11303001D92A136B207E1F70E9453210C941A38CA
S113031077CECF93DF93CDB7DEB76A970FB6F89455
S1130320DEBF0FBECDBF0E94871169837A838B83A2
S11303309C8348EA58E460E070E0CE0101960E9494
S11303409D1345E050E060E070E080915119909178
S11303505219F6D2CC24CA94DC2C760101E021E0B7
S11303604AE050E060E070E080914F19909150199C
S113037047D2DC01CB018A709927AA27BB27892B96
S11303808A2B8B2BB1F20E948F1F0E94961E0E9413
S1130390941F0E949B1E0E94061F0E94A01E4AE0FA
S11303A050E060E070E080914D1990914E190E94E8
S11303B0E70A813071F457D00E94A51E00E020E0C6
S11303C030E0A90160E070E080914D1990914E19E0
S11303D084D762E0CE0105960E94A81E0FEF1FEF9E
S11303E0980146E150E0BE016B5F7F4F8091531945
S11303F0909154190E94590D863129F08FE692E0AC
S11304000E945D3796CF99279F938F938AE792E056
S11304109F938F930E9449370F900F900F900F90E6
S113042088CFEF92FF920F93E12CF12C082F20E05C
S113043030E040EC50E063E972E089E891E00E942A
S1130440FD100F91FF90EF900895873F30F0909149
S11304503E09892380933E09089590913E09892B92
S113046080933E09089580913E090895809143093F
S11304709091440908959093440980934309089501
S11304809093420980934109089590934009809381
S11304903F0908956F927F928F929F92AF92BF927D
S11304A0CF92DF92EF92FF920F931F93CF93DF933C
S11304B0CDB7DEB7CC88D12CDC2CCC248D89C82ACE
S11304C06E88712C762C66248F89682A088D10E03A
S11304D0102F0027898D082BAA8CB12CBA2CAA24A2
S11304E08B8DA82AEC8CF12CFE2CEE248D8DE82A21
S11304F08E8C912C982C88248F8D882AC6016AE0D2
S113050070E00E943B34CB01B6DF202F312FADECDD
S1130510BCEC0E9478349695879596958795969528
S11305208795AEDF8E2D9F2DB0DF9F928F92FF9225
S1130530EF92BF92AF921F930F937F926F92DF92CD
S1130540CF9283EA92E09F938F930E9449370FB62C
S1130550F894DEBF0FBECDBFDF91CF911F910F91F5
S1130560FF90EF90DF90CF90BF90AF909F908F90CF
S11305707F906F9008950FEF1FEF980146E150E0D0
S113058065E479E080915519909156190E94620EA4
S1130590882389F3E5E4F9E0918180811F929F9398
S11305A01F928F938BEE92E09F938F930E94493713
S11305B080914D1990914E190F900F900F900F90BC
S11305C00F900F900097B9F24AE050E060E070E0BD
S11305D0FED7813039F58DB79EB746970FB6F8949C
S11305E09EBF0FBE8DBFADB7BEB7119686E1E5E4E1
S11305F0F9E001900D928A95E1F74CDF00E020E0EC
S113060030E0A90160E070E080914D1990914E199D
S113061064D68DB79EB746960FB6F8949EBF0FBEAC
S11306208DBFA9CF8DE193E00E945D37A4CFEF92F7
S1130630FF920F93E12CF12C082F20E030E048E8E2
S113064051E068E373E08BEB92E00E94FD100F91A0
S1130650FF90EF900895CF93DF9300D01F92CDB712
S1130660DEB70E94871169837A838B839C83E12C94
S1130670F12C40E15DE160E070E0CE0101960E9462
S11306809D134AE050E060E070E080914D19909134
S11306904E199DD7813069F4E9DE7C0100E020E049
S11306A030E0A90160E070E080914D1990914E19FD
S11306B014D60E94501F0E948F1F6AE070E00E94AF
S11306C03B348B011F936F9387E493E09F938F9345
S11306D00E944937FF92EF9289E593E09F938F93AD
S11306E00E9449370FB6F894DEBF0FBECDBFE016A7
S11306F0F106ECF464E680E00E94E81F4AE050E072
S113070060E070E080914D1990914E1960D781306E
S113071009F0AFCF9ADE00E020E030E0A90160E00C
S113072070E080914D1990914E19D7D5A2CF6CE904
S113073080E00E94E81F4AE050E060E070E08091B1
S11307404D1990914E1943D7813009F092CF8EEF15
S11307507CDE00E020E030E0A90160E070E0809100
S11307604D1990914E19B9D584CFEF92FF920F9302
S11307709FEF91B992B9E12CF12C082F20E030E0E1
S113078040EC50E06DE673E08BE293E00E94FD10D4
S11307900F91FF90EF9008950F9301110CC0DC01AD
S11307A0CB0182239323A423B523892B8A2B8B2B60
S11307B079F480E010C0DC01CB0182239323A423CD
S11307C0B523281739074A075B0721F080E003C0E7
S11307D081E001C081E00F910895CF93DF938FE012
S11307E090E0AFD1EC01009739F0FC011192119225
S11307F011921192CF018BD2CE01DF91CF91089546
S11308002F923F924F925F926F927F928F929F921C
S1130810AF92BF92CF92DF92EF92FF920F931F930A
S1130820CF93DF93EC014A015B01622E702E0E948C
S11308308111288039804A805B80A5019401C2011E
S1130840B101AADF8823A1F0662089F1D501C40192
S113085080959095A095B09582219321A421B521EE
S113086088839983AA83BB83C12CD12C760122C0AF
S1130870C114D104E104F104E9F0611004C040E0C2
S113088050E0BA0104C040E050E060E071E0711053
S11308907460482959296A297B2997018601CE0168
S11308A004960E949914212C312C210103C0C12CDF
S11308B0D12C76010E94C112CD28CE28CF2859F11F
S11308C0811101C0F2D20E945B186B017C0191FD81
S11308D01FC00FB6F8940F92C880D980EA80FB80BD
S11308E0072DA5019401C701B60156DF882371F0D5
S11308F0662061F080949094A094B0948C209D2004
S1130900AE20BF2088829982AA82BB820F900FBE3C
S1130910160127015524C201B101DF91CF911F9126
S11309200F91FF90EF90DF90CF90BF90AF909F908A
S11309308F907F906F905F904F903F902F9008958D
S11309404F925F926F927F92AF92BF92CF92DF925B
S1130950EF92FF920F931F93CF93DF93EC016A0101
S11309607B018C01095F1F4F0E948111EB85FC857F
S113097088819981AA81BB81C82AD92AEA2AFB2ABB
S1130980C882D982EA82FB82C12CD12C76013DC077
S1130990A480B58080819181A281B381AC01BD0125
S11309A07727B2FD0EC0488059806A807B8044223C
S11309B055226622772245284628472889F420E0D4
S11309C012C0488059806A807B8044225522662266
S11309D07722441555056605770521F020E003C00C
S11309E021E001C021E0222371F0B0FF04C0C42A39
S11309F0D52AE62AF72A488159816A817B81726067
S1130A00CF010E94D415EA2DFB2DE017F10709F060
S1130A10BFCFC094D094E094F09488819981AA8146
S1130A20BB81C822D922EA22FB22C882D982EA8267
S1130A30FB820E94C112688179818A819B81DF9146
S1130A40CF911F910F91FF90EF90DF90CF90BF90C7
S1130A50AF907F906F905F904F900895E7E6F9E034
S1130A60ABE6B9E0B183A08313821282E3E1F7E13C
S1130A70F0936609E0936509138212821182108251
S1130A8088EA9DE013969C938E931297ED93FC93C2
S1130A909093620980936109909364098093630938
S1130AA080E090E890935C0980935B090895CF936C
S1130AB0DF93EC01A7E6B9E001C0DF01ED91FC9101
S1130AC01197EC17FD07C8F312968D919C9113971B
S1130AD09D01280F391FC217D30749F42A813B818E
S1130AE0820F931F13969C938E931297ED018A8124
S1130AF09B819E01280F391FE217F307C1F420914F
S1130B00650930916609E217F30771F02281338198
S1130B10820F931F9B838A83ED91FC9111978081AF
S1130B2091819983888305C03983288302C0F9831E
S1130B30E883CA17DB0711F0CD93DC93DF91CF91E3
S1130B400895EF92FF920F931F93CF93DF938C013D
S1130B500E9481118091650990916609892B09F49D
S1130B607DDF80915B0990915C0980239123892B1F
S1130B7009F076C00115110549F0C801049608175B
S1130B80190718F000E010E001C08C0101151105EF
S1130B9009F469C0809163099091640980179107F1
S1130BA008F464C0C0916709D0916809E7E6F9E0E8
S1130BB002C0FE01EC018A819B818017910720F419
S1130BC0888199810097A9F78091650990916609B8
S1130BD0C817D90709F44DC0E080F18084E0E80E1D
S1130BE0F11C88819981918380832A813B81201B18
S1130BF0310B2930310548F0CE01800F911FFC01E3
S1130C00338322831B830A8352DF2A813B818091B1
S1130C10630990916409821B930B909364098093F8
S1130C20630940916109509162098417950720F482
S1130C30909362098093610980915B0990915C09AA
S1130C40282B392B3B832A831982188280915F09D0
S1130C509091600901969093600980935F090BC09D
S1130C60E12CF12C08C0E12CF12C05C0E12CF12C75
S1130C7002C0E12CF12C0E94C112E114F10411F420
S1130C800E947E1EC701DF91CF911F910F91FF90AB
S1130C90EF9008950F931F93CF93DF93009791F1F3
S1130CA0EC0124974A815B8120915B0930915C09B6
S1130CB0BA0162237323672B29F168817981672B39
S1130CC009F520953095242335233B832A830E94FC
S1130CD081118A819B812091630930916409820F7B
S1130CE0931F9093640980936309CE01E0DE8091A1
S1130CF05D0990915E09019690935E0980935D0968
S1130D000E94C112DF91CF911F910F910895FC01B0
S1130D100396928381834FEF5FEFBA014383548339
S1130D20658376839087878392878187108208956D
S1130D30FC011386128608950F931F93CF93DF93BC
S1130D40EB01088119812A813B810F3F4FEF140782
S1130D502407340721F4FC01A185B28511C0DC010C
S1130D60139601C0DF011496ED91FC911597408113
S1130D70518162817381041715072607370790F79D
S1130D801496ED91FC911597FD83EC83D783C6836C
S1130D90BF83AE831596DC93CE9314979B878A8783
S1130DA0FC0120812F5F2083DF91CF911F910F9150
S1130DB00895CF93DF93FC01A285B385C481D581C7
S1130DC0868197819F838E83C681D7818481958113
S1130DD09D838C8311968D919C911297E817F90746
S1130DE031F48681978112969C938E931197138682
S1130DF012868C9181508C938C91DF91CF910895C0
S1130E00A89590EC88E10FB6F894A89580936000BB
S1130E100FBE909360000895FC0160833197708346
S1130E203197108231971082319720E820833197CF
S1130E3010823197108231971082779740833197CF
S1130E40508386970895DCDFA091D617B091D71709
S1130E50CD91CDBFDD91DEBFFF91EF91DF91CF91B9
S1130E60BF91AF919F918F917F916F915F914F91BE
S1130E703F912F911F910F91FF90EF90DF90CF90B2
S1130E80BF90AF909F908F907F906F905F904F90A6
S1130E903F902F901F900F900CBE0F900BBE0F90A1
S1130EA00FBE0F90089581E008950F920FB6F89445
S1130EB00F920BB60F920CB60F921F9211242F9221
S1130EC03F924F925F926F927F928F929F92AF92D6
S1130ED0BF92CF92DF92EF92FF920F931F932F93C3
S1130EE03F934F935F936F937F938F939F93AF93AE
S1130EF0BF93CF93DF93EF93FF93A091D617B09155
S1130F00D7170DB60D920EB60D920E941D14A09126
S1130F10D617B091D717CD91CDBFDD91DEBFFF912C
S1130F20EF91DF91CF91BF91AF919F918F917F917D
S1130F306F915F914F913F912F911F910F91FF906E
S1130F40EF90DF90CF90BF90AF909F908F907F9065
S1130F506F905F904F903F902F901F900F900CBE1A
S1130F600F900BBE0F900FBE0F9008950F920FB607
S1130F70F8940F920BB60F920CB60F921F92112495
S1130F802F923F924F925F926F927F928F929F9295
S1130F90AF92BF92CF92DF92EF92FF920F931F9383
S1130FA02F933F934F935F936F937F938F939F936D
S1130FB0AF93BF93CF93DF93EF93FF93A091D61793
S1130FC0B091D7170DB60D920EB60D9213BE0E94B6
S1130FD0951181110E941D14A091D617B091D717B5
S1130FE0CD91CDBFDD91DEBFFF91EF91DF91CF9128
S1130FF0BF91AF919F918F917F916F915F914F912D
S11310003F912F911F910F91FF90EF90DF90CF9020
S1131010BF90AF909F908F907F906F905F904F9014
S11310203F902F901F900F900CBE0F900BBE0F900F
S11310300FBE0F9008959ADF1895DC0153962C91FA
S11310405397222341F05A96ED91FC915B9790813E
S11310508AE0891B089580E008950FB6F8940F92F2
S1131060FC01868D811102C081E001C080E00F90F7
S11310700FBE08950FB6F8940F92FC01268D878D4C
S1131080281302C081E001C080E00F900FBE0895D4
S11310900F931F93CF93DF93EC01042F1E8D48A170
S11310A041110CC088819981892B09F042C08C813F
S11310B09D810E9499171D821C8242C0011117C094
S11310C050E08A819B810E94A33628A18A819B815A
S11310D0820F911D9B838A832C813D818217930704
S11310E050F1888199819B838A8380E029C050E0F4
S11310F08E819F810E94A33688A190E0919581956D
S113110091092E813F81280F391F3F832E83488107
S113111059812417350730F42C813D81820F931FA8
S11311209F838E83023049F4112349F0115080E0EB
S113113007C080E005C080E003C080E001C080E01B
S11311401F5F1E8FDF91CF911F910F910895FC01B6
S113115040A14423A9F050E026813781240F351F94
S113116037832683848195812817390720F080816D
S1131170918197838683CB01668177810C94A33612
S113118008951F93CF93DF93EC010FB6F8940F9259
S11311901AA10BC08B89882351F0CE0143960E947B
S11311A0251581110E94FB16115011169CF38FEF27
S11311B08AA30F900FBE0FB6F8940F9219A10BC01B
S11311C08885882351F0CE0108960E942515811147
S11311D00E94FB16115011169CF38FEF89A30F90F8
S11311E00FBEDF91CF911F910895CF93DF93EC0150
S11311F00FB6F8940F92E881F9818F8D28A190E0C1
S113120030E0829FA001839F500D929F500D1124C6
S11312104E0F5F1F5D834C831E8EFB83EA83019711
S1131220289FA001299F500D389F500D1124CF01F4
S1131230840F951F9F838E838FEF89A38AA36111E7
S11312400BC08885882371F0CE0108960E9425156D
S1131250882341F02ADE06C0CE01089658DDCE016F
S1131260439655DD0F900FBE81E0DF91CF91089535
S11312700F931F93F801611103C01183008302C00F
S113128051834083878F60A361E0CF01AEDF1F915C
S11312900F910895DF92EF92FF920F931F93CF93D4
S11312A0DF93F82EE62ED42E869FC0011124839658
S11312B048DCEC01009741F08C012D2DAC014D5D13
S11312C05F4F6E2D8F2DD4DFCE01DF91CF911F9113
S11312D00F91FF90EF90DF900895CF92DF92EF92FD
S11312E0FF920F931F93CF93DF93CDB7DEB7299768
S11312F00FB6F894DEBF0FBECDBF7C016B012E8309
S11313003F834887598710E00FB6F8940F92F7018E
S1131310968D878D981710F00230B1F4402FB601E6
S1131320C701B6DEF7019389992341F0C7014396BB
S11313300E942515882321F0B8DD02C08111B5DD96
S11313400F900FBE81E04CC08E819F81A885B98526
S1131350892B8A2B8B2B21F40F900FBE80E040C089
S1131360111105C0CE0101960E94841611E00F9060
S11313700FBEC7D70FB6F8940F92F70181A18F3F24
S113138009F411A2F70182A18F3F09F412A20F9070
S11313900FBEBE016A5F7F4FCE0101960E94951673
S11313A0811119C0C70166DE882381F04E815F81F7
S11313B068857985C70108960E948214C701E1DE19
S11313C00E94C1128111A0CF70DD9ECFC701D9DE6A
S11313D00E94C11299CFC701D4DE0E94C11280E0DD
S11313E029960FB6F894DEBF0FBECDBFDF91CF9123
S11313F01F910F91FF90EF90DF90CF9008950F937E
S1131400009769F0FC011582148211821082168201
S113141000E020E030E0A90160E070E05EDF0F91C1
S11314200895CF93DF93482F60E081E033DFEC0130
S1131430E6DFCE01DF91CF910895EF92FF920F93F3
S11314401F93CF93DF938A01FC01568D378D531779
S113145010F02230F9F4422F7801EC011AA18E8D9C
S1131460CE0116DE1F3F81F48B898823A9F0CE01BB
S113147043960E942515882389F0E114F10481F034
S113148081E0F70180830DC0FF24F394F10EFAA2EA
S113149081E007C080E005C081E003C081E001C0B5
S11314A081E0DF91CF911F910F91FF90EF9008950C
S11314B0CF92DF92EF92FF920F931F93CF93DF931C
S11314C0CDB7DEB729970FB6F894DEBF0FBECDBFF8
S11314D08C016B012E833F8348875987E12C0FB61B
S11314E0F8940F92F801F68CFF2099F0B601C80128
S11314F02EDEFA94F801F68E8085882331F0C80137
S113150008960E9425158111D0DC0F900FBE81E052
S11315104FC08E819F81A885B985892B8A2B8B2BFF
S113152021F40F900FBE80E043C0E11006C0CE014D
S113153001960E948416EE24E3940F900FBEE1D628
S11315400FB6F8940F92F80181A18F3F09F411A20C
S1131550F80182A18F3F09F412A20F900FBEBE01C1
S11315606A5F7F4FCE0101960E949516811117C0C4
S1131570C80173DD882379F04E815F8168857985A0
S1131580C80143960E948214C801FBDDFAD7811179
S1131590A6CF8BDCA4CFC801F4DDF3D7A0CFC8015C
S11315A0F0DDEFD7C80159DD882309F498CF80E036
S11315B029960FB6F894DEBF0FBECDBFDF91CF9151
S11315C01F910F91FF90EF90DF90CF900895EF92CD
S11315D0FF920F931F93CF93DF93CDB7DEB7299775
S11315E00FB6F894DEBF0FBECDBF8C014E835F8370
S11315F068877987E12CF12C0FB6F8940F92F801E3
S1131600868D8823C9F08150868F80819181892BB2
S113161029F40E948518F80195838483F801808554
S1131620882331F0C80108960E94251581113DDCFC
S11316300F900FBE81E06FC08E819F81A885B98510
S1131640892B8A2B8B2B21F40F900FBE80E063C073
S1131650F11006C0CE0101960E948416FF24F39473
S11316600F900FBE4ED60FB6F8940F92F80181A1D9
S11316708F3F09F411A2F80182A18F3F09F412A24D
S11316800F900FBEBE016A5F7F4FCE0101960E948C
S11316909516811126C0C801E0DC8823F1F0F80119
S11316A080819181892B51F40FB6F8940F92848133
S11316B095810E941217E82E0F900FBE4E815F8114
S11316C068857985C80143960E948214C80159DD52
S11316D058D7811191CFE9DB8FCFC80152DD51D7A3
S11316E08BCFC8014EDD4DD7C801B7DC882309F480
S11316F083CFEE2079F00FB6F8940F92C8019DDCE9
S1131700682FF801848195810E94F4170F900FBE11
S113171080E001C080E029960FB6F894DEBF0FBECA
S1131720CDBFDF91CF911F910F91FF90EF9008955E
S1131730CF93DF93EC010FB6F8940F9289A18F3FFA
S113174009F419A28AA18F3F09F41AA20F900FBEBF
S11317508E8D811104C0CE0143960E94E314CE0104
S113176010DDDF91CF910895FC01448155812281E0
S11317703381240F351F80819181B901681B790B56
S1131780CB016417750710F0841B950B08950F9314
S1131790FC018FE0DF011D928A95E9F77587648764
S11317A0558344833783268306870F910895AF9228
S11317B0BF92CF92DF92EF92FF920F931F93CF933A
S11317C0DF936C015B017A01FC01C281D381048146
S11317D015810C1B1D0B4017510708F48A01F601F3
S11317E084859585A801B5018C0F9D1F0E94A336A1
S11317F00E151F0558F4A701401B510BB501600FCE
S1131800711FF601848595850E94A336CE018E0D45
S11318109F1DF601248135818217930710F0821BE6
S1131820930BF60193838283C701DF91CF911F91BC
S11318300F91FF90EF90DF90CF90BF90AF900895FD
S1131840CF92DF92EF92FF920F931F93CF93DF9388
S11318501F921F92CDB7DEB77C016B015A83498377
S113186021153105C1F0FC01868580FD08C04217B1
S1131870530708F49A013A83298381E00FC02017A3
S1131880310758F042E050E0BE016F5F7F4FC7015F
S11318908EDF81E003C080E001C080E0882331F066
S11318A049815A81B601C70182DF02C080E090E01D
S11318B00F900F90DF91CF911F910F91FF90EF90B8
S11318C0DF90CF900895AF92BF92CF92DF92EF92C4
S11318D0FF920F931F93CF93DF937C015B01E90188
S11318E04217530708F4EA01209781F1F7010081B8
S11318F0118184819581801B910B6E018C179D074A
S113190008F46C01F70164857585600F711FA601E9
S1131910C5010E94A336CC16DD0658F4AE014C195D
S11319205D09F70164857585C5018C0D9D1D0E94B7
S1131930A3360C0F1D1FF701848195810817190721
S113194010F0081B190BF70111830083CE01DF91FE
S1131950CF911F910F91FF90EF90DF90CF90BF90A8
S1131960AF9008956F927F928F929F92AF92BF92A1
S1131970CF92DF92EF92FF920F931F93CF93DF9357
S11319801F921F92CDB7DEB76C014B015A0179014A
S113199001151105B1F0FC0160807180A801BE0140
S11319A06F5F7F4F90DF89819A81E01AF10AA81650
S11319B0B90630F4F60171826082A12CB12C01C009
S11319C05C019701A501B401C6017DDF0F900F9062
S11319D0DF91CF911F910F91FF90EF90DF90CF9007
S11319E0BF90AF909F908F907F906F900895CF920B
S11319F0DF92EF92FF920F93CF93DF93EC016B0191
S1131A00413011F401E001C000E0C114D10419F423
S1131A10CC24C394D12CCE014096C817D90720F406
S1131A2021968FD87C0102C0E12CF12CE114F10441
S1131A3039F09601AE01B701615F7F4FC701A7DEA0
S1131A40C701DF91CF910F91FF90EF90DF90CF907E
S1131A5008950F930FB6F8940F92FC0120853185F9
S1131A60232B71F422853385232B61F4268137815E
S1131A704481558164857585068589DE81E003C0CE
S1131A8080E001C080E00F900FBE0F910895FC012B
S1131A902481358180819181820F931F42815381FA
S1131AA0841B950B01978217930710F0821B930BED
S1131AB008952F923F924F925F926F927F928F92EE
S1131AC09F92AF92BF92CF92DF92EF92FF920F93C9
S1131AD01F93CF93DF93CDB7DEB72B970FB6F89450
S1131AE0DEBF0FBECDBF4C017B876A871A010E8310
S1131AF01F8328873987FC01848195810197268576
S1131B0020FF0CC02A01F2E04F0E511C84159505EC
S1131B1058F41E821F821886198606C084179507FA
S1131B2010F02A0101C02C018E819F81A885B985FE
S1131B30892B8A2B8B2B09F438C0CE0101960E9485
S1131B406E160FB6F8940F92C401A1DF3C01841500
S1131B50950540F560E080E090E00E94581B0E94EB
S1131B60FF16F401938782870F900FBEAE80BF806B
S1131B70C884D984E12CF12C00E010E0980140E005
S1131B8050E0BA0180E00E949718F401138612868F
S1131B90BE016A5F7F4FCE0101960E94951688238D
S1131BA081F205C00F900FBE02C0612C712C61142C
S1131BB0710419F4C4016BDF3C0182019301A1019A
S1131BC06A857B85C4013CDE6C01892BE9F0C40184
S1131BD0CBDDF4012681378182179307A8F091D3D6
S1131BE0F40180859185892B71F080859185E12CA4
S1131BF0F12C00E020E030E0A90160E00E943F19F0
S1131C00F40111861086BDD4C6012B960FB6F89444
S1131C10DEBF0FBECDBFDF91CF911F910F91FF901B
S1131C20EF90DF90CF90BF90AF909F908F907F9078
S1131C306F905F904F903F902F900895AF92BF9216
S1131C40CF92DF92EF92FF920F931F93CF93DF9384
S1131C50EC017B015A0169018E8580FF04C08A0171
S1131C600E5F1F4F01C08A01CE0111DF9C01A50147
S1131C70B701CE01E5DD5C01892BC1F0CE0174DD35
S1131C802E813F818217930788F088859985892B57
S1131C9069F088859985E12CF12C00E020E030E0A2
S1131CA0A90160E00E94361A19861886C501DF91E1
S1131CB0CF911F910F91FF90EF90DF90CF90BF9045
S1131CC0AF9008954F925F926F927F928F929F92FE
S1131CD0AF92BF92CF92DF92EF92FF920F931F9336
S1131CE0CF93DF93EC012B013A01580169018E85F2
S1131CF080FF05C06894882481F8912C02C0812C4F
S1131D00912CA114B104C104D10441F10FB6F8948B
S1131D100F92CE0129DD7C018816990648F060E017
S1131D2080E090E00E94581B0E94FF1699878887E4
S1131D300F900FBE8E149F04A0F0E12CF12C00E054
S1131D4010E0980140E050E0BA0180E00E9497184A
S1131D5019861886CE0108DD7C0103C0CE0104DD9E
S1131D607C018E149F04E8F484019701A301B2015D
S1131D70CE01F8DD6C01892BB1F0C3D28A859B8535
S1131D80892B69F08A859B85E12CF12C00E020E009
S1131D9030E0A90160E00E943F191B861A86F1D346
S1131DA002C0C12CD12CC601DF91CF911F910F919C
S1131DB0FF90EF90DF90CF90BF90AF909F908F9067
S1131DC07F906F905F904F900895E0915017F0913D
S1131DD05117808181110CC08FEF9FEFDC0180933C
S1131DE01A1790931B17A0931C17B0931D170895EF
S1131DF0E0915017F09151170780F085E02D808114
S1131E009181A281B38180931A1790931B17A09399
S1131E101C17B0931D170895CF93DF93EC018B8D9E
S1131E209C8D0E944A06CE010E944A06DF91CF9102
S1131E3008954F925F926F927F928F929F92AF928A
S1131E40BF92CF92DF92EF92FF920F93CF93DF93E3
S1131E502C015B014A013901E60165EA70E08B8DD2
S1131E609C8D0E94AC368B8D9C8D21E0821A91084A
S1131E70880E991EA114B10489F415C0822F90E034
S1131E80F501E80FF91F3081DE01A80FB91F5D9637
S1131E903C938081882329F02F5F01C020E020310A
S1131EA068F31CA601C01D8E0A3008F009E00A8FF1
S1131EB00DA71EA6CE0102960E949806CE010E968C
S1131EC00E949806DB87CA878AE090E0A0E0B0E031
S1131ED0801B9109A109B1098E879F87A88BB98BB3
S1131EE0DF8BCE8B84E0FE01BF96DF011D928A95C5
S1131EF0E9F71BAAA301B201C4010E940C0799834C
S1131F008883E114F10419F0F701D183C083DF91D0
S1131F10CF910F91FF90EF90DF90CF90BF90AF9053
S1131F209F908F907F906F905F904F900895CF9384
S1131F30C0E009C02BE0C29FC00111248859984E0B
S1131F400E948706CF5FCA30A8F38DE597E10E940F
S1131F50870682E597E10E94870683E497E10E9461
S1131F60870688E397E10E9487068CE297E10E9446
S1131F7087068DE597E1909351178093501782E57A
S1131F8097E190934F1780934E17CF910895CF9375
S1131F90DF93EC010FB6F8940F9280912B178F5FAB
S1131FA080932B178091D6179091D717892B51F4D2
S1131FB0D093D717C093D61780912B17813091F403
S1131FC0B6DF10C08091251781110CC0E091D6179F
S1131FD0F091D717928D8A8D891720F0D093D71757
S1131FE0C093D61780911E178F5F80931E17EA8DBA
S1131FF0809126178E1710F4E09326178BE08E9F9E
S1132000F0011124E859F84E0180F281E02DFF839C
S1132010EE832681378139872887A681B7819E017F
S11320202E5F3F4F15963C932E9314973783268348
S1132030EA8D8E9FF0011124E859F84EFD87EC8754
S113204080818F5F80830F900FBE80912517882336
S113205051F0E091D617F091D717928D8A8D981789
S113206010F40E945507DF91CF910895CF93DF9329
S11320701BC00FB6F8940F92E0913F17F0914017F0
S1132080C085D185CE0102960E94D90680912B1776
S1132090815080932B178091371781508093371785
S11320A00F900FBECE01B8DE809137178111E1CFBA
S11320B0DF91CF9108958F929F92AF92BF92CF926A
S11320C0DF92EF92FF92CF93DF936B017C01C42FD9
S11320D08090271790902817A0902917B0902A175E
S11320E08091D6179091D71702960E94D9068FEF48
S11320F0C816D806E806F806B1F5CC23A1F1ECE23F
S1132100F7E1A181B281C091D617D091D717BF83CF
S1132110AE83C091D617D091D71716968D919C9106
S11321201797998788871696CD91DC911797809198
S1132130D6179091D71702969D838C838091D617DA
S11321409091D717029617969C938E931697A09109
S1132150D617B091D7171D96FC93EE931C978081E8
S11321608F5F80833FC0C80CD91CEA1CFB1CE09124
S1132170D617F091D717C282D382E482F582C814AD
S1132180D904EA04FB0468F46091D6177091D71758
S113219080914E1790914F176E5F7F4F0E949C065F
S11321A021C06091D6177091D717809150179091E4
S11321B051176E5F7F4F0E949C0680911A17909171
S11321C01B17A0911C17B0911D17C816D906EA0653
S11321D0FB0640F4C0921A17D0921B17E0921C170A
S11321E0F0921D17DF91CF91FF90EF90DF90CF9089
S11321F0BF90AF909F908F9008952F923F924F92EF
S11322005F926F927F928F929F92AF92BF92CF9282
S1132210DF92EF92FF920F93CF93DF933C011B0168
S11322204A012901CA010E94A1056C01892B71F0A0
S113223084E390E00E94A105EC01892B19F0DC8E67
S1132240CB8E06C0C6010E944A0602C0C0E0D0E0A0
S1132250209761F0A12CB12C6E019201A401B1016F
S1132260C301E7DDCE0193DE81E001C08FEFDF9192
S1132270CF910F91FF90EF90DF90CF90BF90AF90F0
S11322809F908F907F906F905F904F903F902F9092
S11322900895EF92FF920F930F2EF8E1EF2EF7E1DE
S11322A0FF2EF02D00E020E030E040EC50E06BE742
S11322B073E08EE491E0A1DF813011F40E94FC1BF5
S11322C08130C9F4F8948FEF9FEFDC0180931A17E3
S11322D090931B17A0931C17B0931D1781E0809354
S11322E02517109227171092281710922917109269
S11322F02A170E942307809106020F91FF90EF9006
S11323000895809117178F5F8093171708950FB65C
S1132310F8940F92609127177091281780912917CC
S113232090912A170F900FBE0895CF92DF92EF92EB
S1132330FF92CF93DF9380911717811105C1C0904D
S11323402717D0902817E0902917F0902A178FEFBD
S1132350C81AD80AE80AF80AC0922717D092281790
S1132360E0922917F0922A17C114D104E104F10470
S1132370B1F4809150179091511720914E173091DC
S11323804F17309351172093501790934F17809302
S11323904E1780911F178F5F80931F1716DD809152
S11323A01A1790911B17A0911C17B0911D17C816EE
S11323B0D906EA06FB0620F480E0B2C081E001C041
S11323C080E0E0915017F0915117908191110CC069
S11323D04FEF5FEFBA0140931A1750931B176093A6
S11323E01C1770931D179CC0E0915017F091511762
S11323F00780F085E02D0084F185E02D4281538132
S113240064817581C416D506E606F70648F4409340
S11324101A1750931B1760931C1770931D1780C0D5
S1132420A485B585C681D781208531853F832E83D8
S1132430C085D185268137813D832C8311964D91AA
S11324405C9112979F012E5F3F4F4217530731F45F
S11324504085518512965C934E9311971586148688
S11324609C9191509C93A08DB18D109709F1C289D4
S1132470D389448955895F834E83C489D589428928
S113248053895D834C8311966D917C911297AF01B2
S1132490425F5F4F6417750731F44489558912967A
S11324A05C934E931197118E108E9C9191509C9336
S11324B0A28D909126179A1710F4A09326179BE0EB
S11324C09A9FD0011124A859B84E11960D90BC9131
S11324D0A02DB783A68316964D915C9117975187CB
S11324E040871696CD91DC9117973D832C831796E0
S11324F03C932E931697A28D9A9FD0011124A8592C
S1132500B84EB587A4879C919F5F9C93228DE091E0
S1132510D617F091D717928D291708F04FCF51CFC6
S1132520E091D617F091D717E28D9BE0E99FF00177
S11325301124E859F84E9081923008F081E090918E
S11325402017911116C016C080912117909122175F
S1132550A0912317B09124170196A11DB11D80935A
S1132560211790932217A0932317B093241780E088
S113257001C081E0DF91CF91FF90EF90DF90CF9089
S11325800895CF92DF92EF92FF92CF93DF930FB62D
S1132590F8940F92809117178150809317178091A8
S11325A017178111BEC080912B17811188C0BCC040
S11325B0E0914A17F0914B170084F185E02DA08D2E
S11325C0B18DC289D389848995899F838E83C48977
S11325D0D589828993899D838C8311962D913C9111
S11325E01297CF010E962817390731F484899589FB
S11325F012969C938E931197118E108E8C9181500C
S11326008C93A485B585C681D781808591859F8368
S11326108E83C085D185868197819D838C83119615
S11326208D919C9112979F012E5F3F4F82179307C4
S113263031F48085918512969C938E93119715861B
S113264014868C9181508C93A28D809126178A17C1
S113265010F4A09326178BE08A9FD0011124A85967
S1132660B84E11960D90BC91A02DB783A6831696F3
S11326704D915C911797518740871696CD91DC91C7
S113268017973D832C8317963C932E931697A28D10
S11326908A9FD0011124A859B84EB587A4878C917C
S11326A08F5F8C93928DA091D617B091D7175A96BD
S11326B08C91981730F081E08093201702C0E0E0FD
S11326C0F0E080914317811173CFEF2B09F07DDB8C
S11326D0C0902117D0902217E0902317F090241770
S11326E0C114D104E104F104A1F01FDE882319F020
S11326F081E08093201781E0C81AD108E108F1082D
S1132700A1F71092211710922217109223171092FA
S1132710241780912017882331F00E94550781E007
S113272003C080E001C080E00F900FBEDF91CF9125
S1132730FF90EF90DF90CF9008958F929F92AF9289
S1132740BF92CF92DF92EF92FF921F93CF93DF93CA
S1132750EC016A017B01D5DD809027179090281742
S1132760A0902917B0902A1788819981AA81BB81EA
S1132770AC01BD014C0D5D1D6E1D7F1D88169906B3
S1132780AA06BB0660F4481759076A077B0798F442
S113279084169506A606B70680F010E013C0481705
S11327A059076A077B0758F084169506A606B706EC
S11327B040F010E007C010E005C011E003C011E0D4
S11327C001C011E0488359836A837B83112341F05C
S11327D0CB01BA01681979098A099B0940E06BDCCD
S11327E0D0DE811102C00E945507812FDF91CF9165
S11327F01F91FF90EF90DF90CF90BF90AF909F908C
S11328008F900895CF92DF92EF92FF926B017C013B
S1132810672B682B692B39F074DD40E0C701B601E2
S11328204ADCAFDE01C080E0811102C00E9455077E
S1132830FF90EF90DF90CF90089580911717882331
S113284021F081E080932017089510922017E091E1
S1132850D617F091D71720813181E091D617F091E6
S1132860D717838D948D8217930760F06091D617E4
S11328707091D717635E7F4F8091D6179091D717C9
S11328800E948A1E8091261701C08150282F30E0B3
S11328909BE0929FF001939FF00D1124E859F84EAC
S11328A09081992391F39BE0929FA001939F500DF7
S11328B01124DF010180F281E02D0480F581E02DF7
S11328C01296FC93EE9311974559584EE417F50769
S11328D029F444815581FD01528341839BE0929FF9
S11328E0F001939FF00D1124E859F84E0180F28114
S11328F0E02D208531853093D7172093D617809308
S113290026170895CF92DF92EF92FF926A017B011E
S11329106091D6177091D717625F7F4F0E949C0613
S113292041E0C701B601C7DBFF90EF90DF90CF9085
S113293008950F931F93CF93DF93FC01A091D617B3
S1132940B091D71770681E964D935D936D937C93E9
S11329505197A181B281C091D617D091D717BB8B63
S1132960AA8BC091D617D091D71716968D919C91AA
S113297017979D8B8C8B1696CD91DC911797809130
S1132980D6179091D7170E969D838C838091D61776
S11329909091D7170E9617969C938E931697A091A5
S11329A0D617B091D7175996FC93EE935897808118
S11329B08F5F808341E0C901B8017DDBDF91CF9156
S11329C01F910F910895CF93DF93FC01CB01BA01BE
S11329D0A181B281C091D617D091D717BB8BAA8B96
S11329E0C091D617D091D71716964D915C91179731
S11329F05D8B4C8B1696CD91DC9117974091D61731
S1132A005091D717425F5F4F5D834C834091D61737
S1132A105091D717425F5F4F17965C934E9316976A
S1132A20A091D617B091D7175996FC93EE93589767
S1132A3030813F5F3083222319F06FEF7FEFCB01AA
S1132A40422F39DBDF91CF910895CF93DF93DC01DF
S1132A501796ED91FC9118970084F185E02DA08DD7
S1132A60B18DC289D389848995899F838E83C489D2
S1132A70D589828993899D838C8311968D919C91AC
S1132A8012979F01225F3F4F8217930731F4848985
S1132A90958912969C938E931197118E108E8C911A
S1132AA081508C9380911717811152C0A485B585EC
S1132AB0C681D781808591859F838E83C085D1858A
S1132AC0868197819D838C8311968D919C91129719
S1132AD09F012E5F3F4F8217930731F480859185C4
S1132AE012969C938E931197158614868C9181501F
S1132AF08C93A28D809126178A1710F4A093261721
S1132B008BE08A9FD0011124A859B84E11960D90DC
S1132B10BC91A02DB783A68316964D915C9117970F
S1132B20518740871696CD91DC9117973D832C836E
S1132B3017963C932E931697A28D8A9FD001112449
S1132B40A859B84EB587A4878C918F5F8C931CC00D
S1132B5043E457E1DA011196CD91DC911297D38BBE
S1132B60C28B8E819F81958B848B8E819F81DC01AA
S1132B7015963C932E9314973F832E83518F408F49
S1132B80DA018C918F5F8C93928DE091D617F0913E
S1132B90D717828D891720F481E08093201701C014
S1132BA080E0DF91CF910895CF93DF93DC017068CB
S1132BB04D935D936D937C9313971896ED91FC91CF
S1132BC019971A964D915C911B9714968D919C912F
S1132BD0159716962D913C911797EC013F832E8300
S1132BE016968D919C91179714962D913C9115975B
S1132BF0EC013D832C83EA0189819A81A817B907E6
S1132C0031F416968D919C9117979A8389831B961C
S1132C101C921E921A97DA018C9181508C93A48590
S1132C20B585C681D781808591859F838E83C08534
S1132C30D185868197819D838C8311968D919C91FA
S1132C4012979F012E5F3F4F8217930731F48085BF
S1132C50918512969C938E931197158614868C9168
S1132C6081508C93A28D809126178A1710F4A0931B
S1132C7026178BE08A9FD0011124A859B84E1196CB
S1132C800D90BC91A02DB783A68316964D915C91AF
S1132C901797518740871696CD91DC9117973D83FE
S1132CA02C8317963C932E931697A28D8A9FD0015E
S1132CB01124A859B84EB587A4878C918F5F8C9343
S1132CC0928DE091D617F091D717828D891718F459
S1132CD081E080932017DF91CF9108950FB6F89487
S1132CE00F9220911F17FC012083409127175091C8
S1132CF028176091291770912A174183528363839F
S1132D0074830F900FBE089520911F17FC01208338
S1132D1040912717509128176091291770912A170D
S1132D20418352836383748308958F929F92AF92F9
S1132D30BF92CF92DF92EF92FF920F931F93CF93A4
S1132D40DF93FB010FB6F8940F92C0902717D09031
S1132D502817E0902917F0902A17DC0111960D919D
S1132D601D912D913C91149746015701801A910AA7
S1132D70A20AB30A40815181628173814F3FBFEF40
S1132D805B076B077B0739F1EC01B881A0911F1732
S1132D90BA1759F0C016D106E206F30630F01082D5
S1132DA011821282138281E017C084169506A6064A
S1132DB0B70658F4481959096A097B0940835183B5
S1132DC062837383A1DF80E007C0108211821282C4
S1132DD0138281E001C080E00F900FBEDF91CF919C
S1132DE01F910F91FF90EF90DF90CF90BF90AF9025
S1132DF09F908F90089581E080932017089580918B
S1132E00D6179091D717089580912517882331F00C
S1132E1080911717811104C082E0089581E008951C
S1132E2080E008950F931F93CF93DF93FC01892BC8
S1132E3009F477C0828DA091D617B091D7175A960E
S1132E409C91891708F063C046855785608971890C
S1132E50772394F0A091D617B091D7175A969C91E6
S1132E604AE050E060E070E0491B510961097109D2
S1132E7046875787608B718B248535854BE0849F0B
S1132E80C00111248859984E28173907B9F5EF0164
S1132E908F010E5F1F4FC8010E94D906E091D6171B
S1132EA0F091D717E28DEA8F809126178E1710F4D0
S1132EB0E09326178BE08E9FF0011124E859F84E19
S1132EC00180F281E02DFF83EE83268137813987EB
S1132ED02887A681B78115961C930E9314971783A0
S1132EE00683EA8D8E9FF0011124E859F84EFD8780
S1132EF0EC8780818F5F808381E016C0A091D61714
S1132F00B091D7175A968C91828F81E00DC095A508
S1132F10E091D617F091D717828D981720F080E0B2
S1132F2003C080E001C081E0DF91CF911F910F9138
S1132F3008950F931F93CF93DF93FC01892B09F41A
S1132F4049C086A5815086A7228D95A5291709F425
S1132F5043C0811143C0EF018F010E5F1F4FC801B1
S1132F600E94D906EDA5EA8F8AE090E0A0E0B0E0E7
S1132F708E1B9109A109B1098E879F87A88BB98BF4
S1132F80809126178E1710F4E09326178BE08E9FFE
S1132F90F0011124E859F84E0180F281E02DFF83FD
S1132FA0EE832681378139872887A681B7811596D4
S1132FB01C930E93149717830683EA8D8E9FF0015A
S1132FC01124E859F84EFD87EC8780818F5F808358
S1132FD081E005C080E003C080E001C080E0DF91B3
S1132FE0CF911F910F9108950F931F93CF93DF9368
S1132FF0FC01892B09F45AC085A5861708F4862F8D
S1133000928D891709F452C026A5213009F04EC0CB
S1133010828F4685578560897189772364F04AE0F9
S113302050E060E070E0481B51096109710946876E
S11330305787608B718B248535854BE0949FC00145
S113304011248859984E2817390781F5EF018F010B
S11330500E5F1F4FC8010E94D906EA8D8091261782
S11330608E1710F4E09326178BE08E9FF001112445
S1133070E859F84E0180F281E02DFF83EE8326812A
S1133080378139872887A681B78115961C930E93BB
S1133090149717830683EA8D8E9FF0011124E85953
S11330A0F84EFD87EC8780818F5F8083DF91CF911D
S11330B01F910F910895CF92DF92EF92FF92E091CA
S11330C0D617F091D7176685778580899189E09125
S11330D0D617F091D717A091D617B091D7175A9653
S11330E02C910F2EFAE0CF2ED12CE12CF12CF02DC7
S11330F0C21AD108E108F108C686D786E08AF18AA7
S1133100FF90EF90DF90CF9008958091D617909123
S1133110D717892B39F0E091D617F091D71786A5E8
S11331208F5F86A78091D6179091D71708954F92F5
S11331305F926F927F92AF92BF92CF92DF92EF92A3
S1133140FF920F931F93CF93DF93280139010FB69A
S1133150F8940F92E091D617F091D717C82FD0E0CA
S1133160EC0FFD1F83A9823079F1E091D617F0911D
S1133170D717CE01880F991F880F991FE80FF91FE1
S113318087A590A9A1A9B2A940955095609570957D
S1133190482359236A237B2347A750AB61AB72AB07
S11331A0E091D617F091D717EC0FFD1F81E083ABA8
S11331B0A114B104C104D10439F041E0C601B50140
S11331C00E945B100E9455070F900FBE0FB6F89433
S11331D00F92E114F104A1F0E091D617F091D71702
S11331E0CE01880F991F880F991FE80FF91F87A533
S11331F090A9A1A9B2A9F70180839183A283B38383
S1133200E091D617F091D717EC0FFD1F83A98230F8
S1133210E9F4E091D617F091D717CE01880F991FE2
S1133220880F991FE80FF91F87A590A9A1A9B2A932
S11332304094509460947094482259226A227B22CC
S113324047A650AA61AA72AA81E001C080E0209139
S1133250D6173091D717C20FD31F1BAA0F900FBEDA
S1133260DF91CF911F910F91FF90EF90DF90CF905E
S1133270BF90AF907F906F905F904F9008958F9222
S11332809F92AF92BF92EF92FF920F93CF93DF93EF
S1133290DC010FB6F8940F92E114F10489F0E62FE3
S11332A0F0E0EE0FFF1FEE0FFF1FE80FF91F87A4DA
S11332B090A8A1A8B2A8F70180829182A282B382C9
S11332C070E0FD01E60FF71F83A992E093AB023093
S11332D001F118F4013031F04DC0033079F10430BC
S11332E0D1F148C0660F771F660F771FFD01E60F07
S11332F0F71F87A490A8A1A8B2A8BA01A9014829D8
S113330059296A297B2947A750AB61AB72AB01E00D
S113331034C0660F771F660F771FFD01E60FF71F96
S113332047A550A961A972A94F5F5F4F6F4F7F4FA7
S113333047A750AB61AB72AB01E01FC0660F771FAC
S1133340660F771FFD01E60FF71F27A730AB41ABD0
S113335052AB01E012C0823079F0660F771F660F1E
S1133360771FFD01E60FF71F27A730AB41AB52AB28
S113337001E003C001E001C000E0813009F069C050
S11333801C96ED91FC911D971696CD91DC911797A3
S113339018968D919C9119979F838E831896CD9141
S11333A0DC91199716968D919C9117979D838C8328
S11333B0818192819D012E5F3F4F8217930731F4E3
S11333C018968D919C911997928381831D961C92D6
S11333D01E921C978081815080835A96EC915A9753
S11333E0809126178E1710F4E09326178BE08E9F9A
S11333F0F0011124E859F84E0180F281E02D17966E
S1133400FC93EE9316974681578119965C934E93DD
S11334101897C681D7813D832C83378326835A9698
S1133420EC915A978E9FF0011124E859F84E1D969D
S1133430FC93EE931C9780818F5F80835A969C91B6
S1133440E091D617F091D717828D891710F40E9456
S113345055070F900FBE802FDF91CF910F91FF90F2
S1133460EF90BF90AF909F908F9008958F929F920E
S1133470AF92BF92CF92DF92EF92FF920F93CF93CE
S1133480DF93DC01E114F10489F0E62FF0E0EE0FA4
S1133490FF1FEE0FFF1FE80FF91F87A490A8A1A834
S11334A0B2A8F70180829182A282B38270E0FD010A
S11334B0E60FF71F93A982E083AB023001F118F401
S11334C0013031F04DC0033079F10430D1F148C0FE
S11334D0660F771F660F771FFD01E60FF71F87A49E
S11334E090A8A1A8B2A8BA01A901482959296A2912
S11334F07B2947A750AB61AB72AB81E034C0660F48
S1133500771F660F771FFD01E60FF71F47A550A928
S113351061A972A94F5F5F4F6F4F7F4F47A750ABB1
S113352061AB72AB81E01FC0660F771F660F771F18
S1133530FD01E60FF71F27A730AB41AB52AB81E08B
S113354012C0923079F0660F771F660F771FFD0166
S1133550E60FF71F27A730AB41AB52AB81E003C0A6
S113356081E001C080E0913009F096C09091171776
S113357091115FC01C96ED91FC911D971696CD910B
S1133580DC91179718962D913C9119973F832E83C0
S11335901896CD91DC91199716962D913C91179719
S11335A03D832C83418152819D012E5F3F4F421701
S11335B0530731F418964D915C91199752834183C6
S11335C01D961C921E921C979081915090835A963E
S11335D0EC915A97909126179E1710F4E0932617B2
S11335E09BE09E9FF0011124E859F84E0180F2817E
S11335F0E02D1796FC93EE93169746815781199602
S11336005C934E931897C681D7813D832C8337836F
S113361026835A96EC915A979E9FF0011124E859FB
S1133620F84E1D96FC93EE931C9790819F5F9083B8
S113363021C063E477E1FB01C181D2815396DC931D
S1133640CE9352972E813F8155963C932E93549757
S11336504E815F819D01225F3F4FFA0135832483B0
S11336603F832E8359967C936E935897FB019081E8
S11336709F5F90835A962C91E091D617F091D717BB
S1133680928D921748F4C114D10419F091E0F60117
S1133690908391E090932017DF91CF910F91FF9049
S11336A0EF90DF90CF90BF90AF909F908F90089550
S11336B0009721F48091D6179091D7170FB6F894FC
S11336C00F9270E0FC01E60FF71F23A9223031F4BA
S11336D0FC01E60FF71F13AA81E001C080E00F9000
S11336E00FBE0895DC01E091E217F091E3178081A9
S11336F091E0811190E09C93911108C00780F085BE
S1133700E02D6081718182819381089560E070E091
S1133710CB010895CF92DF92EF92FF920F931F9304
S1133720FC014283538364837583938782870417E0
S1133730150726073707C0F00C191D092E093F0984
S113374086859785A089B189081719072A073B0739
S113375000F5BF016E5F7F4F8091E0179091E117F4
S11337600E949C0680E018C00C151D052E053F051F
S113377028F44C155D056E057F0568F4BF016E5F86
S11337807F4F8091E2179091E3170E949C0680E09E
S113379003C081E001C081E01F910F91FF90EF9081
S11337A0DF90CF9008950FB6F8940F928091DE17B2
S11337B09091DF17892BE9F48FEE97E10E94870639
S11337C084EE97E10E9487068FEE97E19093E317CA
S11337D08093E21784EE97E19093E1178093E017CA
S11337E040E067E08AE00E944A099093DF178093E3
S11337F0DE170F900FBE0895EF92FF920F93D3DF61
S11338008091DE179091DF17892B91F00F2EFCED3C
S1133810EF2EF7E1FF2EF02D03E020E030E040EC46
S113382050E060E873E088E591E00E94FD1001C07B
S113383080E00F91FF90EF9008958F929F92AF9246
S1133840BF92CF92DF92EF92FF920F931F93CF9389
S1133850DF93CDB7DEB727970FB6F894DEBF0FBE60
S1133860CDBFE091DE17F091DF17309781F16983C6
S11338702A833B834C835D839F838E836630F4F479
S1133880C3DA823069F400E0A7019601BE016F5FDC
S11338907F4F8091DE179091DF170E946D0918C049
S11338A000E020E030E0A901BE016F5F7F4F80910E
S11338B0DE179091DF170E946D090AC020E0A8016D
S11338C0BE016F5F7F4FCF010E941D0A01C080E0DF
S11338D027960FB6F894DEBF0FBECDBFDF91CF9110
S11338E01F910F91FF90EF90DF90CF90BF90AF901A
S11338F09F908F9008958F929F92AF92BF92CF9294
S1133900DF92EF92FF920F931F93CF93DF933BC00D
S11339100780F085E02D80809180A280B380C085EF
S1133920D1858E010E5F1F4FC8010E94D906EC8914
S1133930FD89CE0119958E8982FF25C08E859F85CC
S1133940A889B989880D991DAA1DBB1D88169906D9
S1133950AA06BB0670F48A839B83AC83BD83DB8792
S1133960CA87B8018091E2179091E3170E949C06E0
S11339700AC0C12CD12C760100E010E0A50194010D
S113398060E0CE015ADFE091E217F091E317808105
S11339908111BECF8091E0179091E1179093E317C6
S11339A08093E217F093E117E093E017DF91CF9152
S11339B01F910F91FF90EF90DF90CF90BF90AF9049
S11339C09F908F900895CF92DF92EF92FF92CF93C2
S11339D0DF93EC010E9487116B017C018091D81761
S11339E09091D917A091DA17B091DB17C816D906B0
S11339F0EA06FB0620F47FDF81E0888301C0188299
S1133A00C092D817D092D917E092DA17F092DB1748
S1133A10C701B601DF91CF91FF90EF90DF90CF9077
S1133A2008954F925F926F927F928F929F92AF927E
S1133A30BF92CF92DF92EF92FF920F931F93CF9397
S1133A40DF934B015C0129013A01E091E217F09107
S1133A50E3170780F085E02DC085D185CE0102965D
S1133A600E94D9068E8982FF1BC04E855F856889B6
S1133A707989480D591D6A1D7B1D750164019301E7
S1133A808201CE0147DE882369F0C12CD12C760156
S1133A9000E010E0A501940160E0CE01CEDE02C09A
S1133AA08E7F8E8BEC89FD89CE011995DF91CF91A4
S1133AB01F910F91FF90EF90DF90CF90BF90AF9048
S1133AC09F908F907F906F905F904F9008958F920A
S1133AD09F92AF92BF92CF92DF92EF92FF921F9389
S1133AE0CF93DF931F92CDB7DEB76B017C01142F08
S1133AF00E948111CE01019666DF4B015C01898130
S1133B0081112DC011110DC08C149D04AE04BF048D
S1133B1040F00E94C112A5019401C701B60181DFE2
S1133B2020C0112341F0E091E017F091E11780816A
S1133B3011E0811110E0B701A601481959096A0979
S1133B407B09212F8091DE179091DF170E94980B3B
S1133B500E94C112811105C00E94550702C00E9433
S1133B60C1120F90DF91CF911F91FF90EF90DF90E2
S1133B70CF90BF90AF909F908F900895AF92BF92D7
S1133B80CF92DF92EF92FF920F931F93CF93DF9325
S1133B90CDB7DEB728970FB6F894DEBF0FBECDBF02
S1133BA082C0898188230CF47EC0AE80BF80D50199
S1133BB01C968D919C911D97892B21F0C50102962D
S1133BC00E94D906CE010896FEDE8B019C01E98194
S1133BD00E2E000CFF0BEA30F10508F064C08827B4
S1133BE0EE58FF4F8F4F0C947034F5018689816035
S1133BF0868BCA80DB80EC80FD8046855785608992
S1133C0071894C0D5D1D6E1D7F1DC50183DD8823EB
S1133C1009F449C0D5015496ED91FC915597C5011D
S1133C201995F501868982FF3EC04A815B816C81CA
S1133C307D8186859785A089B1899A01AB01280F7A
S1133C40391F4A1F5B1FC12CD12C760100E010E004
S1133C5060E0C501F2DD27C0D50156968C915697D8
S1133C608E7F56968C931FC0F50186898160868B62
S1133C704A815B816C817D8146875787608B718B1C
S1133C80400F511F621F731F68017901C50142DD96
S1133C900AC0F501868981FD04C0C5010E944A0657
S1133CA002C08E7F868B20E030E0A901BE016F5FE9
S1133CB07F4F8091DE179091DF170E94580A81117F
S1133CC070CF28960FB6F894DEBF0FBECDBFDF913C
S1133CD0CF911F910F91FF90EF90DF90CF90BF9005
S1133CE0AF900895089584B1806884B985B18068DF
S1133CF085B9089583B1806883B90895F4DF2FEFFF
S1133D0080E792E0215080409040E1F700C000003D
S1133D10F1DFF5CFE8DF2FEF87EA91E6215080400D
S1133D209040E1F700C00000E5DFF5CF9093001864
S1133D308093FF1708959093FE178093FD170895BD
S1133D409093FC178093FB1708958093FA170895B6
S1133D50FC01608387E081838091FF1790910018B4
S1133D60928383838091FD179091FE1794838583BA
S1133D708091FB179091FC17968387838091FA17A3
S1133D808087CF01089590930218809301180895B5
S1133D9083E00E94D22683EC9EE10C94F7260895DA
S1133DA00E94FC2680934C19882341F088E893E014
S1133DB09F938F930E9449370F900F9081E098E171
S1133DC00E942B2790E09093021880930118089585
S1133DD0CC24CA94DC2C760101E021E041E050E0DF
S1133DE060E070E080915119909152190E94000492
S1133DF060FFEECFD5DF42E050E060E070E08091FC
S1133E004F19909150190E94A004E2CF809101189B
S1133E10909102180895EF92FF920F93082FB8DF44
S1133E20E12CF12C20E030E040EC50E068EB73E052
S1133E3088EE9EE10E94FD100F91FF90EF9008958F
S1133E4067D2882341F08AEC93E09F938F930E947A
S1133E5049370F900F900895EF92FF920F93082F18
S1133E60EFDFE12CF12C20E030E040EC50E061E0A9
S1133E7074E081E79FE10E94FD100F91FF90EF90A5
S1133E8008958DE094E09F938F938EE194E09F9347
S1133E908F930E9449370F900F900F900F900895C1
S1133EA04FD2882321F08FE294E00E945D3763E0D3
S1133EB070E080E090E00E94021457D28111E1DFAB
S1133EC063E070E080E090E00E94021474D290936A
S1133ED006188093051895D29093041880930318BC
S1133EE00895CC24CA94DC2C760101E021E044E05E
S1133EF050E060E070E080915119909152190E9455
S1133F00000462FFEECFCCDF48E050E060E070E0F8
S1133F1080914F19909150190E94A004E2CF809192
S1133F20031890910418089580910518909106182B
S1133F3008950E94ED039093501980934F190E94A5
S1133F40ED039093521980935119089541E060E074
S1133F5070E08CE290E00E94F70C909354198093E7
S1133F605319892B21F482E594E00E945D3741E0E6
S1133F7060E070E08CE290E00E94F70C9093561998
S1133F8080935519892B21F48AE794E00C945D37CA
S1133F9008950F9381E00E94110A90934E19809323
S1133FA04D19009749F000E020E030E0A90160E0FD
S1133FB070E00E946D0908C084EA94E09F938F9397
S1133FC00E9449370F900F900F9108956DC708957F
S1133FD053C708950F931F93CF93DF93CDB7DEB7E5
S1133FE064970FB6F894DEBF0FBECDBF81E00E9488
S1133FF0812C7FD3FBD59F938F9386EC94E09F9382
S11340008F930E944937F3D4F1D59F938F9389ED11
S113401094E09F938F930E9449378E010F5F1F4F47
S1134020C80179D3E3D51F930F939F938F9382EFA6
S113403094E09F938F930E944937C80188D3D6D5C3
S11340409F938F931F930F9386E095E09F938F9395
S11340500E944937A8016BE175E08CE395E0A5D592
S1134060C5D59F938F931F930F938BE195E09F93F7
S11340708F938CE395E09F938F938DE495E09F93CA
S11340808F930E94493796D3B1D59F938F9383E83A
S113409095E09F938F930E9449370FB6F894DEBF43
S11340A00FBECDBF81E080D4A1D59F938F9382E9C9
S11340B095E09F938F930E94493784EF91E07FD4DA
S11340C095D59F938F9381E08F9384EF8F9383EBA8
S11340D095E09F938F930E9449370FB6F894DEBF03
S11340E00FBECDBF1AE080E06BD3082F7FD59F931E
S11340F08F931F921F9383ED95E09F938F930E945C
S113410049370F900F900F900F900F900F90083039
S113411059F080E00E94E52C66E371E080E090E0D5
S11341200E9402141150F9F6083021F481E00E9433
S1134130C72C09C081E00E94D62C80E00E94A42CE8
S11341400E945507FDCF64960FB6F894DEBF0FBEEC
S1134150CDBFDF91CF911F910F91089581E0BBD224
S113416062E070E080E090E00E94021480E0B3D24C
S113417066E970E080E090E00E94021465D22ADFD4
S11341800FEF1FEF980146E150E067E078E180917E
S11341905319909154190E94620E882389F3E7E021
S11341A0F8E1828190E0982F88272381822B048173
S11341B010E0102F00272581022BC681D0E0DC2FD0
S11341C0CC272781C22BF0849F938F9383EF95E0B4
S11341D09F938F930E9449371F930F9389E096E032
S11341E09F938F930E944937DF93CF938CE196E09E
S11341F09F938F930E9449371F92FF928AE296E021
S11342009F938F930E94493783E00E94F72C67E0C5
S113421078E180E0FED2EAD49F938F938BE396E01B
S11342209F938F930E9449378DB79EB744960FB6DC
S1134230F8949EBF0FBE8DBFA3CFEF92FF920F9352
S1134240E12CF12C082F20E030E048E851E060E553
S113425076E08EEA90E20E94FD100F91FF90EF90BD
S1134260089584E0EADF84E00E94170383E00E945B
S1134270110281E0D0DD81E0EFDD82E00C94B50332
S1134280089580E00E942C2B85E00E94332C51DE9F
S11342905DDE7FDE9BDE609155197091561981E0D9
S11342A0DAD1DFCF0895EDDF8DE596E00E945D372A
S11342B00E944911FFCF6530F1F4FA0180818F73B8
S11342C090E0982F88272181822B90930A02809373
S11342D009028281F0E48F9FC0011124FA01238135
S11342E026952695822B909308028093070281E0FD
S11342F080931D180895643051F080E090E4909309
S113430008028093070290930A0280930902089599
S11343100F931F930BE511E220E034E244EF50E0E9
S113432060E087E20E94192D90931F1880931E1855
S113433021E0892B09F020E0822F1F910F9108952D
S113434080911E1890911F18009759F040E060E08A
S113435070E00E946A2D843031F410921D1880E0C0
S1134360089582E0089583E0089580911E18909145
S11343701F18009739F064E00E94B62D853021F0B3
S113438083E0089582E0089580E008956091090231
S113439070910A0280E090E00E944A3320E030E00D
S11343A048EC52E40E94D83320E038EF4FE756E45B
S11343B00C94B1320895EADF20E030E040E251E4A9
S11343C00E94D8330E941E33CB01089560910702E6
S11343D07091080280E090E00E944A3320E030E0CF
S11343E045E253E40E94D83320E038EF4FE756E427
S11343F00E94B13220E030E040E252E40C944C32AE
S11344000895E4DF20E030E040E251E40E94D83334
S11344100E941933CB0108950F931F93CF93DF9319
S11344201F921F92CDB7DEB78C0119822DC0E09187
S11344305718EC3250F481E08E0F80935718F0E057
S1134440E757F74E8A81808302C0109257188A81F9
S11344508A30D1F44091571850E0FA01E957F74EE9
S11344601082415051099E012F5F3F4F69E878E166
S113447080915A1890915B180E941E0E89818111B7
S11344800E94550710925718BE016E5F7F4FC801F6
S11344904DD6882361F20F900F90DF91CF911F9139
S11344A00F9108950F931F93CF93DF938C01EB012A
S11344B080915A1890915B180E94290DB80180E2EE
S11344C098E10E94E336209779F0E0E2F8E1019068
S11344D00020E9F7319780E290E091838083BE0168
S11344E080E298E10E94D836E0E2F8E1DF010D9025
S11344F00020E9F711978DE09AE011969C938E9332
S113450012961C9201900020E9F73197E052F8418D
S1134510AE2F80E298E1AC016A2F80915C189091F3
S11345205D18AFD5811111C008E215E020E030E03C
S11345304DE250E063EE78E180915A1890915B1857
S11345400E94620E83EE98E102C080E090E0DF9169
S1134550CF911F910F9108952F923F924F925F92A6
S11345606F927F928F929F92AF92BF92CF92DF927F
S1134570EF92FF920F931F93CF93DF935C01FC01A3
S113458001900020E9F731976F01C81AD90A5C2C11
S11345900F2EF3E08F2EF9E09F2EF02DE12CF12C5D
S11345A04C2C3701F40101811281E80109900020AB
S11345B0E9F72197C01BD10B3C2EF9E0CF16D104AB
S11345C058F0F4012080FEE02F1206C0B801C501A6
S11345D00E94B336892B09F5442D351408F44C2F69
S11345E050E0B801C5010E94EA36892B49F4F30171
S11345F0EE0FFF1FE60DF71DED5FF64F20800DC097
S11346008FEFE81AF80AE3E08E0E911CF1E1EF1641
S1134610F10439F66894222424F8822DDF91CF9195
S11346201F910F91FF90EF90DF90CF90BF90AF90CC
S11346309F908F907F906F905F904F903F902F90BE
S1134640089530DF89CF089580915A1890915B18AE
S11346500C94290D08958F929F92AF92CF92EF926E
S11346600F931F93CF93C82F8B0141E060E070E05C
S113467088EC90E00E94F70C90935B1880935A1892
S113468010935918009358180F2EFCE08F2EF2E265
S11346909F2EF02D6894AA24A6F86894CC24C6F81A
S11346A0E12C00E023E040E051EE60E070E08C2F6C
S11346B017D490935D1880935C18E7E0F1E0808153
S11346C080618083CF911F910F91EF90CF90AF9035
S11346D09F908F900895882331F0E8E0F1E0808185
S11346E08F7E80830895E8E0F1E08081806180839B
S11346F0089560E070E08EE896E0D4DEE3EEF8E141
S113470001900020E9F73197E35EF84181E0759765
S113471008F080E00895CF93DF93EC0160E070E04F
S11347208FE996E0BFDEE3EEF8E101900020E9F7BF
S1134730E45FF84139F463EE78E1CE010E94E33698
S113474080E002C0188281E0DF91CF910895FC01DE
S113475001900020E9F79F012151310928173907F9
S113476029F4BC018DEC96E06CCF089589E008959E
S1134770FC0101900020E9F79F012151310928171C
S1134780390729F4BC018CED96E05BCF089589E0EC
S11347900895FC0101900020E9F79F01215231099D
S11347A02817390729F4BC018BEE96E04ACF089507
S11347B089E0089560E070E08AE297E042CF0895CE
S11347C00F931F93E82FF0E0EE0FFF1FE150F74F18
S11347D06081718183E397E034DF811114C008E2C2
S11347E015E020E030E04DE250E063EE78E18091A6
S11347F05A1890915B180E94620E882321F083EE70
S113480098E1AADE03C083EE98E1A6DE1F910F9122
S113481008950F931F93CF93DF931F92CDB7DEB705
S1134820DB0111969C911197953108F0B4C099233E
S113483081F160E070E0272F30E0462F50E0FD0169
S1134840E40FF51F928192959F709A3010F0995C55
S113485001C0905DF901EC58F74E90832F5F3F4FF4
S1134860FD01E40FF51F92819F70492F50E04A30FB
S1134870510514F0995C01C0905DF901EC58F74EB4
S113488090837E5F6F5F11969C911197691798F2E0
S113489001C070E0E72FF0E0EC58F74E10824C9125
S11348A0811103C08CE397E002C08EE397E024E714
S11348B038E13F932F931F924F939F938F9382E4FA
S11348C097E09F938F9386EB98E19F938F930E9439
S11348D08D3760E070E086EB98E1B3DE0FB6F894B4
S11348E0DEBF0FBECDBF811159C008E215E020E044
S11348F030E04DE250E063EE78E180915A189091F7
S11349005B180E94620E882309F447C083EE98E185
S113491023DE8E3009F042C087E0898380915818E5
S113492090915918892BA9F1BE016F5F7F4F83EED7
S113493098E168D180935E18E981F0E0ED51F74E7B
S1134940DF010D900020E9F71197AE1BBF0BAA23DE
S113495091F0BB27CD0101979C0112F42F5F3F4FCB
S11349603595279520935F18AF014F5F5F4F64E142
S113497080E698E173D101E010E020E030E046E108
S113498050E06EE578E180915818909159180E9492
S1134990590D8EE003C084E101C080E00F90DF91E7
S11349A0CF911F910F910895813019F062E577E05E
S11349B002C06BE278E086E597E043CE08959F93CA
S11349C08F9387E897E09F938F9386EB98E19F936B
S11349D08F930E948D3760E070E086EB98E131DEC2
S11349E00F900F900F900F900F900F9008952F92AB
S11349F03F924F925F926F927F928F929F92AF926B
S1134A00BF92CF92DF92EF92FF920F931F93CF93B7
S1134A10DF93CDB7DEB7A0970FB6F894DEBF0FBE15
S1134A20CDBF64EB77E080EC97E03CDD95DD811150
S1134A30A3C080E2E2E2F2E0DE01119601900D9261
S1134A408A95E1F79E012F5F3F4F6901E12CF12C1C
S1134A500F2EFCECAF2EF7E0BF2EF02D06EB18E185
S1134A600F2EF5EE4F2EF7E05F2EF02D0F2EFCEFFC
S1134A708F2EF7E09F2EF02D0F2EF6E16F2EF8E02B
S1134A807F2EF02D3E2C2F2CFF92EF92BF92AF92EF
S1134A901F930F930E948D3760E070E0C80102DD20
S1134AA05BDD0F900F900F900F900F900F9081117E
S1134AB063C032E03E15E8F4F60183818F9382816E
S1134AC08F9381818F9380818F93FF92EF925F9276
S1134AD04F921F930F930E948D3760E070E0C801DE
S1134AE0E1DC3ADD0FB6F894DEBF0FBECDBF811115
S1134AF043C02F923F929F928F921F930F930E94D5
S1134B008D3760E070E0C801CDDC26DD0F900F909A
S1134B100F900F900F900F9081112EC02F923F9203
S1134B207F926F921F930F930E948D3760E070E025
S1134B30C801B8DC11DD0F900F900F900F900F900B
S1134B400F90811119C03FEFE31AF30A84E0C80EF5
S1134B50D11C98E0E916F10409F094CF60E070E00C
S1134B608EE298E09FDCF8DC811106C060E070E022
S1134B708FE398E097DCF0DCA0960FB6F894DEBFE4
S1134B800FBECDBFDF91CF911F910F91FF90EF909A
S1134B90DF90CF90BF90AF909F908F907F906F9059
S1134BA05F904F903F902F900895EF92FF920F9354
S1134BB01F93CF93DF93EC018B017A0181E0F4DE44
S1134BC081110DC0CE01D4DD811109C0C801E1DD20
S1134BD0811105C0C701BBDD811101C0EBDDDF918F
S1134BE0CF911F910F91FF90EF90089590E0FC01F9
S1134BF0EE0FFF1F8E0F9F1FFC01ED5FF64F8181AB
S1134C0092810895DC01009729F1FB012081FC01C8
S1134C1001900020E9F73197E81BF90B822F90E00F
S1134C20E817F907C8F080E008C0880F382F330F61
S1134C30330F830F8053890F2F5FFD01E20FF11DA6
S1134C40908130ED390F3A3010F49111EECFFB0121
S1134C502083089580E0089580E008950F931F93C2
S1134C60CF93DF93DC01EA012097E1F1FA0101908F
S1134C700020E9F73197E41BF50B329710F532C0A9
S1134C808D01040F151F30E0AE01420F531FFA01CE
S1134C909081913428F09753592F5295507F03C037
S1134CA0592F5295507F2C0F3D1FF901918191345A
S1134CB010F0975301C09053950FF80190838F5FC4
S1134CC001C080E0282F220F482F50E0FE01019000
S1134CD00020E9F73197EC1BFD0B4E175F0710F42A
S1134CE08613CECFDF91CF911F910F9108958091BC
S1134CF01319860F8093131990911619913079F036
S1134D0028F09230A9F0933019F108956F3F09F01B
S1134D1048C01092131981E08093161908956638DB
S1134D2009F03FC01092121982E080931619089579
S1134D30E091121981E08E0F80931219F0E0E05F88
S1134D40F64E6083823069F583E0809316190895E6
S1134D509091121921E0290F20931219963009F528
S1134D6081110EC0E0E1F9E1808190E0982F88275D
S1134D702181820F911D909318198093171904C0F3
S1134D80109218191092171910921619E09114190B
S1134D90F0911519309729F08091171990911819ED
S1134DA0199508958F929F92AF92CF92EF920F939D
S1134DB00F2EF7E78F2EF6E29F2EF02D6894AA248B
S1134DC0A4F86894CC24C4F8E12C00E023E040E883
S1134DD055E260E070E084D090931A198093191919
S1134DE00F91EF90CF90AF909F908F9008959093F4
S1134DF01519809314190895CF93DF93CDB7DEB7B7
S1134E0029970FB6F894DEBF0FBECDBF89E0E2E468
S1134E10F2E09E012F5F3F4FD90101900D928A95D8
S1134E20E1F710921819109217198091191990919D
S1134E301A19009731F0422F532F69E022D180E0F4
S1134E4001C082E029960FB6F894DEBF0FBECDBF35
S1134E50DF91CF91089520911719309118192115D8
S1134E60310529F4FC011182108281E00895FC01CE
S1134E703183208380E0089565360CF064E66C3954
S1134E800CF46CE996EF6902B00111246854744F74
S1134E90811105C0709329016093280108957093CE
S1134EA02B0160932A010895EAE0F1E08081886192
S1134EB080838FE39CE9909327018093260160E02F
S1134EC080E0DADF60E081E0D7DFE0E2F1E08081DA
S1134ED0826A8083E1E2F1E080818A6180830895BF
S1134EE02F923F924F925F926F927F928F929F92F6
S1134EF0AF92CF92EF92FF920F931F93CF93DF93D2
S1134F00CDB7DEB7F82E2A013B0188E090E00E947D
S1134F109B348C018F2D90E0FC01EE0FFF1FE55EAA
S1134F20F64E118300830115110509F46DC0880F35
S1134F30991FFC01E55FFD4F80819181D8018D931C
S1134F409C938C2D90E0880F991F880F991F0E94C5
S1134F509B341C0186E090E00E949B347C014C2D24
S1134F60B101F4D6F801F582E4828A2D90E0880F2D
S1134F70991F880F991F0E949B341C0186E090E0C2
S1134F800E949B347C014A2DB101E0D6D8011396CE
S1134F90FC92EE92129717969C928E921697FFB6F9
S1134FA0F894ED91FC91119736978081826080830B
S1134FB08D909C90C301B2010E944A3320E030E0FE
S1134FC040E051E40E94D8339B01AC0160E074E2FC
S1134FD084E79BE40E94B13220E030E040E85FE3E4
S1134FE00E944C320E941E33F40132976083D80130
S1134FF0ED91FC911197359788E98083ED91FC91AF
S1135000349786E08083FFBEC801DF91CF911F9162
S11350100F91FF90EF90CF90AF909F908F907F90E3
S11350206F905F904F903F902F900895CF93DF93B0
S1135030DC01892B01F11296ED91FC911397938178
S113504082812581981B922384819817B1F08381F2
S113505026952823C081D181C20FD11D68838F5F1B
S1135060958189238383ED91FC91359780818062BA
S1135070808380E003C081E001C082E0DF91CF91B2
S11350800895EF92FF920F931F93CF93DF937C01C8
S1135090009709F441C0DC011296ED91FC9113973D
S11350A093818281981B858198238481891B86172B
S11350B0A8F1662341F1842F952FDC016150462F1E
S11350C050E04F5F5F4F480F591FE701EA81FB81B2
S11350D0938182812581981B92238481981779F08A
S11350E08C91938126952923608171818B01020F14
S11350F0111DE80188839F5F85819823938311960E
S1135100A417B50711F7D701ED91FC91359780816C
S11351108062808380E003C081E001C082E0DF918F
S1135120CF911F910F91FF90EF9008950097D1F0C8
S1135130DC011496ED91FC91159793818281981767
S113514099F09281858186958923A081B181A80FE8
S1135150B11D8C91DB018C939F5F85819823928391
S113516080E0089581E0089583E008951F920F92EE
S11351700FB60F9211240BB60F922F933F934F93B8
S11351805F936F937F938F939F93AF93BF93CF93CB
S1135190DF93EF93FF93A0911B19B0911C19109703
S11351A011F16091C6001496ED91FC9115979381CD
S11351B082812581981B92238481981761F08381D1
S11351C026952823C081D181C20FD11D68838F5FAA
S11351D09581892383831696ED91FC9117973097D7
S11351E011F0CD011995FF91EF91DF91CF91BF910E
S11351F0AF919F918F917F916F915F914F913F916B
S11352002F910F900BBE0F900FBE0F901F9018950B
S11352101F920F920FB60F9211240BB60F922F9379
S11352208F939F93AF93BF93EF93FF93E0911B19D9
S1135230F0911C193097B9F00280F381E02D93812D
S113524082819817B1F092818581282F2695292390
S1135250A081B181A20FB11D2C919F5F892382830C
S11352602093C6000BC0E1ECF0E080818F7D808349
S113527005C0E1ECF0E080818F7D8083FF91EF91A8
S1135280BF91AF919F918F912F910F900BBE0F9073
S11352900FBE0F901F9018951F920F920FB60F928A
S11352A011240BB60F922F933F934F935F936F93F9
S11352B07F938F939F93AF93BF93CF93DF93EF939A
S11352C0FF93A0911D19B0911E19109711F16091CF
S11352D0CE001496ED91FC911597938182812581DE
S11352E0981B92238481981761F083812695282343
S11352F0C081D181C20FD11D68838F5F95818923BD
S113530083831696ED91FC911797309711F0CD0198
S11353101995FF91EF91DF91CF91BF91AF919F913B
S11353208F917F916F915F914F913F912F910F904A
S11353300BBE0F900FBE0F901F9018951F920F92E7
S11353400FB60F9211240BB60F922F938F939F9346
S1135350AF93BF93EF93FF93E0911D19F0911E1942
S11353603097B9F00280F381E02D93818281981700
S1135370B1F092818581282F26952923A081B181BE
S1135380A20FB11D2C919F5F892382832093CE00AD
S11353900BC0E9ECF0E080818F7D808305C0E9ECEF
S11353A0F0E080818F7D8083FF91EF91BF91AF9179
S11353B09F918F912F910F900BBE0F900FBE0F9066
S11353C01F9018951F920F920FB60F9211240BB6CF
S11353D00F922F933F934F935F936F937F938F938A
S11353E09F93AF93BF93CF93DF93EF93FF93A091DA
S11353F01F19B0912019109711F16091D6001496DD
S1135400ED91FC911597938182812581981B9223BC
S11354108481981761F0838126952823C081D181E6
S1135420C20FD11D68838F5F95818923838316966C
S1135430ED91FC911797309711F0CD011995FF91DB
S1135440EF91DF91CF91BF91AF919F918F917F9118
S11354506F915F914F913F912F910F900BBE0F90E1
S11354600FBE0F901F9018951F920F920FB60F92B8
S113547011240BB60F922F938F939F93AF93BF93E7
S1135480EF93FF93E0911F19F09120193097B9F031
S11354900280F381E02D938182819817B1F092818B
S11354A08581282F26952923A081B181A20FB11DC2
S11354B02C919F5F892382832093D6000BC0E1ED5A
S11354C0F0E080818F7D808305C0E1EDF0E0808194
S11354D08F7D8083FF91EF91BF91AF919F918F91C9
S11354E02F910F900BBE0F900FBE0F901F90189529
S11354F01F920F920FB60F9211240BB60F922F9397
S11355003F934F935F936F937F938F939F93AF9347
S1135510BF93CF93DF93EF93FF93A0912119B091A1
S11355202219109711F1609136011496ED91FC91B6
S11355301597938182812581981B922384819817E2
S113554061F0838126952823C081D181C20FD11DAA
S113555068838F5F9581892383831696ED91FC91EF
S11355601797309711F0CD011995FF91EF91DF91C5
S1135570CF91BF91AF919F918F917F916F915F91E7
S11355804F913F912F910F900BBE0F900FBE0F9034
S11355901F9018951F920F920FB60F9211240BB6FD
S11355A00F922F938F939F93AF93BF93EF93FF9398
S11355B0E0912119F09122193097B9F00280F3811A
S11355C0E02D938182819817B1F092818581282FF3
S11355D026952923A081B181A20FB11D2C919F5F33
S11355E089238283209336010BC0E1E3F1E08081BB
S11355F08F7D808305C0E1E3F1E080818F7D80832E
S1135600FF91EF91BF91AF919F918F912F910F9047
S11356100BBE0F900FBE0F901F901895CF93DF9382
S11356201F92CDB7DEB7BE016F5F7F4F8091231904
S1135630909124197BDD8111F6CF898190E00F9040
S1135640DF91CF910895682F8091231990912419A7
S1135650EDDC80E090E008958F929F92AF92CF921C
S1135660EF920F93812C912C6894AA24A7F8689444
S1135670CC24C7F8E12C00E023E040E051EE60E0E8
S113568070E02EDC9093241980932319EBE5F9E163
S113569083E192E091838083938382830F91EF90DF
S11356A0CF90AF909F908F90089590E0FC01EE0F03
S11356B0FF1FE80FF91FEE0FFF1FEB5DF64E23816E
S11356C021111FC09C01220F331FF901E80FF91F9C
S11356D0EE0FFF1FEB5DF64EA081B1814C91F901F5
S11356E0E80FF91FEE0FFF1FEB5DF64E81E090E02F
S11356F0028002C0880F991F0A94E2F7842B8C93CE
S11357000895FC01EE0FFF1FDF01A80FB91FAA0FB8
S1135710BB1FAB5DB64E0D90BC91A02D2C91E80F34
S1135720F91FEE0FFF1FEB5DF64E81E090E0028063
S113573002C0880F991F0A94E2F7809582238C9304
S1135740089590E0FC01EE0FFF1FE80FF91FEE0F24
S1135750FF1FEB5DF64E2381211120C09C01220F17
S1135760331FF901E80FF91FEE0FFF1FEB5DF64E33
S1135770A081B1814C91F901E80FF91FEE0FFF1FD1
S1135780EB5DF64E81E090E0028002C0880F991F25
S11357900A94E2F7809584238C930895FC01EE0F1C
S11357A0FF1FDF01A80FB91FAA0FBB1FAB5DB64EC9
S11357B00D90BC91A02D2C91E80FF91FEE0FFF1F47
S11357C0EB5DF64E81E090E0028002C0880F991FE5
S11357D00A94E2F7822B8C930895CC24C394D12CA1
S11357E06894BB24B2F8C5E2D9E110E08C81813021
S11357F081F018F1823061F5E881F9812081C601D8
S11358000A8002C0880F991F0A94E2F782278083D6
S11358101FC08D818F5F863010F48D8319C01D8267
S1135820E881F9812081C6010A8002C0880F991F8E
S11358300A94E2F7822780830BC00D81002329F0AC
S1135840812F7FDF01500D8303C0BC82812F2DDFA8
S11358501F5F2696143051F66CE070E080E090E013
S11358600E940214C0CFEF92FF920F931F93CF9325
S1135870DF93082F80E487B9C5E2D9E10F2EF8E25F
S1135880EF2EF12CF02DF982E88286E08A831B82C8
S113589014E01C8380E009DF80E887B9FF82EE8290
S11358A087E0888719861A8781E0FFDE80E283BB60
S11358B084E390E09D878C8785E08E871F86188B14
S11358C082E0F3DE80E18093010182E091E09B8B32
S11358D08A8B1C8B1D8A1E8B83E0E7DEE12CF12C66
S11358E020E030E040EC50E066E379E08DEE9BE2AE
S11358F00E94FD10DF91CF911F910F91FF90EF90C7
S11359000895CF93DF9390E0FC01EE0FFF1FDF01BA
S1135910A80FB91FAA0FBB1FAB5DB64ECD91DC918A
S11359201197488121E030E012960C90129702C042
S1135930220F331F0A94E2F724272883FD0181E014
S11359408483DF91CF910895CF93DF9390E0FC019E
S1135950EE0FFF1FDF01A80FB91FAA0FBB1FAB5D1E
S1135960B64ECD91DC911197488121E030E012963A
S11359700C90129702C0220F331F0A94E2F72427D7
S11359802883FD0182E08483DF91CF910895282F3D
S113599030E0F901EE0FFF1FE20FF31FEE0FFF1FC0
S11359A0EB5DF64E93E09483CCCE0895282F30E03F
S11359B0F901EE0FFF1FE20FF31FEE0FFF1FEB5D68
S11359C0F64E94E0948371CE089590E0FC01EE0FBE
S11359D0FF1FDF01A80FB91FAA0FBB1FAB5DB64E97
S11359E026E015962C931597FD011482089590E0F6
S11359F0FC01EE0FFF1FDF01A80FB91FAA0FBB1F89
S1135A00AB5DB64E15961C921597FD011482089550
S1135A1080914B1981110CC08CE08093B8008FEFFA
S1135A208093BB0084E08093BC0081E080934B1999
S1135A300895AF92BF92CF92DF92EF92FF920F93AD
S1135A401F93CF93DF93A82EB62E69017A0184E0C9
S1135A5090E071D7EC01892B61F1A88281E0B81242
S1135A6012C0C701B60120EA36E841E050E016D77B
S1135A70DA01C9014097A109B109B695A79597958F
S1135A808795898311C0C701B60120E83AE146E051
S1135A9050E004D7DA01C9014097A109B109B695CC
S1135AA0A7959795879589831B830A838C2F9D2FB0
S1135AB002C080E090E0DF91CF911F910F91FF90A1
S1135AC0EF90DF90CF90BF90AF9008958091BC008D
S1135AD081700895FF920F931F93CF93DF930097E4
S1135AE0D1F14A30D0F5F42E8B01EC01EFDF8111B6
S1135AF036C080913E1990913F19C817D90741F0DB
S1135B0087DF89818093B800D0933F19C0933E19F1
S1135B1081E08F0D809340198881880F809341190B
S1135B20FF2089F0F801A2E4B9E14FEF4F0D642F93
S1135B3070E0CB010196B801680F791F81918D93B4
S1135B40E617F707D9F788EF8093210285EA809357
S1135B50BC0084E005C086E003C087E001C082E0A9
S1135B60DF91CF911F910F91FF9008951F93CF93D1
S1135B70DF93009729F16B3028F5162FEC01A6DF8F
S1135B80811122C080913E1990913F19C817D907FD
S1135B9041F03EDF89818093B800D0933F19C093D0
S1135BA03E19109340198881880F816080934119B0
S1135BB088EF8093210285EA8093BC0085E005C0CC
S1135BC086E003C087E001C082E0DF91CF911F919E
S1135BD008951F920F920FB60F9211240BB60F92D5
S1135BE02F933F934F935F936F937F938F939F93E1
S1135BF0AF93BF93EF93FF93E091B9008E2F90E0A2
S1135C00FC013897E135F10508F075C08827E458A0
S1135C10FF4F8F4F65C610923D19E0913D19809159
S1135C204019E81770F481E08E0F80933D19F0E07D
S1135C30EF5BF64E80818093BB0085E88093BC00C7
S1135C4072C084E98093BC0080913E1990913F1901
S1135C50DC011296ED91FC911397309709F463C01F
S1135C6020E040E050E064E019955DC0E0913D190A
S1135C7081E08E0F80933D198091BB00F0E0EF5BD3
S1135C80F64E80838091B900803411F410923D194E
S1135C9020913D1930E08091401990E00197281738
S1135CA0390724F485EC8093BC003DC085E88093DB
S1135CB0BC0039C08091BB00E0913D19F0E0EF5B7E
S1135CC0F64E808384E98093BC0080913E199091C4
S1135CD03F19DC011296ED91FC911397309719F15D
S1135CE02091401941E459E165E019951CC085EA09
